:020000040800F2
:10000000205E0020B5020008A11F0008EB1B0008BD
:10001000DD1C00080D0900088D2500080000000007
:100020000000000000000000000000001D020008A9
:100030001109000800000000610200087F2100088B
:10004000CF020008CF020008CF020008CF0200084C
:10005000CF020008CF020008CF020008CF0200083C
:10006000CF020008CF020008CF020008CF0200082C
:10007000CF020008CF020008CF020008CF0200081C
:10008000CF020008CF020008CF020008CF0200080C
:10009000CF020008CF020008CF020008CF020008FC
:1000A000CF020008CF020008CF020008CF020008EC
:1000B000CF020008CF020008CF020008CF020008DC
:1000C000CF020008CF020008CF020008CF020008CC
:1000D000CF0200080D2500081D250008CF020008EA
:1000E000CF020008CF020008CF020008CF020008AC
:1000F000CF020008CF020008CF020008CF0200089C
:10010000CF020008CF020008CF020008CF0200088B
:10011000CF020008CF020008CF020008CF0200087B
:10012000CF020008CF020008CF020008CF0200086B
:1001300000F002F800F062F80AA090E8000C824497
:100140008344AAF10107DA4501D100F057F8AFF274
:10015000090EBAE80F0013F0010F18BFFB1A43F0A5
:1001600001031847AC4E0000CC4E00000A444FF08B
:10017000000C10F8013B13F0070408BF10F8014B06
:100180001D1108BF10F8015B641E05D010F8016B4B
:10019000641E01F8016BF9D113F0080F1EBF10F8AF
:1001A000014BAD1C0C1B09D16D1E58BF01F801CBD2
:1001B000FAD505E014F8016B01F8016B6D1EF9D555
:1001C0009142D6D37047000000230024002500266A
:1001D000103A28BF78C1FBD8520728BF30C148BFAA
:1001E0000B607047642900F0BD80732900F04283E2
:1001F000002070471FB51FBD10B510BD00F058FBA3
:100200001146FFF7F7FF02F051FC00F076FB03B454
:10021000FFF7F2FF03BC02F048FA0000224B196816
:100220000868B0E8F00F80F30988BFF36F8F4FF0D4
:10023000000080F311884EF00D0E704700000000A2
:1002400006480068006880F3088862B661B6BFF3AC
:100250004F8FBFF36F8F00DF00BF00BF08ED00E0DE
:10026000EFF30980BFF36F8F0F4B1A6820E9F00F8F
:10027000106008B54FF0500080F31188BFF34F8F26
:10028000BFF36F8F03F066FF4FF0000080F311881B
:10029000BDE8084019680868B0E8F00F80F30988E5
:1002A000BFF36F8F704700BF28000020EFF3058079
:1002B000704700000948804709480047FEE7FEE70D
:1002C000FEE7FEE7FEE7FEE7FEE7FEE7FEE7FEE706
:1002D00004480549054A064B704700009121000873
:1002E0003101000820580020205E0020205A002004
:1002F000205A0020704700000FB4044910B503AA2B
:10030000029800F0BBFA10BC5DF814FB200000203E
:1003100070B50C460546012A05D02878800600D520
:10032000EA69002302E0012305E05B1C934202D24C
:10033000E05C0028F9D1A869E618C01AA861286A0B
:10034000184428622846AFF3008004E0D5E9012173
:1003500014F8010B9047B442F8D32846AFF300805D
:1003600070BD00002DE9F041064600241068752993
:10037000314616A510D0AFF30080002802DA4042C3
:1003800013A507E031688A0701D512A502E04907E5
:1003900004D511A5012401E0AFF3008000210A2259
:1003A00006F1240709E0B0FBF2FCB0FBF2F302FB1C
:1003B0001C00303078541846491C0028F3D12346DD
:1003C0002A463046BDE8F04100F0D1B900000000F7
:1003D0002D0000002B000000200000002DE9F05F40
:1003E000894604464FF0000ADFF824B1FB44C0F808
:1003F00020A02046E168884700287DD0252806D027
:10040000D4E901219047206A401C2062F1E70025D1
:100410005F462046E16888472028064607DB312EE4
:1004200005D2B81910F8200C08B10543F1E7A80768
:1004300001D525F00405C4F81CA00027C4F818A0B5
:100440002A2E09D0304602F029F938B304EB870888
:10045000303EC8F8186019E059F8041B204604EB38
:1004600087029161E1688847012F064618D1E0694B
:10047000002820DA25F020051DE0D8F8180000EB50
:10048000800006EB40003038C8F818002046E168CC
:100490008847064602F002F90028EED1012F0AD063
:1004A0002E2E08D12046E16888477F1C0646022F81
:1004B00045F02005C4DBA069002803DA404245F07E
:1004C0000105A061E80701D025F01005A6B1A6F14D
:1004D0004100192802D8203645F400654A463146C5
:1004E000204625604D46FFF77DFE60B1012807D00C
:1004F000ED1D25F0070000E007E000F1080978E7AE
:1005000005F1040975E730467AE7206ABDE8F09FF7
:10051000384B000030B505460B462A4613F8014B10
:1005200012F8010B08B1A042F8D01CB1002802D08B
:100530006D1CF1E7284630BD40EA0103024630B5A4
:100540009B0710D14FF0013400E008C208C91D1B01
:100550009D4315EAC41FF8D013F0FF0102F8011BF8
:100560000DD01B0AF8E711F8013B002B02F8013B04
:1005700005D011F8013B002B02F8013BF3D130BD4F
:1005800010B5431C02E010F8011B71B18107FAD1CC
:100590004FF0013202C88C1A8C4314EAC211F9D010
:1005A000C01A0A0603D0C01E10BDC01A10BD0A042E
:1005B00001D0801E10BD0902FCD0401E10BD421E9D
:1005C00012F8013F002BFBD111F8013B002B02F880
:1005D000013BF9D17047032A40F2308010F0030C40
:1005E00000F0158011F8013BBCF1020F624498BF86
:1005F00011F801CB00F8013B38BF11F8013BA2F123
:10060000040298BF00F801CB38BF00F8013B11F09D
:10061000030300F02580083AC0F0088051F8043B3D
:10062000083A51F804CBA0E80810F5E7121D5CBFAA
:1006300051F8043B40F8043BAFF30080D20724BFDD
:1006400011F8013B11F801CB48BF11F8012B24BF71
:1006500000F8013B00F801CB48BF00F8012B7047C0
:1006600010B5203AC0F00B80B1E81850203AA0E84D
:100670001850B1E81850A0E81850BFF4F5AF5FEA81
:10068000027C24BFB1E81850A0E8185044BF18C934
:1006900018C0BDE810405FEA827C24BF51F8043BDB
:1006A00040F8043B08BF7047D20728BF31F8023B2F
:1006B00048BF11F8012B28BF20F8023B48BF00F8C3
:1006C000012B704702F0FF0343EA032242EA024291
:1006D00000F002B84FF000020429C0F0128010F0C0
:1006E000030C00F01B80CCF1040CBCF1020F18BF0E
:1006F00000F8012BA8BF20F8022BA1EB0C0100F0A1
:100700000DB85FEAC17C24BF00F8012B00F8012B73
:1007100048BF00F8012B70474FF0000200B51346A8
:1007200094469646203922BFA0E80C50A0E80C5011
:10073000B1F12001BFF4F7AF090728BFA0E80C50C2
:1007400048BF0CC05DF804EB890028BF40F8042BBB
:1007500008BF704748BF20F8022B11F0804F18BF28
:1007600000F8012B704770477047704770472DE9BC
:10077000F0470D4699469246044600F12408016868
:10078000880604D5E06921F01001216000E0012015
:10079000A84201DD471B00E00027A1697A1902EB9E
:1007A0000900081AA0612078C00602D42046AFF3E1
:1007B0000080002608E0D4E901211AF806009047DD
:1007C000206A401C761C20624E45F4DB2078C0066F
:1007D0000AD52046AFF3008006E0D4E9012130209D
:1007E0009047206A401C2062381EA7F10107F4DC04
:1007F00007E0D4E9012118F805009047206A401C61
:100800002062281EA5F10105F3DC2046AFF300802D
:100810002078000602D50220BDE8F0870120FBE722
:1008200001694A1C02610878704700B58FB0CDE9B4
:1008300001310021059105497944CDE903101146A4
:100840006846FFF7CBFD0FB000BD0000E5FFFFFFDE
:1008500010B5436913B1AFF3008001E0FFF758FD15
:10086000012010BD127800F124010A7000224A70A4
:100870000122EDE711684FF0FF32E9E7074B70B551
:100880000D467B44FFF7D1FF0446284600F008F8E8
:1008900010B14FF0FF3070BD204670BD0B2200003C
:1008A000007B00F08000704700487047BC57002074
:1008B0007546FFF7F9FFAE4605006946534620F03E
:1008C0000700854618B020B5FFF702FDBDE82040BF
:1008D0004FF000064FF000074FF000084FF0000BFC
:1008E00021F00701AC46ACE8C009ACE8C009ACE8AF
:1008F000C009ACE8C0098D46704710B50446AFF397
:1009000000802046BDE81040FFF781BC00BFFEE735
:10091000704731B5002400F0AFF9044600BF00F085
:10092000ABF9001B00998842F9D338BD2DE9F8478F
:1009300002460024002000258446002700237BE196
:100940004FF0010808FA03F4D1F8008008EA040027
:10095000A0427DD1DFF8ECA2D1F80480A8EB0A090F
:10096000D0453AD014DCB8F1030F50D009DCB8F10F
:10097000000F31D0B8F1010F1CD0B8F1020F49D1EE
:1009800020E0B8F1110F18D0B8F1120F42D11EE0DB
:10099000B9F5881F25D006DCB9F5803F20D0B9F520
:1009A000801F37D11AE0B9F5001F18D0B9F5041F20
:1009B00030D117E0D1F80CC02DE0D1F80C8008F14F
:1009C000040C28E0D1F80C8008F1080C23E0D1F8E1
:1009D0000C8008F10C0C1EE000BF00BF00BF00BF80
:1009E00000BF00BFD1F80880B8F1000F02D14FF06E
:1009F000040C0BE0D1F80880B8F1010F03D14FF0DF
:100A0000080C146102E04FF0080C546103E04FF051
:100A1000000C00E000BF00BFFF2801D8904601E0B5
:100A200002F104084646FF2802D84FEA830803E093
:100A3000A3F108084FEA88084746D6F800804FF02F
:100A40000F0909FA07F928EA09080CFA07F900E082
:100A50007AE048EA0908C6F80080D1F8048008F076
:100A60008058B8F1805F6FD100BFDFF8DC81D8F823
:100A7000188048F00108DFF8D091C9F81880C846FE
:100A8000D8F8188008F00108CDF8008000BF00BF3A
:100A90004FEAB9384FEA930958F829504FEA83785A
:100AA0004FEA18794FF00F0808FA09F825EA080507
:100AB000DFF89881424502D14FF0000824E0DFF8CA
:100AC0009081424502D14FF001081DE0DFF884819A
:100AD000424502D14FF0020816E0DFF87C81424522
:100AE00002D14FF003080FE0DFF87081424502D1D8
:100AF0004FF0040808E0DFF86881424502D14FF06A
:100B0000050801E04FF006084FEA83794FEA1979AA
:100B100008FA09F848EA0505DFF848814FEA930921
:100B200048F82950D1F8048008F48038B8F5803F9F
:100B30000BD1DFF83481D8F8008048EA0008DFF8EC
:100B40002891C9F800800AE075E0DFF81C81D8F828
:100B5000008028EA0008DFF81091C9F80080D1F879
:100B6000048008F40038B8F5003F0ED1DFF8F880B3
:100B700008F10408D8F8008048EA0008DFF8E89097
:100B800009F10409C9F800800DE0DFF8DC8008F104
:100B90000408D8F8008028EA0008DFF8CC9009F1B2
:100BA0000409C9F80080D1F8048008F48018B8F569
:100BB000801F0ED1DFF8B08008F10808D8F8008057
:100BC00048EA0008DFF8A09009F10809C9F8008098
:100BD0000DE0DFF8948008F10808D8F8008028EAD2
:100BE0000008DFF8849009F10809C9F80080D1F8FD
:100BF000048008F40018B8F5001F0ED1DFF86880F3
:100C000008F10C08D8F8008048EA0008DFF858908E
:100C100009F10C09C9F800800DE0DFF84C8008F1FB
:100C20000C08D8F8008028EA0008DFF83C9009F1A9
:100C30000C09C9F800805B1C102BFFF481AEBDE8E5
:100C4000F887000000001110001002400008014069
:100C5000000C014000100140001401400018014048
:100C6000001C014008000140000401400AB101617C
:100C700001E00B0403617047014800687047000001
:100C80001800002010B50848006840F01000064920
:100C90000860052000F068F80F2000F007F800F069
:100CA00017F8002010BD00000020024070B5044677
:100CB00000F0BAF94FF47A71B0FBF1F5284600F074
:100CC0008FFE00222146501E00F010F8002070BD5B
:100CD000704700BF00F01F020121914042099200BD
:100CE00002F1E022C2F8001100BF70472DE9F05F69
:100CF00080460D461646002701F054F9074639464E
:100D00002A46334601F00700C0F1070ABAF1040F82
:100D100002D94FF0040A01E0C0F1070AD14600F100
:100D2000040ABAF1070F02D24FF0000A01E0A0F165
:100D3000030AD4464FF0010A0AFA09FAAAF1010A95
:100D40000AEA020A0AFA0CFA4FF0010B0BFA0CFB42
:100D5000ABF1010B0BEA030B4AEA0B0421464046B8
:100D600001F028F9BDE8F09F00BF00F00702064B34
:100D700019684FF6FF031940044B0B4343EA022165
:100D8000014B196000BF70470CED00E00000FA0550
:100D900070B504460D4600269F48006800F0070025
:100DA000A8420ED29C48006820F0070028439A49C8
:100DB00008600846006800F00700A84201D0012042
:100DC00070BD207800F00200022807D193484068E7
:100DD00020F0F000A168084390494860207800F0B6
:100DE000010000287CD0606801282DD1202001035B
:100DF00091FAA1F1B1FA81F108430121B1EB601F31
:100E000002D1864800680FE02020010391FAA1F189
:100E1000B1FA81F108430221B1EB601F02D17F4892
:100E2000006A01E07D48406A20210A0392FAA2F29A
:100E3000B2FA82F2114301F01F02012191400840F1
:100E4000002860D10120BBE7606802282CD1202057
:100E5000010591FAA1F1B1FA81F108430121B1EB49
:100E6000601F02D16D4800680FE02020010591FA53
:100E7000A1F1B1FA81F108430221B1EB601F02D167
:100E80006648006A01E06548406A20210A0592FA36
:100E9000A2F2B2FA82F2114301F01F020121914045
:100EA000084078BB01208BE72020022191FAA1F1B4
:100EB000B1FA81F108430121B1EB601F02D157481B
:100EC000006810E02020022191FAA1F1B1FA81F12D
:100ED00008430221B1EB601F03D15048006A02E0D1
:100EE00054E04E48406A2021022292FAA2F2B2FA5D
:100EF00082F2114301F01F0201219140084008B91C
:100F000001205DE7FFE74548406820F00300616885
:100F1000084342494860FFF7AFFE06466068012873
:100F200010D108E0FFF7A8FE801B41F2883188420B
:100F300001D9032044E73948406800F00C00042838
:100F4000F0D123E06068022810D108E0FFF794FE9A
:100F5000801B41F28831884201D9032030E72F48B5
:100F6000406800F00C000828F0D10FE008E0FFF71F
:100F700083FE801B41F28831884201D903201FE79C
:100F80002648406800F00C000028F0D12248006894
:100F900000F00700A8420ED91F48006820F00700A3
:100FA00028431D4908600846006800F00700A84271
:100FB00001D0012004E7207800F00400042807D1C4
:100FC0001648406820F4E060E1680843134948602F
:100FD000207800F00800082808D11048406820F464
:100FE0006050216940EAC1000C49486000F04EF8A9
:100FF0000A49496801F0F001F02292FAA2F2B2FA2D
:1010000082F2D140064A515CC840064908600F2070
:10101000FFF74CFE0020D3E6002002400010024003
:10102000104F0008140000200148006870470000BD
:101030001400002000B5FFF7F7FF0749496801F4E5
:10104000E0614FF4E06292FAA2F2B2FA82F2D14089
:10105000024A515CC84000BD00100240204F000809
:1010600000B5FFF7E1FF0749496801F460514FF40B
:10107000605292FAA2F2B2FA82F2D140024A515C74
:10108000C84000BD00100240204F0008F0B585B0F8
:101090000FF28C0C9CE8E01001A8A0E8E01024A559
:1010A0002D68009500210024002200230020214DFE
:1010B000696801F00C056DB3042D02D0082D28D10C
:1010C00001E01D4828E001F470154FF4701696FAFF
:1010D000A6F6B6FA86F6F54001AE735D01F48035EA
:1010E00095B1144D6D6805F400354FF4003696FA4D
:1010F000A6F6B6FA86F6F5401DF805400E4DB5FB8E
:10110000F4F505FB03F202E00C4D03FB05F210467B
:1011100002E000BF084800BF00BF05B0F0BD0000FE
:1011200002030405060708090A0B0C0D0E0F101028
:10113000010200000010024000127A0000093D0088
:1011400038B504460025207800F0010000287CD046
:10115000F848406800F00C0004280CD0F5484068BE
:1011600000F00C00082837D1F248406800F48030C5
:10117000B0F5803F30D12020010391FAA1F1B1FAFE
:1011800081F108430121B1EB601F02D1E9480068F9
:101190000FE02020010391FAA1F1B1FA81F1084397
:1011A0000221B1EB601F02D1E248006A01E0E14890
:1011B000406A20210A0392FAA2F2B2FA82F21143A3
:1011C00001F01F020121914008400028BFD0606853
:1011D00000283AD1012038BD00BF6068B0F5803FDB
:1011E00006D1D448006840F48030D249086028E035
:1011F000606858B9CF48006820F48030CD49086055
:101200000846006820F4802008601AE06068B0F5A5
:10121000A02F0BD1C748006840F48020C549086062
:101220000846006840F4803008600AE0C148006861
:1012300020F48030BF4908600846006820F4802010
:10124000086000BF6068C8B300E06FE0FFF714FDFE
:10125000054606E0FFF710FD401B642801D9032076
:10126000B9E72020010391FAA1F1B1FA81F1084315
:101270000121B1EB601F02D1AE4800680FE02020D1
:10128000010391FAA1F1B1FA81F108430221B1EB16
:10129000601F02D1A748006A01E0A648406A2021E9
:1012A0000A0392FAA2F2B2FA82F2114301F01F028B
:1012B0000121914008400028CCD037E0FFE7FFF73C
:1012C000DBFC054606E0FFF7D7FC401B642801D98C
:1012D000032080E72020010391FAA1F1B1FA81F106
:1012E00008430121B1EB601F02D1924800680FE072
:1012F0002020010391FAA1F1B1FA81F10843022102
:10130000B1EB601F02D18B48006A01E08948406A56
:1013100020210A0392FAA2F2B2FA82F2114301F0FA
:101320001F020121914008400028CCD1207800F014
:10133000020002284ED17F48406800F00C0050B1F6
:101340007C48406800F00C00082844D17948406887
:1013500000F4803078BB2020022191FAA1F1B1FA8B
:1013600081F108430121B1EB601F02D1714800688F
:101370000FE02020022191FAA1F1B1FA81F1084396
:101380000221B1EB601F02D16A48006A01E069489E
:10139000406A2021022292FAA2F2B2FA82F21143AA
:1013A00001F01F0201219140084028B12069012865
:1013B00002D001200FE70EE05E48006820F0F80040
:1013C000F82292FAA2F2B2FA82F2616991400843DD
:1013D0005849086091E02069F0B3012090FAA0F12B
:1013E000B1FA81F1544A42F82100FFF745FC054665
:1013F00006E0FFF741FC401B022801D90320EAE682
:101400002020022191FAA1F1B1FA81F108430121D2
:10141000B1EB601F02D1474800680FE02020022195
:1014200091FAA1F1B1FA81F108430221B1EB601FF9
:1014300002D14048006A01E03E48406A2021022271
:1014400092FAA2F2B2FA82F2114301F01F020121D4
:1014500091400840002800E00FE0CAD035480068FD
:1014600020F0F800F82292FAA2F2B2FA82F2616950
:10147000914008432F4908603FE00020012191FA84
:10148000A1F1B1FA81F12C4A42F82100FFF7F4FBF7
:10149000054606E0FFF7F0FB401B022801D90320B8
:1014A00099E62020022191FAA1F1B1FA81F10843D5
:1014B0000121B1EB601F02D11E4800680FE020201F
:1014C000022191FAA1F1B1FA81F108430221B1EBB5
:1014D000601F02D11748006A01E01648406A2021C7
:1014E000022292FAA2F2B2FA82F2114301F01F0232
:1014F0000121914008400028CCD1207800F008005C
:1015000008284BD1A069A8B3012191FAA1F0B0FA43
:1015100080F0094A02EB8000C0F88014FFF7ACFBB2
:1015200005460BE0FFF7A8FB401B022806D9032065
:1015300051E60000001002400000424260200221FB
:1015400091FAA1F1B1FA81F108430121B1EB601FD9
:1015500002D1F948006810E06020022191FAA1F15F
:10156000B1FA81F108430221B1EB601F03D1F248C7
:10157000006A02E013E0F048406A6021022292FA19
:10158000A2F2B2FA82F2114301F01F02012191404E
:1015900008400028C6D00120FFF7BBF941E0002039
:1015A000012191FAA1F1B1FA81F1E44A02EB810142
:1015B000C1F88004FFF760FB054606E0FFF75CFB1F
:1015C000401B022801D9032005E66020022191FA80
:1015D000A1F1B1FA81F108430121B1EB601F02D101
:1015E000D54800680FE06020022191FAA1F1B1FA1C
:1015F00081F108430221B1EB601F02D1CE48006A9D
:1016000001E0CD48406A6021022292FAA2F2B2FAC9
:1016100082F2114301F01F0201219140084000288D
:10162000CCD1207800F00400042875D100BFC24856
:10163000C06940F08050C049C8610846C06900F0E8
:101640008050009000BF00BFBD48006840F480702B
:10165000BB490860FFF710FB054606E0FFF70CFBEF
:10166000401B642801D90320B5E5B548006800F4A3
:1016700080700028F2D000BFE068012806D1AE4893
:10168000006A40F00100AC49086227E0E06858B900
:10169000A948006A20F00100A74908620846006ACC
:1016A00020F00400086219E0E06805280BD1A24888
:1016B000006A40F00400A04908620846006A40F051
:1016C000010008620AE09C48006A20F001009A4983
:1016D00008620846006A20F00400086200BFE06863
:1016E000D0B3FFF7C9FA054608E0FFF7C5FA401B7B
:1016F00041F28831884201D903206CE54020022163
:1017000091FAA1F1B1FA81F108430121B1EB601F17
:1017100003D18948006810E058E04020022191FA86
:10172000A1F1B1FA81F108430221B1EB601F02D1AE
:101730008148006A01E08048406A4021022292FA12
:10174000A2F2B2FA82F2114301F01F02012191408C
:1017500008400028C9D039E0FFE7FFF78DFA0546B9
:1017600008E0FFF789FA401B41F28831884201D92D
:10177000032030E54020022191FAA1F1B1FA81F174
:1017800008430121B1EB601F02D16B4800680FE0F4
:101790004020022191FAA1F1B1FA81F1084302211E
:1017A000B1EB601F02D16448006A01E06248406A00
:1017B0004021022292FAA2F2B2FA82F2114301F01F
:1017C0001F020121914008400028CAD1E069002889
:1017D00073D05948406800F00C0008286ED0E069CA
:1017E00002286CD100204FF0807191FAA1F1B1FA7A
:1017F00081F1524A42F82100FFF73EFA054606E021
:10180000FFF73AFA401B022801D90320E3E4202025
:10181000010591FAA1F1B1FA81F108430121B1EB7F
:10182000601F02D1444800680FE02020010591FAB2
:10183000A1F1B1FA81F108430221B1EB601F02D19D
:101840003D48006A01E03C48406A20210A0592FABE
:10185000A2F2B2FA82F2114301F01F02012191407B
:1018600008400028CCD1206AB0F5803F07D132482B
:10187000406820F40030A16808432F494860D4E94B
:10188000080108432C49496821F4741108432A4986
:1018900048600121080690FAA0F0B0FA80F0274ACB
:1018A00042F82010FFF7E8F9054609E0FFF7E4F9F0
:1018B000401B022804D903208DE479E076E02CE077
:1018C0002020010591FAA1F1B1FA81F1084301212B
:1018D000B1EB601F02D1184800680FE0202001051D
:1018E00091FAA1F1B1FA81F108430221B1EB601F35
:1018F00002D11148006A01E00F48406A20210A0520
:1019000092FAA2F2B2FA82F2114301F01F0201210F
:10191000914008400028C9D04AE000204FF0807173
:1019200091FAA1F1B1FA81F1044A42F82100FFF7DE
:10193000A3F905460DE000000010024000004242FD
:1019400000700040FFF798F9401B022801D90320DE
:1019500041E42020010591FAA1F1B1FA81F1084397
:101960000121B1EB601F02D1124800680FE0202076
:10197000010591FAA1F1B1FA81F108430221B1EB1D
:10198000601F02D10B48006A01E00A48406A20212A
:101990000A0592FAA2F2B2FA82F2114301F01F0292
:1019A0000121914008400028CCD101E0012012E43F
:1019B000002010E400100240042808D14FF0E0217C
:1019C000096941F004014FF0E022116107E04FF096
:1019D000E021096921F004014FF0E0221161704714
:1019E00070B504462546681EB0F1807F01D3012002
:1019F0000FE0681E4FF0E02148610F214FF0FF30EB
:101A000000F0D8FA00204FF0E0218861072008613B
:101A1000002070BD7047F8B50446002500262068F8
:101A2000006800F001052068C06800F4807625B1E8
:101A30001EB1E06B40F00100E06320680068C0F375
:101A400040052068406900F0010625B11EB1E06B39
:101A500040F00400E06320680068C0F3800525B111
:101A60001EB1E06B40F00200E06320680068C0F344
:101A7000C00525B11EB1E06B40F00800E0632068AE
:101A80000068C0F340152068C06800F020061DB152
:101A900016B1204600F0C0FB20680068C0F3C015F6
:101AA0002068C06800F080061DB116B1204600F025
:101AB000F5FC20680068C0F380152068C06800F05D
:101AC00040061DB116B1204600F08EFBE06B70B1F0
:101AD00000BF20680068009020684068009000BF48
:101AE00000BF012084F839002046FFF793FFF8BDBE
:101AF00010B504460CB9012010BDA06900B100E08A
:101B000000BF94F8390028B9002084F83800204636
:101B100000F025F8022084F839002068C06820F41D
:101B200000502168C860204600F0D4FB206800699E
:101B300020F49040216808612068406920F02A0064
:101B4000216848612068C06840F400502168C8607E
:101B50000020E063012084F839000020CCE77047C2
:101B600030B50346002493F83940012C01D0122CE3
:101B700037D101B10AB9012030BD00BF93F8380058
:101B8000012801D10220F7E7012083F8380000BFC7
:101B900099629A85DA850020D86393F83900122873
:101BA00003D1322083F8390002E0222083F8390083
:101BB00000BF002083F8380000BF1868C06840F4F8
:101BC00080701D68E8601868406940F001001D6879
:101BD00068611868C06840F020001D68E860002057
:101BE000CAE70220C8E77047704700BFFEE7000061
:101BF00010B586B0044600BF1E48806940F004005E
:101C00001C4988610846806900F00400019000BF0B
:101C100000BF00BF0846806940F4804088610846E4
:101C2000806900F48040019000BF00BF4815029019
:101C300002200390012004900320059002A90E4881
:101C4000FEF774FE4FF48060029002A90A48FEF786
:101C50006DFE0A480A490860084644600021816018
:101C6000C160016181610C214161FFF741FF06B054
:101C700010BD000000100240000801400038014083
:101C80002402002010B50446224608210148FEF730
:101C9000EDFF10BD001C014000B585B000BF0D4830
:101CA000806940F080000B4988610846806900F037
:101CB0008000009000BF00BF08200190012002902A
:101CC000032004900120039001A90348FEF72EFE93
:101CD00005B000BD00100240001C014000BFFEE73F
:101CE00038B505460D480068B0B100236A4629465C
:101CF0000A48006802F044FD0446012C02D008A006
:101D0000FEF7FAFA009838B14FF080500C4908609D
:101D1000BFF34F8FBFF36F8F38BD0000DC01002091
:101D20007573617274206964656C206164642071EC
:101D300075657565206661696C65640D0A00000053
:101D400004ED00E0782001F077FD05461E2001F04B
:101D500073FD04463CE000235A1E29461D480068D6
:101D600002F0F0FA29461CA0FEF7C6FA1E48407899
:101D700001281ED11C4901230022D1F83C01214633
:101D800002F0E0FA012814D121462846FEF7C2FBF2
:101D900078B1154900231A46D1F83C01214602F0DA
:101DA000D1FA114900231A46D1F83801194602F038
:101DB00005FC0EA12846FEF7ADFB30B10C4900230F
:101DC0001A46C86C194602F0F9FB642001F0C8FFFE
:101DD000C1E70000DC0100204765742062756620C1
:101DE00025730D0A000000009C0000204F4B0000EE
:101DF000685700202DE9F04106460C46C82001F046
:101E00001BFD0746C8213846FEF764FC44B914A1FF
:101E10003846FEF791FB31463846FEF7D0FB05E029
:101E2000012C03D131463846FEF786FB0D48006889
:101E300080B100235A1E39460A48006802F0BEFBF2
:101E40000546012D06D008A0FEF756FA4FF0FF30E8
:101E5000BDE8F081384601F08BFE0120F8E7000074
:101E600041542D00E00100204D65737361676520CA
:101E70006661696C65640D0A00000000C82001F00D
:101E8000DBFC0546002440E0C8212846FEF722FC82
:101E900000235A1E29461D48006802F053FA1CA16F
:101EA0002846FEF737FB58B119A12846FEF732FB4A
:101EB0000746FF1C17488764016D0020884703E030
:101EC0001448016D012088470026002417E0601C9B
:101ED000C4B21048C06C78B10E49002341F2883278
:101EE000C86C194602F02EFA064621460AA0FEF7F3
:101EF00003FA012E00D103E0022C00DB00E0E6E74C
:101F000000BF642001F02CFF00BFBDE7E00100200E
:101F100041542D006857002025640D0A0000000080
:101F200070B504460E461546002278210A2002F0BC
:101F3000CFF9174908600022C821082002F0C8F92B
:101F40001449086003220021012002F0C1F912495E
:101F5000C864124808650846002141628162C16276
:101F6000016314213430FEF7D7FB24210A48FEF721
:101F7000D3FB214608482430FEF7DEFA31460648F6
:101F80003430FEF7D9FA29460348FEF7D5FA70BD7A
:101F9000DC010020E001002068570020C52900086E
:101FA0007047000002480068C0F30220704700003C
:101FB0000CED00E010B5002807DA0A07140E054AF8
:101FC00000F00F031B1FD45403E00A07130E024A4C
:101FD000135410BD18ED00E000E400E030B50346F6
:101FE0000C461546002206E0184600F007F844F8B3
:101FF00022001B1D521CAA42F6D330BD01460868C0
:10200000704700007CB5054601F036FD2548D0F844
:102010002801012300224FF4FA61009022A002F06F
:10202000D3FE2549086025480223012240F6B83135
:1020300000901DA002F0C8FE2149086021A22AA13B
:102040002CA0FFF76DFF17481EA227A1D0F834314E
:1020500028A098472A48042100238022CDE90010B7
:1020600028A12B4802F064FC2A4803210023802287
:10207000CDE9001028A12A4802F05AFC02F098FC91
:1020800004464FF0FF3000232246012100900A4809
:10209000006802F0EBFE2348006801F09BFE01F0AF
:1020A0002FFD7CBD9C0000204F6E6553686F7454FB
:1020B000696D6572000000000C000020D139000835
:1020C0001000002054474D6D7973673744584442DF
:1020D000425955474565547A76366863416165349F
:1020E0007A354D39000000006465766963656E617C
:1020F0006D65000043384F7A4436506B6D39560099
:10210000040000204C4544305461736B0000000013
:10211000451D0008080000204D73675461736B0073
:102120007D1E00080000002030B58FB00546002459
:1021300001200590000406900020079002200C90DA
:10214000C1030D910E9505A8FEF7FAFF04460CB1E8
:1021500000BFFEE70F2000900220019000200290B7
:102160004FF4806003900020049002216846FEF73F
:102170000FFE04460CB100BFFEE70FB030BD10B536
:1021800002F006FC012801D002F088F810BD000022
:102190001148006840F001000F4908600846406897
:1021A0000E4908400C494860084600680C49084040
:1021B000094908600846006820F480200860084645
:1021C000406820F4FE0048604FF41F008860C80398
:1021D0000449086070470000001002400000FFF84A
:1021E000FFFFF6FE08ED00E010B504462068C06869
:1021F00020F040002168C86094F83900322803D1EB
:10220000222084F8390002E0012084F839002046B9
:10221000FFF7EAFC002010BD70B50446002694F8D4
:102220003960222E01D0322E52D1A068B0F5805FE5
:1022300013D1A56A206940B920684068C0F308003E
:102240002880A06A801CA06219E020684068C0B2A3
:102250002880A06A401CA06211E0206938B920687B
:102260004068C1B2A26A501CA062117007E02068E9
:10227000406800F07F01A26A501CA0621170E08DDE
:10228000401E80B2E08508BB2068C06820F02000B6
:102290002168C86094F83900322803D1122084F8EC
:1022A00039000EE02068C06820F480702168C860A2
:1022B0002068406920F0010021684861012084F80D
:1022C00039002046FFF78FFC002070BD0020FCE79E
:1022D0000220FAE72DE9F041044600252068006954
:1022E00020F44050E1680843216808612169A06832
:1022F0000843616940EA01052068C06841F20C6149
:10230000884328432168C8602068406920F44070F1
:10231000A1690843216848615F49206888425CD10F
:10232000FEF79EFE00EBC00101EB00106168890022
:10233000B0FBF1F6FEF794FE00EBC00101EB0010DC
:1023400061688900B0FBF1F06421B0FBF1F000EBB3
:10235000C00101EB0010A6EB8000322101EB001060
:102360006421B0FBF1F000F0F006FEF779FE00EB1F
:10237000C00101EB001061688900B0FBF1F064213D
:10238000B0FBF1F006EB0016FEF76AFE00EBC001B1
:1023900001EB001061688900B0FBF1F7FEF760FE09
:1023A00000EBC00101EB001061688900B0FBF1F0A7
:1023B0006421B0FBF1F000EBC00101EB0010A7EBD2
:1023C0008000322101EB00106421B0FBF1F000F03D
:1023D0000F003044216888605BE0FEF72BFE00EBC5
:1023E000C00101EB001061688900B0FBF1F6FEF757
:1023F00021FE00EBC00101EB001061688900B0FB19
:10240000F1F06421B0FBF1F000EBC00101EB001032
:10241000A6EB8000322101EB00106421B0FBF1F04B
:1024200000F0F006FEF706FE00EBC00101EB001025
:1024300061688900B0FBF1F06421B0FBF1F006EBBC
:102440000016FEF7F7FD00EBC00101EB001061681C
:102450008900B0FBF1F7FEF7EDFD00EBC00101EBE9
:10246000001061688900B0FBF1F06421B0FBF1F06D
:1024700000EBC00101EB0010A7EB8000322101EB63
:1024800000106421B0FBF1F000F00F00304421682F
:102490008860BDE8F08100000038014010B50146B9
:1024A000002391F83930122B01D0322B2CD18868BF
:1024B000B0F5805F0FD10A6A1088C0F308000C687D
:1024C0006060086918B9086A801C086209E0086A37
:1024D000401C086205E00C6A601C086220780C68E9
:1024E0006060C88C401E80B2C88458B90868C06853
:1024F00020F080000C68E0600868C06840F0400090
:102500000C68E060002010BD0220FCE710B5024816
:10251000FFF781FA10BD00002402002038B51748EB
:1025200000680068C0F3401048B115480068C4B2A4
:1025300014490888411C134A118013490C540F4850
:1025400000680068C0F30010A0B100BF0B4800682D
:1025500000680090094800684068009000BF00BF14
:102560000948FFF7BDFB002006490880782106488E
:10257000FEF7D2F80148FFF74EFA38BDE40100201B
:1025800004440040240000206402002000BFFEE755
:1025900010B586B0044600BF2E48806940F00400A4
:1025A0002C4988610846806900F00400019000BF52
:1025B00000BF00BF0846C06940F40030C86108464B
:1025C000C06900F40030019000BF00BF04200290F9
:1025D00002200390012004900320059002A91E48C8
:1025E000FEF7A4F9082002900020039002A91A48DF
:1025F000FEF79CF919481A49086008464460002112
:102600008160C160016181610C214161FFF770FA55
:10261000782214491248FFF7A3FA2620FEF759FB47
:10262000002206212620FEF761FB00BF0C4800684F
:10263000006801900A4800684068019000BF00BF30
:1026400007480068C06840F0100005490968C86084
:1026500006B010BD001002400008014000440040D8
:10266000E40100206402002070B504462046FDF716
:1026700087FF054600200BE000BF0749096801F00D
:1026800040010029F9D0215C034A121D1160401C51
:10269000A842F1DB70BD00000044004030380A2839
:1026A00001D2012070470020704700BF7047000032
:1026B00010B50420FFF780F9104800681049B0FBFE
:1026C000F1F0104908700D4800680D49B0FBF1F4B5
:1026D0004FF47A70444301200B4908804FF0E0200A
:1026E000006940F002004FF0E021086108464461B3
:1026F000006940F00100086110BD000014000020D6
:1027000040420F001C0000201E00002070B5034650
:1027100000224FF0E02675690D4E367803FB06F473
:102720004FF0E026B16910E04FF0E026B069884232
:102730000BD0884202D20E1A324402E02E1A0E4406
:1027400032440146A24200D300E0EDE700BF70BD75
:102750001C00002030B50446002504E04FF47A70D8
:10276000FFF7D4FF6D1CA542F8D330BD2DE9F04131
:1027700004460E4615460020454948708870C870CA
:10278000A02001F059F80746A0213846FDF7A2FF26
:1027900040A0FDF7B1FD10213D48CA30FDF79AFF7A
:1027A00014213B48DA30FDF795FF24213848EE30FC
:1027B000FDF790FF21463648CA30FDF7BDFE314691
:1027C0003348DA30FDF7B8FE29463148EE30FDF7E0
:1027D000B3FE34A13846FDF7AFFE2D49CA31384665
:1027E000FDF7EDFE33A13846FDF7E9FE2849DA3161
:1027F0003846FDF7E4FE2FA13846FDF7E0FE2449F8
:10280000EE313846FDF7DBFE2AA13846FDF7D7FE4C
:1028100029A13846FDF7D3FE39462D48FDF78CFE39
:102820002B491B48C0F88410A0213846FDF752FF01
:1028300028A13846FDF780FE1549CA313846FDF714
:10284000BEFE28A13846FDF7BAFE1149DA313846F6
:10285000FDF7B5FE24A13846FDF7B1FE39462548FF
:10286000FDF76AFE23490A48C0F88C1003220021B4
:10287000012001F02DFD0649C1F8380100221E217A
:10288000012001F025FD0249C1F83C01BDE8F081BD
:102890009C0000204735313020436F6E6669670D1C
:1028A0000A00000041542B434C4F554441555448B5
:1028B0003D220000222C2200696F742D617574681E
:1028C0002E616C6979756E2E636F6D220D0A0000A2
:1028D0002856002041542B434C4F55445355423DFC
:1028E000222F00002F0000002F676574222C300D6E
:1028F0000A000000C856002038B517A0FDF7FCFC00
:1029000001201849487000241DE000F02FF900282C
:1029100014DD15A0FDF7F0FC00201249487002F00C
:1029200047F805464FF0FF3000232A46012100906A
:102930001548006802F09AFA012038BD611C13A006
:10294000FDF7DAFC641C052CDFDB19A0FDF7D4FCD5
:1029500001F0F8FB00BFFEE7636F6E6E656374798C
:102960000D0A00009C000020436F6E6E6563657465
:1029700020746F20636C6F75642073756363657377
:102980007366756C0D0A000010000020436F6E6EB8
:1029900065637420746F20636C6F75642066616971
:1029A0006C65642025642E2E2E2E2E0D0A0000004C
:1029B000446576696365205265626F6F74696E67FE
:1029C0000D0A000070B50446012C38D14FF4967002
:1029D00000F032FF05464FF496712846FDF77AFE67
:1029E00025A12846FDF7A8FD24492846FDF7E7FD67
:1029F00023A12846FDF7E3FD204910392846FDF7BD
:102A0000DEFD1FA12846FDF7DAFD1C4934392846B2
:102A1000FDF7D5FD1AA12846FDF7D1FD174834383A
:102A2000816C2846FDF7CBFD2846FFF71DFE2946A1
:102A300014A0FDF761FC284601F09AF81AE04FF463
:102A4000967000F0F9FE05464FF496712846FDF7A2
:102A500041FE0A483438816C2846FDF76DFD284652
:102A6000FFF702FE294607A0FDF746FC284601F0C5
:102A70007FF800BF70BD000041542B009C57002020
:102A80002F000000636D642025730D0A0000000014
:102A900000BF054A126802F04002002AF9D0C2B213
:102AA000014B1B1D1A607047003801401CB5FEF732
:102AB000E9F84FF4E010FFF737FB0320FEF754F975
:102AC000FFF7F6FD4FF4E130FFF792F84FF4E130F5
:102AD000FFF75EFDFFF7E0F80020FFF7D3F84FF4B3
:102AE000FA70FFF737FE0120FFF7CCF841F288308B
:102AF000FFF730FE10A0FDF7FFFB202000F09CFE4A
:102B0000044620212046FDF7E5FD082221460E4817
:102B1000FFF764FA21460DA0FDF7EEFB0E480121F8
:102B200000238022CDE900100CA10F4801F000FF26
:102B300001F0B2FA00201CBD68656C6C6F207573E3
:102B4000617274310D0A000000D0070862756620BA
:102B500025730D0A0000000000000020537461720C
:102B6000745461736B0000000520000870B538A034
:102B7000FDF7C2FB3BA0FDF7BFFB002461E0002690
:102B80004248D0F83C0190B1404A243252F8241017
:102B9000243A0223D2F83C01002201F00FFD054641
:102BA000012D04D03AA0FDF7A7FB701E70BD374978
:102BB000603151F824000021FFF71CF93EE0701C41
:102BC000C6B23248D0F8380178B33049002342F217
:102BD0001072D1F83801194601F0B4FB05463146B0
:102BE00030A0FDF789FB012D00D128E02749603195
:102BF00051F824000021FFF7FDF82448D0F83C01EB
:102C0000B8B1224A243252F82410243A0223D2F8CE
:102C10003C01002201F0D2FC0546012D09D023A081
:102C2000FDF76AFB4FF0FF30C0E7FFE724A0FDF798
:102C300063FB052E02DB4FF0FF30B7E7BFE700BFB5
:102C4000641C12480078A04299DC0120AEE7000025
:102C50004735313020436F6E6E656374696E670D62
:102C60000A000000506C6561736520616464207423
:102C70006865206D6F6475656C207265736574207E
:102C8000636F6D6D616E640D0A0000009C00002092
:102C90005265702053656E64206661696C65640DD1
:102CA0000A00000025640D0A000000005265702033
:102CB00053656E206661696C65640D0A0000000052
:102CC0004E6F20473531302073656D6170686F72CB
:102CD00065200D0A000000002DE9F04105460E4672
:102CE0001C4807681C480068001D00F07BFE50B9B6
:102CF0001948006890F82C1001208840174909688D
:102D0000814316480160681C38B936B11248016821
:102D1000091D134800F0A4FE1AE07C190E48006853
:102D20004460BC4207D20C480168091D0D48006888
:102D300000F07CFE0CE008480168091D0A480068A4
:102D400000F074FE09480068844201D2074804601C
:102D5000BDE8F0813C000020280000204000002059
:102D6000EC050020300000202C000020580000203E
:102D700010B5044600F080FE24480068401C23493A
:102D800008602348006840B921480460084600688C
:102D900001280DD100F024FA0AE01E48006838B975
:102DA0001B480068C06AE16A884201D8184804607C
:102DB00019480068401C1849086008460068A0646B
:102DC00094F82C10012088401449096808431349DD
:102DD0000860E16A01EB8101114A02EB8100211DCB
:102DE00000F03EFE00F08CFE0A48006868B108481A
:102DF0000068C06AE16A884207D24FF080500949F2
:102E00000860BFF34F8FBFF36F8F10BD38000020F5
:102E10002800002044000020540000204000002032
:102E20001C03002004ED00E010B500F025FE104862
:102E30000068D0B90F4800F0E9FD0F4800F0E6FD4A
:102E40000C480E4908600C480D490860002210210A
:102E5000052001F03DFA064908600846006820B1E7
:102E600008A10348006800F03FFF00F049FE10BDD4
:102E70006C000020000600201406002064000020E2
:102E800068000020546D72510000000070B523E00E
:102E900001F058F91348006808B9012000E000204B
:102EA000054601F001FFBDB900F0E6FD0D48C06820
:102EB000C468201D00F096FD0B480068401E0A49BA
:102EC00008600A480068401E0849086000F018FEC3
:102ED000204600F060F800BF044800680028D7D101
:102EE00070BD0000D805002038000020340000200C
:102EF00070B504460D46206C70B1216CE068084442
:102F0000E0606168E068884201D32068E06028469C
:102F1000226CE168FDF75FFB70BD2DE9F0410446CE
:102F20000F4615464FF00008A66B206C40B920688C
:102F300060BB606801F0F2FD80460020606025E023
:102F40007DB93946226CA068FDF745FB216CA0686D
:102F50000844A060D4E90110884217D32068A0601B
:102F600014E03946226CE068FDF735FB216CE0681F
:102F7000401AE0602168E068884203D2216C6068F2
:102F8000401AE060022D01D106B1761E701CA063CC
:102F90004046BDE8F08110B50446206B00F0E8FD26
:102FA000204600F0E5FD10BD0146084A126812688F
:102FB0000AB9012200E000220A600A6822B9034A25
:102FC0001268D268106800E000207047640000209A
:102FD00030B54FF4A043174800F007042CB1C01DD2
:102FE00020F00700134C041B1B1B0246124C2260EE
:102FF0000024114D6C60D018083820F007000F4CE9
:10300000206000240D4D2D686C600C4D2D682C60E7
:103010001146441A4C60094C24680C60084D4C68F9
:103020002C60084D4C682C604FF00044064D2C601D
:1030300030BD00002806002078000020800000201D
:1030400088000020840000208C00002000BFFFF7D3
:103050001DFF064800680128F9D94FF08050044947
:103060000860BFF34F8FBFF36F8FF0E71C030020A2
:1030700004ED00E02DE9F04106460D46174698465E
:10308000069C0DB9246000E02760E66325640121F9
:10309000204601F03BFA84F850800020A064BDE88F
:1030A000F08100002DE9F05F82460F4690469B4676
:1030B0000A9E0C9C4FEA8801A522206BFDF702FBBB
:1030C000A8F10100216B01EB800929F0070909F043
:1030D000070008B9012000E0002028B940F22B3297
:1030E0001BA120A0FDF708F9002507E0795D04F198
:1030F00034004155785D00B902E06D1C142DF5D304
:1031000000BF002147200155202E00D31F26E66274
:10311000266500206065201D00F085FC04F1180084
:1031200000F081FC2461C6F12000A06164620020EF
:10313000A06584F85C005A465146484600F036FCCB
:1031400020600B9808B10B980460BDE8F09F000068
:103150002E2E5C4672656552544F535C7461736BDE
:10316000732E63004572726F723A25732C25640DBD
:103170000A0000002DE9F04706460D46174698461E
:10318000DDE908940DB1012000E0002028B94FF4DA
:10319000C67209A10EA0FDF7AFF85CB1FFF744FEBF
:1031A0002660A561E761C4F82080C4F82490201D42
:1031B00000F039FCBDE8F0872E2E5C467265655242
:1031C000544F535C74696D6572732E630000000088
:1031D0004572726F723A25732C25640D0A00000047
:1031E00010B5002407E004EB84010F4A02EB8100D4
:1031F00000F00CFC641C202CF5D30C4800F006FCFD
:103200000B4800F003FC0B4800F000FC0A4800F0FB
:10321000FDFB0A4800F0FAFB04480949086004482D
:103220000849086010BD00001C0300209C05002018
:10323000B0050020C4050020D8050020EC050020C2
:103240002C0000203000002010B50146164800E098
:10325000006803688B42FBD30246436813448B42E9
:1032600004D143684C682344436001460A464B68D6
:1032700013440468A34211D10C4C03682468A34290
:1032800008D04B680468646823444B6003681B687B
:103290000B6005E0054B1B680B6001E003680B60E9
:1032A000884200D0016010BD78000020800000201E
:1032B0002DE9F04104460D4616461F464FF0000822
:1032C00065602461B5420CD8F01BA169884202D325
:1032D0004FF0010811E0211D0948006800F0A6FB2D
:1032E0000BE0BE4204D2BD4202D34FF0010804E01D
:1032F000211D0448006800F099FB4046BDE8F081BC
:10330000680000206400002070B5054600F0B4FBA2
:10331000A86B08B9012400E0002400F0F1FB20466E
:1033200070BD70B5054600F0A7FBA86BE96B88423D
:1033300001D1012400E0002400F0E2FB204670BD32
:103340002DE9F3410D460098846C00272CB940F616
:10335000CE121AA11EA0FCF7CFFFA06BE16B884232
:1033600001D2012000E0002028B940F6CF1213A1BD
:1033700017A0FCF7C1FFA06BE16B88421BD294F948
:1033800045602A4669462046FFF7C7FD0746701C80
:1033900060B9606A08B9012000E0002050B904F16A
:1033A000240001F027FC28B1012703E0701C40B283
:1033B00084F8450000BF3846BDE8FC812E2E5C46EF
:1033C00072656552544F535C71756575652E630067
:1033D0004572726F723A25732C25640D0A00000045
:1033E000F8B505460F4613480068C068C468201D3C
:1033F00000F0F8FAE069012818D1A06941192B46BC
:103400003A462046FFF754FF80B1002003462A4683
:1034100001460090204601F029FD06462EB94FF4E2
:10342000027205A10AA0FCF767FF00BF2046616A8F
:103430008847F8BD640000202E2E5C4672656552F8
:10344000544F535C74696D6572732E630000000005
:103450004572726F723A25732C25640D0A000000C4
:10346000F0B587B070E0039800280CDA04AE2EB9EE
:1034700040F2E7223AA140A0FCF73EFFD6E9002047
:10348000B168904700BF039800285DDB059C606928
:1034900008B9012000E0002010B9201D00F0A2FAB8
:1034A00002A800F0C7F8054603980A284AD2DFE8C8
:1034B00000F00905072C2E4506082D2F00BF00BF80
:1034C00000BF00BF0498A269811803462A4620461F
:1034D000FFF7EEFEC0B12046616A8847E069012827
:1034E00012D1002000900498A169421800231946C7
:1034F000204601F0BBFC07462FB940F2213218A14B
:103500001DA0FCF7F9FE00BF1DE000BF1BE000BFDF
:103510000498A061A06908B1012000E0002028B94A
:103520004FF44E720EA114A0FCF7E6FEA0694119FB
:103530002B462A462046FFF7BBFE04E0204600F05B
:1035400017FB00E000BF00BF00231A4603A90E4886
:10355000006800F0F7FE002885D107B0F0BD00003C
:103560002E2E5C4672656552544F535C74696D65CE
:1035700072732E63000000004572726F723A2573F9
:103580002C25640D0A0000006C000020F8B50546EB
:103590000C4600F0D7FD684600F04CF8064600984F
:1035A00020BB44B9B54206D801F07EFB314628461F
:1035B000FFF716FF1CE03CB10E480068006808B930
:1035C000012000E000200446A91B22460A480068AA
:1035D00000F0A0FB01F068FB50B94FF080500749A4
:1035E0000860BFF34F8FBFF36F8F01E001F05CFB0A
:1035F000F8BD0000680000206C00002004ED00E031
:103600000A490968096809B9012100E0002121B1CE
:103610004FF0FF31064A116006E004490968C968A5
:10362000C868034A41681160704700002C00002000
:103630005800002070B5044601F0BAF90546074865
:103640000068854204D200F00BF80120206001E000
:103650000020206001480560284670BD74000020ED
:103660002DE9F8432DE021480068C06805681F482F
:103670000068C068C468201D00F0B4F92046616A83
:103680008847E06901281CD1A0694619AE4207D9D4
:1036900066602461211D1548006800F0C7F910E03C
:1036A000002003462A4601460090204601F0DEFB3A
:1036B00007462FB940F292320DA113A0FCF71CFE71
:1036C00000BF0A480068006808B9012000E0002037
:1036D0000028C8D00548D0F800800F48006803498A
:1036E00008600D48C0F80080BDE8F8836400002041
:1036F0002E2E5C4672656552544F535C74696D653D
:1037000072732E63000000004572726F723A257367
:103710002C25640D0A000000680000200B4800689A
:10372000401C08B9012000E0002020B9F42208A1C3
:1037300012A0FCF7E1FD00BF502080F31188BFF319
:103740004F8FBFF36F8F00BF00BFFEE790000020D8
:103750002E2E5C4672656552544F535C706F7274C6
:1037600061626C655C525644535C41524D5F434DFF
:10377000335C706F72742E63000000004572726FCC
:10378000723A25732C25640D0A00000008B500BFAD
:103790006846FFF709FC044620460099FFF7F6FE4D
:1037A000FFF75EFEF4E770B5044600F065F994F9A2
:1037B00045501AE0A06C38B100212046FFF7C0FD4B
:1037C00088B100F08DFB0EE0606A08B9012000E0CE
:1037D000002038B904F1240001F00CFA18B100F00F
:1037E0007FFB00E003E0681E45B2002DE2DC00BF75
:1037F000FF2084F8450000F083F900F03DF994F9CA
:10380000445010E0206908B9012000E0002048B9C8
:1038100004F1100001F0EEF908B100F061FB681E40
:1038200045B200E001E0002DECDC00BFFF2084F891
:10383000440000F065F970BD2DE9F04104464FF0F9
:10384000000800F07FFC3E48006808B9FFF7C0FBA5
:103850003C480068204000285FD1A4B1083404F03F
:10386000070080B104F00700C0F10800044404F030
:10387000070008B9012000E0002020B9BF2232A1D2
:103880003BA0FCF739FD002C47D03D48006884423E
:1038900043D83C4E3046056801E02E462D686868E6
:1038A000A04202D228680028F7D125480068854246
:1038B00033D0306800F10808286830606868001B61
:1038C000102813D92F1907F0070008B9012000E0CC
:1038D000002020B9EC221CA125A0FCF70DFD686892
:1038E000001B78606C603846FFF7AEFC24496868BE
:1038F0000968081A224908600846006822490968D0
:10390000884203D21E4800681F4908600D49686854
:103910000968084368600020286001F0C5F908F0D4
:10392000070008B9012000E0002028B94FF4967282
:1039300005A10FA0FCF7E0FC4046BDE8F0810000C7
:10394000800000208C0000202E2E5C46726565529F
:10395000544F535C706F727461626C655C4D656D41
:103960004D616E675C686561705F342E63000000B6
:103970004572726F723A25732C25640D0A0000009F
:10398000840000207800002088000020064800689D
:1039900030B10549096801F15400496D491C0160C5
:1039A000014800687047000028000020001F4FF009
:1039B00080730360001F21F001030360001F034BAD
:1039C0000360143802602038704700001D3700087B
:1039D00003E0012101A0FEF70DFAFAE768656C6CBF
:1039E0006F00000001460A69D1E901309860D1E911
:1039F000010358605068884201D1886850600020F7
:103A000008611068401E10601068704700F10801DE
:103A100041604FF0FF31816000F10801C160016138
:103A200000210160704700210161704710B5024616
:103A30000B685C1C0CB9106907E002F1080000E09B
:103A40004068446824689C42FAD944684C604C68D9
:103A5000A160886041600A611468641C146010BD34
:103A600042684A6093688B6093685960916008610E
:103A700003685B1C0360704710B500BF502080F3E3
:103A80001188BFF34F8FBFF36F8F00BF0B480068E3
:103A9000401C0A4908600846006801280DD1084802
:103AA0000068C0B208B9012000E0002028B94FF436
:103AB000BD7204A10EA0FCF71FFC10BD90000020F9
:103AC00004ED00E02E2E5C4672656552544F535C47
:103AD000706F727461626C655C525644535C415203
:103AE0004D5F434D335C706F72742E6300000000B5
:103AF0004572726F723A25732C25640D0A0000001E
:103B000010B50B48006828B940F2811209A114A031
:103B1000FCF7F2FB06480068401E054908600846AD
:103B2000006820B9002080F3118800BF00BF10BDDD
:103B3000900000202E2E5C4672656552544F535CF7
:103B4000706F727461626C655C525644535C415292
:103B50004D5F434D335C706F72742E630000000044
:103B60004572726F723A25732C25640D0A000000AD
:103B700070B506463546002E35D0083D2C461A490C
:103B800060680968084008B1012000E0002028B9F9
:103B90004FF4A07215A11FA0FCF7AEFB206808B976
:103BA000012000E0002028B940F241120FA119A025
:103BB000FCF7A2FB0C4960680968084098B12068CE
:103BC00088B90949606809688843606000F0BAFAFA
:103BD0001449606809680844124908602046FFF7E4
:103BE00033FB01F061F870BD8C0000202E2E5C4686
:103BF00072656552544F535C706F727461626C658C
:103C00005C4D656D4D616E675C686561705F342EFB
:103C1000630000004572726F723A25732C25640DA3
:103C20000A00000084000020064800684FF47A7102
:103C3000B0FBF1F0401E4FF0E02148610720086121
:103C4000704700001400002070B5FCF72FFB0546FC
:103C5000102D11D305F1E02090F8F04310480078C2
:103C6000844201DB012000E0002028B94FF42A72D1
:103C70000CA117A0FCF740FB1948006800F4E060B5
:103C800018490968884201D8012000E0002028B9BD
:103C90004FF42E7203A10EA0FCF72EFB70BD0000A6
:103CA000940000202E2E5C4672656552544F535C82
:103CB000706F727461626C655C525644535C415221
:103CC0004D5F434D335C706F72742E6300000000D3
:103CD0004572726F723A25732C25640D0A0000003C
:103CE0000CED00E098000020024600200BE0084B9D
:103CF00053F8303033B9064B43F8301003EBC003B0
:103D00005A6002E0401C0828F1D300BF7047000051
:103D1000DC0200202DE9F04105460E4617462C46F0
:103D2000FFF7AAFE94F94400401C10B9002084F863
:103D3000440094F94500401C10B9002084F8450067
:103D4000FFF7DEFEA06B28B93A46314604F12400A5
:103D500000F0F6F82046FFF726FDBDE8F0810000F0
:103D600070B504460025ACB10F48006808B90120C1
:103D700000E0002028B940F2CF420CA110A0FCF7CF
:103D8000BBFA00F0DFF900212046FEF7A5FF00F0A6
:103D90008BFF05463DB94FF080500D490860BFF3D9
:103DA0004F8FBFF36F8F70BD600000202E2E5C46DA
:103DB00072656552544F535C7461736B732E63006C
:103DC0004572726F723A25732C25640D0A0000004B
:103DD00004ED00E070B50546FFF74EFE15B92D481D
:103DE000006800E028460446201DFFF7FBFD78B977
:103DF000E06A00EB8000284951F8200040B994F8AF
:103E00002C1001208840254909688143234801601E
:103E1000A06A18B104F11800FFF7E4FD204800681B
:103E2000401C1F4908601B480068844209D1211DBD
:103E30001C48FFF715FE1C480068401C1A49086022
:103E400009E01A480068401E184908602046FFF73C
:103E5000A2F8FFF7D5FBFFF753FE15480068C0B185
:103E60000C480068844214D11248006808B9012047
:103E700000E0002028B940F265420FA113A0FCF732
:103E80003BFA4FF0805015490860BFF34F8FBFF3E6
:103E90006F8F70BD280000201C0300204000002010
:103EA00054000020D80500203400002038000020F5
:103EB00044000020600000202E2E5C467265655292
:103EC000544F535C7461736B732E63004572726F51
:103ED000723A25732C25640D0A00000004ED00E001
:103EE00001200149086070474C00002070B504466D
:103EF0000D462CB940F6063207A10CA0FCF7FCF9E0
:103F00000E48016818312046FFF790FD0121284630
:103F1000FEF7E2FE70BD00002E2E5C467265655213
:103F2000544F535C7461736B732E63004572726FF0
:103F3000723A25732C25640D0A0000002800002029
:103F400070B505460E4614462DB940F6313209A12A
:103F50000DA0FCF7D1F91048016818312846FFF789
:103F60007FFD0CB14FF0FF3621463046FEF7B4FE20
:103F700070BD00002E2E5C4672656552544F535C36
:103F80007461736B732E63004572726F723A25739E
:103F90002C25640D0A0000002800002070B505469D
:103FA0002C46002D4BD02649E06A0968C96A884230
:103FB00045D2A06900F0004028B921480068C06AD5
:103FC000C0F12000A061E16A01EB81011D4A02EB12
:103FD00081016069884201D1012000E0002050B3D6
:103FE000201DFFF7FFFC78B9E06A00EB800015495F
:103FF00051F8200040B994F82C1001208840124953
:1040000009688143104801600D480068C06AE06299
:1040100094F82C10012088400B49096808430A498C
:104020000860E16A01EB8101064A02EB8100211D73
:10403000FFF716FD03E002480068C06AE06270BD49
:10404000280000201C0300204000002010B504467A
:104050002CB940F6C13205A109A0FCF74DF90C4876
:10406000006820600B480068606010BD2E2E5C4622
:1040700072656552544F535C7461736B732E6300A9
:104080004572726F723A25732C25640D0A00000088
:10409000500000203C0000201CB51A4800210B46AF
:1040A0008222CDE9001018A1194800F041FC044615
:1040B000012C02D100F0A0FE0446012C15D100BF56
:1040C000502080F31188BFF34F8FBFF36F8F00BF75
:1040D0004FF0FF300F49086001200F4908600020B1
:1040E0000E49086000F08AF80BE0601C08B101205E
:1040F00000E0002028B940F2847209A10DA0FCF76D
:10410000FBF81CBD5C00002049444C450000000049
:104110004D30000858000020440000203C000020E2
:104120002E2E5C4672656552544F535C7461736BFE
:10413000732E63004572726F723A25732C25640DDD
:104140000A00000002480068401C014908607047EE
:104150006000002010B51B48006818B101201A4902
:1041600008602DE000201849086018480068B0FA7F
:1041700080F0C0F11F0404EB8400154951F82000C1
:1041800008B1012000E0002028B940F6F62211A174
:1041900015A0FCF7B1F804EB84010D4A02EB810095
:1041A00041684968416000F1080142688A4202D1D1
:1041B0004168496841604168C9680F4A116000BFA1
:1041C00010BD0000600000204C00002040000020D6
:1041D0001C0300202E2E5C4672656552544F535CC2
:1041E0007461736B732E63004572726F723A25733C
:1041F0002C25640D0A000000280000201CB5224870
:10420000014609780191FF210246117001460978A3
:1042100000919DF8001001F050011C4A1170072117
:104220001B4A116009E01A490968491E184A1160C1
:104230009DF800104906090E00919DF8001001F04C
:1042400080018029EFD0124909680902104A1160E3
:104250001146098801F4E06111600B4A019911705F
:104260000C48006840F470000A490860084600687D
:1042700040F070400860FFF7D7FC00200649086056
:10428000FBF7DEFF00201CBD00E400E094000020EE
:104290009800002020ED00E09000002010B500BF45
:1042A000502080F31188BFF34F8FBFF36F8F00BF93
:1042B00000F084FB18B14FF080500449086000BF43
:1042C000002080F3118800BF10BD000004ED00E065
:1042D0002DE9F84305460E4690460DB1012000E059
:1042E000002028B94FF4C4720DA112A0FCF704F805
:1042F0000EB9002701E005FB06F707F15400FFF7B0
:104300009BFA044644B104F1540943464A463146F7
:1043100028460094FEF7AEFE2046BDE8F883000074
:104320002E2E5C4672656552544F535C71756575EF
:10433000652E63004572726F723A25732C25640DE9
:104340000A0000002DE9FF4782B005460E461F46D1
:104350004FF0000A2C462CB940F2DC4261A166A065
:10436000FBF7CAFF0EB9206C08B9012000E000205D
:1043700028B940F2DD425BA15FA0FBF7BDFF00F072
:1043800007FB08B9049808B9012000E0002028B90B
:104390004FF49C6253A158A0FBF7AEFF00BFFFF79C
:1043A0006BFBD4F83890B9F1000F3DD0D4F80C80F5
:1043B00031462046FEF79CFDDFB9A9F10100A0635C
:1043C000206810B9FFF7E2FA6060206908B901209F
:1043D00000E0002010BB04F1100000F00BFCE8B17D
:1043E0004FF0805048490860BFF34F8FBFF36F8F85
:1043F00014E0C4F80C80606A08B9012000E00020D5
:1044000060B904F1240000F0F5FB38B14FF08050A2
:104410003D490860BFF34F8FBFF36F8FFFF770FB0D
:10442000012006B0BDE8F087049818B9FFF768FBD3
:104430000020F6E7BAF1000F04D16846FFF706FE48
:104440004FF0010AFFF75CFBFFF77CFEFFF714FB60
:1044500094F94400401C10B9002084F8440094F9F9
:104460004500401C10B9002084F84500FFF748FBC8
:1044700004A9684600F00CFA40BB2046FEF744FF52
:10448000F0B1206830B9FFF7F7FA6068FFF786FDF2
:10449000FFF736FB04F124000499FFF727FD2046BF
:1044A000FFF781F900F000FC00287FF478AF4FF0AF
:1044B000805015490860BFF34F8FBFF36F8F6EE7D1
:1044C0002046FFF770F900F0EFFB68E72046FFF7A2
:1044D0006AF900F0E9FB2046FEF716FF0028EED04F
:1044E00000209EE72E2E5C4672656552544F535C49
:1044F00071756575652E63004572726F723A25732A
:104500002C25640D0A00000004ED00E070B505469E
:104510000E462C462CB940F21B121EA122A0FBF71E
:10452000EBFEFFF7A9FAD4E90F12206801FB0200A5
:1045300060600020A0632068A060E06B401E226CD9
:10454000216800FB0210E060FF2084F8440084F83A
:1045500045009EB9206908B9012000E00020A8B9F3
:1045600004F1100000F046FB80B14FF0805012497A
:104570000860BFF34F8FBFF36F8F07E004F11000A7
:10458000FFF744FA04F12400FFF740FAFFF7B8FA06
:10459000012070BD2E2E5C4672656552544F535CEF
:1045A00071756575652E63004572726F723A257379
:1045B0002C25640D0A00000004ED00E02DE9FF4306
:1045C00083B0064688461D464FF0000934462CB994
:1045D00040F2D92260A165A0FBF78EFEB8F1000F72
:1045E00001D1206C08B9012000E0002028B940F278
:1045F000DA2259A15DA0FBF77FFE022D02D1E06B0C
:10460000012801D1012000E0002028B940F2DB227E
:1046100051A156A0FBF770FE00F0BAF908B9059851
:1046200008B9012000E0002028B940F2DE224AA1AA
:104630004EA0FBF761FE00BFFFF71EFAA06BE16B17
:10464000884201D3022D38D12A4641462046FEF742
:1046500064FC0746A06C68B129462046FEF770FE50
:1046600028B34FF0805045490860BFF34F8FBFF328
:104670006F8F1CE0606A08B9012000E0002068B973
:1046800004F1240000F0B6FA88B14FF080503B49A5
:104690000860BFF34F8FBFF36F8F08E03FB14FF05B
:1046A000805036490860BFF34F8FBFF36F8FFFF71D
:1046B00027FA012007B0BDE8F083059818B9FFF785
:1046C0001FFA0020F6E7B9F1000F04D101A8FFF7A7
:1046D000BDFC4FF00109FFF713FAFFF733FDFFF7B9
:1046E000CBF994F94400401C10B9002084F8440030
:1046F00094F94500401C10B9002084F84500FFF7EC
:10470000FFF905A901A800F0C3F8F0B92046FEF7AB
:1047100008FEA0B104F110000599FFF7E7FB204661
:10472000FFF741F800F0C0FA002885D14FF0805023
:1047300012490860BFF34F8FBFF36F8F7CE72046AD
:10474000FFF731F800F0B0FA76E72046FFF72BF8D4
:1047500000F0AAFA0020ADE72E2E5C467265655285
:10476000544F535C71756575652E63004572726FA9
:10477000723A25732C25640D0A00000004ED00E058
:104780002DE9F05F80468A4615461E4644462CB900
:1047900040F29F3235A13AA0FBF7AEFDBAF1000F0F
:1047A00001D1206C08B9012000E0002028B94FF4A5
:1047B00068722EA132A0FBF79FFD022E02D1E06BA2
:1047C000012801D1012000E0002028B940F2A132E7
:1047D00026A12BA0FBF790FDFFF736FA00BF502172
:1047E000EFF3118081F31188BFF34F8FBFF36F8F09
:1047F00000BF0746A06BE16B884201D3022E2BD18C
:1048000094F945B0324651462046FEF786FB0BF13F
:104810000100C8B9A06C40B131462046FEF790FDBA
:10482000B8B1B5B10120286013E0606A08B9012071
:1048300000E0002068B904F1240000F0DBF940B189
:104840003DB10120286004E00BF1010040B284F882
:1048500045004FF0010901E04FF0000900BF87F368
:10486000118800BF4846BDE8F09F00002E2E5C4630
:1048700072656552544F535C71756575652E6300A2
:104880004572726F723A25732C25640D0A00000080
:104890002DE9F04104460D462CB940F6CB3219A162
:1048A0001DA0FBF729FD2DB940F6CC3215A11AA0A9
:1048B000FBF722FDFFF7E0F81B4807682868401C5B
:1048C00008B9002619E0194920680968884204D00F
:1048D0006068B84201D801260FE06068381A29687C
:1048E000884209D228686168791A401A28602046EF
:1048F000FFF7ACFB002600E00126FFF701F9304688
:10490000BDE8F0812E2E5C4672656552544F535CB3
:104910007461736B732E63004572726F723A257304
:104920002C25640D0A0000003C00002050000020EF
:104930002DE9FF4F85B0804689461746DDE912AB69
:10494000B800FEF779FF064656B16020FEF774FF07
:1049500004460CB1266304E03046FFF709F900E095
:1049600000247CB10020CDE900ABCDE902403A46FD
:1049700049464046089BFEF795FB2046FEF7F8F9AE
:10498000012501E04FF0FF35284609B0BDE8F08F62
:104990000549096809B9012005E00449096809B910
:1049A000022000E00020704744000020600000204A
:1049B00001490868704700003C0000202DE9F041E3
:1049C0004FF0000841480068002872D14048006854
:1049D000451C3F480560EDB93E480068006808B9CD
:1049E000012000E0002028B940F6D9123AA13FA0EA
:1049F000FBF782FC37480768404800683549086083
:104A00003E4807603E480068401C3D490860FEF78C
:104A1000F7FD00BF3B48006885423CD300BF2D48EE
:104A20000068006808B9012000E0002020B14FF0C4
:104A3000FF30344908602DE026480068C068C4682B
:104A40006668B54202D22F48066023E0201DFEF7BB
:104A5000C9FFA06A18B104F11800FEF7C3FF94F86B
:104A60002C1001208840284909680843264908601D
:104A7000E16A01EB8101254A02EB8100211DFEF76D
:104A8000EFFF2349E06A0968C96A8842C7D34FF03B
:104A90000108C4E700BF1E480068C06A00EB800040
:104AA0001A4951F82000012801D94FF0010805E00A
:104AB000FFE718480068401C16490860164800685F
:104AC00008B14FF001084046BDE8F08160000020C9
:104AD0003C0000202C0000202E2E5C4672656552A2
:104AE000544F535C7461736B732E63004572726F25
:104AF000723A25732C25640D0A0000003000002056
:104B00005000002058000020400000201C0300201E
:104B100028000020480000204C00002070B5054609
:104B20002C460026002D4BD026480068844201D137
:104B3000012000E0002028B940F6C76222A127A08A
:104B4000FBF7DAFB606D28B940F6C9621EA123A00D
:104B5000FBF7D2FB606D401E6065216DE06A884204
:104B60002ED0606D60BB201DFEF73CFF78B9E06A77
:104B700000EB80001D4951F8200040B994F82C103A
:104B8000012088401A490968814319480160206D55
:104B9000E062E06AC0F12000A06194F82C100120CE
:104BA000884013490968084311490860E16A01EB2C
:104BB00081010E4A02EB8100211DFEF751FF012603
:104BC000304670BD280000202E2E5C46726565526E
:104BD000544F535C7461736B732E63004572726F34
:104BE000723A25732C25640D0A0000001C03002076
:104BF0004000002070B50646F068C4682CB940F645
:104C000061321AA11EA0FBF777FB04F11800FEF732
:104C1000E9FE1F480068A8B9201DFEF7E3FE94F8DE
:104C20002C10012088401B49096808431949086075
:104C3000E16A01EB8101184A02EB8100211DFEF7B8
:104C40000FFF04E004F118011448FEF709FF1449AE
:104C5000E06A0968C96A884204D90125012011491E
:104C6000086000E00025284670BD00002E2E5C463E
:104C700072656552544F535C7461736B732E63009D
:104C80004572726F723A25732C25640D0A0000007C
:104C900060000020400000201C030020C40500200C
:104CA000280000204C00002070B500240026344865
:104CB000006828B94FF4FD6232A137A0FBF71CFB56
:104CC000FEF7DAFE2E480068401E2D4908600846AF
:104CD000006800284FD13448006800284BD024E0F9
:104CE0003248C068C46804F11800FEF77BFE201D3E
:104CF000FEF778FE94F82C10012088402C490968B2
:104D000008432B490860E16A01EB8101294A02EB63
:104D10008100211DFEF7A4FE2749E06A0968C96ADF
:104D2000884202D30120254908602048006808B95C
:104D3000012000E000200028D2D00CB1FEF760FC7A
:104D40001F48056865B100BFFFF738FE10B10120AC
:104D50001A4908606D1E002DF6D100201849086020
:104D60001648006838B10126300716490860BFF3BD
:104D70004F8FBFF36F8FFEF7C3FE304670BD00004C
:104D8000600000202E2E5C4672656552544F535CC5
:104D90007461736B732E63004572726F723A257380
:104DA0002C25640D0A00000038000020C4050020F6
:104DB000400000201C030020280000204C000020A0
:104DC0004800002004ED00E02DE9FC4705460E46B2
:104DD00017469846DDF828902C20FEF72DFD044656
:104DE0003CB143463A4631462846CDE90094FEF7A9
:104DF000C1F92046BDE8FC871CB50024FEF714F875
:104E00000B48006858B10B481F2100234FF48272F1
:104E1000CDE9001008A10A48FFF78AFD04462CB925
:104E200040F2331207A10DA0FBF766FA20461CBD25
:104E30006C00002070000020546D722053766300D7
:104E40008D3700082E2E5C4672656552544F535CB8
:104E500074696D6572732E63000000004572726F95
:104E6000723A25732C25640D0A0000002DE9FF47D6
:104E700004460D4616461F46DDF830804FF0000907
:104E80002CB94FF4D37217A11CA0FBF735FA1F48B9
:104E9000006810B3009501960294062D15DAFFF70D
:104EA00077FD022808D1002342466946174800686A
:104EB000FFF784FB814610E000231A466946134839
:104EC0000068FFF77BFB814607E000233A4669460E
:104ED0000E480068FFF754FC8146484604B0BDE820
:104EE000F08700002E2E5C4672656552544F535C6D
:104EF00074696D6572732E63000000004572726FF5
:104F0000723A25732C25640D0A0000006C00002005
:104F10000000000000000000010203040607080969
:104F2000000000000102030404000008000000006B
:104F300000000002000100001000000041542B4D51
:104F4000495043414C4C3D312C22434D4E45542257
:104F50000D0A000041542B434D45453D320D0A00DA
:104F600041542B434C4F5544434F4E4E3D37302C0C
:104F7000302C330D0A000000415469380D0A00003E
:104F800041542B43475245473F0D0A0041542B4D96
:104F9000495043414C4C3F0D0A00000041542B4303
:104FA00050494E3F0D0A000041542B4353513F0DD1
:104FB0000A00000041542B434F50533F0D0A00009C
:104FC00041540D0A000000002E0000002B43475200
:104FD00045473A20302C31002B434C4F5544415526
:104FE00054483A204F4B0000434C4F5544434F4EDA
:104FF0004E000000435351002B4350494E3A20527B
:105000004541445900000000415445300D0A00005C
:105010003050000800000020E40100006C0100088E
:1050200084500008E40100203C5C0000C801000836
:1050300001150478A24A041AAA018102230C13E480
:105040004FAA08041AF8049ACC101AC8041AD804F3
:105050005AE8101AF404811AC00C1A780413085084
:105060001B0854081A9C041A80041AB4041A3C043D
:105070005A8C2C5A60089AA83C018C8BF928980B02
:04508000106D27A4E4
:0400000508000131BD
:00000001FF
