:020000040800F2
:1000000090620020D50200083D3A0008233600081F
:1000100015370008332200084541000800000000A1
:100020000000000000000000000000003D02000889
:10003000372200080000000081020008373C000859
:10004000EF020008EF020008EF020008EF020008CC
:10005000EF020008EF020008EF020008EF020008BC
:10006000EF020008EF020008EF020008EF020008AC
:10007000EF020008EF020008EF020008EF0200089C
:10008000EF020008EF020008EF020008EF0200088C
:10009000EF020008EF020008EF020008EF0200087C
:1000A000EF020008EF020008EF020008EF0200086C
:1000B000EF020008EF020008EF020008EF0200085C
:1000C000EF020008EF020008EF020008EF0200084C
:1000D000EF0200085140000861400008D5400008C8
:1000E000EF020008EF020008EF020008EF0200082C
:1000F000EF020008EF020008EF020008EF0200081C
:10010000EF020008EF020008EF020008EF0200080B
:10011000EF020008EF020008EF020008EF020008FB
:10012000EF020008EF020008EF020008EF020008EB
:1001300000F002F800F073F80AA090E8000C824486
:100140008344AAF10107DA4501D100F068F8AFF263
:10015000090EBAE80F0013F0010F18BFFB1A43F0A5
:100160000103184708750000287500000A444FF085
:10017000000C10F8013B13F0070408BF10F8014B06
:100180001D1108BF10F8015B641E05D010F8016B4B
:10019000641E01F8016BF9D113F0080F1EBF10F8AF
:1001A000014BAD1C0C1B09D16D1E58BF01F801CBD2
:1001B000FAD505E014F8016B01F8016B6D1EF9D555
:1001C0009142D6D37047000000230024002500266A
:1001D000103A28BF78C1FBD8520728BF30C148BFAA
:1001E0000B607047662907F0F380642900F0CA802D
:1001F000732900F06785002070471FB500F0CAFD25
:1002000004000020002106F00FFF401C6060002069
:10021000002106F0F3FEE0601FBD10B510BD00F038
:10022000E5FE1146FFF7E9FF04F0FAFB01F05EF985
:1002300003B4FFF7F2FF03BC04F0FEF8224B196889
:100240000868B0E8F00F80F30988BFF36F8F4FF0B4
:10025000000080F311884EF00D0E70470000000082
:1002600006480068006880F3088862B661B6BFF38C
:100270004F8FBFF36F8F00DF00BF00BF08ED00E0BE
:10028000EFF30980BFF36F8F0F4B1A6820E9F00F6F
:10029000106008B54FF0500080F31188BFF34F8F06
:1002A000BFF36F8F05F0CCFF4FF0000080F3118893
:1002B000BDE8084019680868B0E8F00F80F30988C5
:1002C000BFF36F8F704700BF34000020EFF305804D
:1002D000704700000948804709480047FEE7FEE7ED
:1002E000FEE7FEE7FEE7FEE7FEE7FEE7FEE7FEE7E6
:1002F00004480549054A064B70470000493C000880
:1003000031010008905C002090620020905E002087
:10031000905E0020704700000FB4044910B503AA96
:10032000029800F0D3FC10BC5DF814FB2C000020F8
:1003300070B50C460546012A05D02878800600D500
:10034000EA69002302E0012305E05B1C934202D22C
:10035000E05C0028F9D1A869E618C01AA861286AEB
:10036000184428622846AFF3008004E0D5E9012153
:1003700014F8010B9047B442F8D32846AFF300803D
:1003800070BD00002DE9F041064600241068752973
:10039000314616A510D0AFF30080002802DA4042A3
:1003A00013A507E031688A0701D512A502E04907C5
:1003B00004D511A5012401E0AFF3008000210A2239
:1003C00006F1240709E0B0FBF2FCB0FBF2F302FBFC
:1003D0001C00303078541846491C0028F3D12346BD
:1003E0002A463046BDE8F04100F0DCB900000000CC
:1003F0002D0000002B000000200000002DE9F05F20
:10040000894604464FF0000ADFF824B1FB44C0F8E7
:1004100020A02046E168884700287DD0252806D006
:10042000D4E901219047206A401C2062F1E70025B1
:100430005F462046E16888472028064607DB312EC4
:1004400005D2B81910F8200C08B10543F1E7A80748
:1004500001D525F00405C4F81CA00027C4F818A095
:100460002A2E09D0304603F0E0FF38B304EB8708AA
:10047000303EC8F8186019E059F8041B204604EB18
:1004800087029161E1688847012F064618D1E0692B
:10049000002820DA25F020051DE0D8F8180000EB30
:1004A000800006EB40003038C8F818002046E168AC
:1004B0008847064603F0B9FF0028EED1012F0AD085
:1004C0002E2E08D12046E16888477F1C0646022F61
:1004D00045F02005C4DBA069002803DA404245F05E
:1004E0000105A061E80701D025F01005A6B1A6F12D
:1004F0004100192802D8203645F400654A463146A5
:10050000204625604D46FFF76DFE60B1012807D0FB
:10051000ED1D25F0070000E007E000F1080978E78D
:1005200005F1040975E730467AE7206ABDE8F09FD7
:10053000D870000030B505460B462A4613F8014B2B
:1005400012F8010B08B1A042F8D01CB1002802D06B
:100550006D1CF1E7284630BD40EA0103024630B584
:100560009B0710D14FF0013400E008C208C91D1BE1
:100570009D4315EAC41FF8D013F0FF0102F8011BD8
:100580000DD01B0AF8E711F8013B002B02F8013BE4
:1005900005D011F8013B002B02F8013BF3D130BD2F
:1005A00010B5431C02E010F8011B71B18107FAD1AC
:1005B0004FF0013202C88C1A8C4314EAC211F9D0F0
:1005C000C01A0A0603D0C01E10BDC01A10BD0A040E
:1005D00001D0801E10BD0902FCD0401E10BD421E7D
:1005E00012F8013F002BFBD111F8013B002B02F860
:1005F000013BF9D17047032A40F2308010F0030C20
:1006000000F0158011F8013BBCF1020F624498BF65
:1006100011F801CB00F8013B38BF11F8013BA2F102
:10062000040298BF00F801CB38BF00F8013B11F07D
:10063000030300F02580083AC0F0088051F8043B1D
:10064000083A51F804CBA0E80810F5E7121D5CBF8A
:1006500051F8043B40F8043BAFF30080D20724BFBD
:1006600011F8013B11F801CB48BF11F8012B24BF51
:1006700000F8013B00F801CB48BF00F8012B7047A0
:1006800010B5203AC0F00B80B1E81850203AA0E82D
:100690001850B1E81850A0E81850BFF4F5AF5FEA61
:1006A000027C24BFB1E81850A0E8185044BF18C914
:1006B00018C0BDE810405FEA827C24BF51F8043BBB
:1006C00040F8043B08BF7047D20728BF31F8023B0F
:1006D00048BF11F8012B28BF20F8023B48BF00F8A3
:1006E000012B704702F0FF0343EA032242EA024271
:1006F00000F002B84FF000020429C0F0128010F0A0
:10070000030C00F01B80CCF1040CBCF1020F18BFED
:1007100000F8012BA8BF20F8022BA1EB0C0100F080
:100720000DB85FEAC17C24BF00F8012B00F8012B53
:1007300048BF00F8012B70474FF0000200B5134688
:1007400094469646203922BFA0E80C50A0E80C50F1
:10075000B1F12001BFF4F7AF090728BFA0E80C50A2
:1007600048BF0CC05DF804EB890028BF40F8042B9B
:1007700008BF704748BF20F8022B11F0804F18BF08
:1007800000F8012B7047704770477047704710B5ED
:1007900000F004FB006810BD10B5044600F0FEFA3E
:1007A000046010BD2DE9F0470D4699469246044677
:1007B00000F124080168880604D5E06921F01001E1
:1007C000216000E00120A84201DD471B00E0002776
:1007D000A1697A1902EB0900081AA0612078C00605
:1007E00002D42046AFF30080002608E0D4E90121BE
:1007F0001AF806009047206A401C761C20624E457D
:10080000F4DB2078C0060AD52046AFF3008006E06E
:10081000D4E9012130209047206A401C2062381E14
:10082000A7F10107F4DC07E0D4E9012118F805007D
:100830009047206A401C2062281EA5F10105F3DCC8
:100840002046AFF300802078000602D50220BDE8E4
:10085000F0870120FBE770472DE9FF4F0C461E464D
:100860004FF0FF378BB0D2E90001DDF860800A90CD
:100870008A46C1F30A5505B93D46002108464FF0A6
:100880000000BAF1000F00F4400005DA00EB800030
:100890004FF4400101EA50004FEA9059B9F1010FBD
:1008A00000DDB9460A9850EA4A000ED044F61050CE
:1008B000A5F2FF3545432F14B8F1000F1ED0754245
:1008C000291E1EDDC9F100021CE0B8F1010F4FF036
:1008D000000001D0302103E0F24305E02154401C28
:1008E000B042FBDB30460022002121540B99C1F8B5
:1008F0000880C1E900200FB0BDE8F08FBD1B6D1C62
:10090000DEE74A4600DA694206A800F0F9FA06ABCB
:1009100093E8070003AB83E8070050460A9901F00B
:100920007AF88DE80700A0F500501F380090039872
:10093000002D09DD42F21F014A46084403A9039035
:10094000684601F004FB08E0A0F500504A461F3855
:1009500003A90390684601F022FB8DE8070000041C
:10096000000C03D04FF0FF30410800E01046B8F112
:10097000000F03D00022009215461EE0751E05D41C
:1009800000F010FA303262556D1EF9D5B3460122DF
:10099000084302D000227F1C04E02078302801D1D7
:1009A00000227F1E002A099786D01DE0112D07DA4C
:1009B00000F0F8F9303262556D1C50EA0102F5D1B1
:1009C000084302D00098C8B10EE00021681E05E07F
:1009D000235C625C63542254401E491C8142F7DB55
:1009E000AB46A81B401E0990002004F80B000B9892
:1009F000099AC0F80880C0E9002B7CE711264FF067
:100A0000000859E72DE9F04F88460446D21D22F030
:100A1000070191B0D1E90001CDE90A0103F08AFC98
:100A200002460B98C00F01D02D2007E020688107F7
:100A300001D52B2002E0202101EAC000032A099001
:100A400001D0072A05DB03464146204600F0F8F9AD
:100A50000BE12078800601D5E06900E00620B8F1BE
:100A6000650F814606D0B8F1660F18D0B8F1670F50
:100A700070D131E00020B9F1110F009001DB11239A
:100A800001E009F101030AAA01A90CA8FFF7E4FE9D
:100A9000DDE90C70002609F10105834647E00120DD
:100AA0004B4600904FF000470AAA01A90CA8FFF797
:100AB000D3FEDDE90DB00C995D46002610B909F1B1
:100AC00001000D18B9EB050003D4C0F1FF3609F1A0
:100AD0000105A5EB09002BE0B9F1010F01DA4FF098
:100AE00001090020B9F1110F0090484601DD1123E2
:100AF00000E003460AAA01A90CA8FFF7ADFEDDE954
:100B00000C704D4600268346207800070AD4AB457A
:100B100000DA5D4601A8012D04DD411911F8011C20
:100B2000302907D04F4502DA17F1040F04DA01200B
:100B300082460FE06D1EEEE7002F02DCED1B3E4407
:100B400003E0781CA84200DD7D1CB81B00F1010AFF
:100B50004FF000472078000703D4AA4501DB4FF08F
:100B6000FF3A0021B7F1004F0DF143088DF8431013
:100B700024D002202B23002F01DA7F422D230A21CB
:100B8000021EA0F1010000DC5FB197FBF1FC97FBB6
:100B9000F1F201FB1C7C17460CF1300C08F801CD7A
:100BA000EEE7A8F1010003702188090501D5452170
:100BB00000E06521A0F1010800F8011C09980FA9C7
:100BC000A1EB0807FF1D00B10120411901EBEA70FC
:100BD000A1693844081A401EA0612078C00602D4DA
:100BE0002046AFF30080099828B1D4E9012190474D
:100BF000206A401C20622078C00622D52046AFF330
:100C000000801EE0002E04DBB34502DD01A8805DFC
:100C100000E03020D4E901219047206A401C206286
:100C2000761CAAF101005FEA000A0AD100F0B2F8CE
:100C3000C0680168405CD4E901219047206A401CEB
:100C40002062281EA5F10105DCDC07E0D4E90121C2
:100C500018F8010B9047206A401C2062381EA7F14B
:100C60000107F3DC2046AFF30080032011B043E618
:100C700001694A1C02610878704700B58FB0CDE960
:100C800001310021059105497944CDE90310114650
:100C90006846FFF7B3FB0FB000BD0000E5FFFFFFA4
:100CA00010B5436913B1AFF3008001E0FFF740FBDB
:100CB000012010BD127800F124010A7000224A7050
:100CC0000122EDE711684FF0FF32E9E7074B70B5FD
:100CD0000D467B44FFF7D1FF0446284600F07EF91D
:100CE00010B14FF0FF3070BD204670BD633C000076
:100CF0000FB4002300B589B00CA900910B99CB600B
:100D0000214B7B440693214B7B44079304236FF0D4
:100D10000042CDE901321E4A7A446B4608920246EF
:100D2000002006F0B7FB09B05DF814FB70B506466D
:100D30004FF0FF3015460C46324686B00091CDE9A3
:100D4000010169460020049004A8FFF7D1FF024684
:100D50000498211825B108B1084600E02046286013
:100D6000049800280DD0002A02DD0098884208D09F
:100D70003246081B69460094CDE9010404A8FFF738
:100D8000B7FF06B070BD0000BB010000D30100003A
:100D90001301000000487047505C00200048704775
:100DA000305C002030B5B0F10A024FEA900E71F1CC
:100DB00000034EEA817EB0EB0E0061EB91014FEA39
:100DC000101E4EEA017E10EB0E0041EB11114FEAAE
:100DD000102E4EEA016E10EB0E0041EB11214FEA8E
:100DE000104E4EEA014E10EB0E0041EB114140183F
:100DF00041F100014FEAD00040EA41704FEAD101D1
:100E000010EB80054FEA810444EA907444EB01043E
:100E10006D1944EB0404521BA3414FF0000348BF7B
:100E20000A3200D530BD401C41F1000130BD10B583
:100E3000044600F001F90068005D00F0010010BDFB
:100E40002DE9F0411F46044603260168072A01F4F4
:100E5000006004DB08B116A505E016A503E008B1A3
:100E600015A500E015A521F010002060A069C01EA6
:100E7000A0610FB1401EA0612046AFF300804FB1CA
:100E8000D4E9012138469047206A401C2062C01CEA
:100E9000206206E0206AFAE7D4E9012115F8010B87
:100EA0009047761EF8D22046AFF30080BDE8F0816F
:100EB0004E414E006E616E00494E4600696E6600FE
:100EC000426842B1016811F8013B23B1521EC0E9EA
:100ED0000012184670470121C160881E70474268A1
:100EE0005AB1C368016843B983688B4205D0491E73
:100EF000521CC0E90012002070474FF0FF307047CD
:100F00002DE9F047814616468AB0334878440DC82B
:100F10008DE80D0030487844801C03AC0DC884E88F
:100F20000D0041F69B300844372190FBF1F290FB15
:100F3000F1F5A5F1800501FB12041B3C02D56442CA
:100F4000012000E00020DFF890A080460027FA444E
:100F5000AAF1BE0A0DE0E00709D03246684607EB69
:100F600047010AEB810101F01AF88DE807006410CF
:100F70007F1C002CEFD1184F7F44AC3F18E0E807EE
:100F800014D007EB04100DF1180A90E80E008AE85F
:100F90000E00C068F04201D198190890324606A9A7
:100FA00003A800F0FCFF03AB83E807006D10641C8E
:100FB000002DE4D132466946B8F1000F03A802D0F3
:100FC00000F0C5FF01E000F0EAFFC9E90001C9F83F
:100FD00008200AB0BDE8F08768660000007B00F0DA
:100FE0008000704700487047305C00207546FFF76E
:100FF000F9FFAE4605006946534620F007008546D6
:1010000018B020B5FFF774F9BDE820404FF0000696
:101010004FF000074FF000084FF0000B21F00701E0
:10102000AC46ACE8C009ACE8C009ACE8C009ACE823
:10103000C0098D467047000010B5FFF7ABFE001DDC
:1010400010BD00BFE55F00002DE9FF4F064689B0E7
:101050000878FF2806D0491C2D2805D000244FF021
:10106000000908E000200CE00124F8E709EB8903FF
:10107000491C00EB43090878FF28F7D114B1C9F1E6
:1010800000008146107800252C46AA4629462D28C6
:1010900001D02B2804D1521C2D2813D000208246C9
:1010A0008B461078FF280FD04FF0000C0A21521CFD
:1010B000A5FB017804FB018105FB0C11C5194BEB65
:1010C0000104EEE70120EAE7002108464FF00000A6
:1010D000BAF1000F02D000EB80004008C0F3815845
:1010E000B8F1010F01DD4FF0FF380C9809EB000754
:1010F00055EA040009D04FF0020917F5FA7F0BDA20
:101100004FEACA70C6E900B012E04FEACA70C6E9F9
:1011100000B00DB0BDE8F08FB7F5FA7F0DDDF048F7
:101120007844D0E90010C6E9001040EACA70706047
:10113000FFF734FEC0F80090EBE7391E02DAC8F181
:10114000000200E0424600DA794206A8FFF7D8FE26
:1011500006AB93E8070003AB83E8070044F23E00C8
:101160005BEA04010090584604D144F21E012C466B
:101170005D460091210C0904014306D10099240425
:1011800044EA15442D041039009104F07F410143D5
:1011900006D10099240244EA15642D020839009111
:1011A00004F07041014306D10099240144EA15740A
:1011B0002D01091F009104F04041014306D100991F
:1011C000A40044EA9574AD00891E009104F000412A
:1011D000084304D100986D196441401E00904246B6
:1011E0006846002FCDE9014503A902DD00F0EBFEC2
:1011F00001E000F0C0FEBAF1000F04460D4601D038
:1012000084F0004440F2FF7724F00040284303D0EC
:10121000C4F30A50B84212D1FFF7C0FDC0F80090E5
:10122000C4F30A50B8420AD1AE487844D0E900105D
:10123000C6E9001004F000410843706069E7C6E9A0
:10124000005466E72DE9FF4F1F464FF0000A4FF0AC
:10125000FF38454691B0D7E90146CDF83CA0FFF7ED
:1012600099FDC0680168405C1090B96912986D1CC6
:101270008847396A814688470028F6D1B9F1FF3F8F
:101280000AD0002E24F4D06411DDB9F12B0F08D060
:10129000B9F12D0F0BD102E0404615B03AE744F406
:1012A0008064B96912986D1C8847761E8146600576
:1012B00004A901D52D2000E02B20002E01F1010B07
:1012C0000DF130088DF810003FDDB9F1690F08D03D
:1012D000B9F1490F05D0B9F16E0F02D0B9F14E0F37
:1012E0001CD13B4601A8009580E85002DDE91212AE
:1012F0006FF0020006F0D2F8C11CCED10EE0B96941
:1013000012986D1C884781461398761E44F4007429
:1013100005600F98401C002E0F9016DDB9F1300FBC
:10132000EDD0B9F1780F02D0B9F1580F0DD10F9867
:1013300001280AD13B46CDE90054DDE91212001F15
:10134000029606F0A9F8C11CA7D1109989453ED193
:1013500044F0800406E01399681CAAF1010A44F4E1
:1013600000740860B9696D1C1298761E8847302891
:101370008146F0D02BE01099894505D1200603D491
:10138000761E44F0800418E0484603F04EF808B397
:10139000761E0DF123018B4544F4007408D2A9F1A7
:1013A00030000BF8010B200607D5AAF1010003E07D
:1013B000200602D40AF101008246A00502D5139945
:1013C000681C0860B96912986D1C88478146002E18
:1013D000D1DC53E0002E51DDB9F1650F02D0B9F137
:1013E000450F4BD1A00549D5B9696D1C1298761EE1
:1013F00024F440748847002E81460CDD2B2804D04D
:10140000B9F12D0F07D144F48074B96912986D1C9D
:101410008847761E8146E00501D52D2100E02B216D
:1014200008F8011BCDF8008021E0761E0DF139018E
:10143000884544F400740CD2A9F1300010F0FF008C
:1014400088F8000002D10099884509D908F10108FF
:1014500006E0E00501D5244801E042F20F70824623
:10146000B96912986D1C8847814613980560002E53
:1014700004DD484602F0D9FF0028D6D1F969129858
:101480008847FF2053468BF8000088F800000020B2
:101490000A900B9004AA0CA90AA8FFF7D5FDA00595
:1014A00002D46FF00100F8E614F0240F0AD0E00730
:1014B00014D13868DDE90A12031D3B600068C0E9F9
:1014C00000120BE00AA9684602F058FFE00705D1B8
:1014D0003868009A011D3960006802602846DCE621
:1014E000686500005E640000F1D8FFFF10B5044697
:1014F000AFF300802046BDE81040FEF799BE000023
:101500004FF0013C50F8042B51F8043B9A4221D192
:10151000A2EB0C03934313EACC1317D150F8042B1E
:1015200051F8043B9A4215D1A2EB0C03934313EA02
:10153000CC130BD150F8042B51F8043B9A4209D13B
:10154000A2EB0C03934313EACC13DBD04FF0000063
:10155000704700BFD01A01BAB1FA81F101F0180149
:1015600022FA01F0CB40C1F12001DBB2C0B2C01AB7
:101570002CFA01F3D11A914311EAC311E6D1704755
:101580002DE9FF4F1F464FF03C0987B04FF0004256
:10159000DDE9141001F10108DDF858A002EA40501D
:1015A0000390002005908346054604460490B969DF
:1015B000461E08988847AAF1010A0290BAF1000F66
:1015C0003BDD02982E2815D0102100F016FA0028D5
:1015D0002EDB4FF0010B0599014317D0B9F1000F35
:1015E0000BDB4A46C11700F0F5F905430C43A9F19E
:1015F000040905E0012004900BE008B145F0010565
:1016000001200590049820B9361D02E0049800B12D
:10161000361FB969089808F101088847BBF1000F27
:10162000AAF1010A0290C9D00999C1F80080C5E762
:101630000298702808D0502806D0F9690898884781
:10164000BBF1000F14D04FE0002002900120BBF14D
:10165000000F049009D0B969089808F1010888477B
:10166000AAF10109B9F1000F07DCF9690898884768
:101670006FF001000BB0BDE8F08F2B2804D02D28AF
:101680000CD14FF0FF300490B969089808F10108B7
:101690008847A9F10109B9F1000FE6DD411CE4D04A
:1016A0000A2100F0AAF90028DFDB029908F10108FD
:1016B00001EB810100EB41000290B969089888476D
:1016C0000A2100F09AF9099AA9F10109B9F1000F6C
:1016D000C2F8008001DD0028E7DAF9690898884738
:1016E0000499029800FB016655EA040004D004F056
:1016F0004041090002D006E0039898E0A40044EAC3
:101700009574AD00B61E04F00041080002D16D19B9
:101710006441761E159810F0240F03D04FF00B098A
:101720005C4803E04FF028096FF07D008246564583
:1017300007DAAAEB06018944B9F1410F01DD4FF048
:10174000410901200021A9F1010200F043F90246FC
:1017500028400B462140084301D0012100E0002130
:10176000501E029143F1FF3128402140084301D02F
:10177000012000E000200299834651EA0B014FD07E
:10178000002108464FF00000039900F4400039B1F1
:1017900000EB80004FF4400100EBD07001EA6000E4
:1017A0008015012802DD4FF0FF3000E013D0401C0F
:1017B00036D0029860B3BBF1000F0CD14A4601202D
:1017C000002100F007F928402140084301D0012002
:1017D00000E00020E0B101204A46002100F0FAF8C4
:1017E000034640190A4661412D1A8C4111D3B9F1C3
:1017F000400F09DD159810F0240F02D0AAF134062D
:1018000003E0AAF1170600E0761C00254FF0004423
:1018100006E05B1E42F1FF3220EA030521EA0204E2
:10182000CAF10100B04206DA1B490398084301904F
:10183000002000900EE0039AC4F3D321E80A0A4383
:10184000164940EA44500A433146CDE90002684651
:1018500002F0E0FD159810F0240F0BD01598C0078A
:1018600015D13868DDE90012031D3B600068C0E94E
:1018700000120CE002A8694602F080FD1598C0072E
:1018800005D13868029A011D39600068026040463F
:10189000F0E6000002FCFFFF0000F07F0000F03FD8
:1018A0002DE9FF4F92461D4685B04FF00041DDE91E
:1018B000124BDDE914727F1E01EA4B50414940F0A2
:1018C000FF4940EA0108002122F020004928049144
:1018D00002D04E2828D04CE03BA0012607C88DE856
:1018E0000700A9690698641C88477F1E014606D434
:1018F0001DF8060018B121F0200181420BD0E969E2
:1019000006988847032E34D0082E32D06FF001009D
:1019100009B0BDE8F08F761C032E01D0082EE0D16F
:10192000601CCAF80000DCE7A9690698641C8847B7
:101930007F1E2AD420F02000412826D1A9690698CC
:10194000641C88477F1E20D420F020004E281CD124
:10195000A9690698641C88477F1E48F4002849F44A
:101960008009CAF8004001D4282806D0E969069801
:1019700088475FEACB7012D022E0A9690698641C00
:1019800088477F1E01D4002803DAE9690698884752
:10199000BCE72928F1D1641CCAF80040E9E71BF034
:1019A000240F07D028680499031D2B600068C0E944
:1019B000001805E02868021D2A600068C0F8009041
:1019C0002046A5E70000F07F494E46494E4954594C
:1019D00000000000B2F120030AD5C2F1200301FA91
:1019E00002F120FA03F300FA02F041EA0301704722
:1019F00000FA03F14FF0000070473A2800D2303867
:101A000020F02002412A01D3A2F13700884201D3FD
:101A10004FF0FF3070475FEA400C08BF91F0000FB5
:101A20004FEA8C234FEAC12243EA51514FEA1C503E
:101A300018BF00F5F0404FEA300018BF41F00041F8
:101A40005FEA6C5C00F02980BCF1FF3F08BF40F00A
:101A500080407047130C06BF12044FF0100C4FF07B
:101A6000000C130E04BF12020CF1080C130F04BF7C
:101A700012010CF1040C930F04BF92000CF1020C44
:101A8000D30F04BF52000CF1010C11464FF00002BD
:101A9000A0F11F00A0EB0C00704711F0004F08BF31
:101AA000704731F000413FF4D5AF0B0C06BF09047D
:101AB0004FF0100C4FF0000C0B0E04BF09020CF19C
:101AC000080C0B0F04BF09010CF1040C8B0F04BFB1
:101AD00089000CF1020CCB0F04BF49000CF1010C82
:101AE000CCF12003A0EB0C0022FA03F302FA0CF273
:101AF00041EA030100F10100704720F07F4C80EAC9
:101B0000030023F07F47ACEB070303F57C5300F0A1
:101B1000004003F1FF032DE980494FEA154B09B45A
:101B20004FEA144325EA0B4E24EA03480FF2042639
:101B300006EB132749083E785FEA320203FB06678B
:101B4000C7F5000707FB06F64FEA54374FEAD646BB
:101B500006F1020607FB066CCCF1005C4FEA1C475D
:101B60002CEA074C07FB06F40CFB06F504EB1546C4
:101B70004FEA961634BF00204FF000404FEAD137AD
:101B800006FB07FC4FEA1C4C0CFB0BF7D21B03FBBC
:101B90000CF761EB07010CFB0EF7B0EB074072EBA3
:101BA00017420CFB08F734BFA2EB0742B2EB074227
:101BB00061EB17414FEA0C444FEA910706FB07FC23
:101BC0004FEA1C4C0CFB0BF7B0EBC74072EB5732E3
:101BD00003FB0CF734BFA2EBC742B2EBC74261EB89
:101BE00057310CFB0EF7B0EBC70072EB57720CFBD2
:101BF00008F734BFA2EBC702B2EBC70261EB577123
:101C0000039F4FEA816141EA921104EBCC044FEA51
:101C1000D1374FEA826206FB07FC42EA90124FEA94
:101C200080604FEA1C4C0CFB0BF7D21B03FB0CF73C
:101C300061EB07010CFB0EF7B0EB074072EB1742AC
:101C40000CFB08F734BFA2EB0742B2EB074261EB93
:101C500017414FEA8C554FEA910704EB9C2406FB91
:101C600007FC4FEA1C4C0CFB0BF7B0EBC74072EBC8
:101C7000573203FB0CF734BFA2EBC742B2EBC742AB
:101C800061EB57310CFB0EF7B0EBC70072EB5772EC
:101C90000CFB08F734BFA2EBC702B2EBC70261EB43
:101CA000577115EB4C254FEA816141EA92114FEAD9
:101CB00082624FEAD13742EA901206FB07FC44F1F8
:101CC00000044FEA80604FEA1C4C0CFB0BF7D21B60
:101CD00003FB0CF761EB07010CFB0EF7B0EB0740C1
:101CE00072EB17420CFB08F734BFA2EB0742B2EBD2
:101CF000074261EB174115EB1C154FEA813141EAB0
:101D000092414FEA823242EA90424FEA80304FEAF3
:101D10000C7644F1000448EA03434EEA0B484FF0C6
:101D2000000EB2EB080C71EB030724BF6246394684
:101D30004EEB0E0E4FF0000B0018524149414BEB99
:101D40000B0BB2EB080C71EB03077BF1000B24BF0C
:101D5000624639464EEB0E0E4FF0000B0018524112
:101D600049414BEB0B0BB2EB080C71EB03077BF11A
:101D7000000B24BF624639464EEB0E0E51EA0207B5
:101D800018BF46F0010616EB0E7655F1000254F12D
:101D9000000103D5BDE88901BDE80088BDE88901DF
:101DA000BDE80048B619524141EB0101A3F101031E
:101DB000704780807F7E7D7C7B7A797877767675B8
:101DC0007473727171706F6E6E6D6C6C6B6A6A6930
:101DD0006868676666656464636362616160605FCA
:101DE0005F5E5E5D5D5C5C5B5B5A5A595958585743
:101DF00057565655555554545353525252515150AB
:101E000050504F4F4F4E4E4D4D4D4C4C4C4B4B4BFD
:101E10004A4A4A4949494848484747474746464643
:101E2000454545444444444343434342424242417E
:101E30004141000046EA0646A3F570534FEA1646B4
:101E400046EA42564FEAD22242EA415210B54FEAE0
:101E5000D121A3F1010300F017F820F0004000F1B8
:101E6000010C00F0004701EB00501146BCF5006F7B
:101E700040EA070000D210BD02484FF0000140EADE
:101E8000070010BD0000F07F002B26D4770021D082
:101E90001CB54FEA370703B44FF010004FF01001A4
:101EA0004FF000000FBCBDE810400BF1010BBBF17F
:101EB000010F08BF5FEA170722BF12F1010211F1FB
:101EC00001014FF0004143F1000300F0004043EAFC
:101ED00000007047F9D35708DAE746EA064613F1DF
:101EE000400F4FEA16461FDD13F1200FDFBF1643E8
:101EF0000A46002120335B42C8D0C3F1200746EADE
:101F0000064602FA07F74FEA164646EA0706C3F105
:101F1000200722FA03F201FA07F721FA03F14FF042
:101F2000000342EA0702B1E746EA020646EA06462D
:101F30004FEA164646EA0106BCBF46EA0646360C9C
:101F40004FF000034FF000024FF000019EE72DE933
:101F5000C048934630B491E8380007C831EA400CD5
:101F600048BF34EA430C03D5FFF7C7FDFFF78CFFEA
:101F7000F0BCBDE800882DE9C048934630B491E834
:101F8000380007C831EA400C48BF34EA430C03D597
:101F9000FFF7B3FDFFF74EFFF0BCBDE800882DE969
:101FA000C048934630B491E8380007C810F0804F1D
:101FB00008BF13F0804F03D100F019F8FFF764FF5A
:101FC000F0BCBDE800882DE9C048934630B491E8E4
:101FD000380007C810F0804F08BF13F0804F03D1BE
:101FE00000F005F8FFF726FFF0BCBDE8008820F000
:101FF0007F4780EA030023F07F4C07EB0C03A3F537
:102000007C5300F00040A3F1FE0392F0000F00F0BB
:10201000B38095F0000F00F077802DE901494FEA79
:1020200011404FEA144621EA004800FB06FC24EA6E
:10203000064708FB06F607FB08F800FB07F718EB56
:1020400006484CEB164C4FEA124B18EB07484FEA88
:1020500015464CEB174022EA0B4E0BFB06FC25EA1B
:1020600006470EFB06F607FB0EFE0BFB07F71EEB03
:10207000064E4CEB164C4FF000061EEB074E4CEB99
:10208000174B18EB0B0840F1000018EB0E0B58EB48
:10209000000840F100008F1A4FF000013CBFC94317
:1020A000661B14BFB5EB040C00213CBFC943F61BF3
:1020B0004FEA17444EEA8E0E27EA04454FEA1C47C2
:1020C00004FB07622CEA074C05FB07F70CFB05F63F
:1020D00004FB0CFC16EB074642EB174216EB0C46D2
:1020E00042EB1C421BEB060658EB0202414146EA5A
:1020F0009E0601D5BDE80189B619524141EB0101A7
:10210000A3F10103BDE801894FEA14454FEA1147E5
:1021100024EA054621EA074C05FB07F406FB07F70E
:102120000CFB06F105FB0CFC11EB074144EB1744DB
:102130004FEA124711EB0C4144EB1C4422EA074CD6
:1021400005FB07F206FB07F70CFB06F605FB0CFC8C
:1021500016EB074642EB174216EB0C4642EB1C45CA
:102160006A1854F1000148BF7047B619524141EB5B
:102170000101A3F10103704795F0000F37D04FEA3A
:1021800011424FEA144721EA024624EA074C02FBB7
:1021900007F106FB07F70CFB06F402FB0CFC14EB43
:1021A000074441EB17414FEA154714EB0C4441EB50
:1021B0001C4125EA074C02FB07F506FB07F70CFB61
:1021C00006F602FB0CFC16EB074645EB174516EB33
:1021D0000C4645EB1C42121951F1000148BF7047F3
:1021E000B619524141EB0101A3F1010370474FEAD7
:1021F00014454FEA114724EA054621EA074C05FB3E
:1022000007F106FB07F70CFB06F24FF0000605FB93
:102210000CFC12EB074241EB174112EB0C4251EB65
:102220001C4148BF7047921841EB0101A3F1010323
:10223000704700BFFEE7704738B500224FF4806159
:10224000012004F0BBF80949086001F07DFF04F0AB
:1022500025FC04464FF0FF30002322460121009068
:102260000348006804F078FE38BD00001402002026
:102270001C00002038B505460D480068B0B10223A7
:102280006A4629460A48006804F0F0FA0446012C20
:1022900002D008A0FEF740F8009838B14FF0805007
:1022A0000C490860BFF34F8FBFF36F8F38BD00003C
:1022B000140200207573617274206964656C20617A
:1022C0006464207175657565206661696C65640D6F
:1022D0000A00000004ED00E0FFF7AEFF03E04FF45A
:1022E0007A7003F0B3FDFAE710B510A0FEF714F80A
:1022F0004FF4806003F01EFB04464FF480612046DB
:10230000FEF7F8F900231A4621460B48006804F04E
:102310008FF8214609A0FDF7FFFF0121204601F0BB
:10232000B3FA204603F09AFC10BD0000475053203A
:102330005461736B0D0A0000140200204D65736731
:102340002025730D0A00000031B5002400F0B0F91B
:10235000044600BF00F0ACF9001B00998842F9D395
:1023600038BD00002DE9F847024600240020002572
:102370008446002700237BE14FF0010808FA03F4AC
:10238000D1F8008008EA0400A0427DD1DFF8ECA279
:10239000D1F80480A8EB0A09D0453AD014DCB8F192
:1023A000030F50D009DCB8F1000F31D0B8F1010FA4
:1023B0001CD0B8F1020F49D120E0B8F1110F18D0AC
:1023C000B8F1120F42D11EE0B9F5881F25D006DC06
:1023D000B9F5803F20D0B9F5801F37D11AE0B9F5A3
:1023E000001F18D0B9F5041F30D117E0D1F80CC088
:1023F0002DE0D1F80C8008F1040C28E0D1F80C8015
:1024000008F1080C23E0D1F80C8008F10C0C1EE058
:1024100000BF00BF00BF00BF00BF00BFD1F80880F1
:10242000B8F1000F02D14FF0040C0BE0D1F8088096
:10243000B8F1010F03D14FF0080C146102E04FF026
:10244000080C546103E04FF0000C00E000BF00BF37
:10245000FF2801D8904601E002F104084646FF2813
:1024600002D84FEA830803E0A3F108084FEA88087E
:102470004746D6F800804FF00F0909FA07F928EA15
:1024800009080CFA07F900E07AE048EA0908C6F8FA
:102490000080D1F8048008F08058B8F1805F6FD1D7
:1024A00000BFDFF8DC81D8F8188048F00108DFF8B9
:1024B000D091C9F81880C846D8F8188008F00108EB
:1024C000CDF8008000BF00BF4FEAB9384FEA93094A
:1024D00058F829504FEA83784FEA18794FF00F08DF
:1024E00008FA09F825EA0805DFF89881424502D183
:1024F0004FF0000824E0DFF89081424502D14FF010
:1025000001081DE0DFF88481424502D14FF0020846
:1025100016E0DFF87C81424502D14FF003080FE05E
:10252000DFF87081424502D14FF0040808E0DFF87F
:102530006881424502D14FF0050801E04FF00608DE
:102540004FEA83794FEA197908FA09F848EA05054C
:10255000DFF848814FEA930948F82950D1F8048000
:1025600008F48038B8F5803F0BD1DFF83481D8F813
:10257000008048EA0008DFF82891C9F800800AE0E6
:1025800075E0DFF81C81D8F8008028EA0008DFF841
:102590001091C9F80080D1F8048008F40038B8F52B
:1025A000003F0ED1DFF8F88008F10408D8F8008069
:1025B00048EA0008DFF8E89009F10409C9F800804A
:1025C0000DE0DFF8DC8008F10408D8F8008028EA84
:1025D0000008DFF8CC9009F10409C9F80080D1F8AF
:1025E000048008F48018B8F5801F0ED1DFF8B080A1
:1025F00008F10808D8F8008048EA0008DFF8A09041
:1026000009F10809C9F800800DE0DFF8948008F1AD
:102610000808D8F8008028EA0008DFF8849009F15B
:102620000809C9F80080D1F8048008F40018B8F54A
:10263000001F0ED1DFF8688008F10C08D8F8008080
:1026400048EA0008DFF8589009F10C09C9F8008041
:102650000DE0DFF84C8008F10C08D8F8008028EA7B
:102660000008DFF83C9009F10C09C9F800805B1CF8
:10267000102BFFF481AEBDE8F887000000001110B8
:102680000010024000080140000C01400010014011
:102690000014014000180140001C014008000140E6
:1026A000000401400AB1016101E00B0403617047BD
:1026B00001480068704700002400002010B5084859
:1026C000006840F0100006490860052000F068F836
:1026D0000F2000F007F800F017F8002010BD0000F0
:1026E0000020024070B5044600F0BAF94FF47A7148
:1026F000B0FBF1F5284600F08FFE00222146501E67
:1027000000F010F8002070BD704700BF00F01F02FD
:10271000012191404209920002F1E022C2F8001129
:1027200000BF70472DE9F05F80460D461646002732
:1027300001F086F9074639462A46334601F007007C
:10274000C0F1070ABAF1040F02D94FF0040A01E000
:10275000C0F1070AD14600F1040ABAF1070F02D20C
:102760004FF0000A01E0A0F1030AD4464FF0010A3D
:102770000AFA09FAAAF1010A0AEA020A0AFA0CFAA2
:102780004FF0010B0BFA0CFBABF1010B0BEA030B47
:102790004AEA0B042146404601F05AF9BDE8F09F91
:1027A00000BF00F00702064B19684FF6FF031940FF
:1027B000044B0B4343EA0221014B196000BF7047F1
:1027C0000CED00E00000FA0570B504460D46002649
:1027D0009F48006800F00700A8420ED29C4800689D
:1027E00020F0070028439A4908600846006800F076
:1027F0000700A84201D0012070BD207800F002003F
:10280000022807D19348406820F0F000A1680843EF
:1028100090494860207800F0010000287CD0606872
:1028200001282DD12020010391FAA1F1B1FA81F103
:1028300008430121B1EB601F02D1864800680FE018
:102840002020010391FAA1F1B1FA81F1084302219C
:10285000B1EB601F02D17F48006A01E07D48406A09
:1028600020210A0392FAA2F2B2FA82F2114301F095
:102870001F02012191400840002860D10120BBE7E0
:10288000606802282CD12020010591FAA1F1B1FA4B
:1028900081F108430121B1EB601F02D16D4800684E
:1028A0000FE02020010591FAA1F1B1FA81F108436E
:1028B0000221B1EB601F02D16648006A01E0654861
:1028C000406A20210A0592FAA2F2B2FA82F211437A
:1028D00001F01F0201219140084078BB01208BE7E5
:1028E0002020022191FAA1F1B1FA81F108430121DE
:1028F000B1EB601F02D15748006810E02020022190
:1029000091FAA1F1B1FA81F108430221B1EB601F04
:1029100003D15048006A02E054E04E48406A20214A
:10292000022292FAA2F2B2FA82F2114301F01F02DD
:1029300001219140084008B901205DE7FFE74548C3
:10294000406820F003006168084342494860FFF78F
:10295000AFFE06466068012810D108E0FFF7A8FE28
:10296000801B41F28831884201D9032044E739486D
:10297000406800F00C000428F0D123E060680228D1
:1029800010D108E0FFF794FE801B41F288318842A5
:1029900001D9032030E72F48406800F00C000828D8
:1029A000F0D10FE008E0FFF783FE801B41F2883191
:1029B000884201D903201FE72648406800F00C0038
:1029C0000028F0D12248006800F00700A8420ED984
:1029D0001F48006820F0070028431D49086008468A
:1029E000006800F00700A84201D0012004E7207829
:1029F00000F00400042807D11648406820F4E06085
:102A0000E168084313494860207800F0080008286E
:102A100008D11048406820F46050216940EAC100A4
:102A20000C49486000F04EF80A49496801F0F0018D
:102A3000F02292FAA2F2B2FA82F2D140064A515C36
:102A4000C840064908600F20FFF74CFE0020D3E67F
:102A50000020024000100240D07400082000002036
:102A600001480068704700002000002000B5FFF713
:102A7000F7FF0749496801F4E0614FF4E06292FA18
:102A8000A2F2B2FA82F2D140024A515CC84000BDC3
:102A900000100240E074000800B5FFF7E1FF0749AD
:102AA000496801F460514FF4605292FAA2F2B2FA0E
:102AB00082F2D140024A515CC84000BD0010024081
:102AC000E0740008F0B585B00FF28C0C9CE8E010C3
:102AD00001A8A0E8E01024A52D680095002100249D
:102AE000002200230020214D696801F00C056DB320
:102AF000042D02D0082D28D101E01D4828E001F462
:102B000070154FF4701696FAA6F6B6FA86F6F540EA
:102B100001AE735D01F4803595B1144D6D6805F417
:102B200000354FF4003696FAA6F6B6FA86F6F5406A
:102B30001DF805400E4DB5FBF4F505FB03F202E070
:102B40000C4D03FB05F2104602E000BF084800BF31
:102B500000BF05B0F0BD0000020304050607080928
:102B60000A0B0C0D0E0F10100102000000100240A5
:102B700000127A0000093D0038B50446002520788F
:102B800000F0010000287CD0F848406800F00C00FC
:102B900004280CD0F548406800F00C00082837D114
:102BA000F248406800F48030B0F5803F30D12020FA
:102BB000010391FAA1F1B1FA81F108430121B1EBCE
:102BC000601F02D1E94800680FE02020010391FA5C
:102BD000A1F1B1FA81F108430221B1EB601F02D1EA
:102BE000E248006A01E0E148406A20210A0392FAC3
:102BF000A2F2B2FA82F2114301F01F0201219140C8
:102C000008400028BFD0606800283AD1012038BDB4
:102C100000BF6068B0F5803F06D1D448006840F43A
:102C20008030D249086028E0606858B9CF48006811
:102C300020F48030CD4908600846006820F48020E8
:102C400008601AE06068B0F5A02F0BD1C748006893
:102C500040F48020C54908600846006840F4803090
:102C600008600AE0C148006820F48030BF4908606D
:102C70000846006820F48020086000BF6068C8B380
:102C800000E06FE0FFF714FD054606E0FFF710FDDA
:102C9000401B642801D90320B9E72020010391FAE1
:102CA000A1F1B1FA81F108430121B1EB601F02D11A
:102CB000AE4800680FE02020010391FAA1F1B1FABB
:102CC00081F108430221B1EB601F02D1A748006ADD
:102CD00001E0A648406A20210A0392FAA2F2B2FA61
:102CE00082F2114301F01F020121914008400028A7
:102CF000CCD037E0FFE7FFF7DBFC054606E0FFF747
:102D0000D7FC401B642801D9032080E72020010361
:102D100091FAA1F1B1FA81F108430121B1EB601FF1
:102D200002D1924800680FE02020010391FAA1F13E
:102D3000B1FA81F108430221B1EB601F02D18B4847
:102D4000006A01E08948406A20210A0392FAA2F24F
:102D5000B2FA82F2114301F01F02012191400840B2
:102D60000028CCD1207800F0020002284ED17F4804
:102D7000406800F00C0050B17C48406800F00C0046
:102D8000082844D17948406800F4803078BB20207E
:102D9000022191FAA1F1B1FA81F108430121B1EBCD
:102DA000601F02D1714800680FE02020022191FAD3
:102DB000A1F1B1FA81F108430221B1EB601F02D108
:102DC0006A48006A01E06948406A2021022292FABA
:102DD000A2F2B2FA82F2114301F01F0201219140E6
:102DE000084028B12069012802D001200FE70EE039
:102DF0005E48006820F0F800F82292FAA2F2B2FAD7
:102E000082F26169914008435849086091E0206965
:102E1000F0B3012090FAA0F1B1FA81F1544A42F8DE
:102E20002100FFF745FC054606E0FFF741FC401B8B
:102E3000022801D90320EAE62020022191FAA1F11B
:102E4000B1FA81F108430121B1EB601F02D147487B
:102E500000680FE02020022191FAA1F1B1FA81F17E
:102E600008430221B1EB601F02D14048006A01E033
:102E70003E48406A2021022292FAA2F2B2FA82F27D
:102E8000114301F01F02012191400840002800E099
:102E90000FE0CAD03548006820F0F800F82292FA16
:102EA000A2F2B2FA82F26169914008432F490860A8
:102EB0003FE00020012191FAA1F1B1FA81F12C4A01
:102EC00042F82100FFF7F4FB054606E0FFF7F0FBB0
:102ED000401B022801D9032099E62020022191FA03
:102EE000A1F1B1FA81F108430121B1EB601F02D1D8
:102EF0001E4800680FE02020022191FAA1F1B1FAEA
:102F000081F108430221B1EB601F02D11748006A2A
:102F100001E01648406A2021022292FAA2F2B2FA97
:102F200082F2114301F01F02012191400840002864
:102F3000CCD1207800F0080008284BD1A069A8B3B4
:102F4000012191FAA1F0B0FA80F0094A02EB800069
:102F5000C0F88014FFF7ACFB05460BE0FFF7A8FBB9
:102F6000401B022806D9032051E600000010024051
:102F7000000042426020022191FAA1F1B1FA81F1F0
:102F800008430121B1EB601F02D1F948006810E04D
:102F90006020022191FAA1F1B1FA81F108430221E6
:102FA000B1EB601F03D1F248006A02E013E0F04881
:102FB000406A6021022292FAA2F2B2FA82F211432E
:102FC00001F01F020121914008400028C6D00120D5
:102FD000FFF7BAF941E00020012191FAA1F1B1FA1D
:102FE00081F1E44A02EB8101C1F88004FFF760FB44
:102FF000054606E0FFF75CFB401B022801D90320D1
:1030000005E66020022191FAA1F1B1FA81F10843AD
:103010000121B1EB601F02D1D54800680FE06020AC
:10302000022191FAA1F1B1FA81F108430221B1EB39
:10303000601F02D1CE48006A01E0CD48406A60219D
:10304000022292FAA2F2B2FA82F2114301F01F02B6
:103050000121914008400028CCD1207800F00400E4
:10306000042875D100BFC248C06940F08050C049F3
:10307000C8610846C06900F08050009000BF00BFE2
:10308000BD48006840F48070BB490860FFF710FB42
:10309000054606E0FFF70CFB401B642801D903201E
:1030A000B5E5B548006800F480700028F2D000BF94
:1030B000E068012806D1AE48006A40F00100AC4942
:1030C000086227E0E06858B9A948006A20F00100CA
:1030D000A74908620846006A20F00400086219E067
:1030E000E06805280BD1A248006A40F00400A0491E
:1030F00008620846006A40F0010008620AE09C4845
:10310000006A20F001009A4908620846006A20F02F
:103110000400086200BFE068D0B3FFF7C9FA0546B3
:1031200008E0FFF7C5FA401B41F28831884201D917
:1031300003206CE54020022191FAA1F1B1FA81F15E
:1031400008430121B1EB601F03D18948006810E0FA
:1031500058E04020022191FAA1F1B1FA81F108432F
:103160000221B1EB601F02D18148006A01E0804872
:10317000406A4021022292FAA2F2B2FA82F211438C
:1031800001F01F020121914008400028C9D039E018
:10319000FFE7FFF78DFA054608E0FFF789FA401BC5
:1031A00041F28831884201D9032030E540200221D4
:1031B00091FAA1F1B1FA81F108430121B1EB601F4D
:1031C00002D16B4800680FE04020022191FAA1F182
:1031D000B1FA81F108430221B1EB601F02D16448CA
:1031E000006A01E06248406A4021022292FAA2F29B
:1031F000B2FA82F2114301F01F020121914008400E
:103200000028CAD1E069002873D05948406800F00E
:103210000C0008286ED0E06902286CD100204FF025
:10322000807191FAA1F1B1FA81F1524A42F821007C
:10323000FFF73EFA054606E0FFF73AFA401B022880
:1032400001D90320E3E42020010591FAA1F1B1FAAC
:1032500081F108430121B1EB601F02D144480068AD
:103260000FE02020010591FAA1F1B1FA81F10843A4
:103270000221B1EB601F02D13D48006A01E03C48E9
:10328000406A20210A0592FAA2F2B2FA82F21143B0
:1032900001F01F020121914008400028CCD1206A92
:1032A000B0F5803F07D13248406820F40030A16873
:1032B00008432F494860D4E9080108432C4949686C
:1032C00021F4741108432A4948600121080690FA44
:1032D000A0F0B0FA80F0274A42F82010FFF7E8F992
:1032E000054609E0FFF7E4F9401B022804D9032052
:1032F0008DE479E076E02CE02020010591FAA1F13F
:10330000B1FA81F108430121B1EB601F02D11848E5
:1033100000680FE02020010591FAA1F1B1FA81F1D6
:1033200008430221B1EB601F02D11148006A01E09D
:103330000F48406A20210A0592FAA2F2B2FA82F2FC
:10334000114301F01F020121914008400028C9D01B
:103350004AE000204FF0807191FAA1F1B1FA81F1B9
:10336000044A42F82100FFF7A3F905460DE00000EA
:10337000001002400000424200700040FFF798F940
:10338000401B022801D9032041E42020010591FAC5
:10339000A1F1B1FA81F108430121B1EB601F02D123
:1033A000124800680FE02020010591FAA1F1B1FA5E
:1033B00081F108430221B1EB601F02D10B48006A82
:1033C00001E00A48406A20210A0592FAA2F2B2FA04
:1033D00082F2114301F01F020121914008400028B0
:1033E000CCD101E0012012E4002010E400100240E2
:1033F000042808D14FF0E021096941F004014FF0A1
:10340000E022116107E04FF0E021096921F0040199
:103410004FF0E0221161704770B504462546681EE2
:10342000B0F1807F01D301200FE0681E4FF0E02152
:1034300048610F214FF0FF3000F00AFB00204FF0F1
:10344000E021886107200861002070BD7047F8B551
:103450000446002500262068006800F00105206869
:10346000C06800F4807625B11EB1E06B40F0010029
:10347000E06320680068C0F340052068406900F000
:10348000010625B11EB1E06B40F00400E063206846
:103490000068C0F3800525B11EB1E06B40F002006A
:1034A000E06320680068C0F3C00525B11EB1E06B81
:1034B00040F00800E06320680068C0F34015206811
:1034C000C06800F020061DB116B1204600F045FC92
:1034D00020680068C0F3C0152068C06800F080064E
:1034E0001DB116B1204600F07BFD20680068C0F3D6
:1034F00080152068C06800F040061DB116B1204656
:1035000000F013FCE06B70B100BF20680068009011
:1035100020684068009000BF00BF012084F8390097
:103520002046FFF793FFF8BD10B504460CB9012003
:1035300010BDA06900B100E000BF94F8390028B9BF
:10354000002084F83800204600F025F8022084F896
:1035500039002068C06820F400502168C860204607
:1035600000F05AFC2068006920F49040216808614E
:103570002068406920F02A00216848612068C068FE
:1035800040F400502168C8600020E063012084F806
:1035900039000020CCE7704730B50346002493F88B
:1035A0003940012C01D0122C37D101B10AB90120C8
:1035B00030BD00BF93F83800012801D10220F7E7A1
:1035C000012083F8380000BF99629A85DA850020CF
:1035D000D86393F83900122803D1322083F83900D8
:1035E00002E0222083F8390000BF002083F8380071
:1035F00000BF1868C06840F480701D68E8601868F3
:10360000406940F001001D6868611868C06840F0BA
:1036100020001D68E8600020CAE70220C8E7704764
:10362000704700BFFEE7000010B586B0044600BF3B
:103630001E48806940F004001C4988610846806982
:1036400000F00400019000BF00BF00BF0846806981
:1036500040F4804088610846806900F48040019011
:1036600000BF00BF48150290022003900120049083
:103670000320059002A90E48FEF774FE4FF4806007
:10368000029002A90A48FEF76DFE0A480A4908603E
:103690000846446000218160C160016181610C21A4
:1036A0004161FFF741FF06B010BD0000001002406D
:1036B00000080140003801409802002010B504467F
:1036C000224601210148FEF7EDFF10BD0018014020
:1036D00000B585B000BF0D48806940F040000B493F
:1036E00088610846806900F04000009000BF00BF7C
:1036F000012001900290032004900120039001A971
:103700000348FEF72FFE05B000BD00000010024088
:103710000018014000BFFEE738B505460D480068B7
:10372000B0B100236A4629460A48006803F09EF8B3
:103730000446012C02D008A0FCF7EEFD009838B139
:103740004FF080500C490860BFF34F8FBFF36F8F6D
:1037500038BD00000C02002075736172742069642A
:10376000656C2061646420717565756520666169AA
:103770006C65640D0A00000004ED00E0782002F0A2
:10378000D9F805463C2002F0D5F804466BE000234A
:103790005A1E29463448006802F04AFE294633A0E2
:1037A000FCF7BAFD3548407801281ED13349012382
:1037B0000022D1F86001214602F03AFE012814D11E
:1037C00021462846FCF7B6FE78B12C4900231A465C
:1037D000D1F86001214602F02BFE284900231A4649
:1037E000D1F84001194602F05FFF24480079012812
:1037F0002AD1224901230022D1F86001214602F09A
:1038000017FE012820D121462846FCF793FED8B1A7
:103810001A4900231A46D1F86001214602F008FE39
:103820001648D0F8580138B1144902230022D1F8C3
:103830005801294602F038FF104900231A46D1F8F2
:103840004801194602F030FF0DA12846FCF772FE30
:1038500030B10C4900231A46C86C194602F024FF07
:10386000642002F0F3FA92E70C020020476574200E
:103870006275662025730D0A00000000A800002074
:103880004F4B0000DC5B00202DE9F04106460C4662
:103890004FF4FA7002F04EF807464FF4FA713846CA
:1038A000FCF728FF44B914A13846FCF755FE314611
:1038B0003846FCF794FE05E0012C03D1314638462A
:1038C000FCF74AFE0D48006880B100235A1E3946B5
:1038D0000A48006802F0E8FE0546012D06D008A05F
:1038E000FCF71AFD4FF0FF30BDE8F081384602F0DA
:1038F000B5F90120F8E7000041542D001002002026
:103900004D657373616765206661696C65640D0A56
:1039100000000000C82002F00DF80446002541E038
:10392000C8212046FCF7E6FE00235A1E21461E4809
:10393000006802F07DFD1DA12046FCF7FBFD58B19B
:103940001AA12046FCF7F6FD0746FF1C18488764BD
:10395000016D0020884704E015488464016D012052
:1039600088470026002517E0681CC5B21048C06CC7
:1039700078B10F49002341F28832C86C194602F031
:1039800057FD064629460BA0FCF7C6FC012E00D1C8
:1039900003E0022D00DB00E0E6E700BF642002F058
:1039A00055FA00BFBCE700001002002041542D0072
:1039B000DC5B002025640D0A0000000070B50446A1
:1039C0000E461546002278210A2002F0F7FC17491E
:1039D00008600022C821082002F0F0FC14490860A9
:1039E00003220021012002F0E9FC1249C8641248B8
:1039F00008650846002141628162C16201631421A9
:103A00003430FCF799FE24210A48FCF795FE214644
:103A100008482430FCF7A0FD314606483430FCF756
:103A20009BFD29460348FCF797FD70BD0C02002062
:103A300010020020DC5B0020A54700087047000052
:103A400002480068C0F30220704700000CED00E05F
:103A500010B5002807DA0A07140E054A00F00F0314
:103A60001B1FD45403E00A07130E024A135410BD5F
:103A700018ED00E000E400E07CB5054602F072F8C5
:103A80003048D0F83001012300224FF4FA61009051
:103A90002DA003F00FFA30490860304802230122BC
:103AA00041F28831009028A003F004FA2C49086004
:103AB0002C480323012240F6B831009022A003F0E5
:103AC000F9F92949086029A231A134A0FFF776FF4E
:103AD0001C4826A22EA1D0F83C3130A0984732488D
:103AE000042100238A01CDE9001030A1324802F000
:103AF00095FF3248032100234FF48072CDE9001076
:103B00002FA1314802F08AFF304802210023CA0168
:103B1000CDE900102EA1304802F080FF02F0BEFF78
:103B200004464FF0FF3000232246012100900A484E
:103B3000006803F011FA2948006802F0C1F902F0A8
:103B400055F87CBDA80000204F6E6553686F745413
:103B5000696D65720000000010000020CD5A000859
:103B600018000020E92200081C00002054474D6D79
:103B70007973673744584442425955474565547AEA
:103B800076366863416165347A354D39000000004E
:103B90006465766963656E616D65000043384F7AD0
:103BA0004436506B6D395600040000204C454430BB
:103BB0005461736B000000007D370008080000208E
:103BC0004D73675461736B00153900080C000020B9
:103BD0004750535461736B00D92200080000002045
:103BE00030B58FB0054600240120059000040690F2
:103BF0000020079002200C90C1030D910E9505A89E
:103C0000FEF7BAFF04460CB100BFFEE70F2000909C
:103C100002200190002002904FF480600390002069
:103C2000049002216846FEF7CFFD04460CB100BFA8
:103C3000FEE70FB030BD10B502F020FF012801D023
:103C400002F0A2FB10BD00001148006840F0010026
:103C50000F490860084640680E4908400C49486012
:103C6000084600680C490840094908600846006891
:103C700020F4802008600846406820F4FE00486078
:103C80004FF41F008860C8030449086070470000B3
:103C9000001002400000FFF8FFFFF6FE08ED00E014
:103CA0002DE9F04107460D463846FCF779FC804681
:103CB0000026002400BF12E0385DC11700EB11712F
:103CC00009113031A955761C385DC11700EB11710F
:103CD0000911A0EB01113031A955761C641C444533
:103CE000EADB00241DE0285D3A38062816D2DFE81A
:103CF00000F00306090C0F12412028550FE0422066
:103D000028550CE04320285509E04420285506E0BA
:103D10004520285503E04620285500E000BF00BF9D
:103D2000641CB442DFDBBDE8F08110B504462068B6
:103D3000C06820F040002168C86094F8390032283B
:103D400003D1222084F8390002E0012084F83900F0
:103D50002046FFF765FC002010BD70B50446002624
:103D600094F83960222E01D0322E52D1A068B0F5DD
:103D7000805F13D1A56A206940B920684068C0F30C
:103D800008002880A06A801CA06219E020684068B2
:103D9000C0B22880A06A401CA06211E0206938B936
:103DA00020684068C1B2A26A501CA062117007E08E
:103DB0002068406800F07F01A26A501CA062117068
:103DC000E08D401E80B2E08508BB2068C06820F00E
:103DD00020002168C86094F83900322803D11220ED
:103DE00084F839000EE02068C06820F480702168F3
:103DF000C8602068406920F0010021684861012006
:103E000084F839002046FFF70AFC002070BD00202E
:103E1000FCE70220FAE700002DE9F0410446002506
:103E20002068006920F44050E16808432168086177
:103E30002169A0680843616940EA01052068C068FB
:103E400041F20C61884328432168C86020684069BA
:103E500020F44070A1690843216848615F492068E7
:103E600088425CD1FEF718FE00EBC00101EB0010A8
:103E700061688900B0FBF1F6FEF70EFE00EBC001B1
:103E800001EB001061688900B0FBF1F06421B0FB28
:103E9000F1F000EBC00101EB0010A6EB8000322135
:103EA00001EB00106421B0FBF1F000F0F006FEF72A
:103EB000F3FD00EBC00101EB001061688900B0FB6D
:103EC000F1F06421B0FBF1F006EB0016FEF7E4FD23
:103ED00000EBC00101EB001061688900B0FBF1F755
:103EE000FEF7DAFD00EBC00101EB0010616889000C
:103EF000B0FBF1F06421B0FBF1F000EBC00101EB8D
:103F00000010A7EB8000322101EB00106421B0FB10
:103F1000F1F000F00F003044216888605BE0FEF7AC
:103F2000A5FD00EBC00101EB001061688900B0FB4A
:103F3000F1F6FEF79BFD00EBC00101EB001061689C
:103F40008900B0FBF1F06421B0FBF1F000EBC0019F
:103F500001EB0010A6EB8000322101EB0010642180
:103F6000B0FBF1F000F0F006FEF780FD00EBC001C1
:103F700001EB001061688900B0FBF1F06421B0FB37
:103F8000F1F006EB0016FEF771FD00EBC00101EB4E
:103F9000001061688900B0FBF1F7FEF767FD00EBE8
:103FA000C00101EB001061688900B0FBF1F06421F1
:103FB000B0FBF1F000EBC00101EB0010A7EB8000BB
:103FC000322101EB00106421B0FBF1F000F00F0092
:103FD000304421688860BDE8F0810000003801406D
:103FE00010B50146002391F83930122B01D0322B45
:103FF0002CD18868B0F5805F0FD10A6A1088C0F3B1
:1040000008000C686060086918B9086A801C0862BA
:1040100009E0086A401C086205E00C6A601C08623E
:1040200020780C686060C88C401E80B2C88458B983
:104030000868C06820F080000C68E0600868C0680C
:1040400040F040000C68E060002010BD0220FCE75A
:1040500010B50248FFF7FBF910BD000098020020E0
:1040600038B5184800680068C0F3401048B11648D9
:104070000068C4B215490888411C144A11801449CB
:104080000C54104800680068C0F30010A8B100BFCD
:104090000C480068006800900A480068406800907A
:1040A00000BF00BF0A48FEF7E5F800200749088076
:1040B0004FF480610648FCF73FFB0248FFF7C7F961
:1040C00038BD0000580200200444004030000020A9
:1040D000D802002038B5174800680068C0F34010C7
:1040E00048B115480068C4B214490888411C134AF5
:1040F000118013490C540F4800680068C0F3001089
:10410000A0B100BF0B480068006800900948006833
:104110004068009000BF00BF0948FFF7FDFA00208B
:104120000649088078210648FCF706FB0148FFF79E
:104130008EF938BD180200200448004032000020EB
:10414000D806002000BFFEE700B585B000BF3048AC
:10415000806940F004002E4988610846806900F0BB
:104160000400009000BF00BF00BF0846C06940F4D3
:104170000030C8610846C06900F40030009000BFFC
:1041800000BF042001900220029001200390032030
:10419000049001A91F48FEF7E5F8082001900020CF
:1041A000029001A91B48FEF7DDF81B481B49086077
:1041B0004FF416504860002118488160C1600161C9
:1041C00081610C214161FFF7AFF94FF4806214491E
:1041D0001248FFF7E1F92620FEF797FA002207219F
:1041E0002620FEF79FFA00BF0C4800680068009088
:1041F0000A4800684068009000BF00BF0748006898
:10420000C06840F0100005490968C86005B000BDED
:104210000010024000080140004400405802002005
:10422000D802002010B586B0044600BF2F48806930
:1042300040F008002D4988610846806900F00800B8
:10424000019000BF00BF00BF0846C06940F4802055
:10425000C8610846C06900F48020019000BF00BF1B
:10426000081502900220039001200490032005907D
:1042700002A91F48FEF776F84FF400600290002074
:10428000039002A91A48FEF76DF81A481A49086007
:104290000846446000218160C160016181610C2198
:1042A0004161FFF741F9782214491348FFF774F987
:1042B0002720FEF72AFA002206212720FEF732FAED
:1042C00000BF0D480068006801900B480068406816
:1042D000019000BF00BF08480068C06840F01000AF
:1042E00005490968C86006B010BD00000010024012
:1042F000000C01400048004018020020D8060020B1
:1043000070B504462046FCF74BF9054600200BE04B
:1043100000BF0749096801F040010029F9D0215C7C
:10432000034A121D1160401CA842F1DB70BD000061
:1043300000480040490050EAC12018BF04204A0D3F
:1043400018BF40F0010040F2FF72B2EB515F08BFAE
:1043500040F00200012808BF0520704740F20132FA
:1043600000204FF0E04103F067B80000024A00204F
:10437000110703F061B8000001FDFFFF10B504460E
:10438000D1E9000100F002F8206010BDF8B5044644
:104390000D466A4600F0DEFA00987E300090002854
:1043A0001FDC002213462046294602F099FE18D051
:1043B000002140F608004FF000000646204629463E
:1043C00002F048FE044640F6080006EA00014FF0FD
:1043D000000034F0004004BF0220FCF7DDF9204665
:1043E000F8BD0098FF280DDB0220FCF7D5F900226C
:1043F00013462046294602F03FFF8CBF04484FF089
:10440000FF40F8BD20462946BDE8F84002F022BE34
:10441000000080FF10B504460A46D4E9000319469F
:1044200000F0C4FAC4E9000110BD30380A2801D2F6
:10443000012070470020704700BF704730B583B03F
:104440000446FCF7A4F905460020CDE90000024629
:1044500021466846FCF76AFC2846FCF79DF9DDE931
:10446000000103B030BD000010B50420FEF7C0FF0E
:10447000104800681049B0FBF1F0104908700D4871
:1044800000680D49B0FBF1F44FF47A704443012009
:104490000B4908804FF0E020006940F002004FF027
:1044A000E021086108464461006940F001000861AC
:1044B00010BD00002000002040420F002800002016
:1044C0002A00002070B5034600224FF0E0267569EF
:1044D0000D4E367803FB06F44FF0E026B16910E08C
:1044E0004FF0E026B06988420BD0884202D20E1A03
:1044F000324402E02E1A0E4432440146A24200D356
:1045000000E0EDE700BF70BD2800002030B5044694
:10451000002504E04FF47A70FFF7D4FF6D1CA5422C
:10452000F8D330BD2DE9F04104460E461546002073
:104530004F4948708870C87008714871A02001F018
:10454000F9F90746A0213846FCF7D4F849A0FBF753
:10455000E3FE4748803000218164C1640165416504
:1045600014215830FCF7E8F824214148EC30FCF7DE
:10457000E3F821463E48C830FBF7EEFF31463C48A1
:10458000D830FBF7E9FF29463948EC30FBF7E4FF68
:104590003CA13846FBF7E0FF3549C8313846FCF707
:1045A0001EF83CA13846FCF71AF83149D831384694
:1045B000FCF715F837A13846FCF711F82C49EC3117
:1045C0003846FCF70CF833A13846FCF708F832A15E
:1045D0003846FCF704F839463548FBF7BDFF344947
:1045E0002348C0F88410A0213846FCF783F831A195
:1045F0003846FBF7B1FF1E49C8313846FBF7EFFFDD
:1046000030A13846FBF7EBFF1949D8313846FBF7A4
:10461000E6FF2DA13846FBF7E2FF39462D48FBF7B0
:104620009BFF2C491248C0F88C1003220021012066
:1046300001F0C4FE0E49C1F840010322002101200F
:1046400001F0BCFE0A49C1F8480100221E210120E8
:1046500001F0B4FE0649C1F8600100227821012072
:1046600001F0ACFE0249C1F85801BDE8F08100003C
:10467000A80000204735313020436F6E6669670D12
:104680000A00000041542B434C4F554441555448B7
:104690003D220000222C2200696F742D6175746820
:1046A0002E616C6979756E2E636F6D220D0A0000A4
:1046B0009C5A002041542B434C4F55445355423D86
:1046C000222F00002F0000002F676574222C300D70
:1046D0000A0000003C5B002038B517A0FBF71CFE69
:1046E00001201849487000241DE000F001FA00285C
:1046F00014DD15A0FBF710FE00201249487002F0EF
:10470000CDF905464FF0FF3000232A4601210090E5
:104710001548006802F020FC012038BD611C13A080
:10472000FBF7FAFD641C052CDFDB19A0FBF7F4FD99
:1047300001F07EFD00BFFEE7636F6E6E6563747906
:104740000D0A0000A8000020436F6E6E656365745B
:1047500020746F20636C6F75642073756363657379
:104760007366756C0D0A00001C000020436F6E6EAE
:1047700065637420746F20636C6F75642066616973
:104780006C65642025642E2E2E2E2E0D0A0000004E
:10479000446576696365205265626F6F74696E6700
:1047A0000D0A00002DE9F04104464FF47A7001F043
:1047B000C1F806464FF4FA7001F0BCF8074606202F
:1047C00001F0B8F80546012C39D14FF47A71304622
:1047D000FBF790FF4FF4FA713846FBF78BFF002090
:1047E0002860A8802649886C3946FFF759FA25A128
:1047F0003046FBF7B1FE27A13046FBF7F0FE394605
:104800003046FBF7ECFE23A13046FBF7E8FE22A181
:104810003046FBF7E4FE3046FFF772FD4FF496702A
:1048200001F014FB1DA0FFF76BFD31461FA0FBF745
:1048300073FD1348816C22A0FBF76EFD14E0C821C4
:104840003046FBF757FF0E48816C3046FBF784FE7D
:104850003046FFF755FD314614A0FBF75DFD0848D3
:10486000816C17A0FBF758FD284601F0F7F9304698
:1048700001F0F4F9384601F0F1F9BDE8F0810000EB
:10488000DC5B002041542B4D495053454E443D3193
:104890002C000000220000000D0A000041542B4DA6
:1048A0004950505553483D310D0A000073656E6400
:1048B000206D6573736167653A2025730000000001
:1048C00025730D0A0000000010B501200D49087184
:1048D00000240DE000F0C2F9002804DD00200949A1
:1048E0000871012010BD611C07A0FBF715FD641CB9
:1048F000052CEFDB0BA0FBF70FFD01F099FC00BFCF
:10490000FEE70000A800002047657420494D454996
:10491000206661696C65642025642E2E2E2E2E0D76
:104920000A000000446576696365205265626F6F16
:1049300074696E670D0A000000BF054A126802F034
:104940004002002AF9D0C2B2014B1B1D1A60704709
:104950000038014010B5144600222260114A21F0AF
:1049600000439342A8BF10BD53EA000208BF10BD28
:10497000B3F5801FA8BF226807DA362202F05CFD7B
:104980006FF0350221F000432260DFF81CC06FF3A6
:104990001E510CEB23531A4441F0FF5141F00051DA
:1049A000226010BD0000F07F02FCFFFF2DE9F04106
:1049B00006460C4640F2FF75174635EA14502BD0D8
:1049C00000221346304602F08BFB25D03A46304693
:1049D000214602F031FD06460C4635EA145010D04F
:1049E00000221346304602F07BFB15D10220FBF774
:1049F000D3FEFFF7BBFC0A46214662F31E01BDE869
:104A0000F0810220FBF7C8FEFFF7A8FC0A4621460A
:104A100062F31E01BDE8F08130462146BDE8F08119
:104A20002DE9FC41FDF74AFE4FF4E010FFF7D8F8FE
:104A30000320FDF7B5FEFFF717FD4FF46130FEF7D9
:104A4000F3FD4FF4E130FFF7EDFBFEF741FE0120EF
:104A5000FEF734FE4FF4FA70FFF758FD0020FEF722
:104A60002DFE41F28830FFF751FD11A0FBF754FCF9
:104A700013A42046FFF7E2FC064602F0EBFA0546D7
:104A8000284602F02FFC064632460B460FA0FBF7E5
:104A900043FC1248012100230A02CDE9001010A1B5
:104AA000124801F0BBFF01F06DFB0020BDE8FC8166
:104AB00068656C6C6F207573617274310D0A00004B
:104AC0002D302E323334323300000000726573759E
:104AD0006C74202566200D0A0000000000000020F4
:104AE00053746172745461736B000000793A00086A
:104AF00070B538A0FBF710FC3BA0FBF70DFC0024C1
:104B000061E000264248D0F8600190B1404A24326A
:104B100052F82410243A0223D2F86001002201F056
:104B2000C3FD0546012D04D03AA0FBF7F5FB701E2E
:104B300070BD3749603151F824000021FEF7A4FE12
:104B40003EE0701CC6B23248D0F8400178B330491C
:104B5000002343F69822D1F84001194601F068FC81
:104B60000546314630A0FBF7D7FB012D00D128E0E8
:104B70002749603151F824000021FEF785FE2448C2
:104B8000D0F86001B8B1224A243252F82410243AF5
:104B90000223D2F86001002201F086FD0546012DB6
:104BA00009D023A0FBF7B8FB4FF0FF30C0E7FFE7C9
:104BB00024A0FBF7B1FB052E02DB4FF0FF30B7E777
:104BC000BFE700BF641C12480078A04299DC0120B6
:104BD000AEE700004735313020436F6E6E65637479
:104BE000696E670D0A000000506C65617365206195
:104BF000646420746865206D6F6475656C207265EF
:104C000073657420636F6D6D616E640D0A00000042
:104C1000A80000205265702053656E6420666169AB
:104C20006C65640D0A00000025640D0A0000000098
:104C30005265702053656E206661696C65640D0A6B
:104C4000000000004E6F20473531302073656D61E4
:104C500070686F7265200D0A000000002DE9F041B8
:104C600000254548D0F8600180B1434A516C0223C9
:104C7000D2F86001002201F017FD0446012C05D096
:104C80003EA0FBF749FB681EBDE8F0813A49D1F828
:104C900080000021FEF7F8FD69E0681CC5B23648C7
:104CA000D0F8480100285AD03349002343F698220F
:104CB000D1F84801194601F0BBFB0446294634A04F
:104CC000FBF72AFB012C2FD1782000F033FE07469A
:104CD000294900230A22D1F85801394601F0A8FBDE
:104CE0002548416C3846FBF725FCC8B12248416C89
:104CF0003846FBF71FFC06461F49486CFBF750FC83
:104D000006440F2231461C489C30FBF774FC1A49BC
:104D10009C3121A0FBF700FB384600F09FFF27E005
:104D2000384600F09BFF1DE01349D1F880000021B8
:104D3000FEF7AAFD1048D0F8600198B10E4A516CF8
:104D40000223D2F86001002201F0AEFC0446012CDF
:104D500008D015A0FBF7E0FA4FF0FF3094E717A05A
:104D6000FBF7DAFA052D02DB4FF0FF308CE794E712
:104D700000BF012088E70000A800002052657020D5
:104D800053656E64206661696C65640D0A000000FD
:104D900025640D0A00000000494D45492056616C0C
:104DA00075652025730D0A005265702053656E20CD
:104DB0006661696C65640D0A000000004E6F204753
:104DC0003531302073656D6170686F7265200D0A32
:104DD000000000002DE9F04105460E461C4807681A
:104DE0001C480068001D00F072FE50B919480068A8
:104DF00090F82C1001208840174909688143164813
:104E00000160681C38B936B112480168091D1348A1
:104E100000F09BFE1AE07C190E4800684460BC421A
:104E200007D20C480168091D0D48006800F073FEA8
:104E30000CE008480168091D0A48006800F06BFE94
:104E400009480068844201D207480460BDE8F08147
:104E500048000020340000204C000020600A0020A0
:104E60003C000020380000206400002010B50446FB
:104E700000F078FE24480068401C2349086023485D
:104E8000006840B9214804600846006801280DD137
:104E900000F024FA0AE01E48006838B91B48006890
:104EA000C06AE16A884201D818480460194800685D
:104EB000401C1849086008460068A06494F82C104B
:104EC0000120884014490968084313490860E16AD1
:104ED00001EB8101114A02EB8100211D00F035FE3A
:104EE00000F084FE0A48006868B108480068C06A9B
:104EF000E16A884207D24FF0805009490860BFF349
:104F00004F8FBFF36F8F10BD44000020340000208E
:104F100050000020600000204C000020900700207E
:104F200004ED00E010B500F01DFE10480068D0B997
:104F30000F4800F0E0FD0F4800F0DDFD0C480E4981
:104F400008600C480D49086000221021052001F07E
:104F500035FA064908600846006820B108A10348F0
:104F6000006800F037FF00F041FE10BD780000201F
:104F7000740A0020880A00207000002074000020BD
:104F8000546D72510000000070B523E001F050F93B
:104F90001348006808B9012000E00020054601F030
:104FA000F9FEBDB900F0DEFD0D48C068C468201DE3
:104FB00000F08DFD0B480068401E0A4908600A4851
:104FC0000068401E0849086000F010FE204600F00E
:104FD00060F800BF044800680028D7D170BD000009
:104FE0004C0A0020440000204000002070B5044618
:104FF0000D46206C70B1216CE0680844E060616887
:10500000E068884201D32068E0602846226CE168AD
:10501000FBF7F1FA70BD2DE9F04104460F46154645
:105020004FF00008A66B206C40B9206860BB606838
:1050300001F0EAFD80460020606025E07DB9394638
:10504000226CA068FBF7D7FA216CA0680844A06026
:10505000D4E90110884217D32068A06014E03946D3
:10506000226CE068FBF7C7FA216CE068401AE06048
:105070002168E068884203D2216C6068401AE060D1
:10508000022D01D106B1761E701CA0634046BDE81A
:10509000F08110B50446206B00F0E0FD204600F0E2
:1050A000DDFD10BD0146084A126812680AB90122E6
:1050B00000E000220A600A6822B9034A1268D26836
:1050C000106800E0002070477000002030B54FF4F9
:1050D000A043174800F007042CB1C01D20F00700C2
:1050E000134C041B1B1B0246124C22600024114D62
:1050F0006C60D018083820F007000F4C20600024A6
:105100000D4D2D686C600C4D2D682C601146441AB5
:105110004C60094C24680C60084D4C682C60084DAC
:105120004C682C604FF00044064D2C6030BD0000F0
:105130009C0A0020840000208C00002094000020A5
:10514000900000209800002000BFFFF71DFF0648D8
:1051500000680128F9D94FF0805004490860BFF376
:105160004F8FBFF36F8FF0E79007002004ED00E052
:105170002DE9F04106460D4617469846069C0DB9A6
:10518000246000E02760E66325640121204601F0E9
:1051900033FA84F850800020A064BDE8F08100005C
:1051A0002DE9F05F82460F4690469B460A9E0C9C76
:1051B0004FEA8801A522206BFBF794FAA8F10100C1
:1051C000216B01EB800929F0070909F0070008B9F4
:1051D000012000E0002028B940F22B321BA120A0C2
:1051E000FBF79AF8002507E0795D04F1340041559A
:1051F000785D00B902E06D1C142DF5D300BF0021CD
:1052000047200155202E00D31F26E6622665002088
:105210006065201D00F07CFC04F1180000F078FCB3
:105220002461C6F12000A06164620020A06584F8BA
:105230005C005A465146484600F036FC20600B9808
:1052400008B10B980460BDE8F09F00002E2E5C466C
:1052500072656552544F535C7461736B732E6300B7
:105260004572726F723A25732C25640D0A00000096
:105270002DE9F04706460D4617469846DDE90894A5
:105280000DB1012000E0002028B94FF4C67209A139
:105290000EA0FBF741F85CB1FFF744FE2660A56164
:1052A000E761C4F82080C4F82490201D00F030FC91
:1052B000BDE8F0872E2E5C4672656552544F535CF4
:1052C00074696D6572732E63000000004572726F21
:1052D000723A25732C25640D0A00000010B50024D5
:1052E00007E004EB84010F4A02EB810000F003FCAD
:1052F000641C202CF5D30C4800F0FDFB0B4800F09B
:10530000FAFB0B4800F0F7FB0A4800F0F4FB0A48F0
:1053100000F0F1FB044809490860044808490860A6
:1053200010BD000090070020100A0020240A002071
:10533000380A00204C0A0020600A002038000020B3
:105340003C00002010B50146164800E000680368E4
:105350008B42FBD30246436813448B4204D143681B
:105360004C682344436001460A464B681344046872
:10537000A34211D10C4C03682468A34208D04B68A7
:105380000468646823444B6003681B680B6005E095
:10539000054B1B680B6001E003680B60884200D07E
:1053A000016010BD840000208C0000202DE9F04138
:1053B00004460D4616461F464FF0000865602461FE
:1053C000B5420CD8F01BA169884202D34FF0010806
:1053D00011E0211D0948006800F09DFB0BE0BE4272
:1053E00004D2BD4202D34FF0010804E0211D04485D
:1053F000006800F090FB4046BDE8F081740000209A
:105400007000002070B5054600F0ACFBA86B08B931
:10541000012400E0002400F0E9FB204670BD70B5D7
:10542000054600F09FFBA86BE96B884201D101247F
:1054300000E0002400F0DAFB204670BD2DE9F341C6
:105440000D460098846C00272CB940F6CE121AA1A4
:105450001EA0FAF761FFA06BE16B884201D2012028
:1054600000E0002028B940F6CF1213A117A0FAF7E8
:1054700053FFA06BE16B88421BD294F945602A462A
:1054800069462046FFF7C7FD0746701C60B9606A91
:1054900008B9012000E0002050B904F1240001F017
:1054A0001FFC28B1012703E0701C40B284F84500BE
:1054B00000BF3846BDE8FC812E2E5C467265655201
:1054C000544F535C71756575652E63004572726F3C
:1054D000723A25732C25640D0A000000F8B50546C4
:1054E0000F4613480068C068C468201D00F0EFFA3A
:1054F000E069012818D1A06941192B463A46204697
:10550000FFF754FF80B1002003462A460146009071
:10551000204601F021FD06462EB94FF4027205A186
:105520000AA0FAF7F9FE00BF2046616A8847F8BD75
:10553000700000202E2E5C4672656552544F535CFD
:1055400074696D6572732E63000000004572726F9E
:10555000723A25732C25640D0A000000F0B587B05F
:1055600070E0039800280CDA04AE2EB940F2E7226E
:105570003AA140A0FAF7D0FED6E90020B1689047E2
:1055800000BF039800285DDB059C606908B9012015
:1055900000E0002010B9201D00F099FA02A800F0E8
:1055A000C7F8054603980A284AD2DFE800F0090543
:1055B000072C2E4506082D2F00BF00BF00BF00BFDF
:1055C0000498A269811803462A462046FFF7EEFE9A
:1055D000C0B12046616A8847E069012812D10020E5
:1055E00000900498A169421800231946204601F052
:1055F000B3FC07462FB940F2213218A11DA0FAF7DB
:105600008BFE00BF1DE000BF1BE000BF0498A0613F
:10561000A06908B1012000E0002028B94FF44E72C3
:105620000EA114A0FAF778FEA06941192B462A466C
:105630002046FFF7BBFE04E0204600F00FFB00E031
:1056400000BF00BF00231A4603A90E48006800F0FF
:10565000EFFE002885D107B0F0BD00002E2E5C467D
:1056600072656552544F535C74696D6572732E6335
:10567000000000004572726F723A25732C25640D8C
:105680000A00000078000020F8B505460C4600F03E
:10569000CFFD684600F04CF80646009820BB44B9A0
:1056A000B54206D801F076FB31462846FFF716FFD3
:1056B0001CE03CB10E480068006808B9012000E019
:1056C00000200446A91B22460A48006800F098FB07
:1056D00001F060FB50B94FF0805007490860BFF3FC
:1056E0004F8FBFF36F8F01E001F054FBF8BD000056
:1056F000740000207800002004ED00E00A490968E9
:10570000096809B9012100E0002121B14FF0FF3102
:10571000064A116006E004490968C968C868034A76
:1057200041681160704700003800002064000020CC
:1057300070B5044601F0B2F9054607480068854295
:1057400004D200F00BF80120206001E0002020606E
:1057500001480560284670BD800000202DE9F8430F
:105760002DE021480068C06805681F480068C068CF
:10577000C468201D00F0ABF92046616A8847E069E3
:1057800001281CD1A0694619AE4207D96660246180
:10579000211D1548006800F0BEF910E00020034606
:1057A0002A4601460090204601F0D6FB07462FB955
:1057B00040F292320DA113A0FAF7AEFD00BF0A48E5
:1057C0000068006808B9012000E000200028C8D067
:1057D0000548D0F800800F480068034908600D486C
:1057E000C0F80080BDE8F883700000202E2E5C46D3
:1057F00072656552544F535C74696D6572732E63A4
:10580000000000004572726F723A25732C25640DFA
:105810000A000000740000200B480068401C08B912
:10582000012000E0002020B9F42208A112A0FAF71C
:1058300073FD00BF502080F31188BFF34F8FBFF37B
:105840006F8F00BF00BFFEE79C0000202E2E5C463D
:1058500072656552544F535C706F727461626C650F
:105860005C525644535C41524D5F434D335C706F04
:1058700072742E63000000004572726F723A2573D5
:105880002C25640D0A00000008B500BF6846FFF72C
:1058900009FC044620460099FFF7F6FEFFF75EFE7E
:1058A000F4E770B5044600F05DF994F945501AE04C
:1058B000A06C38B100212046FFF7C0FD88B100F090
:1058C00085FB0EE0606A08B9012000E0002038B9CD
:1058D00004F1240001F004FA18B100F077FB00E0B5
:1058E00003E0681E45B2002DE2DC00BFFF2084F813
:1058F000450000F07BF900F035F994F9445010E0D0
:10590000206908B9012000E0002048B904F1100026
:1059100001F0E6F908B100F059FB681E45B200E05D
:1059200001E0002DECDC00BFFF2084F8440000F013
:105930005DF970BD2DE9F04104464FF0000800F01C
:1059400077FC3E48006808B9FFF7C0FB3C48006898
:10595000204000285FD1A4B1083404F0070080B1D2
:1059600004F00700C0F10800044404F0070008B97F
:10597000012000E0002020B9BF2232A13BA0FAF7AD
:10598000CBFC002C47D03D480068844243D83C4EB5
:105990003046056801E02E462D686868A04202D2B4
:1059A00028680028F7D125480068854233D0306840
:1059B00000F10808286830606868001B102813D9B7
:1059C0002F1907F0070008B9012000E0002020B9D6
:1059D000EC221CA125A0FAF79FFC6868001B7860E8
:1059E0006C603846FFF7AEFC244968680968081AFD
:1059F000224908600846006822490968884203D2A3
:105A00001E4800681F4908600D4968680968084316
:105A100068600020286001F0BDF908F0070008B9AF
:105A2000012000E0002028B94FF4967205A10FA0D4
:105A3000FAF772FC4046BDE8F08100008C000020BF
:105A4000980000202E2E5C4672656552544F535CC0
:105A5000706F727461626C655C4D656D4D616E67EF
:105A60005C686561705F342E630000004572726F80
:105A7000723A25732C25640D0A0000009000002066
:105A800084000020940000200648006830B10549D9
:105A9000096801F15400496D491C01600148006822
:105AA0007047000034000020001F4FF08073036037
:105AB000001F21F001030360001F034B0360143833
:105AC00002602038704700001958000870470146EE
:105AD0000A69D1E901309860D1E901035860506842
