:020000040800F2
:10000000A00A002075020008F11B0008971A0008DA
:10001000891B0008B90700089120000800000000B3
:10002000000000000000000000000000DD010008EA
:10003000BD0700080000000021020008831C000822
:100040008F0200088F0200088F0200088F0200084C
:100050008F0200088F0200088F0200088F0200083C
:100060008F0200088F0200088F0200088F0200082C
:100070008F0200088F0200088F0200088F0200081C
:100080008F0200088F0200088F0200088F0200080C
:100090008F0200088F0200088F0200088F020008FC
:1000A0008F0200088F0200088F0200088F020008EC
:1000B0008F0200088F0200088F0200088F020008DC
:1000C0008F0200088F0200088F0200088F020008CC
:1000D0008F020008112000088F020008212000086C
:1000E0008F0200088F0200088F0200088F020008AC
:1000F0008F0200088F0200088F0200088F0200089C
:100100008F0200088F0200088F0200088F0200088B
:100110008F0200088F0200088F0200088F0200087B
:100120008F0200088F0200088F0200088F0200086B
:1001300000F002F800F042F80AA090E8000C8244B7
:100140008344AAF10107DA4501D100F037F8AFF294
:10015000090EBAE80F0013F0010F18BFFB1A43F0A5
:1001600001031847AC280000CC280000103A24BF37
:1001700078C878C1FAD8520724BF30C830C144BF0C
:1001800004680C607047000000230024002500264E
:10019000103A28BF78C1FBD8520728BF30C148BFEA
:1001A0000B607047642900F0BD80732900F0B882AD
:1001B000002070471FB51FBD10B510BD00F0CEFA6E
:1001C0001146FFF7F7FF02F049F800F0ECFA03B42C
:1001D000FFF7F2FF03BC01F0D2FF0000224B1968C9
:1001E0000868B0E8F00F80F30988BFF36F8F4FF015
:1001F000000080F311884EF00D0E704700000000E3
:1002000006480068006880F3088862B661B6BFF3EC
:100210004F8FBFF36F8F00DF00BF00BF08ED00E01E
:10022000EFF30980BFF36F8F0F4B1A6820E9F00FCF
:10023000106008B54FF0500080F31188BFF34F8F66
:10024000BFF36F8F02F052F94FF0000080F3118876
:10025000BDE8084019680868B0E8F00F80F3098825
:10026000BFF36F8F704700BF14000020EFF30580CD
:10027000704700000948804709480047FEE7FEE74D
:10028000FEE7FEE7FEE7FEE7FEE7FEE7FEE7FEE746
:1002900004480549054A064B70470000951C0008B4
:1002A00031010008A0040020A00A0020A0060020C0
:1002B000A0060020704700000FB4044910B503AA3F
:1002C000029800F031FA10BC5DF814FB0C0000201D
:1002D00070B50C460546012A05D02878800600D561
:1002E000EA69002302E0012305E05B1C934202D28D
:1002F000E05C0028F9D1A869E618C01AA861286A4C
:10030000184428622846AFF3008004E0D5E90121B3
:1003100014F8010B9047B442F8D32846AFF300809D
:1003200070BD00002DE9F0410646002410687529D3
:10033000314616A510D0AFF30080002802DA404203
:1003400013A507E031688A0701D512A502E0490725
:1003500004D511A5012401E0AFF3008000210A2299
:1003600006F1240709E0B0FBF2FCB0FBF2F302FB5C
:100370001C00303078541846491C0028F3D123461D
:100380002A463046BDE8F04100F046B900000000C2
:100390002D0000002B000000200000002DE9F05F80
:1003A000894604464FF0000ADFF824B1FB44C0F848
:1003B00020A02046E168884700287DD0252806D067
:1003C000D4E901219047206A401C2062F1E7002512
:1003D0005F462046E16888472028064607DB312E25
:1003E00005D2B81910F8200C08B10543F1E7A807A9
:1003F00001D525F00405C4F81CA00027C4F818A0F6
:100400002A2E09D0304601F0B3FE38B304EB87083A
:10041000303EC8F8186019E059F8041B204604EB78
:1004200087029161E1688847012F064618D1E0698B
:10043000002820DA25F020051DE0D8F8180000EB90
:10044000800006EB40003038C8F818002046E1680C
:100450008847064601F08CFE0028EED1012F0AD015
:100460002E2E08D12046E16888477F1C0646022FC1
:1004700045F02005C4DBA069002803DA404245F0BE
:100480000105A061E80701D025F01005A6B1A6F18D
:100490004100192802D8203645F400654A46314605
:1004A000204625604D46FFF77DFE60B1012807D04C
:1004B000ED1D25F0070000E007E000F1080978E7EE
:1004C00005F1040975E730467AE7206ABDE8F09F38
:1004D0004C260000032A40F2308010F0030C00F09C
:1004E000158011F8013BBCF1020F624498BF11F86E
:1004F00001CB00F8013B38BF11F8013BA2F1040227
:1005000098BF00F801CB38BF00F8013B11F003039E
:1005100000F02580083AC0F0088051F8043B083A02
:1005200051F804CBA0E80810F5E7121D5CBF51F8A4
:10053000043B40F8043BAFF30080D20724BF11F81E
:10054000013B11F801CB48BF11F8012B24BF00F883
:10055000013B00F801CB48BF00F8012B704710B5F4
:10056000203AC0F00B80B1E81850203AA0E81850AB
:10057000B1E81850A0E81850BFF4F5AF5FEA027C6C
:1005800024BFB1E81850A0E8185044BF18C918C0DB
:10059000BDE810405FEA827C24BF51F8043B40F87C
:1005A000043B08BF7047D20728BF31F8023B48BF61
:1005B00011F8012B28BF20F8023B48BF00F8012B9F
:1005C00070474FF0000200B5134694469646203916
:1005D00022BFA0E80C50A0E80C50B1F12001BFF4FC
:1005E000F7AF090728BFA0E80C5048BF0CC05DF862
:1005F00004EB890028BF40F8042B08BF704748BFB0
:1006000020F8022B11F0804F18BF00F8012B704723
:1006100070477047704770472DE9F0470D4699467F
:100620009246044600F124080168880604D5E06972
:1006300021F01001216000E00120A84201DD471BEC
:1006400000E00027A1697A1902EB0900081AA061ED
:100650002078C00602D42046AFF30080002608E0D0
:10066000D4E901211AF806009047206A401C761C44
:1006700020624E45F4DB2078C0060AD52046AFF351
:10068000008006E0D4E9012130209047206A401C18
:100690002062381EA7F10107F4DC07E0D4E901214C
:1006A00018F805009047206A401C2062281EA5F11A
:1006B0000105F3DC2046AFF300802078000602D568
:1006C0000220BDE8F0870120FBE7000001694A1C19
:1006D00002610878704700B58FB0CDE90131002183
:1006E000059105497944CDE9031011466846FFF7A5
:1006F00055FE0FB000BD0000E5FFFFFF10B54369D8
:1007000013B1AFF3008001E0FFF7E2FD012010BD5F
:10071000127800F124010A7000224A700122EDE7EC
:1007200011684FF0FF32E9E7074B70B50D467B4487
:10073000FFF7D1FF0446284600F008F810B14FF04B
:10074000FF3070BD204670BD0F1B0000007B00F025
:100750008000704700487047400400207546FFF74E
:10076000F9FFAE4605006946534620F0070085466E
:1007700018B020B5FFF78CFDBDE820404FF0000613
:100780004FF000074FF000084FF0000B21F0070179
:10079000AC46ACE8C009ACE8C009ACE8C009ACE8BC
:1007A000C0098D46704710B50446AFF3008020465F
:1007B000BDE81040FFF70BBD00BFFEE7704731B545
:1007C000002400F0AFF9044600BF00F0ABF9001BB5
:1007D00000998842F9D338BD2DE9F8470246002434
:1007E000002000258446002700237BE14FF001080C
:1007F00008FA03F4D1F8008008EA0400A0427DD191
:10080000DFF8ECA2D1F80480A8EB0A09D0453AD071
:1008100014DCB8F1030F50D009DCB8F1000F31D06F
:10082000B8F1010F1CD0B8F1020F49D120E0B8F1A6
:10083000110F18D0B8F1120F42D11EE0B9F5881F80
:1008400025D006DCB9F5803F20D0B9F5801F37D11F
:100850001AE0B9F5001F18D0B9F5041F30D117E020
:10086000D1F80CC02DE0D1F80C8008F1040C28E080
:10087000D1F80C8008F1080C23E0D1F80C8008F1C5
:100880000C0C1EE000BF00BF00BF00BF00BF00BFD8
:10089000D1F80880B8F1000F02D14FF0040C0BE042
:1008A000D1F80880B8F1010F03D14FF0080C1461A2
:1008B00002E04FF0080C546103E04FF0000C00E040
:1008C00000BF00BFFF2801D8904601E002F10408F4
:1008D0004646FF2802D84FEA830803E0A3F1080840
:1008E0004FEA88084746D6F800804FF00F0909FA0A
:1008F00007F928EA09080CFA07F900E07AE048EA63
:100900000908C6F80080D1F8048008F08058B8F1D2
:10091000805F6FD100BFDFF8DC81D8F8188048F025
:100920000108DFF8D091C9F81880C846D8F81880B7
:1009300008F00108CDF8008000BF00BF4FEAB938C9
:100940004FEA930958F829504FEA83784FEA18790B
:100950004FF00F0808FA09F825EA0805DFF8988132
:10096000424502D14FF0000824E0DFF89081424573
:1009700002D14FF001081DE0DFF88481424502D129
:100980004FF0020816E0DFF87C81424502D14FF0BB
:1009900003080FE0DFF87081424502D14FF00408F0
:1009A00008E0DFF86881424502D14FF0050801E018
:1009B0004FF006084FEA83794FEA197908FA09F8E7
:1009C00048EA0505DFF848814FEA930948F82950BD
:1009D000D1F8048008F48038B8F5803F0BD1DFF8F7
:1009E0003481D8F8008048EA0008DFF82891C9F877
:1009F00000800AE075E0DFF81C81D8F8008028EA62
:100A00000008DFF81091C9F80080D1F8048008F4DC
:100A10000038B8F5003F0ED1DFF8F88008F104087F
:100A2000D8F8008048EA0008DFF8E89009F10409E6
:100A3000C9F800800DE0DFF8DC8008F10408D8F880
:100A4000008028EA0008DFF8CC9009F10409C9F811
:100A50000080D1F8048008F48018B8F5801F0ED10A
:100A6000DFF8B08008F10808D8F8008048EA0008EC
:100A7000DFF8A09009F10809C9F800800DE0DFF85F
:100A8000948008F10808D8F8008028EA0008DFF808
:100A9000849009F10809C9F80080D1F8048008F4AD
:100AA0000018B8F5001F0ED1DFF8688008F10C08B7
:100AB000D8F8008048EA0008DFF8589009F10C09DE
:100AC000C9F800800DE0DFF84C8008F10C08D8F878
:100AD000008028EA0008DFF83C9009F10C09C9F809
:100AE00000805B1C102BFFF481AEBDE8F88700008E
:100AF000000011100010024000080140000C0140ED
:100B0000001001400014014000180140001C014089
:100B100008000140000401400AB1016101E00B043A
:100B2000036170470148006870470000040000201E
:100B300010B50848006840F010000649086005201C
:100B400000F068F80F2000F007F800F017F8002018
:100B500010BD00000020024070B5044600F0BAF954
:100B60004FF47A71B0FBF1F5284600F08FFE0022B9
:100B70002146501E00F010F8002070BD704700BFE5
:100B800000F01F02012191404209920002F1E0228F
:100B9000C2F8001100BF70472DE9F05F80460D4696
:100BA0001646002701F026F8074639462A463346FE
:100BB00001F00700C0F1070ABAF1040F02D94FF0A3
:100BC000040A01E0C0F1070AD14600F1040ABAF1B3
:100BD000070F02D24FF0000A01E0A0F1030AD44649
:100BE0004FF0010A0AFA09FAAAF1010A0AEA020A0E
:100BF0000AFA0CFA4FF0010B0BFA0CFBABF1010BEC
:100C00000BEA030B4AEA0B042146404600F0FAFFC8
:100C1000BDE8F09F00BF00F00702064B19684FF6D1
:100C2000FF031940044B0B4343EA0221014B1960B7
:100C300000BF70470CED00E00000FA0570B50446F7
:100C40000D4600269F48006800F00700A8420ED21B
:100C50009C48006820F0070028439A49086008462D
:100C6000006800F00700A84201D0012070BD207884
:100C700000F00200022807D19348406820F0F000FD
:100C8000A168084390494860207800F001000028DE
:100C90007CD0606801282DD12020010391FAA1F1B8
:100CA000B1FA81F108430121B1EB601F02D18648FE
:100CB00000680FE02020010391FAA1F1B1FA81F15F
:100CC00008430221B1EB601F02D17F48006A01E0B6
:100CD0007D48406A20210A0392FAA2F2B2FA82F217
:100CE000114301F01F02012191400840002860D10A
:100CF0000120BBE7606802282CD12020010591FA71
:100D0000A1F1B1FA81F108430121B1EB601F02D1D9
:100D10006D4800680FE02020010591FAA1F1B1FAB9
:100D200081F108430221B1EB601F02D16648006ADD
:100D300001E06548406A20210A0592FAA2F2B2FA5F
:100D400082F2114301F01F0201219140084078BB5B
:100D500001208BE72020022191FAA1F1B1FA81F163
:100D600008430121B1EB601F02D15748006810E031
:100D70002020022191FAA1F1B1FA81F10843022168
:100D8000B1EB601F03D15048006A02E054E04E48C6
:100D9000406A2021022292FAA2F2B2FA82F21143B0
:100DA00001F01F0201219140084008B901205DE7D0
:100DB000FFE74548406820F0030061680843424966
:100DC0004860FFF7AFFE06466068012810D108E0D2
:100DD000FFF7A8FE801B41F28831884201D9032029
:100DE00044E73948406800F00C000428F0D123E0C3
:100DF0006068022810D108E0FFF794FE801B41F2E2
:100E00008831884201D9032030E72F48406800F03C
:100E10000C000828F0D10FE008E0FFF783FE801BEC
:100E200041F28831884201D903201FE726484068F3
:100E300000F00C000028F0D12248006800F0070004
:100E4000A8420ED91F48006820F0070028431D491A
:100E500008600846006800F00700A84201D00120A1
:100E600004E7207800F00400042807D11648406801
:100E700020F4E060E168084313494860207800F0FE
:100E80000800082808D11048406820F46050216903
:100E900040EAC1000C49486000F04EF80A49496830
:100EA00001F0F001F02292FAA2F2B2FA82F2D140FD
:100EB000064A515CC840064908600F20FFF74CFE07
:100EC0000020D3E60020024000100240E429000880
:100ED000000000200148006870470000000000206A
:100EE00000B5FFF7F7FF0749496801F4E0614FF4E7
:100EF000E06292FAA2F2B2FA82F2D140024A515C66
:100F0000C84000BD00100240F429000800B5FFF7FA
:100F1000E1FF0749496801F460514FF4605292FAC9
:100F2000A2F2B2FA82F2D140024A515CC84000BD3E
:100F300000100240F4290008F0B585B00FF28C0CC7
:100F40009CE8E01001A8A0E8E01024A52D68009519
:100F500000210024002200230020214D696801F0B7
:100F60000C056DB3042D02D0082D28D101E01D48D9
:100F700028E001F470154FF4701696FAA6F6B6FA4A
:100F800086F6F54001AE735D01F4803595B1144DE0
:100F90006D6805F400354FF4003696FAA6F6B6FAF9
:100FA00086F6F5401DF805400E4DB5FBF4F505FB42
:100FB00003F202E00C4D03FB05F2104602E000BF15
:100FC000084800BF00BF05B0F0BD000002030405E3
:100FD000060708090A0B0C0D0E0F10100102000085
:100FE0000010024000127A0000093D0038B50446A6
:100FF0000025207800F0010000287CD0F8484068E7
:1010000000F00C0004280CD0F548406800F00C00FB
:10101000082837D1F248406800F48030B0F5803FAE
:1010200030D12020010391FAA1F1B1FA81F10843F6
:101030000121B1EB601F02D1E94800680FE02020D8
:10104000010391FAA1F1B1FA81F108430221B1EB58
:10105000601F02D1E248006A01E0E148406A2021B5
:101060000A0392FAA2F2B2FA82F2114301F01F02CD
:101070000121914008400028BFD0606800283AD183
:10108000012038BD00BF6068B0F5803F06D1D4486C
:10109000006840F48030D249086028E0606858B9A0
:1010A000CF48006820F48030CD49086008460068C9
:1010B00020F4802008601AE06068B0F5A02F0BD102
:1010C000C748006840F48020C549086008460068A9
:1010D00040F4803008600AE0C148006820F48030A5
:1010E000BF4908600846006820F48020086000BFFF
:1010F0006068C8B300E06FE0FFF714FD054606E046
:10110000FFF710FD401B642801D90320B9E7202018
:10111000010391FAA1F1B1FA81F108430121B1EB88
:10112000601F02D1AE4800680FE02020010391FA51
:10113000A1F1B1FA81F108430221B1EB601F02D1A4
:10114000A748006A01E0A648406A20210A0392FAF3
:10115000A2F2B2FA82F2114301F01F020121914082
:1011600008400028CCD037E0FFE7FFF7DBFC05465E
:1011700006E0FFF7D7FC401B642801D9032080E775
:101180002020010391FAA1F1B1FA81F10843012174
:10119000B1EB601F02D1924800680FE020200103EC
:1011A00091FAA1F1B1FA81F108430221B1EB601F7C
:1011B00002D18B48006A01E08948406A20210A0375
:1011C00092FAA2F2B2FA82F2114301F01F02012157
:1011D000914008400028CCD1207800F0020002287D
:1011E0004ED17F48406800F00C0050B17C48406808
:1011F00000F00C00082844D17948406800F48030A1
:1012000078BB2020022191FAA1F1B1FA81F10843C3
:101210000121B1EB601F02D1714800680FE020206E
:10122000022191FAA1F1B1FA81F108430221B1EB57
:10123000601F02D16A48006A01E06948406A2021C3
:10124000022292FAA2F2B2FA82F2114301F01F02D4
:1012500001219140084028B12069012802D00120D5
:101260000FE70EE05E48006820F0F800F82292FADE
:10127000A2F2B2FA82F261699140084358490860CB
:1012800091E02069F0B3012090FAA0F1B1FA81F168
:10129000544A42F82100FFF745FC054606E0FFF7F7
:1012A00041FC401B022801D90320EAE6202002214C
:1012B00091FAA1F1B1FA81F108430121B1EB601F6C
:1012C00002D1474800680FE02020022191FAA1F1E5
:1012D000B1FA81F108430221B1EB601F02D140480D
:1012E000006A01E03E48406A2021022292FAA2F2FE
:1012F000B2FA82F2114301F01F020121914008402D
:10130000002800E00FE0CAD03548006820F0F8005F
:10131000F82292FAA2F2B2FA82F26169914008438D
:101320002F4908603FE00020012191FAA1F1B1FAB4
:1013300081F12C4A42F82100FFF7F4FB054606E054
:10134000FFF7F0FB401B022801D9032099E620207B
:10135000022191FAA1F1B1FA81F108430121B1EB27
:10136000601F02D11E4800680FE02020022191FA80
:10137000A1F1B1FA81F108430221B1EB601F02D162
:101380001748006A01E01648406A2021022292FABA
:10139000A2F2B2FA82F2114301F01F020121914040
:1013A00008400028CCD1207800F0080008284BD154
:1013B000A069A8B3012191FAA1F0B0FA80F0094A1E
:1013C00002EB8000C0F88014FFF7ACFB05460BE091
:1013D000FFF7A8FB401B022806D9032051E60000B6
:1013E00000100240000042426020022191FAA1F167
:1013F000B1FA81F108430121B1EB601F02D1F94834
:10140000006810E06020022191FAA1F1B1FA81F1A7
:1014100008430221B1EB601F03D1F248006A02E0E9
:1014200013E0F048406A6021022292FAA2F2B2FA76
:1014300082F2114301F01F0201219140084000286F
:10144000C6D00120FFF7BBF941E00020012191FA4D
:10145000A1F1B1FA81F1E44A02EB8101C1F8800403
:10146000FFF760FB054606E0FFF75CFB401B022828
:1014700001D9032005E66020022191FAA1F1B1FA19
:1014800081F108430121B1EB601F02D1D54800680A
:101490000FE06020022191FAA1F1B1FA81F1084335
:1014A0000221B1EB601F02D1CE48006A01E0CD48B5
:1014B000406A6021022292FAA2F2B2FA82F2114349
:1014C00001F01F020121914008400028CCD1207872
:1014D00000F00400042875D100BFC248C06940F084
:1014E0008050C049C8610846C06900F08050009033
:1014F00000BF00BFBD48006840F48070BB49086071
:10150000FFF710FB054606E0FFF70CFB401B6428C5
:1015100001D90320B5E5B548006800F480700028C3
:10152000F2D000BFE068012806D1AE48006A40F062
:101530000100AC49086227E0E06858B9A948006A90
:1015400020F00100A74908620846006A20F0040064
:10155000086219E0E06805280BD1A248006A40F053
:101560000400A04908620846006A40F001000862D1
:101570000AE09C48006A20F001009A490862084687
:10158000006A20F00400086200BFE068D0B3FFF7F3
:10159000C9FA054608E0FFF7C5FA401B41F2883159
:1015A000884201D903206CE54020022191FAA1F183
:1015B000B1FA81F108430121B1EB601F03D18948E1
:1015C000006810E058E04020022191FAA1F1B1FA40
:1015D00081F108430221B1EB601F02D18148006A0A
:1015E00001E08048406A4021022292FAA2F2B2FA57
:1015F00082F2114301F01F020121914008400028AE
:10160000C9D039E0FFE7FFF78DFA054608E0FFF79C
:1016100089FA401B41F28831884201D9032030E524
:101620004020022191FAA1F1B1FA81F10843012190
:10163000B1EB601F02D16B4800680FE0402002212F
:1016400091FAA1F1B1FA81F108430221B1EB601FD7
:1016500002D16448006A01E06248406A40210222E7
:1016600092FAA2F2B2FA82F2114301F01F020121B2
:10167000914008400028CAD1E069002873D0594839
:10168000406800F00C0008286ED0E06902286CD198
:1016900000204FF0807191FAA1F1B1FA81F1524A24
:1016A00042F82100FFF73EFA054606E0FFF73AFA56
:1016B000401B022801D90320E3E42020010591FA10
:1016C000A1F1B1FA81F108430121B1EB601F02D110
:1016D000444800680FE02020010591FAA1F1B1FA19
:1016E00081F108430221B1EB601F02D13D48006A3D
:1016F00001E03C48406A20210A0592FAA2F2B2FABF
:1017000082F2114301F01F0201219140084000289C
:10171000CCD1206AB0F5803F07D13248406820F430
:101720000030A16808432F494860D4E90801084304
:101730002C49496821F4741108432A494860012161
:10174000080690FAA0F0B0FA80F0274A42F820107C
:10175000FFF7E8F9054609E0FFF7E4F9401B022826
:1017600004D903208DE479E076E02CE02020010507
:1017700091FAA1F1B1FA81F108430121B1EB601FA7
:1017800002D1184800680FE02020010591FAA1F16C
:10179000B1FA81F108430221B1EB601F02D1114877
:1017A000006A01E00F48406A20210A0592FAA2F27D
:1017B000B2FA82F2114301F01F0201219140084068
:1017C0000028C9D04AE000204FF0807191FAA1F1C1
:1017D000B1FA81F1044A42F82100FFF7A3F9054666
:1017E0000DE0000000100240000042420070004086
:1017F000FFF798F9401B022801D9032041E420207B
:10180000010591FAA1F1B1FA81F108430121B1EB8F
:10181000601F02D1124800680FE02020010591FAF4
:10182000A1F1B1FA81F108430221B1EB601F02D1AD
:101830000B48006A01E00A48406A20210A0592FA32
:10184000A2F2B2FA82F2114301F01F02012191408B
:1018500008400028CCD101E0012012E4002010E46F
:1018600000100240042808D14FF0E021096941F03E
:1018700004014FF0E022116107E04FF0E021096917
:1018800021F004014FF0E0221161704770B5044669
:101890002546681EB0F1807F01D301200FE0681E4D
:1018A0004FF0E02148610F214FF0FF3000F0AAF91E
:1018B00000204FF0E021886107200861002070BD02
:1018C0007047F8B50446002500262068006800F03F
:1018D00001052068C06800F4807625B11EB1E06B78
:1018E00040F00100E06320680068C0F34005206814
:1018F000406900F0010625B11EB1E06B40F0040024
:10190000E06320680068C0F3800525B11EB1E06B7C
:1019100040F00200E06320680068C0F3C00525B114
:101920001EB1E06B40F00800E06320680068C0F37F
:1019300040152068C06800F020061DB116B1204691
:1019400000F0ECF920680068C0F3C0152068C0689A
:1019500000F080061DB116B1204600F021FB206882
:101960000068C0F380152068C06800F040061DB113
:1019700016B1204600F0BAF9E06B70B100BF2068E4
:101980000068009020684068009000BF00BF012000
:1019900084F839002046FFF793FFF8BD10B50446E0
:1019A0000CB9012010BDA06900B100E000BF94F89F
:1019B000390028B9002084F83800204600F025F8C6
:1019C000022084F839002068C06820F400502168A3
:1019D000C860204600F000FA2068006920F49040BA
:1019E000216808612068406920F02A002168486168
:1019F0002068C06840F400502168C8600020E0639F
:101A0000012084F839000020CCE7704730B5034648
:101A1000002493F83940012C01D0122C37D101B1A8
:101A20000AB9012030BD00BF93F83800012801D168
:101A30000220F7E7012083F8380000BF99629A85F9
:101A4000DA850020D86393F83900122803D13220B8
:101A500083F8390002E0222083F8390000BF00201B
:101A600083F8380000BF1868C06840F480701D68B3
:101A7000E8601868406940F001001D6868611868F6
:101A8000C06840F020001D68E8600020CAE702201E
:101A9000C8E77047704700BFFEE7000010B586B08A
:101AA000044600BF1E48806940F004001C4988615C
:101AB0000846806900F00400019000BF00BF00BF2D
:101AC0000846806940F4804088610846806900F4D7
:101AD0008040019000BF00BF481502900220039093
:101AE000012004900320059002A90E48FEF774FE21
:101AF0004FF48060029002A90A48FEF76DFE0A4882
:101B00000A4908600846446000218160C1600161A3
:101B100081610C214161FFF741FF06B010BD00005B
:101B2000001002400008014000380140A4000020DD
:101B300010B50446224601210148FEF7EDFF10BD15
:101B40000018014000B585B000BF0D48806940F025
:101B500040000B4988610846806900F04000009011
:101B600000BF00BF012001900290032004900120DB
:101B7000039001A90348FEF72FFE05B000BD000049
:101B8000001002400018014000BFFEE738B50546CE
:101B90000D480068B0B100236A4629460A4800682B
:101BA00000F012FD0446012C02D008A0FEF784FBD1
:101BB000009838B14FF080500C490860BFF34F8F48
:101BC000BFF36F8F38BD00005C0000207573617239
:101BD00074206964656C2061646420717565756545
:101BE000206661696C65640D0A00000004ED00E088
:101BF0007047000002480068C0F3022070470000F0
:101C00000CED00E010B5002807DA0A07140E054AAB
:101C100000F00F031B1FD45403E00A07130E024AFF
:101C2000135410BD18ED00E000E400E030B58FB0B3
:101C3000054600240120059000040690002007902E
:101C400002200C90C1030D910E9505A8FFF7CEF967
:101C500004460CB100BFFEE70F2000900220019067
:101C6000002002904FF48060039000200490022135
:101C70006846FEF7E3FF04460CB100BFFEE70FB075
:101C800030BD10B500F028FD012801D000F082FC25
:101C900010BD00001148006840F001000F490860C5
:101CA000084640680E4908400C49486008460068EC
:101CB0000C490840094908600846006820F4802063
:101CC00008600846406820F4FE0048604FF41F009A
:101CD0008860C80304490860704700000010024093
:101CE0000000FFF8FFFFF6FE08ED00E010B5044627
:101CF0002068C06820F040002168C86094F839006E
:101D0000322803D1222084F8390002E0012084F82F
:101D100039002046FFF7BEFE002010BD70B5044616
:101D2000002694F83960222E01D0322E52D1A068BC
:101D3000B0F5805F13D1A56A206940B9206840687A
:101D4000C0F308002880A06A801CA06219E0206807
:101D50004068C0B22880A06A401CA06211E02069DF
:101D600038B920684068C1B2A26A501CA0621170E4
:101D700007E02068406800F07F01A26A501CA06262
:101D80001170E08D401E80B2E08508BB2068C068FD
:101D900020F020002168C86094F83900322803D16F
:101DA000122084F839000EE02068C06820F48070AA
:101DB0002168C8602068406920F0010021684861FE
:101DC000012084F839002046FFF763FE002070BD33
:101DD0000020FCE70220FAE72DE9F0410446002547
:101DE0002068006920F44050E168084321680861D8
:101DF0002169A0680843616940EA01052068C0685C
:101E000041F20C61884328432168C860206840691A
:101E100020F44070A1690843216848615F49206847
:101E200088425CD1FFF772F800EBC00101EB0010B3
:101E300061688900B0FBF1F6FFF768F800EBC001BC
:101E400001EB001061688900B0FBF1F06421B0FB88
:101E5000F1F000EBC00101EB0010A6EB8000322195
:101E600001EB00106421B0FBF1F000F0F006FFF789
:101E70004DF800EBC00101EB001061688900B0FB78
:101E8000F1F06421B0FBF1F006EB0016FFF73EF82D
:101E900000EBC00101EB001061688900B0FBF1F7B5
:101EA000FFF734F800EBC00101EB00106168890016
:101EB000B0FBF1F06421B0FBF1F000EBC00101EBED
:101EC0000010A7EB8000322101EB00106421B0FB71
:101ED000F1F000F00F003044216888605BE0FEF70D
:101EE000FFFF00EBC00101EB001061688900B0FB4F
:101EF000F1F6FEF7F5FF00EBC00101EB00106168A1
:101F00008900B0FBF1F06421B0FBF1F000EBC001FF
:101F100001EB0010A6EB8000322101EB00106421E0
:101F2000B0FBF1F000F0F006FEF7DAFF00EBC001C5
:101F300001EB001061688900B0FBF1F06421B0FB97
:101F4000F1F006EB0016FEF7CBFF00EBC00101EB52
:101F5000001061688900B0FBF1F7FEF7C1FF00EBEC
:101F6000C00101EB001061688900B0FBF1F0642151
:101F7000B0FBF1F000EBC00101EB0010A7EB80001B
:101F8000322101EB00106421B0FBF1F000F00F00F2
:101F9000304421688860BDE8F081000000380140CD
:101FA00010B50146002391F83930122B01D0322BA5
:101FB0002CD18868B0F5805F0FD10A6A1088C0F311
:101FC00008000C686060086918B9086A801C08621B
:101FD00009E0086A401C086205E00C6A601C08629F
:101FE00020780C686060C88C401E80B2C88458B9E4
:101FF0000868C06820F080000C68E0600868C0686D
:1020000040F040000C68E060002010BD0220FCE7BA
:1020100010B50248FFF755FC10BD0000A4000020D9
:1020200038B5174800680068C0F3401048B115483B
:102030000068C4B214490888411C134A118013492E
:102040000C540F4800680068C0F30010A0B100BF36
:102050000B480068006800900948006840680090DC
:1020600000BF00BF0948FFF791FD00200649088026
:1020700078210648FEF7A5FA0148FFF722FC38BD93
:10208000640000200448004010000020E40000200C
:1020900000BFFEE710B586B0044600BF2F48806938
:1020A00040F008002D4988610846806900F008006A
:1020B000019000BF00BF00BF0846C06940F4802007
:1020C000C8610846C06900F48020019000BF00BFCD
:1020D000081502900220039001200490032005902F
:1020E00002A91F48FEF778FB4FF400600290002021
:1020F000039002A91A48FEF76FFB1A481A490860B4
:102100000846446000218160C160016181610C2149
:102110004161FFF743FC782214491348FFF776FC2E
:102120002720FEF72CFD002206212720FEF734FD94
:1021300000BF0D480068006801900B4800684068C7
:10214000019000BF00BF08480068C06840F0100060
:1021500005490968C86006B010BD000000100240C3
:10216000000C01400048004064000020E400002012
:1021700030380A2801D2012070470020704700BF84
:102180007047000010B50420FFF76CFB1048006892
:102190001049B0FBF1F0104908700D4800680D4976
:1021A000B0FBF1F44FF47A70444301200B490880EE
:1021B0004FF0E020006940F002004FF0E02108619C
:1021C00008464461006940F00100086110BD00004C
:1021D0000000002040420F00080000200A000020FC
:1021E00070B5034600224FF0E02675690D4E367833
:1021F00003FB06F44FF0E026B16910E04FF0E02653
:10220000B06988420BD0884202D20E1A324402E0F2
:102210002E1A0E4432440146A24200D300E0EDE7FC
:1022200000BF70BD0800002030B50446002504E062
:102230004FF47A70FFF7D4FF6D1CA542F8D330BD80
:1022400000BF054A126802F04002002AF9D0C2B26B
:10225000014B1B1D1A60704700380140FEF768FCF7
:102260004FF4E010FFF7E2FC0320FEF7D3FCFFF78A
:1022700089FF4FF46130FFF711FC4FF4E130FFF7B5
:1022800009FFFFF75FFC0020FFF752FC4FF4FA70E4
:10229000FFF7CAFF0120FFF74BFC41F28830FFF740
:1022A000C3FF02A0FEF708F800BFFEE768656C6C8C
:1022B0006F207573617274310D0A00002DE9F041D1
:1022C00004460F4615464FF00008A66B206C40B937
:1022D000206860BB606800F0BFFA80460020606044
:1022E00025E07DB93946226CA068FEF7F3F8216C31
:1022F000A0680844A060D4E90110884217D3206880
:10230000A06014E03946226CE068FEF7E3F8216C27
:10231000E068401AE0602168E068884203D2216CDE
:102320006068401AE060022D01D106B1761E701C73
:10233000A0634046BDE8F0812DE9F3410D460098C9
:10234000846C00272CB940F6CE121AA11EA0FDF70E
:10235000B3FFA06BE16B884201D2012000E00020B6
:1023600028B940F6CF1213A117A0FDF7A5FFA06B67
:10237000E16B88421BD294F945602A4669462046A3
:10238000FFF79CFF0746701C60B9606A08B901201E
:1023900000E0002050B904F1240000F0C9FA28B18F
:1023A000012703E0701C40B284F8450000BF3846A6
:1023B000BDE8FC812E2E5C4672656552544F535C1D
:1023C00071756575652E63004572726F723A25737B
:1023D0002C25640D0A0000000A490968096809B93A
:1023E000012100E0002121B14FF0FF31064A1160C8
:1023F00006E004490968C968C868034A4168116071
:1024000070470000180000204400002001460A69BF
:10241000D1E901309860D1E90103586050688842E1
:1024200001D188685060002008611068401E10606B
:102430001068704742684A6093688B60936859607F
:102440009160086103685B1C0360704770B5FDF71D
:102450000DFF0546102D11D305F1E02090F8F04353
:1024600010480078844201DB012000E0002028B9F8
:102470004FF42A720CA117A0FDF71EFF194800683F
:1024800000F4E06018490968884201D8012000E0A2
:10249000002028B94FF42E7203A10EA0FDF70CFF07
:1024A00070BD0000540000202E2E5C4672656552FF
:1024B000544F535C706F727461626C655C52564429
:1024C000535C41524D5F434D335C706F72742E63A9
:1024D000000000004572726F723A25732C25640D5E
:1024E0000A0000000CED00E05800002010B51B4869
:1024F000006818B101201A4908602DE00020184931
:10250000086018480068B0FA80F0C0F11F0404EBBE
:102510008400154951F8200008B1012000E0002096
:1025200028B940F6F62211A115A0FDF7C5FE04EB6F
:1025300084010D4A02EB810041684968416000F165
:10254000080142688A4202D1416849684160416895
:10255000C9680F4A116000BF10BD00004C00002088
:10256000380000202C0000205C0100202E2E5C464C
:1025700072656552544F535C7461736B732E6300C4
:102580004572726F723A25732C25640D0A000000A3
:102590001400002010B500BF502080F31188BFF355
:1025A0004F8FBFF36F8F00BF00F0A6F818B14FF048
:1025B00080500449086000BF002080F3118800BFEC
:1025C00010BD000004ED00E02DE9F05F80468A4672
:1025D00015461E4644462CB940F29F3235A13AA01A
:1025E000FDF76AFEBAF1000F01D1206C08B9012095
:1025F00000E0002028B94FF468722EA132A0FDF748
:102600005BFE022E02D1E06B012801D1012000E027
:10261000002028B940F2A13226A12BA0FDF74CFEE4
:10262000FFF714FF00BF5021EFF3118081F31188F1
:10263000BFF34F8FBFF36F8F00BF0746A06BE16BF7
:10264000884201D3022E2BD194F945B0324651462F
:102650002046FFF733FE0BF10100C8B9A06C40B172
:1026600031462046FFF768FEB8B1B5B101202860B9
:1026700013E0606A08B9012000E0002068B904F1A5
:10268000240000F055F940B13DB10120286004E07C
:102690000BF1010040B284F845004FF0010901E060
:1026A0004FF0000900BF87F3118800BF4846BDE81E
:1026B000F09F00002E2E5C4672656552544F535CAD
:1026C00071756575652E63004572726F723A257378
:1026D0002C25640D0A0000000549096809B901208C
:1026E00005E00449096809B9022000E000207047AC
:1026F000300000204C0000202DE9F0414FF0000890
:1027000041480068002872D140480068451C3F4895
:102710000560EDB93E480068006808B9012000E096
:10272000002028B940F6D9123AA13FA0FDF7C4FD18
:102730003748076840480068354908603E480760E8
:102740003E480068401C3D490860FFF745FE00BF59
:102750003B48006885423CD300BF2D4800680068B4
:1027600008B9012000E0002020B14FF0FF303449CB
:1027700008602DE026480068C068C4686668B542F5
:1027800002D22F48066023E0201DFFF73FFEA06A1B
:1027900018B104F11800FFF739FE94F82C1001204D
:1027A000884028490968084326490860E16A01EB26
:1027B0008101254A02EB8100211DFFF73BFE2349E1
:1027C000E06A0968C96A8842C7D34FF00108C4E7C4
:1027D00000BF1E480068C06A00EB80001A4951F82B
:1027E0002000012801D94FF0010805E0FFE7184853
:1027F0000068401C164908601648006808B14FF090
:1028000001084046BDE8F0814C000020280000206F
:10281000180000202E2E5C4672656552544F535CA2
:102820007461736B732E63004572726F723A257315
:102830002C25640D0A0000001C0000203C00002034
:10284000440000202C0000205C0100201400002027
:10285000340000203800002070B505462C460026C4
:10286000002D4BD026480068844201D1012000E0B1
:10287000002028B940F6C76222A127A0FDF71CFD61
:10288000606D28B940F6C9621EA123A0FDF714FDB2
:10289000606D401E6065216DE06A88422ED0606DDB
:1028A00060BB201DFFF7B2FD78B9E06A00EB800045
:1028B0001D4951F8200040B994F82C10012088409F
:1028C0001A490968814319480160206DE062E06A95
:1028D000C0F12000A06194F82C1001208840134919
:1028E0000968084311490860E16A01EB81010E4A59
:1028F00002EB8100211DFFF79DFD0126304670BDD2
:10290000140000202E2E5C4672656552544F535CB5
:102910007461736B732E63004572726F723A257324
:102920002C25640D0A0000005C0100202C00002012
:1029300070B50646F068C4682CB940F661321AA139
:102940001EA0FDF7B9FC04F11800FFF75FFD1F485A
:102950000068A8B9201DFFF759FD94F82C1001203C
:1029600088401B490968084319490860E16A01EB7E
:102970008101184A02EB8100211DFFF75BFD04E095
:1029800004F118011448FFF755FD1449E06A09687D
:10299000C96A884204D9012501201149086000E074
:1029A0000025284670BD00002E2E5C4672656552DB
:1029B000544F535C7461736B732E63004572726F76
:1029C000723A25732C25640D0A0000004C0000208B
:1029D0002C0000205C0100200404002014000020D2
:1029E0003800002000000000000000000102030485
:1029F00006070809000000000102030404000008A3
:102A000000000000000000020001000010000000B3
:102A1000302A000800000020640000006C0100085B
:102A2000942A0008640000203C0A00008801000885
:102A300000A24A04000000000000000000000000A6
:102A40000000000000000000000000000000000086
:102A50000000000000000000000000000000000076
:102A60000000000000000000000000000000000066
:102A70000000000000000000000000000000000056
:102A8000AAAAAAAA0000000000000000000000009E
:042A90000000000042
:0400000508000131BD
:00000001FF
