:020000040800F2
:1000000088660020D5020008013900087F33000807
:1000100071340008C91900080143000800000000FD
:100020000000000000000000000000003D02000889
:10003000CD1900080000000081020008F33E00080E
:10004000EF020008EF020008EF020008EF020008CC
:10005000EF020008EF020008EF020008EF020008BC
:10006000EF020008EF020008EF020008EF020008AC
:10007000EF020008EF020008EF020008EF0200089C
:10008000EF020008EF020008EF020008EF0200088C
:10009000EF020008EF020008EF020008EF0200087C
:1000A000EF020008EF020008EF020008EF0200086C
:1000B000EF020008EF020008EF020008EF0200085C
:1000C000EF020008EF020008EF020008EF0200084C
:1000D000EF0200088142000891420008EF02000888
:1000E000EF020008EF020008EF020008EF0200082C
:1000F000EF020008EF020008EF020008EF0200081C
:10010000EF020008EF020008EF020008EF0200080B
:10011000EF020008EF020008EF020008EF020008FB
:10012000EF020008EF020008EF020008EF020008EB
:1001300000F002F800F073F80AA090E8000C824486
:100140008344AAF10107DA4501D100F068F8AFF263
:10015000090EBAE80F0013F0010F18BFFB1A43F0A5
:1001600001031847FC8200001C8300000A444FF082
:10017000000C10F8013B13F0070408BF10F8014B06
:100180001D1108BF10F8015B641E05D010F8016B4B
:10019000641E01F8016BF9D113F0080F1EBF10F8AF
:1001A000014BAD1C0C1B09D16D1E58BF01F801CBD2
:1001B000FAD505E014F8016B01F8016B6D1EF9D555
:1001C0009142D6D37047000000230024002500266A
:1001D000103A28BF78C1FBD8520728BF30C148BFAA
:1001E0000B607047662908F04380652908F040805D
:1001F000642900F01381782900F04C81732900F004
:10020000DE85002070471FB500F0F0FD04000020DF
:10021000002107F061FDE0601FBD10B510BD00F0CA
:10022000E5FE1146FFF7EFFF04F032FD00F003FF9B
:1002300003B4FFF7F2FF03BC04F005F9224B196881
:100240000868B0E8F00F80F30988BFF36F8F4FF0B4
:10025000000080F311884EF00D0E70470000000082
:1002600006480068006880F3088862B661B6BFF38C
:100270004F8FBFF36F8F00DF00BF00BF08ED00E0BE
:10028000EFF30980BFF36F8F0F4B1A6820E9F00F6F
:10029000106008B54FF0500080F31188BFF34F8F06
:1002A000BFF36F8F06F03AFE4FF0000080F3118825
:1002B000BDE8084019680868B0E8F00F80F30988C5
:1002C000BFF36F8F704700BF30000020EFF3058051
:1002D000704700000948804709480047FEE7FEE7ED
:1002E000FEE7FEE7FEE7FEE7FEE7FEE7FEE7FEE7E6
:1002F00004480549054A064B70470000053F0008C1
:100300003101000888600020886600208862002093
:10031000886200207047B2F120030AD5C2F12003A1
:1003200020FA02F001FA03F321FA02F140EA030095
:10033000704721FA03F04FF0000170470FB40449F1
:1003400010B503AA029800F03FFD10BC5DF814FB45
:10035000280000200FB41CB5074B06AA7B44694651
:100360000090059800F001FD0020694600F010FDA6
:100370001CBC5DF814FB0000310A000070B5044697
:1003800085690068C10601D5302600E02026C00737
:1003900007D070BDD4E9012130469047206A401C47
:1003A00020626D1EF6D570BD70B504468569007873
:1003B000C00707D170BDD4E9012120209047206AF1
:1003C000401C20626D1EF6D570BD70B50C4605460A
:1003D000012A05D02878800600D5EA69002302E0CA
:1003E000012305E05B1C934202D2E05C0028F9D1B6
:1003F000A869E618C01AA861286A18442862284625
:10040000FFF7BCFF04E0D5E9012114F8010B904788
:10041000B442F8D32846FFF7C7FF70BD2DE9F0417D
:100420000646002410687529314616A510D0AFF392
:100430000080002802DA404213A507E031688A07ED
:1004400001D512A502E0490704D511A5012401E058
:10045000AFF3008000210A2206F1240709E0B0FB77
:10046000F2FCB0FBF2F302FB1C003030785418466B
:10047000491C0028F3D123462A463046BDE8F04106
:1004800000F007BA000000002D0000002B00000063
:100490002000000070B504460D4621461068AFF3F9
:1004A00000802188090502D50F4A7A4402E00E4AED
:1004B0007A440E32002104F1240305E000F00F0617
:1004C0000009965D5E54491C0028F7D1207800236E
:1004D000000704D5702D02D009B102231132204645
:1004E000BDE8704000F0D5B9DE7D00002DE9F05F79
:1004F000894604464FF0000ADFF824B1FB44C0F8F7
:1005000020A02046E168884700287DD0252806D015
:10051000D4E901219047206A401C2062F1E70025C0
:100520005F462046E16888472028064607DB312ED3
:1005300005D2B81910F8200C08B10543F1E7A80757
:1005400001D525F00405C4F81CA00027C4F818A0A4
:100550002A2E09D0304603F06FFF38B304EB87082A
:10056000303EC8F8186019E059F8041B204604EB27
:1005700087029161E1688847012F064618D1E0693A
:10058000002820DA25F020051DE0D8F8180000EB3F
:10059000800006EB40003038C8F818002046E168BB
:1005A0008847064603F048FF0028EED1012F0AD005
:1005B0002E2E08D12046E16888477F1C0646022F70
:1005C00045F02005C4DBA069002803DA404245F06D
:1005D0000105A061E80701D025F01005A6B1A6F13C
:1005E0004100192802D8203645F400654A463146B4
:1005F000204625604D46FFF7F5FD60B1012807D084
:10060000ED1D25F0070000E007E000F1080978E79C
:1006100005F1040975E730467AE7206ABDE8F09FE6
:10062000B47D0000401ECAB210F8011F8A4202D0F9
:100630000029F9D10020704730B505460B462A46FF
:1006400013F8014B12F8010B08B1A042F8D01CB10D
:10065000002802D06D1CF1E7284630BD40EA0103B6
:10066000024630B59B0710D14FF0013400E008C2BC
:1006700008C91D1B9D4315EAC41FF8D013F0FF01E4
:1006800002F8011B0DD01B0AF8E711F8013B002B03
:1006900002F8013B05D011F8013B002B02F8013BA9
:1006A000F3D130BD10B5431C02E010F8011B71B14D
:1006B0008107FAD14FF0013202C88C1A8C4314EA38
:1006C000C211F9D0C01A0A0603D0C01E10BDC01A4C
:1006D00010BD0A0401D0801E10BD0902FCD0401ECE
:1006E00010BD421E12F8013F002BFBD111F8013B57
:1006F000002B02F8013BF9D17047032A40F2308009
:1007000010F0030C00F0158011F8013BBCF1020F52
:10071000624498BF11F801CB00F8013B38BF11F8D3
:10072000013BA2F1040298BF00F801CB38BF00F8EA
:10073000013B11F0030300F02580083AC0F0088067
:1007400051F8043B083A51F804CBA0E80810F5E74B
:10075000121D5CBF51F8043B40F8043BAFF300802E
:10076000D20724BF11F8013B11F801CB48BF11F8A3
:10077000012B24BF00F8013B00F801CB48BF00F873
:10078000012B704710B5203AC0F00B80B1E818502B
:10079000203AA0E81850B1E81850A0E81850BFF46B
:1007A000F5AF5FEA027C24BFB1E81850A0E818500A
:1007B00044BF18C918C0BDE810405FEA827C24BF5E
:1007C00051F8043B40F8043B08BF7047D20728BFEC
:1007D00031F8023B48BF11F8012B28BF20F8023B3B
:1007E00048BF00F8012B704702F0FF0343EA0322E1
:1007F00042EA024200F002B84FF000020429C0F0C1
:10080000128010F0030C00F01B80CCF1040CBCF142
:10081000020F18BF00F8012BA8BF20F8022BA1EB94
:100820000C0100F00DB85FEAC17C24BF00F8012B79
:1008300000F8012B48BF00F8012B70474FF0000271
:1008400000B5134694469646203922BFA0E80C50C6
:10085000A0E80C50B1F12001BFF4F7AF090728BFA1
:10086000A0E80C5048BF0CC05DF804EB890028BF1D
:1008700040F8042B08BF704748BF20F8022B11F046
:10088000804F18BF00F8012B7047704770477047C2
:1008900070472DE9F0470D4699469246044600F10F
:1008A00024080168880604D5E06921F01001216060
:1008B00000E00120A84201DD471B00E00027A169FC
:1008C0007A1902EB0900081AA0612078C00602D448
:1008D0002046FFF753FD002608E0D4E901211AF86D
:1008E00006009047206A401C761C20624E45F4DBCF
:1008F0002078C0060AD52046FFF740FD06E0D4E97F
:10090000012130209047206A401C2062381EA7F148
:100910000107F4DC07E0D4E9012118F8050090474D
:10092000206A401C2062281EA5F10105F3DC204648
:10093000FFF73AFD2078000602D50220BDE8F087D7
:100940000120FBE770472DE9FF4F0C461E464FF094
:10095000FF378BB0D2E90001DDF860800A908A464B
:10096000C1F30A5505B93D46002108464FF0000085
:10097000BAF1000F00F4400005DA00EB80004FF4FC
:10098000400101EA50004FEA9059B9F1010F00DD32
:10099000B9460A9850EA4A000ED044F61050A5F223
:1009A000FF3545432F14B8F1000F1ED07542291EA4
:1009B0001EDDC9F100021CE0B8F1010F4FF000008C
:1009C00001D0302103E0F24305E02154401CB04245
:1009D000FBDB30460022002121540B99C1F808802E
:1009E000C1E900200FB0BDE8F08FBD1B6D1CDEE734
:1009F0004A4600DA694206A800F082FA06AB93E89C
:100A0000070003AB83E8070050460A9900F05CFB3F
:100A10008DE80700A0F500501F3800900398002DC6
:100A200009DD42F21F014A46084403A903906846C3
:100A300000F0BBFD08E0A0F500504A461F3803A9AE
:100A40000390684600F0C5FD8DE807000004000C27
:100A500003D04FF0FF30410800E01046B8F1000F1E
:100A600003D00022009215461EE0751E05D400F04A
:100A7000C1F9303262556D1EF9D5B34601220843E3
:100A800002D000227F1C04E02078302801D100220F
:100A90007F1E002A099786D01DE0112D07DA00F08D
:100AA000A9F9303262556D1C50EA0102F5D10843B4
:100AB00002D00098C8B10EE00021681E05E0235C5A
:100AC000625C63542254401E491C8142F7DBAB46F2
:100AD000A81B401E0990002004F80B000B98099AEF
:100AE000C0F80880C0E9002B7CE711264FF0000811
:100AF00059E72DE9F04F88460446D21D22F0070140
:100B000091B0D1E90001CDE90A0103F081FC024670
:100B10000B98C00F01D02D2007E02068810701D578
:100B20002B2002E0202101EAC000032A099001D015
:100B3000072A05DB03464146204600F0A1F90BE1F8
:100B40002078800601D5E06900E00620B8F1650F45
:100B5000814606D0B8F1660F18D0B8F1670F70D192
:100B600031E00020B9F1110F009001DB112301E009
:100B700009F101030AAA01A90CA8FFF7E4FEDDE9C7
:100B80000C70002609F10105834647E001204B4621
:100B900000904FF000470AAA01A90CA8FFF7D3FE66
:100BA000DDE90DB00C995D46002610B909F1010090
:100BB0000D18B9EB050003D4C0F1FF3609F10105AA
:100BC000A5EB09002BE0B9F1010F01DA4FF00109A3
:100BD0000020B9F1110F0090484601DD112300E01B
:100BE00003460AAA01A90CA8FFF7ADFEDDE90C70C7
:100BF0004D4600268346207800070AD4AB4500DA2C
:100C00005D4601A8012D04DD411911F8011C3029B0
:100C100007D04F4502DA17F1040F04DA01208246AB
:100C20000FE06D1EEEE7002F02DCED1B3E4403E0FB
:100C3000781CA84200DD7D1CB81B00F1010A4FF0B2
:100C400000472078000703D4AA4501DB4FF0FF3AA4
:100C50000021B7F1004F0DF143088DF8431024D067
:100C600002202B23002F01DA7F422D230A21021EAE
:100C7000A0F1010000DC5FB197FBF1FC97FBF1F202
:100C800001FB1C7C17460CF1300C08F801CDEEE797
:100C9000A8F1010003702188090501D5452100E074
:100CA0006521A0F1010800F8011C09980FA9A1EB2A
:100CB0000807FF1D00B10120411901EBEA70A1698D
:100CC0003844081A401EA0612078C00602D420468D
:100CD000FFF754FB099828B1D4E901219047206A15
:100CE000401C20622078C00622D52046FFF746FB34
:100CF0001EE0002E04DBB34502DD01A8805D00E0AC
:100D00003020D4E901219047206A401C2062761CE3
:100D1000AAF101005FEA000A0AD100F067F8C06892
:100D20000168405CD4E901219047206A401C2062A0
:100D3000281EA5F10105DCDC07E0D4E9012118F843
:100D4000010B9047206A401C2062381EA7F1010762
:100D5000F3DC2046FFF728FB032011B043E6000038
:100D600001694A1C02610878704700B58FB0CDE96F
:100D700001310021059105497944CDE9031011465F
:100D80006846FFF7B3FB0FB000BD0000E5FFFFFFB3
:100D90000A6802F8010B0A60704710B5436913B185
:100DA000AFF3008001E0FFF710FB012010BD1278C7
:100DB00000F124010A7000224A700122EDE7116857
:100DC0004FF0FF32E9E70000074B70B50D467B445A
:100DD000FFF7CBFF0446284600F000F910B14FF0B2
:100DE000FF3070BD204670BDA33E00000048704734
:100DF0004860002030B5B0F10A024FEA900E71F160
:100E000000034EEA817EB0EB0E0061EB91014FEAE8
:100E1000101E4EEA017E10EB0E0041EB11114FEA5D
:100E2000102E4EEA016E10EB0E0041EB11214FEA3D
:100E3000104E4EEA014E10EB0E0041EB11414018EE
:100E400041F100014FEAD00040EA41704FEAD10180
:100E500010EB80054FEA810444EA907444EB0104EE
:100E60006D1944EB0404521BA3414FF0000348BF2B
:100E70000A3200D530BD401C41F1000130BD0000F8
:100E80002DE9F0411F46044603260168072A01F4B4
:100E9000006004DB08B116A505E016A503E008B163
:100EA00015A500E015A521F010002060A069C01E66
:100EB000A0610FB1401EA0612046FFF75FFA4FB15D
:100EC000D4E9012138469047206A401C2062C01CAA
:100ED000206206E0206AFAE7D4E9012115F8010B47
:100EE0009047761EF8D22046FFF75EFABDE8F08103
:100EF0004E414E006E616E00494E4600696E6600BE
:100F00002DE9F047814616468AB0334878440DC82B
:100F10008DE80D0030487844801C03AC0DC884E88F
:100F20000D0041F69B300844372190FBF1F290FB15
:100F3000F1F5A5F1800501FB12041B3C02D56442CA
:100F4000012000E00020DFF890A080460027FA444E
:100F5000AAF1BE0A0DE0E00709D03246684607EB69
:100F600047010AEB810100F034FB8DE807006410B3
:100F70007F1C002CEFD1184F7F44AC3F18E0E807EE
:100F800014D007EB04100DF1180A90E80E008AE85F
:100F90000E00C068F04201D198190890324606A9A7
:100FA00003A800F016FB03AB83E807006D10641C78
:100FB000002DE4D132466946B8F1000F03A802D0F3
:100FC00000F0F3FA01E000F004FBC9E90001C9F800
:100FD00008200AB0BDE8F08734740000007B00F000
:100FE0008000704700487047286000207546FFF772
:100FF000F9FFAE4605006946534620F007008546D6
:1010000018B020B5FFF774F9BDE820404FF0000696
:101010004FF000074FF000084FF0000B21F00701E0
:10102000AC46ACE8C009ACE8C009ACE8C009ACE823
:10103000C0098D46704710B50446AFF300802046C6
:10104000BDE81040FFF7F4B84FF0013C50F8042B16
:1010500051F8043B9A4221D1A2EB0C03934313EACB
:10106000CC1317D150F8042B51F8043B9A4215D1F8
:10107000A2EB0C03934313EACC130BD150F8042BCF
:1010800051F8043B9A4209D1A2EB0C03934313EAB3
:10109000CC13DBD04FF00000704700BFD01A01BA6C
:1010A000B1FA81F101F0180122FA01F0CB40C1F14F
:1010B0002001DBB2C0B2C01A2CFA01F3D11A91435D
:1010C00011EAC311E6D170475FEA400C08BF91F006
:1010D000000F4FEA8C234FEAC12243EA51514FEAF5
:1010E0001C5018BF00F5F0404FEA300018BF41F027
:1010F00000415FEA6C5C00F02980BCF1FF3F08BF53
:1011000040F080407047130C06BF12044FF0100CE3
:101110004FF0000C130E04BF12020CF1080C130F59
:1011200004BF12010CF1040C930F04BF92000CF1E8
:10113000020CD30F04BF52000CF1010C11464FF00A
:101140000002A0F11F00A0EB0C00704711F0004F4F
:1011500008BF704731F000413FF4D5AF0B0C06BF1C
:1011600009044FF0100C4FF0000C0B0E04BF0902E5
:101170000CF1080C0B0F04BF09010CF1040C8B0FD0
:1011800004BF89000CF1020CCB0F04BF49000CF125
:10119000010CCCF12003A0EB0C0022FA03F302FABD
:1011A0000CF241EA030100F10100704720F07F4C8E
:1011B00080EA030023F07F47ACEB070303F57C5381
:1011C00000F0004003F1FF032DE980494FEA154B81
:1011D00009B44FEA144325EA0B4E24EA03480FF200
:1011E000042606EB132749083E785FEA320203FB28
:1011F0000667C7F5000707FB06F64FEA54374FEAC4
:10120000D64606F1020607FB066CCCF1005C4FEAFD
:101210001C472CEA074C07FB06F40CFB06F504EB15
:1012200015464FEA961634BF00204FF000404FEAB3
:10123000D13706FB07FC4FEA1C4C0CFB0BF7D21B0B
:1012400003FB0CF761EB07010CFB0EF7B0EB07405B
:1012500072EB17420CFB08F734BFA2EB0742B2EB6C
:10126000074261EB17414FEA0C444FEA910706FB36
:1012700007FC4FEA1C4C0CFB0BF7B0EBC74072EBC2
:10128000573203FB0CF734BFA2EBC742B2EBC742A5
:1012900061EB57310CFB0EF7B0EBC70072EB5772E6
:1012A0000CFB08F734BFA2EBC702B2EBC70261EB3D
:1012B0005771039F4FEA816141EA921104EBCC041C
:1012C0004FEAD1374FEA826206FB07FC42EA9012EE
:1012D0004FEA80604FEA1C4C0CFB0BF7D21B03FB60
:1012E0000CF761EB07010CFB0EF7B0EB074072EB5C
:1012F00017420CFB08F734BFA2EB0742B2EB0742E0
:1013000061EB17414FEA8C554FEA910704EB9C249F
:1013100006FB07FC4FEA1C4C0CFB0BF7B0EBC7407D
:1013200072EB573203FB0CF734BFA2EBC742B2EBB0
:10133000C74261EB57310CFB0EF7B0EBC70072EB05
:1013400057720CFB08F734BFA2EBC702B2EBC7021F
:1013500061EB577115EB4C254FEA816141EA92111F
:101360004FEA82624FEAD13742EA901206FB07FC4D
:1013700044F100044FEA80604FEA1C4C0CFB0BF771
:10138000D21B03FB0CF761EB07010CFB0EF7B0EB74
:10139000074072EB17420CFB08F734BFA2EB074281
:1013A000B2EB074261EB174115EB1C154FEA813197
:1013B00041EA92414FEA823242EA90424FEA80305B
:1013C0004FEA0C7644F1000448EA03434EEA0B4826
:1013D0004FF0000EB2EB080C71EB030724BF62461E
:1013E00039464EEB0E0E4FF0000B001852414941AA
:1013F0004BEB0B0BB2EB080C71EB03077BF1000B13
:1014000024BF624639464EEB0E0E4FF0000B00181B
:10141000524149414BEB0B0BB2EB080C71EB03074C
:101420007BF1000B24BF624639464EEB0E0E51EAAB
:10143000020718BF46F0010616EB0E7655F10002C2
:1014400054F1000103D5BDE88901BDE80088BDE87D
:101450008901BDE80048B619524141EB0101A3F1F1
:101460000103704780807F7E7D7C7B7A79787776F8
:1014700076757473727171706F6E6E6D6C6C6B6A71
:101480006A6968686766666564646363626161600F
:10149000605F5F5E5E5D5D5C5C5B5B5A5A5959588C
:1014A00058575756565555555454535352525251F6
:1014B000515050504F4F4F4E4E4D4D4D4C4C4C4B4C
:1014C0004B4B4A4A4A494949484848474747474693
:1014D00046464545454444444443434343424242CF
:1014E00042414141002B26D4770021D01CB54FEA60
:1014F000370703B44FF010004FF010014FF0000019
:101500000FBCBDE810400BF1010BBBF1010F08BF90
:101510005FEA170722BF12F1010211F101014FF03A
:10152000004143F1000300F0004043EA000070472F
:10153000F9D35708DAE746EA064613F1400F4FEAB7
:1015400016461FDD13F1200FDFBF16430A460021A8
:1015500020335B42C8D0C3F1200746EA064602FAB0
:1015600007F74FEA164646EA0706C3F1200722FAB4
:1015700003F201FA07F721FA03F14FF0000342EA00
:101580000702B1E746EA020646EA06464FEA164671
:1015900046EA0106BCBF46EA0646360C4FF0000399
:1015A0004FF000024FF000019EE72DE9C04893463E
:1015B00030B491E8380007C831EA400C48BF34EA3B
:1015C000430C03D5FFF7F2FDFFF78CFFF0BCBDE83D
:1015D00000882DE9C048934630B491E8380007C828
:1015E00010F0804F08BF13F0804F03D100F005F8D2
:1015F000FFF778FFF0BCBDE8008820F07F4780EA65
:10160000030023F07F4C07EB0C03A3F57C5300F0A1
:101610000040A3F1FE0392F0000F00F0B38095F0BC
:10162000000F00F077802DE901494FEA11404FEAA1
:10163000144621EA004800FB06FC24EA064708FBA2
:1016400006F607FB08F800FB07F718EB06484CEB1B
:10165000164C4FEA124B18EB07484FEA15464CEB75
:10166000174022EA0B4E0BFB06FC25EA06470EFB51
:1016700006F607FB0EFE0BFB07F71EEB064E4CEBC8
:10168000164C4FF000061EEB074E4CEB174B18EBB9
:101690000B0840F1000018EB0E0B58EB000840F16E
:1016A00000008F1A4FF000013CBFC943661B14BFF6
:1016B000B5EB040C00213CBFC943F61B4FEA1744AD
:1016C0004EEA8E0E27EA04454FEA1C4704FB0762E8
:1016D0002CEA074C05FB07F70CFB05F604FB0CFC9A
:1016E00016EB074642EB174216EB0C4642EB1C4248
:1016F0001BEB060658EB0202414146EA9E0601D565
:10170000BDE80189B619524141EB0101A3F1010382
:10171000BDE801894FEA14454FEA114724EA05461E
:1017200021EA074C05FB07F406FB07F70CFB06F163
:1017300005FB0CFC11EB074144EB17444FEA124741
:1017400011EB0C4144EB1C4422EA074C05FB07F269
:1017500006FB07F70CFB06F605FB0CFC16EB074631
:1017600042EB174216EB0C4642EB1C456A1854F14B
:10177000000148BF7047B619524141EB0101A3F186
:101780000103704795F0000F37D04FEA11424FEA3E
:10179000144721EA024624EA074C02FB07F106FB44
:1017A00007F70CFB06F402FB0CFC14EB074441EBBF
:1017B00017414FEA154714EB0C4441EB1C4125EA55
:1017C000074C02FB07F506FB07F70CFB06F602FBCE
:1017D0000CFC16EB074645EB174516EB0C4645EBA4
:1017E0001C42121951F1000148BF7047B61952410D
:1017F00041EB0101A3F1010370474FEA14454FEAA1
:10180000114724EA054621EA074C05FB07F106FBD0
:1018100007F70CFB06F24FF0000605FB0CFC12EB81
:10182000074241EB174112EB0C4251EB1C4148BF00
:101830007047921841EB0101A3F1010370470000CA
:101840002DE9F047074642A0FEF778FD45A138464E
:10185000FEF7F2FE002879D0394645A0FEF76EFD6E
:1018600045A0FEF76BFD002447A13846FEF7E4FED5
:1018700004460A343C2004F081FE80463C21404668
:10188000FEF7BAFF3C2004F079FE81463C21484631
:10189000FEF7B2FF3C2004F071FE05463C212846CD
:1018A000FEF7AAFF3C2004F069FE06463C213046C4
:1018B000FEF7A2FF002003E021782954641C401C9D
:1018C0000428F9DB002003E021783154641C401C1B
:1018D0000328F9DB2FA14046FEF7C0FE294640460B
:1018E000FEF7FFFE2CA14046FEF7FBFE2CA148466A
:1018F000FEF7B4FE31464846FEF7F3FE29A14846FE
:10190000FEF7EFFE04224146284802F0CBF80422FD
:1019100049462648803802F0C5F8042224A126480A
:1019200002F0C0F8284604F0CBFF404604F0C8FFA0
:10193000304604F0C5FF484604F0C2FF02F03EF80E
:101940001EA0FEF7FBFCBDE8F087FFE700BFFAE74B
:101950006163746976617465206465766963650D99
:101960000A0000006465766163746976656400004E
:101970000D0A25730D0A0000616374697665207392
:1019800075630D0A00000000646576616374697612
:101990006573000063757200637572640000000077
:1019A00070726500707265640000000080A807080E
:1019B000616374697665000080AA07080D0A726584
:1019C00070204143540D0A0000BFFEE7704700003D
:1019D000642004F0D3FD044628E064212046FEF78D
:1019E0000BFF00235A1E21461148006805F08EFBAC
:1019F000214610A0FEF7A2FC12A12046FEF71CFE15
:101A000010B12046FFF71CFF10A12046FEF714FE80
:101A100008B101F093FF0FA12046FEF70DFE10B1B3
:101A2000204602F049F9642005F07EF8D5E7000071
:101A300028020020446576436D644275663A20258D
:101A4000730D0A00616374697665730072656C6575
:101A50006173650075706461746564002DE9F04719
:101A60005649D1F8240180475449D1F828018047CC
:101A70005249D1F82C01804703220021012005F0B2
:101A80000BFB4F49086002F01FFD81464DA002F09C
:101A900024FD044622464EA1484602F0EBFC47488E
:101AA000B03002F01AFD044622464BA1484602F02F
:101AB000E1FC42489C3002F010FD0446224648A159
:101AC000484602F0D7FC3D49D1F8C40006F0FDF9C4
:101AD000074602F0E7FC0446224643A1484602F0CE
:101AE000C9FC0020414902F0DDFC0446224640A129
:101AF000484602F0BFFC40A002F0EFFC044622463C
:101B00003FA1484602F0B6FC00203F4902F0CAFC63
:101B1000044622463DA1484602F0ACFC484602F08D
:101B200023FD0646002420E00121304601F010FE8E
:101B3000002342F2107219462148006805F0E6FAC7
:101B40000546214633A0FEF7F9FB012D0CD148468E
:101B500002F0D2FC1A48006804F084FF32A0FEF7BD
:101B6000EDFB0120BDE8F087641C032CDCDB48465C
:101B700002F0C2FC30A0FEF7E1FB34A0FEF7DEFB72
:101B800000BF00BF00BF00BF00BFBFF34F8F00BF4B
:101B900000BF00BF3248006800F4E06031490843EC
:101BA000001D2F49086000BF00BF00BFBFF34F8F6B
:101BB00000BF00BF00BF00BF00BFFDE7A4000020C2
:101BC000200200207265676973746572000000006E
:101BD0007479706500000000696D73690000000091
:101BE000696D6569000000006373710000002440A6
:101BF000686172647600000030313032000000000D
:101C0000736F66747600000000002640706F727477
:101C10000000000072656769737465722025642096
:101C200074696D65730D0A00726567697374657216
:101C3000206F6B0D0A00000072656769737465722E
:101C4000206661696C65640D0A0000005379737445
:101C5000656D205265626F6F74696E670D0A0000D2
:101C60000CED00E00000FA052DE9F0473A49D1F803
:101C70002401804703220021012005F00DFA374995
:101C8000086002F021FC814635A002F026FC0446E3
:101C9000224635A1484602F0EDFB2F49D1F8C40099
:101CA00006F013F9074602F0FDFB0446224630A178
:101CB000484602F0DFFB484602F056FC0646002488
:101CC00020E00121304601F043FD002342F2107272
:101CD00019462248006805F019FA0546214625A054
:101CE000FEF72CFB012D0CD1484602F005FC1B48E9
:101CF000006804F0B7FE23A0FEF720FB0120BDE83A
:101D0000F087641C032CDCDB484602F0F5FB20A0C6
:101D1000FEF714FB22A0FEF711FB00BF00BF00BFBF
:101D200000BF00BFBFF34F8F00BF00BF00BF2148FF
:101D3000006800F4E06020490843001D1D49086068
:101D400000BF00BF00BFBFF34F8F00BF00BF00BF89
:101D500000BF00BFFDE70000A40000202402002017
:101D600073696776616C000074797065000000002B
:101D7000637371004353512025642074696D65734A
:101D80000D0A0000435351206F6B0D0A0000000044
:101D9000435351206661696C65640D0A00000000C0
:101DA00053797374656D205265626F6F74696E67E5
:101DB0000D0A00000CED00E00000FA050021074AC2
:101DC000D1610749096941F00401054A11611146D1
:101DD000096941F0400111617047000030020020A4
:101DE000002002400021074AD1610749096941F0FA
:101DF0000201054A116111464861096941F040013B
:101E00001161704730020020002002400022054B83
:101E1000DA61054A126942F00102034B1A6101803E
:101E20007047000030020020002002401748C068C0
:101E300000F0100028B11648C06940F002001449B3
:101E4000C8611248C06800F0040028B11048C06999
:101E500040F001000E49C8610C48C06900F0010063
:101E600068B10B48C06940F004000949C86100BF6F
:101E70000648C06920F001000449C86100BF00BFE6
:101E800014200249C86000BF7047000000200240D3
:101E90003002002070B5044600F0B8FA054609E0AB
:101EA000601C38B124B100F0B1FA401BA04201D946
:101EB000032070BD1248C06800F001000028EFD177
:101EC0000F48C06800F0200020B100BF20200C495E
:101ED000C86000BF0A48C06800F0100048B9084850
:101EE000C06900F0010020B90548C06800F0040096
:101EF00018B1FFF79BFF0120DBE70020D9E70000C6
:101F00000020024031B5002400F080FA044600BFF2
:101F100000F07CFA001B00998842F9D338BD00001C
:101F20002DE9F04104460E460127002500BF264852
:101F3000007E012802D10220BDE8F0810120224963
:101F4000087600BF2068022813D14CF25030FFF70A
:101F5000A1FF90BB0120FFF731FF4CF25030FFF79B
:101F600099FF07461948006920F0040017490861E5
:101F700023E04CF25030FFF78DFFF0B94FF0FF3007
:101F80003060A56812E02846FFF72CFF4CF2503075
:101F9000FFF780FF07460D48006920F002000B495B
:101FA00008610FB1356007E005F50065D4E902105E
:101FB00001EBC020A842E6D800BF00BF00200249C4
:101FC000087600BF3846B7E7300200200020024004
:101FD0000348006940F08000014908610020704713
:101FE000002002402DE9FE4F05468B4617469846D5
:101FF000012600240020029000BF2448007E012812
:1020000002D10220BDE8FE8F01202049087600BFE2
:102010004CF25030FFF73EFF064686BB012D02D141
:102020000120029006E0022D02D10220029001E080
:102030000420029000241EE02201B946C246484610
:102040005146FEF768F980B20190022000FB04B00F
:1020500000900199FFF7DAFE4CF25030FFF71AFFBB
:1020600006460B48006920F001000949086106B1E5
:1020700004E0601CC4B202988442DDDB00BF00BFF4
:1020800000200249087600BF3046BBE7300200203E
:10209000002002400748006900F0800028B106488F
:1020A000044948600548486001E00120704700206D
:1020B000FCE700000020024023016745AB89EFCD1B
:1020C0002DE9F84702460024002000258446002719
:1020D00000237BE14FF0010808FA03F4D1F80080F7
:1020E00008EA0400A0427DD1DFF8ECA2D1F8048018
:1020F000A8EB0A09D0453AD014DCB8F1030F50D050
:1021000009DCB8F1000F31D0B8F1010F1CD0B8F1E3
:10211000020F49D120E0B8F1110F18D0B8F1120F19
:1021200042D11EE0B9F5881F25D006DCB9F5803F05
:1021300020D0B9F5801F37D11AE0B9F5001F18D0AB
:10214000B9F5041F30D117E0D1F80CC02DE0D1F85B
:102150000C8008F1040C28E0D1F80C8008F1080C80
:1021600023E0D1F80C8008F10C0C1EE000BF00BF8A
:1021700000BF00BF00BF00BFD1F80880B8F1000F5A
:1021800002D14FF0040C0BE0D1F80880B8F1010F38
:1021900003D14FF0080C146102E04FF0080C5461B9
:1021A00003E04FF0000C00E000BF00BFFF2801D8A3
:1021B000904601E002F104084646FF2802D84FEAA3
:1021C000830803E0A3F108084FEA88084746D6F8D9
:1021D00000804FF00F0909FA07F928EA09080CFAFC
:1021E00007F900E07AE048EA0908C6F80080D1F86B
:1021F000048008F08058B8F1805F6FD100BFDFF82D
:10220000DC81D8F8188048F00108DFF8D091C9F8CF
:102210001880C846D8F8188008F00108CDF800806A
:1022200000BF00BF4FEAB9384FEA930958F8295068
:102230004FEA83784FEA18794FF00F0808FA09F847
:1022400025EA0805DFF89881424502D14FF00008E1
:1022500024E0DFF89081424502D14FF001081DE0F3
:10226000DFF88481424502D14FF0020816E0DFF822
:102270007C81424502D14FF003080FE0DFF8708106
:10228000424502D14FF0040808E0DFF8688142457A
:1022900002D14FF0050801E04FF006084FEA8379BC
:1022A0004FEA197908FA09F848EA0505DFF8488184
:1022B0004FEA930948F82950D1F8048008F480388F
:1022C000B8F5803F0BD1DFF83481D8F8008048EAB8
:1022D0000008DFF82891C9F800800AE075E0DFF80F
:1022E0001C81D8F8008028EA0008DFF81091C9F8AE
:1022F0000080D1F8048008F40038B8F5003F0ED112
:10230000DFF8F88008F10408D8F8008048EA0008EF
:10231000DFF8E89009F10409C9F800800DE0DFF862
:10232000DC8008F10408D8F8008028EA0008DFF80B
:10233000CC9009F10409C9F80080D1F8048008F4B0
:102340008018B8F5801F0ED1DFF8B08008F10808BA
:10235000D8F8008048EA0008DFF8A09009F10809E1
:10236000C9F800800DE0DFF8948008F10808D8F87B
:10237000008028EA0008DFF8849009F10809C9F80C
:102380000080D1F8048008F40018B8F5001F0ED1C1
:10239000DFF8688008F10C08D8F8008048EA0008E7
:1023A000DFF8589009F10C09C9F800800DE0DFF85A
:1023B0004C8008F10C08D8F8008028EA0008DFF803
:1023C0003C9009F10C09C9F800805B1C102BFFF44C
:1023D00081AEBDE8F8870000000011100010024037
:1023E00000080140000C01400010014000140140B1
:1023F00000180140001C0140080001400004014099
:102400000AB1016101E00B040361704701480068F3
:10241000704700002000002010B50848006840F018
:10242000100006490860052000F068F80F2000F051
:1024300007F800F017F8002010BD0000002002404F
:1024400070B5044600F0BAF94FF47A71B0FBF1F5BB
:10245000284600F08FFE00222146501E00F010F8A2
:10246000002070BD704700BF00F01F0201219140A5
:102470004209920002F1E022C2F8001100BF704749
:102480002DE9F05F80460D461646002701F03AFA26
:10249000074639462A46334601F00700C0F1070ACD
:1024A000BAF1040F02D94FF0040A01E0C0F1070AA3
:1024B000D14600F1040ABAF1070F02D24FF0000A28
:1024C00001E0A0F1030AD4464FF0010A0AFA09FA22
:1024D000AAF1010A0AEA020A0AFA0CFA4FF0010B01
:1024E0000BFA0CFBABF1010B0BEA030B4AEA0B04F2
:1024F0002146404601F00EFABDE8F09F00BF00F013
:102500000702064B19684FF6FF031940044B0B43B3
:1025100043EA0221014B196000BF70470CED00E057
:102520000000FA0570B504460D4600269F48006875
:1025300000F00700A8420ED29C48006820F0070077
:1025400028439A4908600846006800F00700A8423E
:1025500001D0012070BD207800F00200022807D1D0
:102560009348406820F0F000A16808439049486013
:10257000207800F0010000287CD0606801282DD16F
:102580002020010391FAA1F1B1FA81F10843012160
:10259000B1EB601F02D1864800680FE020200103E4
:1025A00091FAA1F1B1FA81F108430221B1EB601F68
:1025B00002D17F48006A01E07D48406A20210A0379
:1025C00092FAA2F2B2FA82F2114301F01F02012143
:1025D00091400840002860D10120BBE760680228D4
:1025E0002CD12020010591FAA1F1B1FA81F1084323
:1025F0000121B1EB601F02D16D4800680FE020207F
:10260000010591FAA1F1B1FA81F108430221B1EB80
:10261000601F02D16648006A01E06548406A2021D7
:102620000A0592FAA2F2B2FA82F2114301F01F02F5
:1026300001219140084078BB01208BE72020022136
:1026400091FAA1F1B1FA81F108430121B1EB601FC8
:1026500002D15748006810E02020022191FAA1F130
:10266000B1FA81F108430221B1EB601F03D1504858
:10267000006A02E054E04E48406A2021022292FAA9
:10268000A2F2B2FA82F2114301F01F02012191403D
:10269000084008B901205DE7FFE74548406820F0A1
:1026A00003006168084342494860FFF7AFFE0646F1
:1026B0006068012810D108E0FFF7A8FE801B41F2F6
:1026C0008831884201D9032044E73948406800F046
:1026D0000C000428F0D123E06068022810D108E043
:1026E000FFF794FE801B41F28831884201D9032014
:1026F00030E72F48406800F00C000828F0D10FE0C8
:1027000008E0FFF783FE801B41F28831884201D93F
:1027100003201FE72648406800F00C000028F0D195
:102720002248006800F00700A8420ED91F48006840
:1027300020F0070028431D4908600846006800F0A3
:102740000700A84201D0012004E7207800F004002F
:10275000042807D11648406820F4E060E168084387
:1027600013494860207800F00800082808D1104874
:10277000406820F46050216940EAC1000C4948607B
:1027800000F04EF80A49496801F0F001F02292FA8F
:10279000A2F2B2FA82F2D140064A515CC840064920
:1027A00008600F20FFF74CFE0020D3E60020024017
:1027B00000100240748200081C00002001480068DC
:1027C000704700001C00002000B5FFF7F7FF074925
:1027D000496801F4E0614FF4E06292FAA2F2B2FAC1
:1027E00082F2D140024A515CC84000BD0010024054
:1027F0008482000800B5FFF7E1FF0749496801F44A
:1028000060514FF4605292FAA2F2B2FA82F2D140D1
:10281000024A515CC84000BD00100240848200089A
:10282000F0B585B00FF28C0C9CE8E01001A8A0E890
:10283000E01024A52D68009500210024002200232B
:102840000020214D696801F00C056DB3042D02D004
:10285000082D28D101E01D4828E001F470154FF43F
:10286000701696FAA6F6B6FA86F6F54001AE735DD6
:1028700001F4803595B1144D6D6805F400354FF4C1
:10288000003696FAA6F6B6FA86F6F5401DF805402B
:102890000E4DB5FBF4F505FB03F202E00C4D03FB16
:1028A00005F2104602E000BF084800BF00BF05B0B7
:1028B000F0BD000002030405060708090A0B0C0D11
:1028C0000E0F1010010200000010024000127A00EA
:1028D00000093D0038B504460025207800F00100CD
:1028E00000287CD0F848406800F00C0004280CD088
:1028F000F548406800F00C00082837D1F2484068DD
:1029000000F48030B0F5803F30D12020010391FAEF
:10291000A1F1B1FA81F108430121B1EB601F02D1AD
:10292000E94800680FE02020010391FAA1F1B1FA13
:1029300081F108430221B1EB601F02D1E248006A35
:1029400001E0E148406A20210A0392FAA2F2B2FAB9
:1029500082F2114301F01F0201219140084000283A
:10296000BFD0606800283AD1012038BD00BF606840
:10297000B0F5803F06D1D448006840F48030D24999
:10298000086028E0606858B9CF48006820F48030BB
:10299000CD4908600846006820F4802008601AE0ED
:1029A0006068B0F5A02F0BD1C748006840F48020C4
:1029B000C54908600846006840F4803008600AE0B5
:1029C000C148006820F48030BF49086008460068AC
:1029D00020F48020086000BF6068C8B300E06FE0AA
:1029E000FFF714FD054606E0FFF710FD401B6428C5
:1029F00001D90320B9E72020010391FAA1F1B1FA2E
:102A000081F108430121B1EB601F02D1AE4800689B
:102A10000FE02020010391FAA1F1B1FA81F10843FE
:102A20000221B1EB601F02D1A748006A01E0A6486D
:102A3000406A20210A0392FAA2F2B2FA82F211430A
:102A400001F01F020121914008400028CCD037E05E
:102A5000FFE7FFF7DBFC054606E0FFF7D7FC401B6E
:102A6000642801D9032080E72020010391FAA1F115
:102A7000B1FA81F108430121B1EB601F02D1924804
:102A800000680FE02020010391FAA1F1B1FA81F171
:102A900008430221B1EB601F02D18B48006A01E0BC
:102AA0008948406A20210A0392FAA2F2B2FA82F21D
:102AB000114301F01F020121914008400028CCD1B0
:102AC000207800F0020002284ED17F48406800F0D4
:102AD0000C0050B17C48406800F00C00082844D13C
:102AE0007948406800F4803078BB2020022191FAB8
:102AF000A1F1B1FA81F108430121B1EB601F02D1CC
:102B0000714800680FE02020022191FAA1F1B1FA8A
:102B100081F108430221B1EB601F02D16A48006ACB
:102B200001E06948406A2021022292FAA2F2B2FA38
:102B300082F2114301F01F0201219140084028B1A7
:102B40002069012802D001200FE70EE05E480068EE
:102B500020F0F800F82292FAA2F2B2FA82F2616949
:102B6000914008435849086091E02069F0B3012082
:102B700090FAA0F1B1FA81F1544A42F82100FFF72E
:102B800045FC054606E0FFF741FC401B022801D941
:102B90000320EAE62020022191FAA1F1B1FA81F1A5
:102BA00008430121B1EB601F02D1474800680FE0E4
:102BB0002020022191FAA1F1B1FA81F1084302210A
:102BC000B1EB601F02D14048006A01E03E48406A14
:102BD0002021022292FAA2F2B2FA82F2114301F00B
:102BE0001F02012191400840002800E00FE0CAD0F8
:102BF0003548006820F0F800F82292FAA2F2B2FA02
:102C000082F26169914008432F4908603FE000204B
:102C1000012191FAA1F1B1FA81F12C4A42F8210087
:102C2000FFF7F4FB054606E0FFF7F0FB401B022828
:102C300001D9032099E62020022191FAA1F1B1FAED
:102C400081F108430121B1EB601F02D11E480068E9
:102C50000FE02020022191FAA1F1B1FA81F108439D
:102C60000221B1EB601F02D11748006A01E016484B
:102C7000406A2021022292FAA2F2B2FA82F21143B1
:102C800001F01F020121914008400028CCD120789A
:102C900000F0080008284BD1A069A8B3012191FADF
:102CA000A1F0B0FA80F0094A02EB8000C0F880146D
:102CB000FFF7ACFB05460BE0FFF7A8FB401B022823
:102CC00006D9032051E600000010024000004242F5
:102CD0006020022191FAA1F1B1FA81F108430121AA
:102CE000B1EB601F02D1F948006810E060200221BA
:102CF00091FAA1F1B1FA81F108430221B1EB601F11
:102D000003D1F248006A02E013E0F048406A602113
:102D1000022292FAA2F2B2FA82F2114301F01F02E9
:102D20000121914008400028C6D00120FFF7EAF8B1
:102D300041E00020012191FAA1F1B1FA81F1E44AC8
:102D400002EB8101C1F88004FFF760FB054606E055
:102D5000FFF75CFB401B022801D9032005E6602039
:102D6000022191FAA1F1B1FA81F108430121B1EBFD
:102D7000601F02D1D54800680FE06020022191FA5F
:102D8000A1F1B1FA81F108430221B1EB601F02D138
:102D9000CE48006A01E0CD48406A6021022292FAE2
:102DA000A2F2B2FA82F2114301F01F020121914016
:102DB00008400028CCD1207800F00400042875D108
:102DC00000BFC248C06940F08050C049C861084691
:102DD000C06900F08050009000BF00BFBD4800688F
:102DE00040F48070BB490860FFF710FB054606E021
:102DF000FFF70CFB401B642801D90320B5E5B5485B
:102E0000006800F480700028F2D000BFE06801285C
:102E100006D1AE48006A40F00100AC49086227E0E4
:102E2000E06858B9A948006A20F00100A749086283
:102E30000846006A20F00400086219E0E0680528EE
:102E40000BD1A248006A40F00400A049086208467D
:102E5000006A40F0010008620AE09C48006A20F025
:102E600001009A4908620846006A20F004000862DE
:102E700000BFE068D0B3FFF7C9FA054608E0FFF7E6
:102E8000C5FA401B41F28831884201D903206CE524
:102E90004020022191FAA1F1B1FA81F10843012108
:102EA000B1EB601F03D18948006810E058E0402072
:102EB000022191FAA1F1B1FA81F108430221B1EBAB
:102EC000601F02D18148006A01E08048406A4021C9
:102ED000022292FAA2F2B2FA82F2114301F01F0228
:102EE0000121914008400028C9D039E0FFE7FFF7F1
:102EF0008DFA054608E0FFF789FA401B41F2883158
:102F0000884201D9032030E54020022191FAA1F145
:102F1000B1FA81F108430121B1EB601F02D16B4886
:102F200000680FE04020022191FAA1F1B1FA81F18D
:102F300008430221B1EB601F02D16448006A01E03E
:102F40006248406A4021022292FAA2F2B2FA82F268
:102F5000114301F01F020121914008400028CAD10D
:102F6000E069002873D05948406800F00C00082838
:102F70006ED0E06902286CD100204FF0807191FA88
:102F8000A1F1B1FA81F1524A42F82100FFF73EFA6D
:102F9000054606E0FFF73AFA401B022801D9032054
:102FA000E3E42020010591FAA1F1B1FA81F108438F
:102FB0000121B1EB601F02D1444800680FE02020DE
:102FC000010591FAA1F1B1FA81F108430221B1EBB7
:102FD000601F02D13D48006A01E03C48406A202160
:102FE0000A0592FAA2F2B2FA82F2114301F01F022C
:102FF0000121914008400028CCD1206AB0F5803FE3
:1030000007D13248406820F40030A16808432F49B6
:103010004860D4E9080108432C49496821F4741137
:1030200008432A4948600121080690FAA0F0B0FA46
:1030300080F0274A42F82010FFF7E8F9054609E03A
:10304000FFF7E4F9401B022804D903208DE479E05E
:1030500076E02CE02020010591FAA1F1B1FA81F18E
:1030600008430121B1EB601F02D1184800680FE04E
:103070002020010591FAA1F1B1FA81F10843022162
:10308000B1EB601F02D11148006A01E00F48406AAD
:1030900020210A0592FAA2F2B2FA82F2114301F05B
:1030A0001F020121914008400028C9D04AE00020B9
:1030B0004FF0807191FAA1F1B1FA81F1044A42F81E
:1030C0002100FFF7A3F905460DE0000000100240C3
:1030D0000000424200700040FFF798F9401B0228B0
:1030E00001D9032041E42020010591FAA1F1B1FAB0
:1030F00081F108430121B1EB601F02D11248006841
:103100000FE02020010591FAA1F1B1FA81F1084305
:103110000221B1EB601F02D10B48006A01E00A48AE
:10312000406A20210A0592FAA2F2B2FA82F2114311
:1031300001F01F020121914008400028CCD101E09C
:10314000012012E4002010E400100240042808D1FD
:103150004FF0E021096941F004014FF0E0221161D4
:1031600007E04FF0E021096921F004014FF0E0226F
:103170001161704770B504462546681EB0F1807F26
:1031800001D301200FE0681E4FF0E02148610F21BC
:103190004FF0FF3000F0BEFB00204FF0E0218861CF
:1031A00007200861002070BD7047F8B5044600256F
:1031B00000262068006800F001052068C06800F45F
:1031C000807625B11EB1E06B40F00100E06320681D
:1031D0000068C0F340052068406900F0010625B191
:1031E0001EB1E06B40F00400E06320680068C0F3AB
:1031F000800525B11EB1E06B40F00200E06320685D
:103200000068C0F3C00525B11EB1E06B40F00800B6
:10321000E06320680068C0F340152068C06800F0D3
:1032200020061DB116B1204600F0B0FE20680068EF
:10323000C0F3C0152068C06800F080061DB116B14B
:10324000204600F0E5FF20680068C0F38015206884
:10325000C06800F040061DB116B1204600F07EFEA9
:10326000E06B70B100BF2068006800902068406883
:10327000009000BF00BF012084F839002046FFF70E
:1032800093FFF8BD10B504460CB9012010BDA0692C
:1032900000B100E000BF94F8390028B9002084F89C
:1032A0003800204600F025F8022084F83900206814
:1032B000C06820F400502168C860204600F0C4FEB9
:1032C0002068006920F49040216808612068406906
:1032D00020F02A00216848612068C06840F400504E
:1032E0002168C8600020E063012084F839000020D4
:1032F000CCE7704730B50346002493F83940012CE1
:1033000001D0122C37D101B10AB9012030BD00BF64
:1033100093F83800012801D10220F7E7012083F853
:10332000380000BF99629A85DA850020D86393F847
:103330003900122803D1322083F8390002E022201C
:1033400083F8390000BF002083F8380000BF1868F8
:10335000C06840F480701D68E8601868406940F0FB
:1033600001001D6868611868C06840F020001D6891
:10337000E8600020CAE70220C8E77047704700BF36
:10338000FEE7000010B586B0044600BF1E48806905
:1033900040F004001C4988610846806900F0040080
:1033A000019000BF00BF00BF0846806940F4804024
:1033B00088610846806900F48040019000BF00BF2A
:1033C00048150290022003900120049003200590EC
:1033D00002A90E48FEF774FE4FF48060029002A925
:1033E0000A48FEF76DFE0A480A490860084644602C
:1033F00000218160C160016181610C214161FFF7A1
:1034000041FF06B010BD000000100240000801405E
:10341000003801409002002010B5044622460821E1
:103420000148FEF7EDFF10BD001C014000B585B05E
:1034300000BF0D48806940F080000B498861084654
:10344000806900F08000009000BF00BF082001905C
:1034500001200290032004900120039001A9034859
:10346000FEF72EFE05B000BD00100240001C01401A
:1034700000BFFEE738B505460D480068B0B100232F
:103480006A4629460A48006804F05EF80446012CA2
:1034900002D008A0FCF752FF009838B14FF08050DE
:1034A0000C490860BFF34F8FBFF36F8F38BD00002A
:1034B000080200207573617274206964656C206174
:1034C0006464207175657565206661696C65640D5D
:1034D0000A00000004ED00E0782003F04FF80546F4
:1034E0003C2003F04BF804460BE100235A1E29460A
:1034F0008448006803F00AFE294683A0FCF71EFFFB
:103500008548407801281ED1834901230022D1F843
:103510006001214603F0FAFD012814D12146284616
:10352000FDF78AF878B17C4900231A46D1F860018A
:10353000214603F0EBFD784900231A46D1F84001FB
:10354000194603F01FFF7448807801282AD1724978
:1035500001230022D1F86001214603F0D7FD0128A4
:1035600020D121462846FDF767F8D8B16A490023E3
:103570001A46D1F86001214603F0C8FD6648D0F82C
:10358000600138B1644902230022D1F85401294670
:1035900003F0F8FE604900231A46D1F844011946A9
:1035A00003F0F0FE5C48007901282AD15A49012332
:1035B0000022D1F86001214603F0A8FD012820D1A6
:1035C00021462846FDF738F8D8B1534900231A465A
:1035D000D1F86001214603F099FD4F48D0F8580119
:1035E00038B14D4902230022D1F85801294603F091
:1035F000C9FE494900231A46D1F84801194603F08B
:10360000C1FE4548407901282AD1434901230022BF
:10361000D1F86001214603F079FD012820D121462F
:103620002846FDF709F8D8B13B4900231A46D1F8DE
:103630006001214603F06AFD3748D0F85C0138B1DB
:10364000354902230022D1F85C01294603F09AFE95
:10365000314900231A46D1F84C01194603F092FE75
:103660002E48006870B12EA12846FCF7E5FF48B14E
:103670002A48006830B100231A46194627480068D6
:1036800003F080FE2948006870B129A12846FCF7A4
:10369000D3FF48B12548006830B100231A461946C7
:1036A0002248006803F06EFE23A12846FCF7C4FF01
:1036B00048B12348006830B100231A462946204803
:1036C000006803F05FFE1CA12846FCF7B5FF48B177
:1036D0001C48006830B100231A4629461948006882
:1036E00003F050FE18A12846FCF7A6FF30B1174999
:1036F00000231A46C86C194603F044FE642003F008
:1037000013FAF2E60802002047657420627566200D
:1037100025730D0A00000000A400002020020020F4
:103720007265677265706F6B0000000024020020F4
:103730006373717265700000646576636D64000088
:10374000280200201C0200204F4B0000D45700200C
:103750002DE9F04106460C46C82002F00FFF07464F
:10376000C8213846FDF748F844B914A13846FCF79B
:1037700075FF31463846FCF7B4FF05E0012C03D154
:1037800031463846FCF76AFF0D48006880B10023D7
:103790005A1E39460A48006803F0F4FD0546012D1B
:1037A00006D008A0FCF7CAFD4FF0FF30BDE8F0815D
:1037B000384603F085F80120F8E7000041542D0059
:1037C0000C0200204D657373616765206661696C4A
:1037D00065640D0A00000000C82002F0CFFE044618
:1037E000002541E0C8212046FDF706F800235A1EB7
:1037F00021461E48006803F089FC1DA12046FCF705
:103800001BFF58B11AA12046FCF716FF0746FF1C04
:1038100018488764016D0020884704E015488464D7
:10382000016D012088470026002517E0681CC5B2FD
:103830001048C06C78B10F49002341F28832C86C3F
:10384000194603F063FC064629460BA0FCF776FDFB
:10385000012E00D103E0022D00DB00E0E6E700BF0F
:10386000642003F061F900BFBCE700000C020020F7
:1038700041542D00D457002025640D0A000000009B
:1038800070B504460E461546002278210A2003F042
:1038900003FC174908600022C821082003F0FCFB44
:1038A0001449086003220021012003F0F5FB1249AE
:1038B000C864124808650846002141628162C162FD
:1038C000016314213430FCF7B9FF24210A48FCF7C6
:1038D000B5FF214608482430FCF7C0FE31460648B3
:1038E0003430FCF7BBFE29460348FCF7B7FE70BD39
:1038F000080200200C020020D457002025490008AF
:103900007047000002480068C0F3022070470000C2
:103910000CED00E010B5002807DA0A07140E054A7E
:1039200000F00F031B1FD45403E00A07130E024AD2
:10393000135410BD18ED00E000E400E02DE9F04163
:1039400015A0FCF7FBFC002400F0BEFD054617A007
:1039500000F0C3FD07463A4616A1284600F08AFD4E
:10396000284600F001FE0446284600F0C5FD9620DA
:1039700002F004FE064696213046FCF73DFF214644
:103980003046FCF76BFE01213046FFF7E1FE304682
:1039900002F096FFBDE8F08172656C656173652089
:1039A0006465766963650D0A0000000064656C6FEC
:1039B0006B00000074797065000000002DE9F04193
:1039C000002400F081FD054612A000F086FD0746A8
:1039D0003A4612A1284600F04DFD284600F0C4FDED
:1039E0000446284600F088FD962002F0C7FD0646F2
:1039F00096213046FCF700FF21463046FCF72EFEAC
:103A000001213046FFF7A4FE304602F059FFBDE821
:103A1000F0810000616374726570000074797065F4
:103A20000000000030B503460C461546002206E0B3
:103A3000184600F007F844F822001B1D521CAA4249
:103A4000F6D330BD0146086870472DE9F0470446BB
:103A50000D4616464FF0000AD046C146B4F1006F3D
:103A600002D304F0030008B1BDE8F087FEF712FBB3
:103A7000A04604EB86090AE02F683A460023214657
:103A80000220FEF7AFFA00B103E0241D2D1D4C45C6
:103A9000F2D300BFFEF79CFA052000F0D5FD00BF71
:103AA000E2E700002DE9F04786B005460E461746CE
:103AB00002F08AFE4FF0000A00200190A5F1006894
:103AC0004FEAD8244FF0006101EBC4208A141D494D
:103AD000FFF7A8FFC8F38809002007E056F8201078
:103AE00009EB0002174B43F82210401CB842F5D3F3
:103AF000002002904FF0006000EBC42004900120F1
:103B00000590FEF7C7FA01A902A8FEF709FAFEF729
:103B10005FFA4CF25030FEF7BDF9824601A902A8C7
:103B2000FEF7FEF910B106B0BDE8F0874FF0006176
:103B300001EBC4200A140349FFF787FF02F088FE57
:103B400000BFF0E72858002070B50446402002F07E
:103B500015FD054640212846FCF74EFE0AA12846E1
:103B6000FCF77CFD21462846FCF7BBFD09A1284651
:103B7000FCF7B7FD102229460948FFF793FF2846B6
:103B800002F09EFE70BD0000736F636B657473740A
:103B900061727400736F636B6574656E640000001E
:103BA00000AA07082DE9F04705464FF00008C14676
:103BB00021A12846FCF740FD00283AD0294620A044
:103BC000FCF7BCFB20A0FCF7B9FB002421A1284690
:103BD000FCF732FD0446E41D142002F0CFFC06463B
:103BE0001E2002F0CBFC074614213046FCF704FEF1
:103BF0001E213846FCF700FE002003E021783154F6
:103C0000641C401C0428F9DB002003E021783954AF
:103C1000641C401C1628F9DB304600F01FF83846BB
:103C2000FFF792FF304602F04BFE384602F048FEA6
:103C300000BFBDE8F08700007570646174656400C2
:103C40000D0A25730D0A0000666F74612073756399
:103C50000D0A0000757064617465730070B50446E8
:103C6000402002F08BFC054640212846FCF7C4FDAD
:103C70000AA12846FCF7F2FC21462846FCF731FD54
:103C800009A12846FCF72DFD102229460948FFF717
:103C900009FF284602F014FE70BD000076697369C2
:103CA0006F6E737461727400766973696F6E656E9E
:103CB0006400000080A9070804462046FFF772FF51
:103CC00010A0FCF73BFB00BF00BF00BF00BF00BF60
:103CD000BFF34F8F00BF00BF00BF0F48006800F464
:103CE000E0600E490843001D0B49086000BF00BF9B
:103CF00000BFBFF34F8F00BF00BF00BF00BF00BFBA
:103D0000FDE700005374617274696E6720466F743A
:103D100061202121210D0A000CED00E00000FA05D0
:103D20007CB5054602F050FD3048D0F83001012343
:103D300000224FF4FA6100902DA003F029FF3049D2
:103D4000086030480223012242F21071009028A03E
:103D500003F01EFF2C4908602C48032301222C4944
:103D600000902CA003F014FF2D4908602DA236A16D
:103D700038A0FFF785FD1D482AA233A1D0F83C31B9
:103D800034A098473648042100238A01CDE9001069
:103D900034A1374803F0B0FC3648032100234FF428
:103DA0008072CDE9001034A1354803F0A5FC3548F8
:103DB00002210023CA01CDE9001033A1354803F0E8
:103DC0009BFC03F0D9FC04464FF0FF300023224651
:103DD000012100900A48006803F02CFF2E4800687B
:103DE00002F0DCFE02F034FD7CBD0000A4000020E7
:103DF0004F6E6553686F7454696D65720000000002
:103E0000100000201D67000814000020691C000835
:103E1000005C260543535154696D65720000000033
:103E20001800002054474D6D797367374458444259
:103E3000425955474565547A763668634161653421
:103E40007A354D39000000006465766963656E61FE
:103E50006D65000043384F7A4436506B6D3956001B
:103E6000040000204C4544305461736B0000000096
:103E7000D9340008080000204D73675461736B004B
:103E8000D93700080C000020446576436D64546106
:103E9000736B0000D11900080000002030B58FB00E
:103EA000054600240120059000040690002007909C
:103EB00002200C90C1030D910E9505A8FEF70AFD96
:103EC00004460CB100BFFEE70F20009002200190D5
:103ED000002002904FF480600390002004900221A3
:103EE0006846FEF71FFB04460CB100BFFEE70FB0AB
:103EF00030BD10B503F030FC012801D003F0B2F85A
:103F000010BD00001148006840F001000F49086032
:103F1000084640680E4908400C4948600846006859
:103F20000C490840094908600846006820F48020D0
:103F300008600846406820F4FE0048604FF41F0007
:103F40008860C80304490860704700000010024000
:103F50000000FFF8FFFFF6FE08ED00E010B5044694
:103F60002068C06820F040002168C86094F83900DB
:103F7000322803D1222084F8390002E0012084F89D
:103F800039002046FFF7FAF9002010BD70B504464D
:103F9000002694F83960222E01D0322E52D1A0682A
:103FA000B0F5805F13D1A56A206940B920684068E8
:103FB000C0F308002880A06A801CA06219E0206875
:103FC0004068C0B22880A06A401CA06211E020694D
:103FD00038B920684068C1B2A26A501CA062117052
:103FE00007E02068406800F07F01A26A501CA062D0
:103FF0001170E08D401E80B2E08508BB2068C0686B
:1040000020F020002168C86094F83900322803D1DC
:10401000122084F839000EE02068C06820F4807017
:104020002168C8602068406920F00100216848616B
:10403000012084F839002046FFF79FF9002070BD69
:104040000020FCE70220FAE72DE9F04104460025B4
:104050002068006920F44050E16808432168086145
:104060002169A0680843616940EA01052068C068C9
:1040700041F20C61884328432168C8602068406988
:1040800020F44070A1690843216848615F492068B5
:1040900088425CD1FEF7AEFB00EBC00101EB0010E3
:1040A00061688900B0FBF1F6FEF7A4FB00EBC001EC
:1040B00001EB001061688900B0FBF1F06421B0FBF6
:1040C000F1F000EBC00101EB0010A6EB8000322103
:1040D00001EB00106421B0FBF1F000F0F006FEF7F8
:1040E00089FB00EBC00101EB001061688900B0FBA7
:1040F000F1F06421B0FBF1F006EB0016FEF77AFB5D
:1041000000EBC00101EB001061688900B0FBF1F722
:10411000FEF770FB00EBC00101EB00106168890045
:10412000B0FBF1F06421B0FBF1F000EBC00101EB5A
:104130000010A7EB8000322101EB00106421B0FBDE
:10414000F1F000F00F003044216888605BE0FEF77A
:104150003BFB00EBC00101EB001061688900B0FB84
:10416000F1F6FEF731FB00EBC00101EB00106168D6
:104170008900B0FBF1F06421B0FBF1F000EBC0016D
:1041800001EB0010A6EB8000322101EB001064214E
:10419000B0FBF1F000F0F006FEF716FB00EBC001FB
:1041A00001EB001061688900B0FBF1F06421B0FB05
:1041B000F1F006EB0016FEF707FB00EBC00101EB88
:1041C000001061688900B0FBF1F7FEF7FDFA00EB23
:1041D000C00101EB001061688900B0FBF1F06421BF
:1041E000B0FBF1F000EBC00101EB0010A7EB800089
:1041F000322101EB00106421B0FBF1F000F00F0060
:10420000304421688860BDE8F0810000003801403A
:1042100010B50146002391F83930122B01D0322B12
:104220002CD18868B0F5805F0FD10A6A1088C0F37E
:1042300008000C686060086918B9086A801C086288
:1042400009E0086A401C086205E00C6A601C08620C
:1042500020780C686060C88C401E80B2C88458B951
:104260000868C06820F080000C68E0600868C068DA
:1042700040F040000C68E060002010BD0220FCE728
:1042800010B50248FEF791FF10BD0000900200201B
:1042900038B5174800680068C0F3401048B11548A9
:1042A0000068C4B214490888411C134A118013499C
:1042B0000C540F4800680068C0F30010A0B100BFA4
:1042C0000B4800680068009009480068406800904A
:1042D00000BF00BF0948FFF7CDF80020064908805D
:1042E00078210648FCF7AAFA0148FEF75EFF38BDC0
:1042F00050020020044400402C000020D002002086
:1043000000BFFEE710B586B0044600BF2E488069A6
:1043100040F004002C4988610846806900F00400E0
:10432000019000BF00BF00BF0846C06940F40030E4
:10433000C8610846C06900F40030019000BF00BFAA
:104340000420029002200390012004900320059095
:1043500002A91E48FDF7B4FE082002900020039039
:1043600002A91A48FDF7ACFE19481A490860084628
:10437000446000218160C160016181610C21416163
:10438000FEF780FF782214491248FEF7B3FF26207B
:10439000FEF769F8002206212620FEF771F800BF1B
:1043A0000C480068006801900A4800684068019065
:1043B00000BF00BF07480068C06840F01000054912
:1043C0000968C86006B010BD001002400008014036
:1043D0000044004050020020D002002070B5044686
:1043E0002046FCF75FF9054600200BE000BF0749B7
:1043F000096801F040010029F9D0215C034A121D2F
:104400001160401CA842F1DB70BD00000044004078
:10441000490050EAC12018BF04204A0D18BF40F0DF
:10442000010040F2FF72B2EB515F08BF40F00200A2
:10443000012808BF0520704730380A2801D2012022
:1044400070470020704700BF704770B505460E46A4
:10445000AC6806B970BD0CB9AE6009E000E0246834
:1044600014B120680028FAD13146204602F052F9F2
:1044700000BFEFE770B506460D46144604B970BD9F
:10448000206A18B10649206A09688847284600F062
:1044900073F8206221463046FFF7D7FF00BFEEE7F2
:1044A0001802002070B505460E4600F04DF804468F
:1044B00044B10320E060C4E906562846314603F0C3
:1044C000D5FC6061204670BD10B500F03DF8044693
:1044D0000CB10620E060204610BD70B5054600F026
:1044E00033F804462CB10420E060284600F044F87C
:1044F0002061204670BD000070B504461EE02568AE
:10450000A08900F4807020B9A06810B1A068FFF7FE
:10451000F3FFA08900F4807028B9206918B1094917
:10452000206909688847206A18B10649206A096825
:10453000884720460349096888472C46002CDED16D
:1045400070BD00001802002010B528200549096838
:10455000884704461CB128212046FCF76FF9204605
:1045600010BD00001402002010B5044601220021F5
:10457000204601F009FA10BD70B504462046FCF74C
:1045800091F8451C2846064909688847061E00D14F
:1045900070BD2A4621463046FCF7AFF83046F7E7B3
:1045A0001402002010B50420FEF7D0FD104800686A
:1045B0001049B0FBF1F0104908700D4800680D4932
:1045C000B0FBF1F44FF47A70444301200B490880AA
:1045D0004FF0E020006940F002004FF0E021086158
:1045E00008464461006940F00100086110BD000008
:1045F0001C00002040420F00240000202600002064
:1046000070B5034600224FF0E02675690D4E3678EE
:1046100003FB06F44FF0E026B16910E04FF0E0260E
:10462000B06988420BD0884202D20E1A324402E0AE
:104630002E1A0E4432440146A24200D300E0EDE7B8
:1046400000BF70BD2400002030B50446002504E002
:104650004FF47A70FFF7D4FF6D1CA542F8D330BD3C
:104660002DE9F04104460E46154600205F4948708A
:104670008870C87008714871A02001F07FFF07465C
:10468000A0213846FCF7B8F859A0FBF757FE574869
:10469000803000218164C164016541651421583076
:1046A000FCF7CCF824215148EC30FCF7C7F8214640
:1046B0004E48C830FBF7D2FF31464C48D830FBF7A4
:1046C000CDFF29464948EC30FBF7C8FF4CA13846DE
:1046D000FBF7C4FF4549C8313846FCF702F84CA146
:1046E0003846FBF7FEFF4149D8313846FBF7F9FF62
:1046F00047A13846FBF7F5FF3C49EC313846FBF75C
:10470000F0FF43A13846FBF7ECFF42A13846FBF728
:10471000E8FF39464548FBF7A1FF44493348C0F854
:104720008410A0213846FCF767F841A13846FBF712
:1047300095FF2E49C8313846FBF7D3FF40A13846D4
:10474000FBF7CFFF2949D8313846FBF7CAFF3DA117
:104750003846FBF7C6FF39463D48FBF77FFF3C492B
:104760002248C0F88C1003220021012002F094FCA2
:104770001E49C1F8400103220021012002F08CFCF7
:104780001A49C1F8440103220021012002F084FCEF
:104790001649C1F8480103220021012002F07CFCE7
:1047A0001249C1F84C0100221E21012002F074FCC4
:1047B0000E49C1F8600100227821012002F06CFC52
:1047C0000A49C1F8540100227821012002F064FC5A
:1047D0000649C1F8580100227821012002F05CFC52
:1047E0000249C1F85C01BDE8F0810000A40000208E
:1047F0004735313020436F6E6669670D0A0000004F
:1048000041542B434C4F5544415554483D220000E0
:10481000222C2200696F742D617574682E616C6999
:1048200079756E2E636F6D220D0A0000945600207C
:1048300041542B434C4F55445355423D222F0000C9
:104840002F0000002F676574222C300D0A00000035
:104850003457002038B518A0FBF770FD0120194926
:10486000487000241FE000F073FA002816DD16A03F
:10487000FBF764FD002013494870FDF7EFF802F0E4
:104880007BFF05464FF0FF3000232A4601210090B0
:104890001548006803F0CEF9012038BD611C13A053
:1048A000FBF74CFD641C052CDDDB19A0FBF746FD76
:1048B00002F02CFB00BFFEE7636F6E6E65637479D8
:1048C0000D0A0000A4000020436F6E6E65636574DE
:1048D00020746F20636C6F756420737563636573F8
:1048E0007366756C0D0A000014000020436F6E6E35
:1048F00065637420746F20636C6F756420666169F2
:104900006C65642025642E2E2E2E2E0D0A000000CC
:10491000446576696365205265626F6F74696E677E
:104920000D0A00002DE9F0410546C82001F026FEE1
:104930000646062001F022FE0446012D42D1C82180
:104940003046FBF759FF00202060A0802C49886C7E
:10495000FBF7A8FE07463A462AA12046FBF7FAFCD9
:1049600029A13046FBF77AFE254924313046FBF772
:10497000B8FE29A13046FBF7B4FE21493431304658
:10498000FBF7AFFE25A13046FBF7ABFE21463046D4
:10499000FBF7A7FE24A13046FBF7A3FE3046FFF746
:1049A0001DFD642002F0C0F81549886CFFF716FD64
:1049B00031461EA0FBF7C2FC1148816C20A0FBF71A
:1049C000BDFC14E0C8213046FBF716FF0C48816C93
:1049D0003046FBF743FE3046FFF700FD314613A09B
:1049E000FBF7ACFC0648816C15A0FBF7A7FC204642
:1049F00001F066FF304601F063FFBDE8F081000082
:104A0000D45700202564000041542B434C4F55449B
:104A10005055423D222F00002F0000002F6461748A
:104A200061222C302C0000000D0A000073656E64BA
:104A3000206D6573736167653A202573000000007F
:104A400025730D0A0000000010B501200D49887083
:104A500000240DE000F032FA002804DD00200949AE
:104A60008870012010BD611C07A0FBF767FC641C67
:104A7000052CEFDB0BA0FBF761FC02F047FA00BF4F
:104A8000FEE70000A4000020476574204353512036
:104A90006661696C65642025642E2E2E2E2E0D0A0B
:104AA00000000000446576696365205265626F6F9F
:104AB00074696E670D0A000010B501200D49087178
:104AC00000240DE000F0C4FA002804DD00200949AC
:104AD0000871012010BD611C07A0FBF72FFC641CAE
:104AE000052CEFDB0BA0FBF729FC02F00FFA00BF4F
:104AF000FEE70000A400002047657420494D4549A9
:104B0000206661696C65642025642E2E2E2E2E0D84
:104B10000A000000446576696365205265626F6F24
:104B200074696E670D0A000010B501200D494871C7
:104B300000240DE000F048FB002804DD00200949B6
:104B40004871012010BD611C07A0FBF7F7FB641C36
:104B5000052CEFDB0BA0FBF7F1FB02F0D7F900BF50
:104B6000FEE70000A400002047657420494D53492A
:104B7000206661696C65642025642E2E2E2E2E0D14
:104B80000A000000446576696365205265626F6FB4
:104B900074696E670D0A00002DE9F041C1F30A52F5
:104BA000A2F2FF362F4A304B0D460446142E2FDA60
:104BB000002E12DA03F0A6F80022134603F02CFAB6
:104BC0004CD2002DA4BF0024254647DA25F0004032
:104BD000204318BF254D41D018E0DFF894C02CFACF
:104BE00006F705EA070C5CEA040C08BFBDE8F08193
:104BF00003F088F80022134603F00EFA2ED2002D9F
:104C000003DA4FF48010F0400544BD43002425E052
:104C1000332EC8BFBDE8F081A6F1140C4FF0FF376A
:104C200027FA0CF73C4208BFBDE8F08103F02AFAEE
:104C30000022134603F0F0F910D2002D0DDA142EE5
:104C400008BF6D1C09D0C6F13400012101FA00F043
:104C50002044A04238BF6D1C0446BC432946204670
:104C6000BDE8F0819C7500883CE4377E0000F0BF11
:104C7000FFFF0F0000BF054A126802F04002002A41
:104C8000F9D0C2B2014B1B1D1A60704700380140B9
:104C90001CB5FDF7C1FB4FF4E010FFF7FFF8032050
:104CA000FDF72CFCFFF77EFC4FF4E130FEF76AFBCA
:104CB0004FF4E130FFF726FBFEF7B8FB0020FEF7CC
:104CC000ABFB4FF4FA70FFF7BFFC0120FEF7A4FB2B
:104CD00041F28830FFF7B8FC10A0FBF72FFB202033
:104CE00001F04CFC044620212046FBF785FD0822FC
:104CF00021460E48FEF796FE21460DA0FBF71EFB4F
:104D00000E48012100230A02CDE900100CA10F4832
:104D100002F0F2FC02F0A4F800201CBD68656C6C87
:104D20006F207573617274310D0A000000D007089E
:104D30006275662025730D0A000000000000002047
:104D400053746172745461736B000000213D00085C
:104D500070B538A0FBF7F2FA3BA0FBF7EFFA00249E
:104D600061E000264248D0F8600190B1404A243208
:104D700052F82410243A0223D2F86001002202F0F3
:104D800001FB0546012D04D03AA0FBF7D7FA701EAF
:104D900070BD3749603151F824000021FEF7D8FC7E
:104DA0003EE0701CC6B23248D0F8400178B33049BA
:104DB000002343F69822D1F84001194602F0A6F9E3
:104DC0000546314630A0FBF7B9FA012D00D128E0A5
:104DD0002749603151F824000021FEF7B9FC24482E
:104DE000D0F86001B8B1224A243252F82410243A93
:104DF0000223D2F86001002202F0C4FA0546012D18
:104E000009D023A0FBF79AFA4FF0FF30C0E7FFE785
:104E100024A0FBF793FA052E02DB4FF0FF30B7E733
:104E2000BFE700BF641C12480078A04299DC012053
:104E3000AEE700004735313020436F6E6E65637416
:104E4000696E670D0A000000506C65617365206132
:104E5000646420746865206D6F6475656C2072658C
:104E600073657420636F6D6D616E640D0A000000E0
:104E7000A40000205265702053656E64206661694D
:104E80006C65640D0A00000025640D0A0000000036
:104E90005265702053656E206661696C65640D0A09
:104EA000000000004E6F20473531302073656D6182
:104EB00070686F7265200D0A000000002DE9F04156
:104EC00000264B48D0F8600180B1494A516D022359
:104ED000D2F86001002202F055FA0446012C05D0F8
:104EE00044A0FBF72BFA701EBDE8F0814049D1F8D1
:104EF00090000021FEF72CFC78E0701CC6B23C4804
:104F0000D0F84401002869D03949002343F698229B
:104F1000D1F84401194602F0F9F8044631463AA0A6
:104F2000FBF70CFA012C3ED1782001F027FB074655
:104F30002F4900230A22D1F85401394602F0E6F83D
:104F400033A13846FBF778FB48B32948416D384612
:104F5000FBF772FB05462649486DFBF7A3FB0544AA
:104F600068782C280BD069782878303800EB8000DE
:104F700001EB400030381E49C1F8C40004E0287835
:104F800030381B49C1F8C400384601F099FC184874
:104F9000D0F8C4101FA0FBF7D1F90120A4E73846D0
:104FA00001F08EFC1DE01249D1F890000021FEF7BF
:104FB000CFFB0F48D0F8600198B10D4A516D022324
:104FC000D2F86001002202F0DDF90446012C08D07D
:104FD00014A0FBF7B3F94FF0FF3085E716A0FBF7FD
:104FE000ADF9052E02DB4FF0FF307DE785E70000CD
:104FF000A40000205265702053656E6420666169CC
:105000006C65640D0A00000025640D0A00000000B4
:10501000435351004353512056616C7565202564FC
:105020000D0A00005265702053656E206661696C40
:1050300065640D0A000000004E6F204735313020B6
:1050400073656D6170686F7265200D0A0000000065
:105050002DE9F04100254548D0F8600180B1434A70
:10506000D16D0223D2F86001002202F08BF90446D0
:10507000012C05D03EA0FBF761F9681EBDE8F08168
:105080003A49D1F898000021FEF762FB69E0681CFC
:10509000C5B23648D0F8480100285AD03349002319
:1050A00043F69822D1F84801194602F02FF8044639
:1050B000294634A0FBF742F9012C2FD1782001F0CA
:1050C0005DFA0746294900230A22D1F858013946DA
:1050D00002F01CF82548C16D3846FBF7ADFAC8B19F
:1050E0002248C16D3846FBF7A7FA06461F49C86D2E
:1050F000FBF7D8FA06440F2231461C489C30FBF7D8
:10510000FCFA1A499C3121A0FBF718F9384601F046
:10511000D7FB27E0384601F0D3FB1DE01349D1F857
:1051200098000021FEF714FB1048D0F8600198B1F8
:105130000E4AD16D0223D2F86001002202F022F95A
:105140000446012C08D015A0FBF7F8F84FF0FF300B
:1051500094E717A0FBF7F2F8052D02DB4FF0FF30C4
:105160008CE794E700BF012088E70000A40000203E
:105170005265702053656E64206661696C65640DCC
:105180000A00000025640D0A00000000494D454951
:105190002056616C75652025730D0A0052657020DC
:1051A00053656E206661696C65640D0A000000003D
:1051B0004E6F20473531302073656D6170686F72B6
:1051C00065200D0A000000002DE9F041002545484A
:1051D000D0F8600180B1434A916D0223D2F860019A
:1051E000002202F0CFF80446012C05D03EA0FBF7C8
:1051F000A5F8681EBDE8F0813A49D1F89400002175
:10520000FEF7A6FA69E0681CC5B23648D0F84C0132
:1052100000285AD03349002343F69822D1F84C0194
:10522000194601F073FF0446294634A0FBF786F8BF
:10523000012C2FD1782001F0A1F90746294900233C
:105240000A22D1F85C01394601F060FF2548816DE2
:105250003846FBF7F1F9C8B12248816D3846FBF7B3
:10526000EBF906461F49886DFBF71CFA06440F222E
:1052700031461C48B030FBF740FA1A49B03121A042
:10528000FBF75CF8384601F01BFB27E0384601F0DD
:1052900017FB1DE01349D1F898000021FEF758FADA
:1052A0001048D0F8600198B10E4AD16D0223D2F8AF
:1052B0006001002202F066F80446012C08D015A017
:1052C000FBF73CF84FF0FF3094E717A0FBF736F8F8
:1052D000052D02DB4FF0FF308CE794E700BF012083
:1052E00088E70000A40000205265702053656E64BA
:1052F000206661696C65640D0A00000025640D0A72
:1053000000000000494D53492056616C7565202509
:10531000730D0A005265702053656E206661696CDA
:1053200065640D0A000000004E6F204735313020C3
:1053300073656D6170686F7265200D0A0000000072
:105340002DE9F74F82B083464FF000080520019009
:10535000DBF80890002700250020009002E07F1C69
:10536000D9F80090B9F1000FF9D17FB903204C4969
:10537000096888478046B8F1000F03D049A140462C
:10538000FBF76CF9404605B0BDE8F08FB800444922
:105390000968884706460EB90020F4E7B900304690
:1053A000FBF74CFADBF808901FE0DDE90312491C1B
:1053B000484600F0E9FA824629466D1C46F821A0CD
:1053C000BAF1000F0DD05046FBF76CF9801C049920
:1053D00009B1012100E00021014401980844019035
:1053E00001E001200090D9F80090B9F1000F02D03F
:1053F00000980028D9D0009820B929490198096857
:1054000088478046B8F1000F01D101200090009834
:1054100090B1002508E056F8250020B156F8250087
:105420002149096888476D1CBD42F4DB30461E499E
:10543000096888470020A6E75B2088F8000008F18B
:1054400001040020207000251CE056F8251020469D
:10545000FBF704F956F82500FBF724F90444781EFD
:10546000A84209D02C2004F8010B049810B1202088
:1054700004F8010B0020207056F825000A4909683D
:1054800088476D1CBD42E0DB304607490968884704
:105490005D2004F8010B002004F8010B404672E780
:1054A000140200205B5D0000180200202DE9F05F6F
:1054B0008146D9E90645D9F8140002F006FD0746F1
:1054C00022462B4602F0EAFD21F0004182460022EE
:1054D000344B02F011FD1BD8334A344B2046294689
:1054E00002F00AFD14D80022314B2046294602F072
:1054F00093FD0DD815202F49096888470646002ED0
:105500004CD02DA13046D9F81420FAF723FF45E0FE
:1055100040202849096888470646002E3ED020468C
:105520002946FFF739FB074622462B4602F0B6FD17
:1055300021F00041824600221A4B02F0DDFC0FD818
:1055400025F0004127461D4A1D4B384602F0D4FC89
:1055500006D222462B461BA13046FAF7FBFE1DE081
:1055600025F000412746194A194B384602F0C4FC81
:1055700007D325F000410022164B384602F04CFDBF
:1055800006D222462B4614A13046FAF7E3FE05E088
:1055900022462B4611A13046FAF7DCFE3046BDE824
:1055A000F09F00000000B03C0000C0FFFFFFDF41A3
:1055B0000000E0C1140200202564000044F3C2E4AE
:1055C000E4E9634C252E3066000000008DEDB5A0A7
:1055D000F7C6B03E65CDCD412565000025660000CB
:1055E0002DE9F74F88B0884616464FF00009CA46A5
:1055F00000200790072004900025089880680290FA
:1056000000270020019003E07F1C029800680290B0
:1056100002980028F8D14FBB16B108F1040100E050
:10562000032108468949096888470790079818B9EF
:1056300000200BB0BDE8F08F079C7B2004F8010B25
:1056400066B10A2004F8010B002503E0092004F8E4
:10565000010B6D1CA8F10100A842F7DC7D2004F8C5
:10566000010B002004F8010B0798E2E7B800774926
:10567000096888478146B9F1000F01D10020D8E7B9
:10568000B8007249096888478246BAF1000F05D10F
:1056900048466F49096888470020CAE7B90048466C
:1056A000FBF7CCF8B9005046FBF7C8F808988068BB
:1056B000029008F1010816B10498404404902DE0CE
:1056C0000299086A00F0CCF805904AF825003246A5
:1056D0004146029800F058F929466D1C069049F899
:1056E00021000598A8B1069898B10698FAF7DAFF54
:1056F00083460598FAF7D6FF0BEB0001891C16B11B
:1057000008F1020000E000200144049808440490DD
:1057100001E00120019002980068029002980028A0
:10572000CED1019820B94949049809688847079063
:10573000079808B9012001900198F0B1002510E008
:105740005AF8250020B15AF82500414909688847D0
:1057500059F8250020B159F825003D4909688847C6
:105760006D1CBD42ECDB5046394909688847484604
:1057700037490968884700205BE77B21079801705B
:105780000798441C16B10A2004F8010B0020207071
:1057900000253EE05EB10020039005E0092004F8FA
:1057A000010B0398401C039003984045F6DB5AF820
:1057B00025102046FAF752FF5AF82500FAF772FF33
:1057C00004443A2004F8010B16B1092004F8010B37
:1057D00059F825102046FAF741FF59F82500FAF745
:1057E00061FF0444781EA84202D02C2004F8010B6B
:1057F00016B10A2004F8010B002020705AF8250089
:1058000013490968884759F82500114909688847EC
:105810006D1CBD42BEDB50460D49096888474846AD
:105820000B49096888474EB1002503E0092004F8B8
:10583000010B6D1CA8F10100A842F7DC7D2004F8E3
:10584000010B002004F8010B0798F2E61402002077
:105850001802002010B50446206900F001F810BDC0
:105860002DE9F04707464FF0000827B940A0FEF7A2
:1058700083FEBDE8F0873D460DE049463DA0FAF7BE
:10588000D1FE10B108F1010804E0B9F1200F01DAEE
:1058900008F105086D1C95F80090B9F1000F04D0CF
:1058A00008F10100B0F10008E7D108F10300334925
:1058B0000968884706460EB90020DAE734463D46B7
:1058C000222004F8010B47E028781F280ADD2878F9
:1058D000222807D028785C2804D015F8010B04F89A
:1058E000010B39E05C2004F8010B15F8011B894617
:1058F0000C2919D006DC082912D0092920D00A2940
:1059000022D115E00D2917D0222905D05C291BD101
:105910005C2004F8010B1EE0222004F8010B1AE0C1
:10592000622004F8010B16E0662004F8010B12E077
:105930006E2004F8010B0EE0722004F8010B0AE05F
:10594000742004F8010B06E04A460DA12046FAF740
:1059500001FD641D00BF00BF28780028B4D12220BB
:1059600004F8010B002004F8010B304681E7000029
:1059700000000000225C080C0A0D0900140200203F
:1059800075253034780000002DE9F04104460D46BD
:105990001646002714B90020BDE8F081207B0728B7
:1059A0002CD2DFE800F0090E0413181D240015A006
:1059B000FEF7E2FD074621E014A0FEF7DDFD0746F5
:1059C0001CE014A0FEF7D8FD074617E02046FFF7BD
:1059D0006DFD074612E02046FFF73CFF07460DE04D
:1059E000324629462046FFF7ABFC074606E0324622
:1059F00029462046FFF7F4FD074600BF00BF3846A2
:105A0000CAE700006E756C6C0000000066616C7384
:105A10006500000074727565000000002DE9F0411A
:105A200005460E461C4807681C480068001D00F02B
:105A300081FE50B91948006890F82C100120884068
:105A400017490968814316480160681C38B936B1A6
:105A500012480168091D134800F0AAFE1AE07C19DB
:105A60000E4800684460BC4207D20C480168091D1A
:105A70000D48006800F082FE0CE008480168091D2E
:105A80000A48006800F07AFE09480068844201D2A2
:105A900007480460BDE8F081440000203000002089
:105AA0004800002058060020380000203400002064
:105AB0006000002010B5044600F086FE244800680F
:105AC000401C234908602348006840B9214804600D
:105AD0000846006801280DD100F024FA0AE01E48AB
