:020000040800F2
:1000000050750020E1020008D1500008CB4A0008DA
:10001000BD4B0008AD250008056100080000000088
:10002000000000000000000000000000490200087D
:10003000F5270008000000008D020008F95C0008A8
:10004000FB020008FB020008FB020008FB0200089C
:10005000FB020008FB020008FB020008FB0200088C
:10006000FB020008FB020008FB020008FB0200087C
:10007000FB020008FB020008FB020008FB0200086C
:10008000FB020008FB020008FB020008FB0200085C
:10009000FB020008FB020008FB020008FB0200084C
:1000A000FB020008FB020008FB020008FB0200083C
:1000B000FB020008FB020008FB020008FB0200082C
:1000C000FB020008FB020008FB020008FB0200081C
:1000D000FB0200088560000895600008FB0200082C
:1000E000FB020008FB020008FB020008FB020008FC
:1000F000FB020008FB020008FB020008FB020008EC
:10010000FB020008FB020008FB020008FB020008DB
:10011000FB020008FB020008FB020008FB020008CB
:10012000FB020008FB020008FB020008FB020008BB
:1001300000F002F800F079F80AA090E8000C824480
:100140008344AAF10107DA4501D100F06EF8AFF25D
:10015000090EBAE80F0013F0010F18BFFB1A43F0A5
:100160000103184700B4000020B400000A444FF017
:10017000000C10F8013B13F0070408BF10F8014B06
:100180001D1108BF10F8015B641E05D010F8016B4B
:10019000641E01F8016BF9D113F0080F1EBF10F8AF
:1001A000014BAD1C0C1B09D16D1E58BF01F801CBD2
:1001B000FAD505E014F8016B01F8016B6D1EF9D555
:1001C0009142D6D37047000000230024002500266A
:1001D000103A28BF78C1FBD8520728BF30C148BFAA
:1001E0000B60704766290BF0488065290BF045804D
:1001F000642900F01981782900F05281732900F0F8
:10020000EE85002070471FB500F052FE040000206C
:1002100000210AF061FC401C6060002000210AF00F
:1002200045FCE0601FBD10B510BD00F06DFF11462C
:10023000FFF7E9FF07F016FC01F0E6F903B4FFF75A
:10024000F2FF03BC06F068F8224B19680868B0E8B2
:10025000F00F80F30988BFF36F8F4FF0000080F339
:1002600011884EF00D0E704700000000064800682F
:10027000006880F3088862B661B6BFF34F8FBFF3A2
:100280006F8F00DF00BF00BF08ED00E0EFF30980D3
:10029000BFF36F8F0F4B1A6820E9F00F106008B59D
:1002A0004FF0500080F31188BFF34F8FBFF36F8F73
:1002B00009F01EFD4FF0000080F31188BDE80840F2
:1002C00019680868B0E8F00F80F30988BFF36F8FF2
:1002D000704700BF3C000020EFF30580704700002E
:1002E0000948804709480047FEE7FEE7FEE7FEE7CA
:1002F000FEE7FEE7FEE7FEE7FEE7FEE70448054906
:10030000054A064B70470000095D000831010008EE
:10031000506F002050750020507100205071002057
:100320007047B2F120030AD5C2F1200320FA02F08F
:1003300001FA03F321FA02F140EA0300704721FABF
:1003400003F04FF0000170470FB4044910B503AA41
:10035000029800F049FD10BC5DF814FB3400002049
:100360000FB41CB5074B06AA7B446946009005985C
:1003700000F00BFD0020694600F01AFD1CBC5DF882
:1003800014FB0000450A000070B50446856900684A
:10039000C10601D5302600E02026C00707D070BD79
:1003A000D4E9012130469047206A401C20626D1E2E
:1003B000F6D570BD70B5044685690078C00707D1D1
:1003C00070BDD4E9012120209047206A401C2062A2
:1003D0006D1EF6D570BD70B50C460546012A05D0D8
:1003E0002878800600D5EA69002302E0012305E0B1
:1003F0005B1C934202D2E05C0028F9D1A869E618A0
:10040000C01AA861286A184428622846FFF7BCFF72
:1004100004E0D5E9012114F8010B9047B442F8D368
:100420002846FFF7C7FF70BD2DE9F04106460024BE
:1004300010687529314616A510D0AFF3008000284A
:1004400002DA404213A507E031688A0701D512A5F8
:1004500002E0490704D511A5012401E0AFF30080B3
:1004600000210A2206F1240709E0B0FBF2FCB0FBF0
:10047000F2F302FB1C00303078541846491C002867
:10048000F3D123462A463046BDE8F04100F012BAC7
:10049000000000002D0000002B00000020000000E4
:1004A00070B504460D4621461068AFF300802188E0
:1004B000090502D50F4A7A4402E00E4A7A440E3208
:1004C000002104F1240305E000F00F060009965D09
:1004D0005E54491C0028F7D120780023000704D57A
:1004E000702D02D009B1022311322046BDE87040C0
:1004F00000F0E0B9D8AE00002DE9F05F894604466F
:100500004FF0000ADFF824B1FB44C0F820A02046D9
:10051000E168884700287DD0252806D0D4E901214C
:100520009047206A401C2062F1E700255F46204684
:10053000E16888472028064607DB312E05D2B81926
:1005400010F8200C08B10543F1E7A80701D525F004
:100550000405C4F81CA00027C4F818A02A2E09D04E
:10056000304605F0D2FE38B304EB8708303EC8F8B9
:10057000186019E059F8041B204604EB87029161CA
:10058000E1688847012F064618D1E069002820DA83
:1005900025F020051DE0D8F8180000EB800006EBE0
:1005A00040003038C8F818002046E1688847064601
:1005B00005F0ABFE0028EED1012F0AD02E2E08D177
:1005C0002046E16888477F1C0646022F45F020053B
:1005D000C4DBA069002803DA404245F00105A061B0
:1005E000E80701D025F01005A6B1A6F141001928B1
:1005F00002D8203645F400654A463146204625603B
:100600004D46FFF7EFFD60B1012807D0ED1D25F045
:10061000070000E007E000F1080978E705F10409A8
:1006200075E730467AE7206ABDE8F09FAEAE00007D
:10063000401ECAB210F8011F8A4202D00029F9D127
:100640000020704730B505460B462A4613F8014B8B
:1006500012F8010B08B1A042F8D01CB1002802D05A
:100660006D1CF1E7284630BD40EA0103024630B573
:100670009B0710D14FF0013400E008C208C91D1BD0
:100680009D4315EAC41FF8D013F0FF0102F8011BC7
:100690000DD01B0AF8E711F8013B002B02F8013BD3
:1006A00005D011F8013B002B02F8013BF3D130BD1E
:1006B00010B5431C02E010F8011B71B18107FAD19B
:1006C0004FF0013202C88C1A8C4314EAC211F9D0DF
:1006D000C01A0A0603D0C01E10BDC01A10BD0A04FD
:1006E00001D0801E10BD0902FCD0401E10BD421E6C
:1006F00012F8013F002BFBD111F8013B002B02F84F
:10070000013BF9D17047032A40F2308010F0030C0E
:1007100000F0158011F8013BBCF1020F624498BF54
:1007200011F801CB00F8013B38BF11F8013BA2F1F1
:10073000040298BF00F801CB38BF00F8013B11F06C
:10074000030300F02580083AC0F0088051F8043B0C
:10075000083A51F804CBA0E80810F5E7121D5CBF79
:1007600051F8043B40F8043BAFF30080D20724BFAC
:1007700011F8013B11F801CB48BF11F8012B24BF40
:1007800000F8013B00F801CB48BF00F8012B70478F
:1007900010B5203AC0F00B80B1E81850203AA0E81C
:1007A0001850B1E81850A0E81850BFF4F5AF5FEA50
:1007B000027C24BFB1E81850A0E8185044BF18C903
:1007C00018C0BDE810405FEA827C24BF51F8043BAA
:1007D00040F8043B08BF7047D20728BF31F8023BFE
:1007E00048BF11F8012B28BF20F8023B48BF00F892
:1007F000012B704702F0FF0343EA032242EA024260
:1008000000F002B84FF000020429C0F0128010F08E
:10081000030C00F01B80CCF1040CBCF1020F18BFDC
:1008200000F8012BA8BF20F8022BA1EB0C0100F06F
:100830000DB85FEAC17C24BF00F8012B00F8012B42
:1008400048BF00F8012B70474FF0000200B5134677
:1008500094469646203922BFA0E80C50A0E80C50E0
:10086000B1F12001BFF4F7AF090728BFA0E80C5091
:1008700048BF0CC05DF804EB890028BF40F8042B8A
:1008800008BF704748BF20F8022B11F0804F18BFF7
:1008900000F8012B7047704770477047704710B5DC
:1008A00000F00AFB006810BD10B5044600F004FB20
:1008B000046010BD2DE9F0470D4699469246044666
:1008C00000F124080168880604D5E06921F01001D0
:1008D000216000E00120A84201DD471B00E0002765
:1008E000A1697A1902EB0900081AA0612078C006F4
:1008F00002D42046FFF748FD002608E0D4E9012194
:100900001AF806009047206A401C761C20624E456B
:10091000F4DB2078C0060AD52046FFF735FD06E057
:10092000D4E9012130209047206A401C2062381E03
:10093000A7F10107F4DC07E0D4E9012118F805006C
:100940009047206A401C2062281EA5F10105F3DCB7
:100950002046FFF72FFD2078000602D50220BDE8D3
:10096000F0870120FBE770472DE9FF4F0C461E463C
:100970004FF0FF378BB0D2E90001DDF860800A90BC
:100980008A46C1F30A5505B93D46002108464FF095
:100990000000BAF1000F00F4400005DA00EB80001F
:1009A0004FF4400101EA50004FEA9059B9F1010FAC
:1009B00000DDB9460A9850EA4A000ED044F61050BD
:1009C000A5F2FF3545432F14B8F1000F1ED0754234
:1009D000291E1EDDC9F100021CE0B8F1010F4FF025
:1009E000000001D0302103E0F24305E02154401C17
:1009F000B042FBDB30460022002121540B99C1F8A4
:100A00000880C1E900200FB0BDE8F08FBD1B6D1C50
:100A1000DEE74A4600DA694206A800F0FFFA06ABB4
:100A200093E8070003AB83E8070050460A9901F0FA
:100A300080F88DE80700A0F500501F38009003985B
:100A4000002D09DD42F21F014A46084403A9039024
:100A5000684601F00AFB08E0A0F500504A461F383E
:100A600003A90390684601F028FB8DE80700000405
:100A7000000C03D04FF0FF30410800E01046B8F101
:100A8000000F03D00022009215461EE0751E05D40B
:100A900000F016FA303262556D1EF9D5B3460122C8
:100AA000084302D000227F1C04E02078302801D1C6
:100AB00000227F1E002A099786D01DE0112D07DA3B
:100AC00000F0FEF9303262556D1C50EA0102F5D19A
:100AD000084302D00098C8B10EE00021681E05E06E
:100AE000235C625C63542254401E491C8142F7DB44
:100AF000AB46A81B401E0990002004F80B000B9881
:100B0000099AC0F80880C0E9002B7CE711264FF055
:100B1000000859E72DE9F04F88460446D21D22F01F
:100B2000070191B0D1E90001CDE90A0105F072FB9E
:100B300002460B98C00F01D02D2007E020688107E6
:100B400001D52B2002E0202101EAC000032A0990F0
:100B500001D0072A05DB03464146204600F0FEF996
:100B60000BE12078800601D5E06900E00620B8F1AD
:100B7000650F814606D0B8F1660F18D0B8F1670F3F
:100B800070D131E00020B9F1110F009001DB112389
:100B900001E009F101030AAA01A90CA8FFF7E4FE8C
:100BA000DDE90C70002609F10105834647E00120CC
:100BB0004B4600904FF000470AAA01A90CA8FFF786
:100BC000D3FEDDE90DB00C995D46002610B909F1A0
:100BD00001000D18B9EB050003D4C0F1FF3609F18F
:100BE0000105A5EB09002BE0B9F1010F01DA4FF087
:100BF00001090020B9F1110F0090484601DD1123D1
:100C000000E003460AAA01A90CA8FFF7ADFEDDE942
:100C10000C704D4600268346207800070AD4AB4569
:100C200000DA5D4601A8012D04DD411911F8011C0F
:100C3000302907D04F4502DA17F1040F04DA0120FA
:100C400082460FE06D1EEEE7002F02DCED1B3E44F6
:100C500003E0781CA84200DD7D1CB81B00F1010AEE
:100C60004FF000472078000703D4AA4501DB4FF07E
:100C7000FF3A0021B7F1004F0DF143088DF8431002
:100C800024D002202B23002F01DA7F422D230A21BA
:100C9000021EA0F1010000DC5FB197FBF1FC97FBA5
:100CA000F1F201FB1C7C17460CF1300C08F801CD69
:100CB000EEE7A8F1010003702188090501D545215F
:100CC00000E06521A0F1010800F8011C09980FA9B6
:100CD000A1EB0807FF1D00B10120411901EBEA70EB
:100CE000A1693844081A401EA0612078C00602D4C9
:100CF0002046FFF749FB099828B1D4E90121904724
:100D0000206A401C20622078C00622D52046FFF7CA
:100D10003BFB1EE0002E04DBB34502DD01A8805D35
:100D200000E03020D4E901219047206A401C206275
:100D3000761CAAF101005FEA000A0AD100F0B8F8B7
:100D4000C0680168405CD4E901219047206A401CDA
:100D50002062281EA5F10105DCDC07E0D4E90121B1
:100D600018F8010B9047206A401C2062381EA7F13A
:100D70000107F3DC2046FFF71DFB032011B043E61B
:100D800001694A1C02610878704700B58FB0CDE94F
:100D900001310021059105497944CDE9031011463F
:100DA0006846FFF7A9FB0FB000BD0000E5FFFFFF9D
:100DB0000A6802F8010B0A60704710B5436913B165
:100DC000AFF3008001E0FFF706FB012010BD1278B1
:100DD00000F124010A7000224A700122EDE7116837
:100DE0004FF0FF32E9E70000074B70B50D467B443A
:100DF000FFF7CBFF0446284600F07EF910B14FF014
:100E0000FF3070BD204670BD8B6B00000FB4002317
:100E100000B589B00CA900910B99CB60214B7B44A4
:100E20000693214B7B44079304236FF00042CDE9E6
:100E300001321E4A7A446B460892024600200AF0AC
:100E40007EFA09B05DF814FB70B506464FF0FF302E
:100E500015460C46324686B00091CDE9010169463F
:100E60000020049004A8FFF7D1FF0246049821183F
:100E700025B108B1084600E0204628600498002803
:100E80000DD0002A02DD0098884208D03246081BA7
:100E900069460094CDE9010404A8FFF7B7FF06B046
:100EA00070BD0000BB010000D30100001301000071
:100EB00000487047106F002000487047F06E002017
:100EC00030B5B0F10A024FEA900E71F100034EEA1C
:100ED000817EB0EB0E0061EB91014FEA101E4EEAED
:100EE000017E10EB0E0041EB11114FEA102E4EEA7D
:100EF000016E10EB0E0041EB11214FEA104E4EEA4D
:100F0000014E10EB0E0041EB1141401841F1000180
:100F10004FEAD00040EA41704FEAD10110EB800562
:100F20004FEA810444EA907444EB01046D1944EBE8
:100F30000404521BA3414FF0000348BF0A3200D5FE
:100F400030BD401C41F1000130BD10B5044600F039
:100F500001F90068005D00F0010010BD2DE9F041CD
:100F60001F46044603260168072A01F4006004DBDB
:100F700008B116A505E016A503E008B115A500E027
:100F800015A521F010002060A069C01EA0610FB15E
:100F9000401EA0612046FFF7F7F94FB1D4E90121C7
:100FA00038469047206A401C2062C01C206206E040
:100FB000206AFAE7D4E9012115F8010B9047761E63
:100FC000F8D22046FFF7F6F9BDE8F0814E414E0019
:100FD0006E616E00494E4600696E6600426842B11D
:100FE000016811F8013B23B1521EC0E900121846F6
:100FF00070470121C160881E704742685AB1C368BA
:10100000016843B983688B4205D0491E521CC0E970
:101010000012002070474FF0FF3070472DE9F04775
:10102000814616468AB0334878440DC88DE80D00D5
:1010300030487844801C03AC0DC884E80D0041F6AC
:101040009B300844372190FBF1F290FBF1F5A5F1BC
:10105000800501FB12041B3C02D56442012000E024
:101060000020DFF890A080460027FA44AAF1BE0ACB
:101070000DE0E00709D03246684607EB47010AEB6E
:10108000810101F01AF88DE8070064107F1C002C24
:10109000EFD1184F7F44AC3F18E0E80714D007EBBE
:1010A00004100DF1180A90E80E008AE80E00C068DE
:1010B000F04201D198190890324606A903A800F021
:1010C000FCFF03AB83E807006D10641C002DE4D126
:1010D00032466946B8F1000F03A802D000F0C5FF00
:1010E00001E000F0EAFFC9E90001C9F808200AB0F0
:1010F000BDE8F0871CA40000007B00F08000704772
:1011000000487047F06E00207546FFF7F9FFAE46C5
:1011100005006946534620F00700854618B020B503
:10112000FFF7ECF8BDE820404FF000064FF0000755
:101130004FF000084FF0000B21F00701AC46ACE87F
:10114000C009ACE8C009ACE8C009ACE8C0098D46EC
:101150007047000010B5FFF7ABFE001D10BD00BFCB
:10116000799900002DE9FF4F064689B00878FF28DD
:1011700006D0491C2D2805D000244FF0000908E0B6
:1011800000200CE00124F8E709EB8903491C00EB7F
:1011900043090878FF28F7D114B1C9F1000081464E
:1011A000107800252C46AA4629462D2801D02B2848
:1011B00004D1521C2D2813D0002082468B46107873
:1011C000FF280FD04FF0000C0A21521CA5FB01781C
:1011D00004FB018105FB0C11C5194BEB0104EEE783
:1011E0000120EAE7002108464FF00000BAF1000FA5
:1011F00002D000EB80004008C0F38158B8F1010F25
:1012000001DD4FF0FF380C9809EB000755EA0400A8
:1012100009D04FF0020917F5FA7F0BDA4FEACA70CE
:10122000C6E900B012E04FEACA70C6E900B00DB0DE
:10123000BDE8F08FB7F5FA7F0DDDF0487844D0E9CE
:101240000010C6E9001040EACA707060FFF734FE73
:10125000C0F80090EBE7391E02DAC8F1000200E0A6
:10126000424600DA794206A8FFF7D8FE06AB93E8BB
:10127000070003AB83E8070044F23E005BEA040189
:101280000090584604D144F21E012C465D46009160
:10129000210C0904014306D10099240444EA1544B1
:1012A0002D041039009104F07F41014306D10099CB
:1012B000240244EA15642D020839009104F07041BB
:1012C000014306D10099240144EA15742D01091F38
:1012D000009104F04041014306D10099A40044EA82
:1012E0009574AD00891E009104F00041084304D1BB
:1012F00000986D196441401E009042466846002FD8
:10130000CDE9014503A902DD00F0EBFE01E000F0AC
:10131000C0FEBAF1000F04460D4601D084F000442F
:1013200040F2FF7724F00040284303D0C4F30A5072
:10133000B84212D1FFF7C0FDC0F80090C4F30A50C4
:10134000B8420AD1AE487844D0E90010C6E900108E
:1013500004F000410843706069E7C6E9005466E79D
:101360002DE9FF4F1F464FF0000A4FF0FF3845466A
:1013700091B0D7E90146CDF83CA0FFF799FDC068D0
:101380000168405C1090B96912986D1C8847396AF1
:10139000814688470028F6D1B9F1FF3F0AD0002ED8
:1013A00024F4D06411DDB9F12B0F08D0B9F12D0F61
:1013B0000BD102E0404615B03AE744F48064B969C5
:1013C00012986D1C8847761E8146600504A901D5D8
:1013D0002D2000E02B20002E01F1010B0DF1300833
:1013E0008DF810003FDDB9F1690F08D0B9F1490F50
:1013F00005D0B9F16E0F02D0B9F14E0F1CD13B46AA
:1014000001A8009580E85002DDE912126FF0020099
:1014100009F099FFC11CCED10EE0B96912986D1C7C
:10142000884781461398761E44F4007405600F982F
:10143000401C002E0F9016DDB9F1300FEDD0B9F140
:10144000780F02D0B9F1580F0DD10F9801280AD1A9
:101450003B46CDE90054DDE91212001F029609F067
:1014600070FFC11CA7D1109989453ED144F080047A
:1014700006E01399681CAAF1010A44F4007408609C
:10148000B9696D1C1298761E884730288146F0D0C5
:101490002BE01099894505D1200603D4761E44F02F
:1014A000800418E0484604F030FF08B3761E0DF1C2
:1014B00023018B4544F4007408D2A9F130000BF8E5
:1014C000010B200607D5AAF1010003E0200602D493
:1014D0000AF101008246A00502D51399681C086034
:1014E000B96912986D1C88478146002ED1DC53E003
:1014F000002E51DDB9F1650F02D0B9F1450F4BD186
:10150000A00549D5B9696D1C1298761E24F4407463
:101510008847002E81460CDD2B2804D0B9F12D0F11
:1015200007D144F48074B96912986D1C8847761EFF
:101530008146E00501D52D2100E02B2108F8011B93
:10154000CDF8008021E0761E0DF13901884544F484
:1015500000740CD2A9F1300010F0FF0088F80000F0
:1015600002D10099884509D908F1010806E0E00593
:1015700001D5244801E042F20F708246B969129801
:101580006D1C8847814613980560002E04DD48468F
:1015900004F0BBFE0028D6D1F96912988847FF20D5
:1015A00053468BF8000088F8000000200A900B904A
:1015B00004AA0CA90AA8FFF7D5FDA00502D46FF074
:1015C0000100F8E614F0240F0AD0E00714D13868BF
:1015D000DDE90A12031D3B600068C0E900120BE060
:1015E0000AA9684604F03AFEE00705D13868009A77
:1015F000011D3960006802602846DCE644A3000053
:101600003AA20000F1D8FFFF10B50446AFF3008006
:101610002046BDE81040FEF711BE00004FF0013C2F
:1016200050F8042B51F8043B9A4221D1A2EB0C0351
:10163000934313EACC1317D150F8042B51F8043B11
:101640009A4215D1A2EB0C03934313EACC130BD1AE
:1016500050F8042B51F8043B9A4209D1A2EB0C0339
:10166000934313EACC13DBD04FF00000704700BF68
:10167000D01A01BAB1FA81F101F0180122FA01F091
:10168000CB40C1F12001DBB2C0B2C01A2CFA01F389
:10169000D11A914311EAC311E6D170472DE9FF4FEA
:1016A0001F464FF03C0987B04FF00042DDE91410AF
:1016B00001F10108DDF858A002EA40500390002033
:1016C00005908346054604460490B969461E08986D
:1016D0008847AAF1010A0290BAF1000F3BDD029897
:1016E0002E2815D0102100F016FA00282EDB4FF01E
:1016F000010B0599014317D0B9F1000F0BDB4A46E6
:10170000C11700F0F5F905430C43A9F1040905E000
:10171000012004900BE008B145F00105012005907F
:10172000049820B9361D02E0049800B1361FB9694B
:10173000089808F101088847BBF1000FAAF1010AD7
:101740000290C9D00999C1F80080C5E702987028B5
:1017500008D0502806D0F96908988847BBF1000FD7
:1017600014D04FE0002002900120BBF1000F049044
:1017700009D0B969089808F101088847AAF1010958
:10178000B9F1000F07DCF969089888476FF001008C
:101790000BB0BDE8F08F2B2804D02D280CD14FF0D2
:1017A000FF300490B969089808F101088847A9F149
:1017B0000109B9F1000FE6DD411CE4D00A2100F077
:1017C000AAF90028DFDB029908F1010801EB810189
:1017D00000EB41000290B969089888470A2100F09F
:1017E0009AF9099AA9F10109B9F1000FC2F800802C
:1017F00001DD0028E7DAF96908988847049902981A
:1018000000FB016655EA040004D004F040410900E1
:1018100002D006E0039898E0A40044EA9574AD0075
:10182000B61E04F00041080002D16D196441761E15
:10183000159810F0240F03D04FF00B095C4803E01B
:101840004FF028096FF07D008246564507DAAAEB73
:1018500006018944B9F1410F01DD4FF04109012032
:101860000021A9F1010200F043F9024628400B468D
:101870002140084301D0012100E00021501E0291C7
:1018800043F1FF3128402140084301D0012000E00E
:1018900000200299834651EA0B014FD000210846EF
:1018A0004FF00000039900F4400039B100EB8000D4
:1018B0004FF4400100EBD07001EA60008015012870
:1018C00002DD4FF0FF3000E013D0401C36D002980C
:1018D00060B3BBF1000F0CD14A460120002100F09B
:1018E00007F928402140084301D0012000E00020F2
:1018F000E0B101204A46002100F0FAF80346401901
:101900000A4661412D1A8C4111D3B9F1400F09DD0E
:10191000159810F0240F02D0AAF1340603E0AAF1C2
:10192000170600E0761C00254FF0004406E05B1E21
:1019300042F1FF3220EA030521EA0204CAF1010064
:10194000B04206DA1B49039808430190002000903A
:101950000EE0039AC4F3D321E80A0A43164940EA89
:1019600044500A433146CDE90002684604F0C2FC07
:10197000159810F0240F0BD01598C00715D13868B2
:10198000DDE90012031D3B600068C0E900120CE0B5
:1019900002A8694604F062FC1598C00705D13868B2
:1019A000029A011D3960006802604046F0E60000BE
:1019B00002FCFFFF0000F07F0000F03F2DE9FF4F29
:1019C00092461D4685B04FF00041DDE9124BDDE93E
:1019D00014727F1E01EA4B50414940F0FF4940EA32
:1019E0000108002122F020004928049102D04E284D
:1019F00028D04CE03BA0012607C88DE80700A96964
:101A00000698641C88477F1E014606D41DF8060010
:101A100018B121F0200181420BD0E969069888476E
:101A2000032E34D0082E32D06FF0010009B0BDE88B
:101A3000F08F761C032E01D0082EE0D1601CCAF86E
:101A40000000DCE7A9690698641C88477F1E2AD439
:101A500020F02000412826D1A9690698641C8847F7
:101A60007F1E20D420F020004E281CD1A9690698A2
:101A7000641C88477F1E48F4002849F48009CAF88E
:101A8000004001D4282806D0E969069888475FEA13
:101A9000CB7012D022E0A9690698641C88477F1E8B
:101AA00001D4002803DAE96906988847BCE72928A9
:101AB000F1D1641CCAF80040E9E71BF0240F07D0FD
:101AC00028680499031D2B600068C0E9001805E030
:101AD0002868021D2A600068C0F800902046A5E72B
:101AE0000000F07F494E46494E495459000000001D
:101AF000B2F120030AD5C2F1200301FA02F120FA63
:101B000003F300FA02F041EA0301704700FA03F11F
:101B10004FF0000070473A2800D2303820F0200201
:101B2000412A01D3A2F13700884201D34FF0FF30A0
:101B300070475FEA400C08BF91F0000F4FEA8C231A
:101B40004FEAC12243EA51514FEA1C5018BF00F539
:101B5000F0404FEA300018BF41F000415FEA6C5C92
:101B600000F02980BCF1FF3F08BF40F08040704783
:101B7000130C06BF12044FF0100C4FF0000C130EA4
:101B800004BF12020CF1080C130F04BF12010CF178
:101B9000040C930F04BF92000CF1020CD30F04BF8E
:101BA00052000CF1010C11464FF00002A0F11F0091
:101BB000A0EB0C00704711F0004F08BF704731F0E8
:101BC00000413FF4D5AF0B0C06BF09044FF0100CD9
:101BD0004FF0000C0B0E04BF09020CF1080C0B0FA8
:101BE00004BF09010CF1040C8B0F04BF89000CF138
:101BF000020CCB0F04BF49000CF1010CCCF1200307
:101C0000A0EB0C0022FA03F302FA0CF241EA030102
:101C100000F10100704720F07F4C80EA030023F0C0
:101C20007F47ACEB070303F57C5300F0004003F162
:101C3000FF032DE980494FEA154B09B44FEA1443DD
:101C400025EA0B4E24EA03480FF2042606EB13277D
:101C500049083E785FEA320203FB0667C7F50007D2
:101C600007FB06F64FEA54374FEAD64606F102065E
:101C700007FB066CCCF1005C4FEA1C472CEA074CD2
:101C800007FB06F40CFB06F504EB15464FEA961627
:101C900034BF00204FF000404FEAD13706FB07FC6D
:101CA0004FEA1C4C0CFB0BF7D21B03FB0CF761EB50
:101CB00007010CFB0EF7B0EB074072EB17420CFB71
:101CC00008F734BFA2EB0742B2EB074261EB1741C2
:101CD0004FEA0C444FEA910706FB07FC4FEA1C4C05
:101CE0000CFB0BF7B0EBC74072EB573203FB0CF762
:101CF00034BFA2EBC742B2EBC74261EB57310CFBDA
:101D00000EF7B0EBC70072EB57720CFB08F734BF4D
:101D1000A2EBC702B2EBC70261EB5771039F4FEA18
:101D2000816141EA921104EBCC044FEAD1374FEACA
:101D3000826206FB07FC42EA90124FEA80604FEA9B
:101D40001C4C0CFB0BF7D21B03FB0CF761EB0701E0
:101D50000CFB0EF7B0EB074072EB17420CFB08F7D9
:101D600034BFA2EB0742B2EB074261EB17414FEAE7
:101D70008C554FEA910704EB9C2406FB07FC4FEAC5
:101D80001C4C0CFB0BF7B0EBC74072EB573203FB5C
:101D90000CF734BFA2EBC742B2EBC74261EB57313D
:101DA0000CFB0EF7B0EBC70072EB57720CFB08F799
:101DB00034BFA2EBC702B2EBC70261EB577115EB60
:101DC0004C254FEA816141EA92114FEA82624FEA63
:101DD000D13742EA901206FB07FC44F100044FEAB7
:101DE00080604FEA1C4C0CFB0BF7D21B03FB0CF77B
:101DF00061EB07010CFB0EF7B0EB074072EB1742EB
:101E00000CFB08F734BFA2EB0742B2EB074261EBD1
:101E1000174115EB1C154FEA813141EA92414FEA17
:101E2000823242EA90424FEA80304FEA0C7644F127
:101E3000000448EA03434EEA0B484FF0000EB2EBB1
:101E4000080C71EB030724BF624639464EEB0E0EB9
:101E50004FF0000B0018524149414BEB0B0BB2EB1A
:101E6000080C71EB03077BF1000B24BF6246394677
:101E70004EEB0E0E4FF0000B0018524149414BEB58
:101E80000B0BB2EB080C71EB03077BF1000B24BFCB
:101E9000624639464EEB0E0E51EA020718BF46F075
:101EA000010616EB0E7655F1000254F1000103D540
:101EB000BDE88901BDE80088BDE88901BDE80048AA
:101EC000B619524141EB0101A3F101037047808033
:101ED0007F7E7D7C7B7A7978777676757473727184
:101EE00071706F6E6E6D6C6C6B6A6A69686867663C
:101EF00066656464636362616160605F5F5E5E5DCE
:101F00005D5C5C5B5B5A5A59595858575756565541
:101F100055555454535352525251515050504F4FA3
:101F20004F4E4E4D4D4D4C4C4C4B4B4B4A4A4A49F3
:101F30004949484848474747474646464545454436
:101F400044444443434343424242424141410000EE
:101F500046EA0646A3F570534FEA164646EA42564D
:101F60004FEAD22242EA415210B54FEAD121A3F101
:101F7000010300F017F820F0004000F1010C00F020
:101F8000004701EB00501146BCF5006F40EA070026
:101F900000D210BD02484FF0000140EA070010BD1A
:101FA0000000F07F002B26D4770021D01CB54FEA2B
:101FB000370703B44FF010004FF010014FF000004E
:101FC0000FBCBDE810400BF1010BBBF1010F08BFC6
:101FD0005FEA170722BF12F1010211F101014FF070
:101FE000004143F1000300F0004043EA0000704765
:101FF000F9D35708DAE746EA064613F1400F4FEAED
:1020000016461FDD13F1200FDFBF16430A460021DD
:1020100020335B42C8D0C3F1200746EA064602FAE5
:1020200007F74FEA164646EA0706C3F1200722FAE9
:1020300003F201FA07F721FA03F14FF0000342EA35
:102040000702B1E746EA020646EA06464FEA1646A6
:1020500046EA0106BCBF46EA0646360C4FF00003CE
:102060004FF000024FF000019EE72DE9C048934673
:1020700030B491E8380007C831EA400C48BF34EA70
:10208000430C03D5FFF7C7FDFFF78CFFF0BCBDE89D
:1020900000882DE9C048934630B491E8380007C85D
:1020A00031EA400C48BF34EA430C03D5FFF7B3FDD7
:1020B000FFF74EFFF0BCBDE800882DE9C04893460D
:1020C00030B491E8380007C810F0804F08BF13F013
:1020D000804F03D100F019F8FFF764FFF0BCBDE8B2
:1020E00000882DE9C048934630B491E8380007C80D
:1020F00010F0804F08BF13F0804F03D100F005F8B7
:10210000FFF726FFF0BCBDE8008820F07F4780EA9B
:10211000030023F07F4C07EB0C03A3F57C5300F086
:102120000040A3F1FE0392F0000F00F0B38095F0A1
:10213000000F00F077802DE901494FEA11404FEA86
:10214000144621EA004800FB06FC24EA064708FB87
:1021500006F607FB08F800FB07F718EB06484CEB00
:10216000164C4FEA124B18EB07484FEA15464CEB5A
:10217000174022EA0B4E0BFB06FC25EA06470EFB36
:1021800006F607FB0EFE0BFB07F71EEB064E4CEBAD
:10219000164C4FF000061EEB074E4CEB174B18EB9E
:1021A0000B0840F1000018EB0E0B58EB000840F153
:1021B00000008F1A4FF000013CBFC943661B14BFDB
:1021C000B5EB040C00213CBFC943F61B4FEA174492
:1021D0004EEA8E0E27EA04454FEA1C4704FB0762CD
:1021E0002CEA074C05FB07F70CFB05F604FB0CFC7F
:1021F00016EB074642EB174216EB0C4642EB1C422D
:102200001BEB060658EB0202414146EA9E0601D549
:10221000BDE80189B619524141EB0101A3F1010367
:10222000BDE801894FEA14454FEA114724EA054603
:1022300021EA074C05FB07F406FB07F70CFB06F148
:1022400005FB0CFC11EB074144EB17444FEA124726
:1022500011EB0C4144EB1C4422EA074C05FB07F24E
:1022600006FB07F70CFB06F605FB0CFC16EB074616
:1022700042EB174216EB0C4642EB1C456A1854F130
:10228000000148BF7047B619524141EB0101A3F16B
:102290000103704795F0000F37D04FEA11424FEA23
:1022A000144721EA024624EA074C02FB07F106FB29
:1022B00007F70CFB06F402FB0CFC14EB074441EBA4
:1022C00017414FEA154714EB0C4441EB1C4125EA3A
:1022D000074C02FB07F506FB07F70CFB06F602FBB3
:1022E0000CFC16EB074645EB174516EB0C4645EB89
:1022F0001C42121951F1000148BF7047B6195241F2
:1023000041EB0101A3F1010370474FEA14454FEA85
:10231000114724EA054621EA074C05FB07F106FBB5
:1023200007F70CFB06F24FF0000605FB0CFC12EB66
:10233000074241EB174112EB0C4251EB1C4148BFE5
:102340007047921841EB0101A3F10103704770B58A
:10235000044600252068806800F00100F0B1206884
:10236000806820F001002168886001F043FB054689
:102370000EE001F03FFB401B022809D9A06A40F0A3
:102380001000A062E06A40F00100E062012070BD30
:102390002068806800F001000028EAD10020F6E7FC
:1023A00038B504460025002000902068806800F0C1
:1023B000010080BB2068806840F0010021688860CF
:1023C000164800681649B0FBF1F0009002E0009852
:1023D000401E009000980028F9D101F00BFB054643
:1023E00013E001F007FB401B02280ED9A06A40F061
:1023F0001000A062E06A40F00100E06200BF00202F
:1024000084F8240000BF012038BD2068806800F0F7
:1024100001000028E5D00020F6E700002800002099
:1024200040420F002DE9F047074642A0FDF78CFF20
:1024300045A13846FEF706F9002879D0394645A06F
:10244000FDF782FF45A0FDF77FFF002447A1384636
:10245000FEF7F8F804460A343C2006F079FF80467F
:102460003C214046FEF7CEF93C2006F071FF814644
:102470003C214846FEF7C6F93C2006F069FF0546B8
:102480003C212846FEF7BEF93C2006F061FF0646D7
:102490003C213046FEF7B6F9002003E021782954AC
:1024A000641C401C0428F9DB002003E0217831542F
:1024B000641C401C0328F9DB2FA14046FEF7D4F82A
:1024C00029464046FEF713F92CA14046FEF70FF9C6
:1024D0002CA14846FEF7C8F831464846FEF707F9F2
:1024E00029A14846FEF703F904224146284803F093
:1024F00003F9042249462648803803F0FDF80422F7
:1025000024A1264803F0F8F8284607F0C3F840460F
:1025100007F0C0F8304607F0BDF8484607F0BAF8B3
:1025200003F076F81EA0FDF70FFFBDE8F087FFE788
:1025300000BFFAE76163746976617465206465764B
:102540006963650D0A0000006465766163746976ED
:10255000656400000D0A25730D0A0000616374694B
:102560007665207375630D0A00000000646576616E
:1025700063746976657300006375720063757264D5
:102580000000000070726500707265640000000059
:1025900080A80708616374697665000080AA07084F
:1025A0000D0A726570204143540D0A0000BFFEE71A
:1025B00010B500226421052007F058FC014908608D
:1025C00010BD000028020020642006F0C1FE044671
:1025D000FFF7EEFF29E064212046FEF713F9002300
:1025E0005A1E21461148006807F07AFC214610A0C7
:1025F000FDF7AAFE12A12046FEF724F810B12046EE
:1026000003F084F910A12046FEF71CF810B1204613
:1026100002F084FE0FA12046FEF714F810B1204608
:1026200003F014FB642007F069F9D4E728020020C6
:10263000436861436D644275663A2025730D0A0054
:102640006368617267657300706F72746572726F30
:102650007273000073746F70706F7274000000000A
:1026600008B5782006F074FE009000F0AFF8002561
:102670007DE078210098FEF7C5F801239A1E3C48BA
:102680000099006807F02CFC3AA00099FDF75CFE69
:102690004FF47A7007F032F9009800F0D5FB054648
:1026A00003F090FE07464FF0000ABAF1000F09D080
:1026B00034A003F090FE0446224635A1384603F0CC
:1026C00057FE08E034A003F086FE0446224630A1FF
:1026D000384603F04DFE284608F06DFB804603F0B7
:1026E0005FFE044622462FA1384603F041FE3846DD
:1026F00003F0B8FE834600242FE00121584602F083
:102700000FFC78210098FEF77DF8002344F6206244
:1027100026480099006807F0E3FB0646214624A0FE
:10272000FDF712FE012E17D1009800F08DFB8046B8
:10273000A84510D100231A460D480099006807F0FB
:10274000CFFB20A10098FDF77DFF18B108F0FF0036
:1027500002F0C2FE03E000BF641C032CCDDB00BF0F
:10276000384603F047FE642007F0C8F800BF80E752
:10277000F0100020446576436D644275663A20256A
:10278000730D0A006368617267656F6B000000007B
:10279000747970650000000063686661696C656447
:1027A00000000000706F727400000000F410002040
:1027B000436865636B2025642074696D65730D0A39
:1027C00000000000676574626164000010B50022BB
:1027D0000A21162007F04AFB0449086000227821EC
:1027E000032007F043FB0249086010BDF0100020F1
:1027F000F41000207047000010B50022642105206D
:1028000007F034FB0149086010BD000034020020CD
:10281000642006F09DFD0446FFF7EEFF28E06421EA
:102820002046FDF7EFFF00235A1E2146114800689D
:1028300007F056FB214610A0FDF786FD12A12046A9
:10284000FDF700FF10B12046FFF7ECFD10A1204678
:10285000FDF7F8FE08B102F09BFE0FA12046FDF740
:10286000F1FE10B1204603F07BF8642007F046F833
:10287000D5E7000034020020446576436D6442755C
:10288000663A2025730D0A006163746976657300EA
:1028900072656C6561736500757064617465640070
:1028A0002DE9F0475649D1F8240180475449D1F821
:1028B000280180475249D1F82C018047032200218A
:1028C000012007F0D3FA4F49086003F07BFD8146F1
:1028D0004DA003F080FD044622464EA1484603F079
:1028E00047FD4748B03003F076FD044622464BA131
:1028F000484603F03DFD42489C3003F06CFD044621
:10290000224648A1484603F033FD3D49D1F8C400B2
:1029100008F051FA074603F043FD0446224643A15E
:10292000484603F025FD0020414903F039FD0446E7
:10293000224640A1484603F01BFD40A003F04BFD9A
:10294000044622463FA1484603F012FD00203F49BD
:1029500003F026FD044622463DA1484603F008FD4B
:10296000484603F07FFD0646002420E00121304662
:1029700002F0D6FA002342F210721946214800688C
:1029800007F0AEFA0546214633A0FDF7DDFC012D28
:102990000CD1484603F02EFD1A48006806F04CFFA3
:1029A00032A0FDF7D1FC0120BDE8F087641C032CA8
:1029B000DCDB484603F01EFD30A0FDF7C5FC34A06B
:1029C000FDF7C2FC00BF00BF00BF00BF00BFBFF3E8
:1029D0004F8F00BF00BF00BF3248006800F4E060C6
:1029E00031490843001D2F49086000BF00BF00BFE8
:1029F000BFF34F8F00BF00BF00BF00BF00BFFDE7A8
:102A0000B00000202C020020726567697374657243
:102A1000000000007479706500000000696D736942
:102A200000000000696D65690000000063737100BB
:102A3000000024406861726476000000303130325A
:102A400000000000736F66747600000000002640EE
:102A5000706F72740000000072656769737465724C
:102A60002025642074696D65730D0A0072656769BD
:102A700073746572206F6B0D0A00000072656769E0
:102A800073746572206661696C65640D0A000000EC
:102A900053797374656D205265626F6F74696E67E8
:102AA0000D0A00000CED00E00000FA052DE9F047EA
:102AB0003A49D1F82401804703220021012007F080
:102AC000D5F93749086003F07DFC814635A003F055
:102AD00082FC0446224635A1484603F049FC2F49B2
:102AE000D1F8C40008F067F9074603F059FC044622
:102AF000224630A1484603F03BFC484603F0B2FCB6
:102B00000646002420E00121304602F009FA0023A5
:102B100042F2107219462248006807F0E1F90546B2
:102B2000214625A0FDF710FC012D0CD1484603F0ED
:102B300061FC1B48006806F07FFE23A0FDF704FC43
:102B40000120BDE8F087641C032CDCDB484603F061
:102B500051FC20A0FDF7F8FB22A0FDF7F5FB00BF1C
:102B600000BF00BF00BF00BFBFF34F8F00BF00BF5B
:102B700000BF2148006800F4E06020490843001DC0
:102B80001D49086000BF00BF00BFBFF34F8F00BFEB
:102B900000BF00BF00BF00BFFDE70000B000002085
:102BA0003002002073696776616C0000747970658B
:102BB00000000000637371004353512025642074AA
:102BC000696D65730D0A0000435351206F6B0D0A48
:102BD00000000000435351206661696C65640D0A72
:102BE0000000000053797374656D205265626F6F49
:102BF00074696E670D0A00000CED00E00000FA0534
:102C00000021074AD1610749096941F00401054AD9
:102C100011611146096941F04001116170470000DE
:102C2000F8100020002002400021074AD161074926
:102C3000096941F00201054A1161114648610969BB
:102C400041F0400111617047F8100020002002405F
:102C50000022054BDA61054A126942F00102034B7A
:102C60001A61018070470000F81000200020024027
:102C70001748C06800F0100028B11648C06940F03D
:102C800002001449C8611248C06800F0040028B16D
:102C90001048C06940F001000E49C8610C48C06985
:102CA00000F0010068B10B48C06940F00400094918
:102CB000C86100BF0648C06920F001000449C8612E
:102CC00000BF00BF14200249C86000BF7047000069
:102CD00000200240F810002070B5044600F08AFE83
:102CE000054609E0601C38B124B100F083FE401BAA
:102CF000A04201D9032070BD1248C06800F0010055
:102D00000028EFD10F48C06800F0200020B100BFBC
:102D100020200C49C86000BF0A48C06800F01000BD
:102D200048B90848C06900F0010020B90548C068EA
:102D300000F0040018B1FFF79BFF0120DBE7002043
:102D4000D9E700000020024070B50646002410A11B
:102D50003046FDF777FC90B10FA13046FDF772FCCD
:102D60000546093528783038642148436978303978
:102D700001EB810100EB4101A87830380C18B4F563
:102D80007A7F03DC002C01DD204670BD0020FCE7CB
:102D90006368617267656400636861726765730088
:102DA00070B5064600240EA13046FDF74BFC70B10D
:102DB0000DA13046FDF746FC0546ED1D687830381C
:102DC0002978303901EB810100EB4100C4B2142CA9
:102DD00003DC002C01DD204670BD0020FCE7000074
:102DE0006368617267656400636861726765730038
:102DF00070B5064600250EA13046FDF723FC70B1E4
:102E00000EA13046FDF71EFC04460A3460783038C7
:102E10002178303901EB810100EB4100C5B2142D5E
:102E200003DC002D01DD284670BD0020FCE700001A
:102E3000706F72746572726F72640000706F72747A
:102E40006572726F727300002DE9F041074612A59A
:102E50000FF2480841463846FDF7F4FBC8B1294651
:102E60003846FDF7EFFB98B129463846FDF7EAFBF7
:102E700004462846FDF71CFC04446078303821786D
:102E8000303901EB810100EB41063046BDE8F081AD
:102E900000BF0020FAE700007372650064726500ED
:102EA00070B5064600240EA13046FDF7CBFB70B18D
:102EB0000EA13046FDF7C6FB054608356878303868
:102EC0002978303901EB810100EB4100C4B2142CA8
:102ED00003DC002C01DD204670BD0020FCE7000073
:102EE00073746F70706F72746400000073746F702D
:102EF000706F72740000000078B502460023002055
:102F0000009000BF92F82400012801D1022078BD72
:102F1000012082F8240000BF486807281DD21068ED
:102F2000446B0879401E4FF4787595FAA5F5B5FA0B
:102F300085F568431F25854024EA05000C79641E49
:102F40004FF4787696FAA6F6B6FA86F674430D68CC
:102F5000A5402843146860633DE048680D281DD2F1
:102F60001068046B0879C01F4FF4787595FAA5F5C1
:102F7000B5FA85F568431F25854024EA05000C79DC
:102F8000E41F4FF4787696FAA6F6B6FA86F67443FE
:102F90000D68A5402843146820631CE01068C46ACB
:102FA00008790D384FF4787595FAA5F5B5FA85F5D9
:102FB00068431F25854024EA05000C790D3C4FF439
:102FC000787696FAA6F6B6FA86F674430D68A540AA
:102FD00028431468E06208680A281BD31068C46894
:102FE00008780A38382595FAA5F5B5FA85F56843C5
:102FF0000725854024EA05000C780A3C382696FA15
:10300000A6F6B6FA86F674438D68A5402843146880
:10301000E06017E0106800690C78382595FAA5F58E
:10302000B5FA85F56C430725A540A8430D783826E9
:1030300096FAA6F6B6FA86F675438C68AC4020433D
:10304000146820610868102802D00868112827D168
:10305000174C1068A0421ED11068806800F4000070
:10306000F0B91068806840F400001468A060086837
:10307000102815D10F4800680F4CB0FBF4F000EB9E
:1030800080004000009002E00098401E00900098F0
:103090000028F9D104E0906A40F0200090620123FA
:1030A00000BF002082F8240000BF18462FE7000070
:1030B000002401402800002040420F00014608681B
:1030C000C06C70472DE9F04104460027002500261A
:1030D000A84614B90120BDE8F081A06810B160696C
:1030E00000B100BFA06A30B90020E06284F824007B
:1030F000204600F0A9F82046FFF729F90746A06A04
:1031000000F0100000287DD1002FFCD1A06A20F42F
:10311000885040F00200A062484AD4E90001904281
:1031200008D1E069B0F5402F02D14FF4002002E051
:10313000E06900E0E0690843022292FAA2F2B2FAE2
:1031400082F2E168914008430643A068B0F5807FB1
:1031500002D0A068012802D14FF4807000E0002066
:1031600005436069012816D1E06860B9A069401E76
:103170004FF4604191FAA1F1B1FA81F1884040F435
:103180000060054307E0A06A40F02000A062E06A0A
:1031900040F00100E0622068406820F46940284364
:1031A00021684860206880682549084030432168CC
:1031B0008860A068B0F5807F02D0A068012802D1A5
:1031C0004FF4807000E00020B0F5807F09D12069C5
:1031D000401E4FF4700191FAA1F1B1FA81F100FAA9
:1031E00001F82068C06A20F4700040EA08002168F5
:1031F000C8622068806813490840B0420AD10020A4
:10320000E06200E012E0A06A20F0020040F001005D
:10321000A06210E0A06A20F0020040F01000A0625E
:10322000E06A40F00100E062012704E0A06A40F09B
:103230001000A062012738464DE70000003C014025
:10324000FDF7E1FFFE0E1FFF70470000F8B50446D2
:103250000D46002600200090002700F0CBFB06461C
:103260002068806800F4807050B1A06A40F02000AF
:10327000A06200BF002084F8240000BF0120F8BD38
:103280002068406800F48070F8B92068C06A00F4D3
:103290007000D0B912E0681C80B125B100F0AAFB23
:1032A000801BA8420AD9A06A40F00400A06200BFB7
:1032B000002084F8240000BF0320E0E720680068B5
:1032C00000F002000028E6D050E0022000F01EFCD2
:1032D00036490968B1FBF0F021680969344A1140A8
:1032E00091B92168C9689211114069B921680969C9
:1032F000304A114031B92168C9689211114009B9A9
:10330000142117E0292115E021680969294A114093
:1033100021B92168C9689211114041B12168096938
:10332000254A114029B92168C968114009B95421B9
:1033300000E0FC2100FB01F715E0681C80B125B11D
:1033400000F058FB801BA8420AD9A06A40F0040094
:10335000A06200BF002084F8240000BF03208EE795
:103360000098401C00900098B842E6D36FF012001D
:1033700021680860A06A40F40070A062206880683C
:1033800000F46020B0F5602F0DD1E06858B9A06A54
:1033900020F48070A062A06A00F4805018B9A06A7E
:1033A00040F00100A062002069E700002800002032
:1033B00024499224922449124992240070B504466B
:1033C000002500BF94F82400012801D1022070BD1F
:1033D000012084F8240000BF2046FEF7E1FF0546E7
:1033E000002D77D1A06A40F20121884340F480701B
:1033F000A0623C492068884208D13B48006800F43C
:10340000702008B9012002E0002000E0012078B11E
:10341000A06A20F48010A0622068406800F48060F8
:1034200000B3A06A20F4005040F48050A06219E07C
:10343000A06A40F48010A0622B49091F20688842CE
:1034400003D028492068884204D12748006800F446
:10345000806000E0002028B1A06A20F4005040F411
:103460008050A062A06A00F4805020B1E06A20F091
:103470000600E06201E00020E06200BF002084F866
:10348000240000BFC01E216808602068806800F426
:103490006020B0F5602F16D112492068884208D10B
:1034A0001148006800F4702008B9012002E00020F3
:1034B00000E0012038B12068806840F4A000216855
:1034C00088600CE006E02068806840F48010216885
:1034D000886004E000BF002084F8240000BF284674
:1034E00075E70000002801400424014031B50024A4
:1034F00000F080FA044600BF00F07CFA001B00993F
:103500008842F9D338BD00002DE9F04104460E464B
:103510000127002500BF2648007E012802D1022095
:10352000BDE8F08101202249087600BF206802280A
:1035300013D14CF25030FFF7CFFB90BB0120FFF7C7
:103540005FFB4CF25030FFF7C7FB07461948006994
:1035500020F004001749086123E04CF25030FFF7D7
:10356000BBFBF0B94FF0FF303060A56812E0284691
:10357000FFF75AFB4CF25030FFF7AEFB07460D4801
:10358000006920F002000B4908610FB1356007E0C7
:1035900005F50065D4E9021001EBC020A842E6D889
:1035A00000BF00BF00200249087600BF3846B7E7D9
:1035B000F8100020002002400348006940F080001D
:1035C0000149086100207047002002402DE9FE4FAC
:1035D00005468B4617469846012600240020029097
:1035E00000BF2448007E012802D10220BDE8FE8FE2
:1035F00001202049087600BF4CF25030FFF76CFBE9
:10360000064686BB012D02D10120029006E0022D64
:1036100002D10220029001E00420029000241EE06A
:103620002201B946C24648465146FCF77AFE80B2AE
:103630000190022000FB04B000900199FFF708FB05
:103640004CF25030FFF748FB06460B48006920F06B
:1036500001000949086106B104E0601CC4B2029887
:103660008442DDDB00BF00BF00200249087600BFB6
:103670003046BBE7F81000200020024007480069F0
:1036800000F0800028B106480449486005484860B9
:1036900001E0012070470020FCE70000002002400C
:1036A00023016745AB89EFCD2DE9F8470246002499
:1036B000002000258446002700237BE14FF001080D
:1036C00008FA03F4D1F8008008EA0400A0427DD192
:1036D000DFF8ECA2D1F80480A8EB0A09D0453AD073
:1036E00014DCB8F1030F50D009DCB8F1000F31D071
:1036F000B8F1010F1CD0B8F1020F49D120E0B8F1A8
:10370000110F18D0B8F1120F42D11EE0B9F5881F81
:1037100025D006DCB9F5803F20D0B9F5801F37D120
:103720001AE0B9F5001F18D0B9F5041F30D117E021
:10373000D1F80CC02DE0D1F80C8008F1040C28E081
:10374000D1F80C8008F1080C23E0D1F80C8008F1C6
:103750000C0C1EE000BF00BF00BF00BF00BF00BFD9
:10376000D1F80880B8F1000F02D14FF0040C0BE043
:10377000D1F80880B8F1010F03D14FF0080C1461A3
:1037800002E04FF0080C546103E04FF0000C00E041
:1037900000BF00BFFF2801D8904601E002F10408F5
:1037A0004646FF2802D84FEA830803E0A3F1080841
:1037B0004FEA88084746D6F800804FF00F0909FA0B
:1037C00007F928EA09080CFA07F900E07AE048EA64
:1037D0000908C6F80080D1F8048008F08058B8F1D4
:1037E000805F6FD100BFDFF8DC81D8F8188048F027
:1037F0000108DFF8D091C9F81880C846D8F81880B9
:1038000008F00108CDF8008000BF00BF4FEAB938CA
:103810004FEA930958F829504FEA83784FEA18790C
:103820004FF00F0808FA09F825EA0805DFF8988133
:10383000424502D14FF0000824E0DFF89081424574
:1038400002D14FF001081DE0DFF88481424502D12A
:103850004FF0020816E0DFF87C81424502D14FF0BC
:1038600003080FE0DFF87081424502D14FF00408F1
:1038700008E0DFF86881424502D14FF0050801E019
:103880004FF006084FEA83794FEA197908FA09F8E8
:1038900048EA0505DFF848814FEA930948F82950BE
:1038A000D1F8048008F48038B8F5803F0BD1DFF8F8
:1038B0003481D8F8008048EA0008DFF82891C9F878
:1038C00000800AE075E0DFF81C81D8F8008028EA63
:1038D0000008DFF81091C9F80080D1F8048008F4DE
:1038E0000038B8F5003F0ED1DFF8F88008F1040881
:1038F000D8F8008048EA0008DFF8E89009F10409E8
:10390000C9F800800DE0DFF8DC8008F10408D8F881
:10391000008028EA0008DFF8CC9009F10409C9F812
:103920000080D1F8048008F48018B8F5801F0ED10B
:10393000DFF8B08008F10808D8F8008048EA0008ED
:10394000DFF8A09009F10809C9F800800DE0DFF860
:10395000948008F10808D8F8008028EA0008DFF809
:10396000849009F10809C9F80080D1F8048008F4AE
:103970000018B8F5001F0ED1DFF8688008F10C08B8
:10398000D8F8008048EA0008DFF8589009F10C09DF
:10399000C9F800800DE0DFF84C8008F10C08D8F879
:1039A000008028EA0008DFF83C9009F10C09C9F80A
:1039B00000805B1C102BFFF481AEBDE8F88700008F
:1039C000000011100010024000080140000C0140EE
:1039D000001001400014014000180140001C01408B
:1039E00008000140000401400AB1016101E00B043C
:1039F0000361704701480068704700002C000020F8
:103A000010B50848006840F010000649086005201D
:103A100000F068F80F2000F007F800F017F8002019
:103A200010BD00000020024070B5044600F06CFAA2
:103A30004FF47A71B0FBF1F5284600F041FF002207
:103A40002146501E00F010F8002070BD704700BFE6
:103A500000F01F02012191404209920002F1E02290
:103A6000C2F8001100BF70472DE9F05F80460D4697
:103A70001646002701F02EFB074639462A463346F4
:103A800001F00700C0F1070ABAF1040F02D94FF0A4
:103A9000040A01E0C0F1070AD14600F1040ABAF1B4
:103AA000070F02D24FF0000A01E0A0F1030AD4464A
:103AB0004FF0010A0AFA09FAAAF1010A0AEA020A0F
:103AC0000AFA0CFA4FF0010B0BFA0CFBABF1010BED
:103AD0000BEA030B4AEA0B042146404601F002FBC5
:103AE000BDE8F09F00BF00F00702064B19684FF6D3
:103AF000FF031940044B0B4343EA0221014B1960B9
:103B000000BF70470CED00E00000FA052DE9F0431E
:103B100085B006464EA30FCB01AC0FC450A0006881
:103B200000900024A046A14600250027042E43D083
:103B300004DC012E48D0022E70D170E0082E3FD058
:103B4000102E7FD147484468006800F0807068B349
:103B500004F470104FF4701191FAA1F1B1FA81F1EF
:103B6000C84001A90F5C04F48030A0B13D48406812
:103B700000F40030710391FAA1F1B1FA81F1C8406B
:103B80001DF8009004F4803040B13748B0FBF9F0E4
:103B900000FB07F502E0354807FB00F531484068B7
:103BA00000F48000B0F5800F01D1A84603E0680062
:103BB0000321B0FBF1F846E000F0D8F9804642E07E
:103BC00000F0D4F980463EE02648046A04F44070D0
:103BD000B0F5807F05D104F0020010B14FF4004829
:103BE0001BE004F44070B0F5007F07D11D48406A27
:103BF00000F0020010B149F640480EE004F44070B5
:103C0000B0F5407F07D11748006800F4003010B1CC
:103C10004FF2244801E04FF0000814E012E000F0F9
:103C20008FF901460F48406800F440404FF480424D
:103C300092FAA2F2B2FA82F2D040401C4000B1FBEC
:103C4000F0F800E000BF00BF404605B0BDE8F083DB
:103C500002030405060708090A0B0C0D0E0F1010CD
:103C6000010200000010024000127A0000093D002D
:103C700070B504460D4600269F48006800F0070016
:103C8000A8420ED29C48006820F0070028439A49B9
:103C900008600846006800F00700A84201D0012033
:103CA00070BD207800F00200022807D193484068D8
:103CB00020F0F000A168084390494860207800F0A7
:103CC000010000287CD0606801282DD1202001034C
:103CD00091FAA1F1B1FA81F108430121B1EB601F22
:103CE00002D1864800680FE02020010391FAA1F17B
:103CF000B1FA81F108430221B1EB601F02D17F4884
:103D0000006A01E07D48406A20210A0392FAA2F28B
:103D1000B2FA82F2114301F01F02012191400840E2
:103D2000002860D10120BBE7606802282CD1202048
:103D3000010591FAA1F1B1FA81F108430121B1EB3A
:103D4000601F02D16D4800680FE02020010591FA44
:103D5000A1F1B1FA81F108430221B1EB601F02D158
:103D60006648006A01E06548406A20210A0592FA27
:103D7000A2F2B2FA82F2114301F01F020121914036
:103D8000084078BB01208BE72020022191FAA1F1A5
:103D9000B1FA81F108430121B1EB601F02D157480C
:103DA000006810E02020022191FAA1F1B1FA81F11E
:103DB00008430221B1EB601F03D15048006A02E0C2
:103DC00054E04E48406A2021022292FAA2F2B2FA4E
:103DD00082F2114301F01F0201219140084008B90D
:103DE00001205DE7FFE74548406820F00300616877
:103DF000084342494860FFF7FDFD06466068012818
:103E000010D108E0FFF7F6FD801B41F288318842AF
:103E100001D9032044E73948406800F00C00042829
:103E2000F0D123E06068022810D108E0FFF7E2FD3E
:103E3000801B41F28831884201D9032030E72F48A6
:103E4000406800F00C000828F0D10FE008E0FFF710
:103E5000D1FD801B41F28831884201D903201FE740
:103E60002648406800F00C000028F0D12248006885
:103E700000F00700A8420ED91F48006820F0070094
:103E800028431D4908600846006800F00700A84262
:103E900001D0012004E7207800F00400042807D1B5
:103EA0001648406820F4E060E16808431349486020
:103EB000207800F00800082808D11048406820F455
:103EC0006050216940EAC1000C49486000F04EF89A
:103ED0000A49496801F0F001F02292FAA2F2B2FA1E
:103EE00082F2D140064A515CC840064908600F2062
:103EF000FFF79AFD0020D3E60020024000100240A8
:103F00007AB30008280000200148006870470000CC
:103F10002800002000B5FFF7F7FF0749496801F4C2
:103F2000E0614FF4E06292FAA2F2B2FA82F2D1407A
:103F3000024A515CC84000BD001002408AB300082C
:103F400000B5FFF7E1FF0749496801F460514FF4FC
:103F5000605292FAA2F2B2FA82F2D140024A515C65
:103F6000C84000BD001002408AB30008F0B585B01B
:103F70000FF28C0C9CE8E01001A8A0E8E01024A54A
:103F80002D68009500210024002200230020214DEF
:103F9000696801F00C056DB3042D02D0082D28D1FD
:103FA00001E01D4828E001F470154FF4701696FAF0
:103FB000A6F6B6FA86F6F54001AE735D01F48035DB
:103FC00095B1144D6D6805F400354FF4003696FA3E
:103FD000A6F6B6FA86F6F5401DF805400E4DB5FB7F
:103FE000F4F505FB03F202E00C4D03FB05F210466D
:103FF00002E000BF084800BF00BF05B0F0BD0000F0
:1040000002030405060708090A0B0C0D0E0F101019
:10401000010200000010024000127A0000093D0079
:1040200038B504460025207800F0010000287CD037
:10403000F848406800F00C0004280CD0F5484068AF
:1040400000F00C00082837D1F248406800F48030B6
:10405000B0F5803F30D12020010391FAA1F1B1FAEF
:1040600081F108430121B1EB601F02D1E9480068EA
:104070000FE02020010391FAA1F1B1FA81F1084388
:104080000221B1EB601F02D1E248006A01E0E14881
:10409000406A20210A0392FAA2F2B2FA82F2114394
:1040A00001F01F020121914008400028BFD0606844
:1040B00000283AD1012038BD00BF6068B0F5803FCC
:1040C00006D1D448006840F48030D249086028E026
:1040D000606858B9CF48006820F48030CD49086046
:1040E0000846006820F4802008601AE06068B0F597
:1040F000A02F0BD1C748006840F48020C549086054
:104100000846006840F4803008600AE0C148006852
:1041100020F48030BF4908600846006820F4802001
:10412000086000BF6068C8B300E06FE0FFF762FCA2
:10413000054606E0FFF75EFC401B642801D903201A
:10414000B9E72020010391FAA1F1B1FA81F1084306
:104150000121B1EB601F02D1AE4800680FE02020C2
:10416000010391FAA1F1B1FA81F108430221B1EB07
:10417000601F02D1A748006A01E0A648406A2021DA
:104180000A0392FAA2F2B2FA82F2114301F01F027C
:104190000121914008400028CCD037E0FFE7FFF72D
:1041A00029FC054606E0FFF725FC401B642801D9E1
:1041B000032080E72020010391FAA1F1B1FA81F1F7
:1041C00008430121B1EB601F02D1924800680FE063
:1041D0002020010391FAA1F1B1FA81F108430221F3
:1041E000B1EB601F02D18B48006A01E08948406A48
:1041F00020210A0392FAA2F2B2FA82F2114301F0EC
:104200001F020121914008400028CCD1207800F005
:10421000020002284ED17F48406800F00C0050B1E7
:104220007C48406800F00C00082844D17948406878
:1042300000F4803078BB2020022191FAA1F1B1FA7C
:1042400081F108430121B1EB601F02D17148006880
:104250000FE02020022191FAA1F1B1FA81F1084387
:104260000221B1EB601F02D16A48006A01E069488F
:10427000406A2021022292FAA2F2B2FA82F211439B
:1042800001F01F0201219140084028B12069012856
:1042900002D001200FE70EE05E48006820F0F80031
:1042A000F82292FAA2F2B2FA82F2616991400843CE
:1042B0005849086091E02069F0B3012090FAA0F11C
:1042C000B1FA81F1544A42F82100FFF793FB054609
:1042D00006E0FFF78FFB401B022801D90320EAE626
:1042E0002020022191FAA1F1B1FA81F108430121C4
:1042F000B1EB601F02D1474800680FE02020022187
:1043000091FAA1F1B1FA81F108430221B1EB601FEA
:1043100002D14048006A01E03E48406A2021022262
:1043200092FAA2F2B2FA82F2114301F01F020121C5
:1043300091400840002800E00FE0CAD035480068EE
:1043400020F0F800F82292FAA2F2B2FA82F2616941
:10435000914008432F4908603FE00020012191FA75
:10436000A1F1B1FA81F12C4A42F82100FFF742FB9A
:10437000054606E0FFF73EFB401B022801D903205B
:1043800099E62020022191FAA1F1B1FA81F10843C6
:104390000121B1EB601F02D11E4800680FE0202010
:1043A000022191FAA1F1B1FA81F108430221B1EBA6
:1043B000601F02D11748006A01E01648406A2021B8
:1043C000022292FAA2F2B2FA82F2114301F01F0223
:1043D0000121914008400028CCD1207800F008004D
:1043E00008284BD1A069A8B3012191FAA1F0B0FA35
:1043F00080F0094A02EB8000C0F88014FFF7FAFA57
:1044000005460BE0FFF7F6FA401B022806D9032009
:1044100051E60000001002400000424260200221EC
:1044200091FAA1F1B1FA81F108430121B1EB601FCA
:1044300002D1F948006810E06020022191FAA1F150
:10444000B1FA81F108430221B1EB601F03D1F248B8
:10445000006A02E013E0F048406A6021022292FA0A
:10446000A2F2B2FA82F2114301F01F02012191403F
:1044700008400028C6D00120FFF738F841E00020AE
:10448000012191FAA1F1B1FA81F1E44A02EB810133
:10449000C1F88004FFF7AEFA054606E0FFF7AAFA76
:1044A000401B022801D9032005E66020022191FA71
:1044B000A1F1B1FA81F108430121B1EB601F02D1F2
:1044C000D54800680FE06020022191FAA1F1B1FA0D
:1044D00081F108430221B1EB601F02D1CE48006A8E
:1044E00001E0CD48406A6021022292FAA2F2B2FABB
:1044F00082F2114301F01F0201219140084000287F
:10450000CCD1207800F00400042875D100BFC24847
:10451000C06940F08050C049C8610846C06900F0D9
:104520008050009000BF00BFBD48006840F480701C
:10453000BB490860FFF75EFA054606E0FFF75AFA46
:10454000401B642801D90320B5E5B548006800F494
:1045500080700028F2D000BFE068012806D1AE4884
:10456000006A40F00100AC49086227E0E06858B9F1
:10457000A948006A20F00100A74908620846006ABD
:1045800020F00400086219E0E06805280BD1A24879
:10459000006A40F00400A04908620846006A40F042
:1045A000010008620AE09C48006A20F001009A4974
:1045B00008620846006A20F00400086200BFE06854
:1045C000D0B3FFF717FA054608E0FFF713FA401BD0
:1045D00041F28831884201D903206CE54020022154
:1045E00091FAA1F1B1FA81F108430121B1EB601F09
:1045F00003D18948006810E058E04020022191FA78
:10460000A1F1B1FA81F108430221B1EB601F02D19F
:104610008148006A01E08048406A4021022292FA03
:10462000A2F2B2FA82F2114301F01F02012191407D
:1046300008400028C9D039E0FFE7FFF7DBF905465D
:1046400008E0FFF7D7F9401B41F28831884201D9D1
:10465000032030E54020022191FAA1F1B1FA81F165
:1046600008430121B1EB601F02D16B4800680FE0E5
:104670004020022191FAA1F1B1FA81F1084302210F
:10468000B1EB601F02D16448006A01E06248406AF1
:104690004021022292FAA2F2B2FA82F2114301F010
:1046A0001F020121914008400028CAD1E06900287A
:1046B00073D05948406800F00C0008286ED0E069BB
:1046C00002286CD100204FF0807191FAA1F1B1FA6B
:1046D00081F1524A42F82100FFF78CF9054606E0C5
:1046E000FFF788F9401B022801D90320E3E42020CA
:1046F000010591FAA1F1B1FA81F108430121B1EB71
:10470000601F02D1444800680FE02020010591FAA3
:10471000A1F1B1FA81F108430221B1EB601F02D18E
:104720003D48006A01E03C48406A20210A0592FAAF
:10473000A2F2B2FA82F2114301F01F02012191406C
:1047400008400028CCD1206AB0F5803F07D132481C
:10475000406820F40030A16808432F494860D4E93C
:10476000080108432C49496821F4741108432A4977
:1047700048600121080690FAA0F0B0FA80F0274ABC
:1047800042F82010FFF736F9054609E0FFF732F945
:10479000401B022804D903208DE479E076E02CE068
:1047A0002020010591FAA1F1B1FA81F1084301211C
:1047B000B1EB601F02D1184800680FE0202001050E
:1047C00091FAA1F1B1FA81F108430221B1EB601F26
:1047D00002D11148006A01E00F48406A20210A0511
:1047E00092FAA2F2B2FA82F2114301F01F02012101
:1047F000914008400028C9D04AE000204FF0807165
:1048000091FAA1F1B1FA81F1044A42F82100FFF7CF
:10481000F1F805460DE000000010024000004242A1
:1048200000700040FFF7E6F8401B022801D9032082
:1048300041E42020010591FAA1F1B1FA81F1084388
:104840000121B1EB601F02D1124800680FE0202067
:10485000010591FAA1F1B1FA81F108430221B1EB0E
:10486000601F02D10B48006A01E00A48406A20211B
:104870000A0592FAA2F2B2FA82F2114301F01F0283
:104880000121914008400028CCD101E0012012E430
:10489000002010E400100240042808D14FF0E0216D
:1048A000096941F004014FF0E022116107E04FF087
:1048B000E021096921F004014FF0E0221161704705
:1048C00070B504462546681EB0F1807F01D30120F3
:1048D0000FE0681E4FF0E02148610F214FF0FF30DC
:1048E00000F000FC00204FF0E02188610720086103
:1048F000002070BD7047F8B50446002500262068EA
:10490000006800F001052068C06800F4807625B1D9
:104910001EB1E06B40F00100E06320680068C0F366
:1049200040052068406900F0010625B11EB1E06B2A
:1049300040F00400E06320680068C0F3800525B102
:104940001EB1E06B40F00200E06320680068C0F335
:10495000C00525B11EB1E06B40F00800E06320689F
:104960000068C0F340152068C06800F020061DB143
:1049700016B1204601F00CFA20680068C0F3C0159B
:104980002068C06800F080061DB116B1204601F015
:1049900041FB20680068C0F380152068C06800F003
:1049A00040061DB116B1204601F0DAF9E06B70B196
:1049B00000BF20680068009020684068009000BF39
:1049C00000BF012084F839002046FFF793FFF8BDAF
:1049D00010B504460CB9012010BDA06900B100E07B
:1049E00000BF94F8390028B9002084F83800204628
:1049F00000F025F8022084F839002068C06820F40F
:104A000000502168C860204601F020FA2068006943
:104A100020F49040216808612068406920F02A0055
:104A2000216848612068C06840F400502168C8606F
:104A30000020E063012084F839000020CCE77047B3
:104A400030B50346002493F83940012C01D0122CD4
:104A500037D101B10AB9012030BD00BF93F8380049
:104A6000012801D10220F7E7012083F8380000BFB8
:104A700099629A85DA850020D86393F83900122864
:104A800003D1322083F8390002E0222083F8390074
:104A900000BF002083F8380000BF1868C06840F4E9
:104AA00080701D68E8601868406940F001001D686A
:104AB00068611868C06840F020001D68E860002048
:104AC000CAE70220C8E77047704700BFFEE7000052
:104AD00010B586B0044600BF1E48806940F004004F
:104AE0001C4988610846806900F00400019000BFFD
:104AF00000BF00BF0846806940F4804088610846D6
:104B0000806900F48040019000BF00BF481502900A
:104B100002200390012004900320059002A90E4872
:104B2000FEF7C2FD4FF48060029002A90A48FEF72A
:104B3000BBFD0A480A4908600846446000218160BC
:104B4000C160016181610C214161FFF741FF06B045
:104B500010BD000000100240000801400038014074
:104B60005811002010B50446224608210148FEF7DE
:104B70003BFF10BD001C014000B585B000BF0D48D3
:104B8000806940F080000B4988610846806900F028
:104B90008000009000BF00BF08200190012002901B
:104BA000032004900120039001A90348FEF77CFD37
:104BB00005B000BD00100240001C014000BFFEE730
:104BC00038B505460D480068B0B100236A4629464D
:104BD0000A48006805F0A2FB0446012C02D008A098
:104BE000FBF7B2FB009838B14FF080500C490860D9
:104BF000BFF34F8FBFF36F8F38BD0000140200204A
:104C00007573617274206964656C206164642071DD
:104C100075657565206661696C65640D0A00000044
:104C200004ED00E0782004F093FB05463C2004F0FE
:104C30008FFB044638E100235A1E29469B48006832
:104C400005F04EF929469AA0FBF77EFB9C48407878
:104C500001281ED19A4901230022D1F86001214682
:104C600005F03EF9012814D121462846FBF7EAFC5D
:104C700078B1934900231A46D1F86001214605F026
:104C80002FF98F4900231A46D1F84001194605F043
:104C900063FA8B48807801282AD1894901230022B0
:104CA000D1F86001214605F01BF9012820D12146E9
:104CB0002846FBF7C7FCD8B1814900231A46D1F832
:104CC0006001214605F00CF97D48D0F8600138B14B
:104CD0007B4902230022D1F85401294605F03CFA11
:104CE000774900231A46D1F84401194605F034FAF1
:104CF0007348007901282AD1714901230022D1F893
:104D00006001214605F0ECF8012820D12146284613
:104D1000FBF798FCD8B16A4900231A46D1F8600124
:104D2000214605F0DDF86648D0F8580138B16449ED
:104D300002230022D1F85801294605F00DFA6049F6
:104D400000231A46D1F84801194605F005FA5C48D7
:104D5000407901282AD15A4901230022D1F8600163
:104D6000214605F0BDF8012820D121462846FBF751
:104D700069FCD8B1524900231A46D1F86001214696
:104D800005F0AEF84E48D0F85C0138B14C4902232A
:104D90000022D1F85C01294605F0DEF948490023DC
:104DA0001A46D1F84C01194605F0D6F94448C078A6
:104DB000012819D143A12846FBF744FCA0B141A129
:104DC0002846FBF73FFC064640A13046FBF73AFC7D
:104DD00048B13F48006830B100231A4619463C48A4
:104DE000006805F0B9F900BF3A48006870B13AA10F
:104DF0002846FBF727FC48B13648006830B100234D
:104E00001A4619463348006805F0A6F93548006887
:104E100070B135A12846FBF715FC48B13148006850
:104E200030B100231A4619462E48006805F094F95F
:104E30002FA12846FBF706FC48B12F48006830B187
:104E400000231A4629462C48006805F085F92BA155
:104E50002846FBF7F7FB48B12A48006830B1002329
:104E60001A4629462748006805F076F926A1284603
:104E7000FBF7E8FB48B12748006830B100231A4629
:104E800029462448006805F067F923A12846FBF766
:104E9000D9FB30B1214900231A46C86C194605F0E8
:104EA0005BF9642004F02AFDC5E60000140200202E
:104EB000476574206275662025730D0A00000000A6
:104EC000B00000204D495043414C4C002E000000E2
:104ED000EC1000202C0200207265677265706F6B09
:104EE00000000000300200206373717265700000E2
:104EF000646576636D64000034020020636861635A
:104F00006D64000028020020636865636B67657448
:104F100000000000F41000204F4B00009C660020B1
:104F20002DE9F04106460C46C82004F011FA074668
:104F3000C8213846FBF766FC44B914A13846FBF794
:104F400093FB31463846FBF7D2FB05E0012C03D139
:104F500031463846FBF788FB0D48006880B10023D6
:104F60005A1E39460A48006805F0F6F80546012D34
:104F700006D008A0FBF7E8F94FF0FF30BDE8F0815C
:104F8000384604F087FB0120F8E7000041542D006B
:104F9000180200204D657373616765206661696C56
:104FA00065640D0A00000000C82004F0D1F9044631
:104FB000002541E0C8212046FBF724FC00235A1EAF
:104FC00021461E48006804F08BFF1DA12046FBF718
:104FD00039FB58B11AA12046FBF734FB0746FF1CEA
:104FE00018488764016D0020884704E015488464F0
:104FF000016D012088470026002517E0681CC5B216
:105000001048C06C78B10F49002341F28832C86C57
:10501000194604F065FF064629460BA0FBF794F9F4
:10502000012E00D103E0022D00DB00E0E6E700BF27
:10503000642004F063FC00BFBCE7000018020020FD
:1050400041542D009C66002025640D0A00000000DC
:1050500070B504460E461546002278210A2004F059
:1050600005FF174908600022C821082004F0FEFE51
:105070001449086003220021012004F0F7FE1249C0
:10508000C864124808650846002141628162C16215
:10509000016314213430FBF7D7FB24210A48FBF7C6
:1050A000D3FB214608482430FBF7DEFA3146064898
:1050B0003430FBF7D9FA29460348FBF7D5FA70BD1F
:1050C00014020020180200209C660020D16F000806
:1050D0007047000002480068C0F3022070470000DB
:1050E0000CED00E010B5002807DA0A07140E054A97
:1050F00000F00F031B1FD45403E00A07130E024AEB
:10510000135410BD18ED00E000E400E070B5032278
:105110000021012004F0AAFE274908600120274948
:10512000C870002421E02549D1F880000021FFF754
:10513000F7FE002342F2107219461F48006804F07F
:10514000CFFE054621461EA0FBF7FEF8012D0BD130
:1051500000201A49C8701848006804F06DFB1DA0B3
:10516000FBF7F2F8012070BD641C032CDBDB1DA0F3
:10517000FBF7EAF820A0FBF7E7F800BF00BF00BF8D
:1051800000BF00BFBFF34F8F00BF00BF00BF1F486D
:10519000006800F4E0601E490843001D1B490860D8
:1051A00000BF00BF00BFBFF34F8F00BF00BF00BFF5
:1051B00000BF00BFFDE70000EC100020B0000020A1
:1051C0004E6574436865636B2025642074696D6562
:1051D000730D0A004E657420436865636B206F6B26
:1051E0000D0A00004E657420436865636B2066619C
:1051F000696C65640D0A000053797374656D205203
:1052000065626F6F74696E670D0A00000CED00E057
:105210000000FA0510B50446012C01DB142C04DD56
:105220000BA0FBF791F800BFFEE7601EC4B2C4EB11
:10523000041202EB44120C4B03EB8200C4EB041289
:1052400002EB441203EB8202D2F8A010884710BD93
:10525000706F7274206E756D62657220697320695B
:105260006E76616C69640A003802002010B504464D
:10527000012C01DB142C04DD0BA0FBF765F800BF4B
:10528000FEE7601EC4B2C4EB041202EB44120C4BE6
:1052900003EB8200C4EB041202EB441203EB820224
:1052A000D2F89410884710BD706F7274206E756DBF
:1052B00062657220697320696E76616C69640A00A8
:1052C0003802002010B50446012C01DB142C04DD4B
:1052D0000BA0FBF739F800BFFEE7601EC4B2C4EBB9
:1052E000041202EB44120C4B03EB8200C4EB0412D9
:1052F00002EB441203EB8202D2F89810884710BDEB
:10530000706F7274206E756D6265722069732069AA
:105310006E76616C69640A003802002070B505463B
:105320002846FDF765FD0446214605A0FBF70CF86D
:10533000E0B200F04BF8204600F010F870BD00001D
:10534000706F7274206572726F7220636D642025B5
:105350006420706F72740D0A000000002DE9F047A0
:10536000044601F02FF8804610A001F034F80546FD
:105370002A4612A1404600F0FBFF204605F01BFD27
:10538000064601F00DF805462A460EA1404600F0FB
:10539000EFFF404601F066F8814601214846FFF7DD
:1053A000BFFD404601F026F8BDE8F08767657470E0
:1053B0006F72746572726F720000000074797065AC
:1053C00000000000706F72740000000010B5044609
:1053D000012C01DB142C04DD0BA0FAF7B5FF00BF94
:1053E000FEE7601EC4B2C4EB041202EB44120C4B85
:1053F00003EB8200C4EB041202EB441203EB8202C3
:10540000516F884710BD0000706F7274206E756D0B
:1054100062657220697320696E76616C69640A0046
:105420003802002010B50446012C01DB142C04DDE9
:105430000BA0FAF789FF00BFFEE7601EC4B2C4EB01
:10544000041202EB44120C4B03EB8200C4EB041277
:1054500002EB441203EB8202116F884710BD00007B
:10546000706F7274206E756D626572206973206949
:105470006E76616C69640A003802002070B50446DB
:105480000D46012C01DB142C04DD0CA0FAF75CFFA7
:1054900000BFFEE7601EC4B2C4EB041101EB44116F
:1054A0000C4B03EB8100C4EB041101EB441103EB43
:1054B0008101CA6F2946904770BD0000706F7274F9
:1054C000206E756D62657220697320696E76616CFD
:1054D00069640A003802002010B50446214606A07F
:1054E000FAF732FF2046FFF7C1FE2046FFF792FE93
:1054F0002046FFF7E7FE10BD506F72742025642030
:1055000073746F7065640D0A00000000F8B50446FE
:105510001CA61DA7002000900A2094FBF0F030305C
:10552000C0B28DF800000A2094FBF0F100FB11409E
:105530003030C0B28DF8010000208DF802000A2042
:1055400003F006FF05460020286068602881314688
:105550002846FBF789F869462846FBF7C8F86946EC
:105560002846FBF7C4F80948006830B100231A4602
:1055700029460648006804F0EFFD284604F08AF842
:10558000F8BD00007372650064726500F0100020C1
:105590002DE9F04115A0FAF7D7FE002400F012FF24
:1055A000054617A000F017FF07463A4616A1284601
:1055B00000F0DEFE284600F055FF0446284600F0C5
:1055C00019FF962003F0C4FE064696213046FBF7ED
:1055D00019F921463046FBF747F801213046FFF71D
:1055E0009FFC304604F056F8BDE8F08172656C65AA
:1055F000617365206465766963650D0A00000000CB
:1056000064656C6F6B0000007479706500000000C9
:105610002DE9F041002400F0D5FE054612A000F06F
:10562000DAFE07463A4612A1284600F0A1FE2846B7
:1056300000F018FF0446284600F0DCFE962003F038
:1056400087FE064696213046FBF7DCF821463046B9
:10565000FBF70AF801213046FFF762FC304604F000
:1056600019F8BDE8F0810000616374726570000094
:10567000747970650000000030B503460C4615468D
:10568000002206E0184600F007F844F822001B1D2F
:10569000521CAA42F6D330BD0146086870472DE976
:1056A000F04704460D4616464FF0000AD046C14664
:1056B000B4F1006F02D304F0030008B1BDE8F08735
:1056C000FDF7DCFFA04604EB86090AE02F683A46A6
:1056D000002321460220FDF779FF00B103E0241DDD
:1056E0002D1D4C45F2D300BFFDF766FF052000F0ED
:1056F00029FF00BFE2E700002DE9F04786B005462C
:105700000E46174603F04AFF4FF0000A00200190B2
:10571000A5F100684FEAD8244FF0006101EBC420E6
:105720008A141D49FFF7A8FFC8F38809002007E085
:1057300056F8201009EB0002174B43F82210401CCA
:10574000B842F5D3002002904FF0006000EBC42077
:10575000049001200590FDF791FF01A902A8FDF733
:10576000D3FEFDF729FF4CF25030FDF7B5FA824623
:1057700001A902A8FDF7C8FE10B106B0BDE8F08788
:105780004FF0006101EBC4200A140349FFF787FFC3
:1057900003F048FF00BFF0E7F066002070B5044654
:1057A000402003F0D5FD054640212846FBF72AF8A6
:1057B0000AA12846FAF758FF21462846FAF797FF2C
:1057C00009A12846FAF793FF102229460948FFF756
:1057D00093FF284603F05EFF70BD0000736F636B9C
:1057E0006574737461727400736F636B6574656E56
:1057F0006400000000AA07082DE9F04705464FF0B5
:105800000008C14621A12846FAF71CFF00283AD01B
:10581000294620A0FAF798FD20A0FAF795FD00246C
:1058200021A12846FAF70EFF0446E41D142003F0D8
:105830008FFD06461E2003F08BFD074614213046DF
:10584000FAF7E0FF1E213846FAF7DCFF002003E0FC
:1058500021783154641C401C0428F9DB002003E04B
:1058600021783954641C401C1628F9DB304600F0BE
:105870001FF83846FFF792FF304603F00BFF38461B
:1058800003F008FF00BFBDE8F08700007570646199
:10589000746564000D0A25730D0A0000666F74615B
:1058A000207375630D0A0000757064617465730080
:1058B00070B50446402003F04BFD054640212846C4
:1058C000FAF7A0FF0AA12846FAF7CEFE214628469D
:1058D000FAF70DFF09A12846FAF709FF1022294619
:1058E0000948FFF709FF284603F0D4FE70BD000009
:1058F000766973696F6E7374617274007669736927
:105900006F6E656E6400000080A907082DE9F04104
:1059100005462846FDF744FA04462846FDF714FAE2
:105920000646214609A0FAF70FFDE0B2FFF77AFD1F
:10593000304605F03FFC0746E0B23946FFF79EFDD2
:105940002046FFF7E3FDBDE8F0810000506F727460
:1059500020256420636861726765730D0A0000008A
:1059600004462046FFF748FF10A0FAF7EDFC00BF01
:1059700000BF00BF00BF00BFBFF34F8F00BF00BF1D
:1059800000BF0F48006800F4E0600E490843001DA6
:105990000B49086000BF00BF00BFBFF34F8F00BFBF
:1059A00000BF00BF00BF00BFFDE70000537461727D
:1059B00074696E6720466F7461202121210D0A00F1
:1059C0000CED00E00000FA057CB5054603F0E6FDAD
:1059D0004C48D0F83001012300224FF4FA610090C6
:1059E00049A004F0BFFF4C4908604C480223012243
:1059F00042F21071009044A004F0B4FF48490860DE
:105A000048480323012242F21071009046A004F09E
:105A1000A9FF4849086048480423012247490090EB
:105A200047A004F09FFF4949086049A251A154A032
:105A3000FFF70EFB334846A24EA1D0F83C3150A0F0
:105A400098475248042100238A01CDE9001050A153
:105A5000524804F03BFD5248032100234FF480726A
:105A6000CDE900104FA1514804F030FD504802210B
:105A700000238022CDE900104EA1514804F026FDFC
:105A80005048022100238022CDE900104EA1514848
:105A900004F01CFD5048012100238022CDE90010B4
:105AA0004EA1524804F012FD04F050FD04464FF0A0
:105AB000FF3000232246012100901748006804F0BF
:105AC000A3FF04F043FD04464FF0FF3000232246BD
:105AD000012100901748006804F096FF04F036FD9D
