:020000040800F2
:10000000405E0020B5020008F12000081F1C000817
:10001000111D000841090008E12600080000000049
:100020000000000000000000000000001D020008A9
:10003000450900080000000061020008D322000802
:10004000CF020008CF020008CF020008CF0200084C
:10005000CF020008CF020008CF020008CF0200083C
:10006000CF020008CF020008CF020008CF0200082C
:10007000CF020008CF020008CF020008CF0200081C
:10008000CF020008CF020008CF020008CF0200080C
:10009000CF020008CF020008CF020008CF020008FC
:1000A000CF020008CF020008CF020008CF020008EC
:1000B000CF020008CF020008CF020008CF020008DC
:1000C000CF020008CF020008CF020008CF020008CC
:1000D000CF0200086126000871260008CF02000840
:1000E000CF020008CF020008CF020008CF020008AC
:1000F000CF020008CF020008CF020008CF0200089C
:10010000CF020008CF020008CF020008CF0200088B
:10011000CF020008CF020008CF020008CF0200087B
:10012000CF020008CF020008CF020008CF0200086B
:1001300000F002F800F062F80AA090E8000C824497
:100140008344AAF10107DA4501D100F057F8AFF274
:10015000090EBAE80F0013F0010F18BFFB1A43F0A5
:1001600001031847E4560000045700000A444FF00A
:10017000000C10F8013B13F0070408BF10F8014B06
:100180001D1108BF10F8015B641E05D010F8016B4B
:10019000641E01F8016BF9D113F0080F1EBF10F8AF
:1001A000014BAD1C0C1B09D16D1E58BF01F801CBD2
:1001B000FAD505E014F8016B01F8016B6D1EF9D555
:1001C0009142D6D37047000000230024002500266A
:1001D000103A28BF78C1FBD8520728BF30C148BFAA
:1001E0000B607047642900F0D180732900F05B83B5
:1001F000002070471FB51FBD10B510BD00F072FB89
:100200001146FFF7F7FF02F003FE00F090FB03B486
:10021000FFF7F2FF03BC02F0F2FA0000224B19686C
:100220000868B0E8F00F80F30988BFF36F8F4FF0D4
:10023000000080F311884EF00D0E704700000000A2
:1002400006480068006880F3088862B661B6BFF3AC
:100250004F8FBFF36F8F00DF00BF00BF08ED00E0DE
:10026000EFF30980BFF36F8F0F4B1A6820E9F00F8F
:10027000106008B54FF0500080F31188BFF34F8F26
:10028000BFF36F8F04F06AFB4FF0000080F311881A
:10029000BDE8084019680868B0E8F00F80F30988E5
:1002A000BFF36F8F704700BF28000020EFF3058079
:1002B000704700000948804709480047FEE7FEE70D
:1002C000FEE7FEE7FEE7FEE7FEE7FEE7FEE7FEE706
:1002D00004480549054A064B70470000E52200081E
:1002E0003101000840580020405E0020405A0020A4
:1002F000405A0020704700000FB4044910B503AA0B
:10030000029800F0D5FA10BC5DF814FB2000002024
:100310000FB41CB5074B06AA7B44694600900598AC
:1003200000F097FA0020694600F0A6FA1CBC5DF8C0
:1003300014FB00005D05000070B50C460546012A5F
:1003400005D02878800600D5EA69002302E0012361
:1003500005E05B1C934202D2E05C0028F9D1A86959
:10036000E618C01AA861286A184428622846AFF324
:10037000008004E0D5E9012114F8010B9047B44254
:10038000F8D32846AFF3008070BD00002DE9F0419E
:100390000646002410687529314616A510D0AFF323
:1003A0000080002802DA404213A507E031688A077E
:1003B00001D512A502E0490704D511A5012401E0E9
:1003C000AFF3008000210A2206F1240709E0B0FB08
:1003D000F2FCB0FBF2F302FB1C00303078541846FC
:1003E000491C0028F3D123462A463046BDE8F04197
:1003F00000F0D1B9000000002D0000002B0000002B
:10040000200000002DE9F05F894604464FF0000A05
:10041000DFF824B1FB44C0F820A02046E1688847FB
:1004200000287DD0252806D0D4E901219047206AF4
:10043000401C2062F1E700255F462046E1688847BE
:100440002028064607DB312E05D2B81910F8200CFB
:1004500008B10543F1E7A80701D525F00405C4F864
:100460001CA00027C4F818A02A2E09D0304602F09C
:10047000BFF938B304EB8708303EC8F8186019E0BC
:1004800059F8041B204604EB87029161E168884714
:10049000012F064618D1E069002820DA25F0200552
:1004A0001DE0D8F8180000EB800006EB4000303863
:1004B000C8F818002046E1688847064602F098F917
:1004C0000028EED1012F0AD02E2E08D12046E16857
:1004D00088477F1C0646022F45F02005C4DBA06933
:1004E000002803DA404245F00105A061E80701D089
:1004F00025F01005A6B1A6F14100192802D8203632
:1005000045F400654A463146204625604D46FFF7D2
:1005100069FE60B1012807D0ED1D25F0070000E05D
:1005200007E000F1080978E705F1040975E73046AE
:100530007AE7206ABDE8F09F1853000030B5054601
:100540000B462A4613F8014B12F8010B08B1A042E2
:10055000F8D01CB1002802D06D1CF1E7284630BD50
:1005600040EA0103024630B59B0710D14FF0013439
:1005700000E008C208C91D1B9D4315EAC41FF8D03E
:1005800013F0FF0102F8011B0DD01B0AF8E711F868
:10059000013B002B02F8013B05D011F8013B002B79
:1005A00002F8013BF3D130BD10B5431C02E010F856
:1005B000011B71B18107FAD14FF0013202C88C1AC8
:1005C0008C4314EAC211F9D0C01A0A0603D0C01E27
:1005D00010BDC01A10BD0A0401D0801E10BD090252
:1005E000FCD0401E10BD421E12F8013F002BFBD173
:1005F00011F8013B002B02F8013BF9D17047032AA7
:1006000040F2308010F0030C00F0158011F8013B2F
:10061000BCF1020F624498BF11F801CB00F8013B16
:1006200038BF11F8013BA2F1040298BF00F801CBDA
:1006300038BF00F8013B11F0030300F02580083AB1
:10064000C0F0088051F8043B083A51F804CBA0E808
:100650000810F5E7121D5CBF51F8043B40F8043B5D
:10066000AFF30080D20724BF11F8013B11F801CB92
:1006700048BF11F8012B24BF00F8013B00F801CB63
:1006800048BF00F8012B704710B5203AC0F00B802E
:10069000B1E81850203AA0E81850B1E81850A0E886
:1006A0001850BFF4F5AF5FEA027C24BFB1E81850E0
:1006B000A0E8185044BF18C918C0BDE810405FEA50
:1006C000827C24BF51F8043B40F8043B08BF7047CC
:1006D000D20728BF31F8023B48BF11F8012B28BFD1
:1006E00020F8023B48BF00F8012B704702F0FF03DF
:1006F00043EA032242EA024200F002B84FF000024D
:100700000429C0F0128010F0030C00F01B80CCF123
:10071000040CBCF1020F18BF00F8012BA8BF20F891
:10072000022BA1EB0C0100F00DB85FEAC17C24BFE5
:1007300000F8012B00F8012B48BF00F8012B70478F
:100740004FF0000200B5134694469646203922BF6A
:10075000A0E80C50A0E80C50B1F12001BFF4F7AFB5
:10076000090728BFA0E80C5048BF0CC05DF804EB97
:10077000890028BF40F8042B08BF704748BF20F805
:10078000022B11F0804F18BF00F8012B7047704703
:100790007047704770472DE9F0470D4699469246DD
:1007A000044600F124080168880604D5E06921F0B8
:1007B0001001216000E00120A84201DD471B00E09C
:1007C0000027A1697A1902EB0900081AA0612078B4
:1007D000C00602D42046AFF30080002608E0D4E92A
:1007E00001211AF806009047206A401C761C2062FE
:1007F0004E45F4DB2078C0060AD52046AFF30080D2
:1008000006E0D4E9012130209047206A401C206294
:10081000381EA7F10107F4DC07E0D4E9012118F83C
:1008200005009047206A401C2062281EA5F10105A2
:10083000F3DC2046AFF300802078000602D50220CA
:10084000BDE8F0870120FBE701694A1C02610878D6
:10085000704700B58FB0CDE9013100210591054900
:100860007944CDE9031011466846FFF7CBFD0FB080
:1008700000BD0000E5FFFFFF0A6802F8010B0A60F7
:10088000704710B5436913B1AFF3008001E0FFF783
:1008900053FD012010BD127800F124010A700022DE
:1008A0004A700122EDE711684FF0FF32E9E70000DE
:1008B000074B70B50D467B44FFF7CBFF0446284637
:1008C00000F008F810B14FF0FF3070BD204670BD49
:1008D0003B250000007B00F0800070470048704717
:1008E000E05700207546FFF7F9FFAE460500694660
:1008F000534620F00700854618B020B5FFF7E8FC06
:10090000BDE820404FF000064FF000074FF0000810
:100910004FF0000B21F00701AC46ACE8C009ACE891
:10092000C009ACE8C009ACE8C0098D46704710B5F5
:100930000446AFF300802046BDE81040FFF767BCD7
:1009400000BFFEE7704731B5002400F0AFF9044660
:1009500000BF00F0ABF9001B00998842F9D338BD05
:100960002DE9F84702460024002000258446002790
:1009700000237BE14FF0010808FA03F4D1F800806E
:1009800008EA0400A0427DD1DFF8ECA2D1F804808F
:10099000A8EB0A09D0453AD014DCB8F1030F50D0C7
:1009A00009DCB8F1000F31D0B8F1010F1CD0B8F15B
:1009B000020F49D120E0B8F1110F18D0B8F1120F91
:1009C00042D11EE0B9F5881F25D006DCB9F5803F7D
:1009D00020D0B9F5801F37D11AE0B9F5001F18D023
:1009E000B9F5041F30D117E0D1F80CC02DE0D1F8D3
:1009F0000C8008F1040C28E0D1F80C8008F1080CF8
:100A000023E0D1F80C8008F10C0C1EE000BF00BF01
:100A100000BF00BF00BF00BFD1F80880B8F1000FD1
:100A200002D14FF0040C0BE0D1F80880B8F1010FAF
:100A300003D14FF0080C146102E04FF0080C546130
:100A400003E04FF0000C00E000BF00BFFF2801D81A
:100A5000904601E002F104084646FF2802D84FEA1A
:100A6000830803E0A3F108084FEA88084746D6F850
:100A700000804FF00F0909FA07F928EA09080CFA73
:100A800007F900E07AE048EA0908C6F80080D1F8E2
:100A9000048008F08058B8F1805F6FD100BFDFF8A4
:100AA000DC81D8F8188048F00108DFF8D091C9F847
:100AB0001880C846D8F8188008F00108CDF80080E2
:100AC00000BF00BF4FEAB9384FEA930958F82950E0
:100AD0004FEA83784FEA18794FF00F0808FA09F8BF
:100AE00025EA0805DFF89881424502D14FF0000859
:100AF00024E0DFF89081424502D14FF001081DE06B
:100B0000DFF88481424502D14FF0020816E0DFF899
:100B10007C81424502D14FF003080FE0DFF870817D
:100B2000424502D14FF0040808E0DFF868814245F1
:100B300002D14FF0050801E04FF006084FEA837933
:100B40004FEA197908FA09F848EA0505DFF84881FB
:100B50004FEA930948F82950D1F8048008F4803806
:100B6000B8F5803F0BD1DFF83481D8F8008048EA2F
:100B70000008DFF82891C9F800800AE075E0DFF886
:100B80001C81D8F8008028EA0008DFF81091C9F825
:100B90000080D1F8048008F40038B8F5003F0ED189
:100BA000DFF8F88008F10408D8F8008048EA000867
:100BB000DFF8E89009F10409C9F800800DE0DFF8DA
:100BC000DC8008F10408D8F8008028EA0008DFF883
:100BD000CC9009F10409C9F80080D1F8048008F428
:100BE0008018B8F5801F0ED1DFF8B08008F1080832
:100BF000D8F8008048EA0008DFF8A09009F1080959
:100C0000C9F800800DE0DFF8948008F10808D8F8F2
:100C1000008028EA0008DFF8849009F10809C9F883
:100C20000080D1F8048008F40018B8F5001F0ED138
:100C3000DFF8688008F10C08D8F8008048EA00085E
:100C4000DFF8589009F10C09C9F800800DE0DFF8D1
:100C50004C8008F10C08D8F8008028EA0008DFF87A
:100C60003C9009F10C09C9F800805B1C102BFFF4C3
:100C700081AEBDE8F88700000000111000100240AE
:100C800000080140000C0140001001400014014028
:100C900000180140001C0140080001400004014010
:100CA0000AB1016101E00B0403617047014800686B
:100CB000704700001800002010B50848006840F098
:100CC000100006490860052000F068F80F2000F0C9
:100CD00007F800F017F8002010BD000000200240C7
:100CE00070B5044600F0BAF94FF47A71B0FBF1F533
:100CF000284600F08FFE00222146501E00F010F81A
:100D0000002070BD704700BF00F01F02012191401C
:100D10004209920002F1E022C2F8001100BF7047C0
:100D20002DE9F05F80460D461646002701F0E2F9F6
:100D3000074639462A46334601F00700C0F1070A44
:100D4000BAF1040F02D94FF0040A01E0C0F1070A1A
:100D5000D14600F1040ABAF1070F02D24FF0000A9F
:100D600001E0A0F1030AD4464FF0010A0AFA09FA99
:100D7000AAF1010A0AEA020A0AFA0CFA4FF0010B78
:100D80000BFA0CFBABF1010B0BEA030B4AEA0B0469
:100D90002146404601F0B6F9BDE8F09F00BF00F0E3
:100DA0000702064B19684FF6FF031940044B0B432B
:100DB00043EA0221014B196000BF70470CED00E0CF
:100DC0000000FA0570B504460D4600269F480068ED
:100DD00000F00700A8420ED29C48006820F00700EF
:100DE00028439A4908600846006800F00700A842B6
:100DF00001D0012070BD207800F00200022807D148
:100E00009348406820F0F000A1680843904948608A
:100E1000207800F0010000287CD0606801282DD1E6
:100E20002020010391FAA1F1B1FA81F108430121D7
:100E3000B1EB601F02D1864800680FE0202001035B
:100E400091FAA1F1B1FA81F108430221B1EB601FDF
:100E500002D17F48006A01E07D48406A20210A03F0
:100E600092FAA2F2B2FA82F2114301F01F020121BA
:100E700091400840002860D10120BBE7606802284B
:100E80002CD12020010591FAA1F1B1FA81F108439A
:100E90000121B1EB601F02D16D4800680FE02020F6
:100EA000010591FAA1F1B1FA81F108430221B1EBF8
:100EB000601F02D16648006A01E06548406A20214F
:100EC0000A0592FAA2F2B2FA82F2114301F01F026D
:100ED00001219140084078BB01208BE720200221AE
:100EE00091FAA1F1B1FA81F108430121B1EB601F40
:100EF00002D15748006810E02020022191FAA1F1A8
:100F0000B1FA81F108430221B1EB601F03D15048CF
:100F1000006A02E054E04E48406A2021022292FA20
:100F2000A2F2B2FA82F2114301F01F0201219140B4
:100F3000084008B901205DE7FFE74548406820F018
:100F400003006168084342494860FFF7AFFE064668
:100F50006068012810D108E0FFF7A8FE801B41F26D
:100F60008831884201D9032044E73948406800F0BD
:100F70000C000428F0D123E06068022810D108E0BA
:100F8000FFF794FE801B41F28831884201D903208B
:100F900030E72F48406800F00C000828F0D10FE03F
:100FA00008E0FFF783FE801B41F28831884201D9B7
:100FB00003201FE72648406800F00C000028F0D10D
:100FC0002248006800F00700A8420ED91F480068B8
:100FD00020F0070028431D4908600846006800F01B
:100FE0000700A84201D0012004E7207800F00400A7
:100FF000042807D11648406820F4E060E1680843FF
:1010000013494860207800F00800082808D11048EB
:10101000406820F46050216940EAC1000C494860F2
:1010200000F04EF80A49496801F0F001F02292FA06
:10103000A2F2B2FA82F2D140064A515CC840064997
:1010400008600F20FFF74CFE0020D3E6002002408E
:1010500000100240185700081400002001480068E2
:10106000704700001400002000B5FFF7F7FF0749A4
:10107000496801F4E0614FF4E06292FAA2F2B2FA38
:1010800082F2D140024A515CC84000BD00100240CB
:101090002857000800B5FFF7E1FF0749496801F448
:1010A00060514FF4605292FAA2F2B2FA82F2D14049
:1010B000024A515CC84000BD001002402857000899
:1010C000F0B585B00FF28C0C9CE8E01001A8A0E808
:1010D000E01024A52D6800950021002400220023A3
:1010E0000020214D696801F00C056DB3042D02D07C
:1010F000082D28D101E01D4828E001F470154FF4B7
:10110000701696FAA6F6B6FA86F6F54001AE735D4D
:1011100001F4803595B1144D6D6805F400354FF438
:10112000003696FAA6F6B6FA86F6F5401DF80540A2
:101130000E4DB5FBF4F505FB03F202E00C4D03FB8D
:1011400005F2104602E000BF084800BF00BF05B02E
:10115000F0BD000002030405060708090A0B0C0D88
:101160000E0F1010010200000010024000127A0061
:1011700000093D0038B504460025207800F0010044
:1011800000287CD0F848406800F00C0004280CD0FF
:10119000F548406800F00C00082837D1F248406854
:1011A00000F48030B0F5803F30D12020010391FA67
:1011B000A1F1B1FA81F108430121B1EB601F02D125
:1011C000E94800680FE02020010391FAA1F1B1FA8B
:1011D00081F108430221B1EB601F02D1E248006AAD
:1011E00001E0E148406A20210A0392FAA2F2B2FA31
:1011F00082F2114301F01F020121914008400028B2
:10120000BFD0606800283AD1012038BD00BF6068B7
:10121000B0F5803F06D1D448006840F48030D24910
:10122000086028E0606858B9CF48006820F4803032
:10123000CD4908600846006820F4802008601AE064
:101240006068B0F5A02F0BD1C748006840F480203B
:10125000C54908600846006840F4803008600AE02C
:10126000C148006820F48030BF4908600846006823
:1012700020F48020086000BF6068C8B300E06FE021
:10128000FFF714FD054606E0FFF710FD401B64283C
:1012900001D90320B9E72020010391FAA1F1B1FAA5
:1012A00081F108430121B1EB601F02D1AE48006813
:1012B0000FE02020010391FAA1F1B1FA81F1084376
:1012C0000221B1EB601F02D1A748006A01E0A648E5
:1012D000406A20210A0392FAA2F2B2FA82F2114382
:1012E00001F01F020121914008400028CCD037E0D6
:1012F000FFE7FFF7DBFC054606E0FFF7D7FC401BE6
:10130000642801D9032080E72020010391FAA1F18C
:10131000B1FA81F108430121B1EB601F02D192487B
:1013200000680FE02020010391FAA1F1B1FA81F1E8
:1013300008430221B1EB601F02D18B48006A01E033
:101340008948406A20210A0392FAA2F2B2FA82F294
:10135000114301F01F020121914008400028CCD127
:10136000207800F0020002284ED17F48406800F04B
:101370000C0050B17C48406800F00C00082844D1B3
:101380007948406800F4803078BB2020022191FA2F
:10139000A1F1B1FA81F108430121B1EB601F02D143
:1013A000714800680FE02020022191FAA1F1B1FA02
:1013B00081F108430221B1EB601F02D16A48006A43
:1013C00001E06948406A2021022292FAA2F2B2FAB0
:1013D00082F2114301F01F0201219140084028B11F
:1013E0002069012802D001200FE70EE05E48006866
:1013F00020F0F800F82292FAA2F2B2FA82F26169C1
:10140000914008435849086091E02069F0B30120F9
:1014100090FAA0F1B1FA81F1544A42F82100FFF7A5
:1014200045FC054606E0FFF741FC401B022801D9B8
:101430000320EAE62020022191FAA1F1B1FA81F11C
:1014400008430121B1EB601F02D1474800680FE05B
:101450002020022191FAA1F1B1FA81F10843022181
:10146000B1EB601F02D14048006A01E03E48406A8B
:101470002021022292FAA2F2B2FA82F2114301F082
:101480001F02012191400840002800E00FE0CAD06F
:101490003548006820F0F800F82292FAA2F2B2FA79
:1014A00082F26169914008432F4908603FE00020C3
:1014B000012191FAA1F1B1FA81F12C4A42F82100FF
:1014C000FFF7F4FB054606E0FFF7F0FB401B0228A0
:1014D00001D9032099E62020022191FAA1F1B1FA65
:1014E00081F108430121B1EB601F02D11E48006861
:1014F0000FE02020022191FAA1F1B1FA81F1084315
:101500000221B1EB601F02D11748006A01E01648C2
:10151000406A2021022292FAA2F2B2FA82F2114328
:1015200001F01F020121914008400028CCD1207811
:1015300000F0080008284BD1A069A8B3012191FA56
:10154000A1F0B0FA80F0094A02EB8000C0F88014E4
:10155000FFF7ACFB05460BE0FFF7A8FB401B02289A
:1015600006D9032051E6000000100240000042426C
:101570006020022191FAA1F1B1FA81F10843012121
:10158000B1EB601F02D1F948006810E06020022131
:1015900091FAA1F1B1FA81F108430221B1EB601F88
:1015A00003D1F248006A02E013E0F048406A60218B
:1015B000022292FAA2F2B2FA82F2114301F01F0261
:1015C0000121914008400028C6D00120FFF7BBF957
:1015D00041E00020012191FAA1F1B1FA81F1E44A40
:1015E00002EB8101C1F88004FFF760FB054606E0CD
:1015F000FFF75CFB401B022801D9032005E66020B1
:10160000022191FAA1F1B1FA81F108430121B1EB74
:10161000601F02D1D54800680FE06020022191FAD6
:10162000A1F1B1FA81F108430221B1EB601F02D1AF
:10163000CE48006A01E0CD48406A6021022292FA59
:10164000A2F2B2FA82F2114301F01F02012191408D
:1016500008400028CCD1207800F00400042875D17F
:1016600000BFC248C06940F08050C049C861084608
:10167000C06900F08050009000BF00BFBD48006806
:1016800040F48070BB490860FFF710FB054606E098
:10169000FFF70CFB401B642801D90320B5E5B548D2
:1016A000006800F480700028F2D000BFE0680128D4
:1016B00006D1AE48006A40F00100AC49086227E05C
:1016C000E06858B9A948006A20F00100A7490862FB
:1016D0000846006A20F00400086219E0E068052866
:1016E0000BD1A248006A40F00400A04908620846F5
:1016F000006A40F0010008620AE09C48006A20F09D
:1017000001009A4908620846006A20F00400086255
:1017100000BFE068D0B3FFF7C9FA054608E0FFF75D
:10172000C5FA401B41F28831884201D903206CE59B
:101730004020022191FAA1F1B1FA81F1084301217F
:10174000B1EB601F03D18948006810E058E04020E9
:10175000022191FAA1F1B1FA81F108430221B1EB22
:10176000601F02D18148006A01E08048406A402140
:10177000022292FAA2F2B2FA82F2114301F01F029F
:101780000121914008400028C9D039E0FFE7FFF768
:101790008DFA054608E0FFF789FA401B41F28831CF
:1017A000884201D9032030E54020022191FAA1F1BD
:1017B000B1FA81F108430121B1EB601F02D16B48FE
:1017C00000680FE04020022191FAA1F1B1FA81F105
:1017D00008430221B1EB601F02D16448006A01E0B6
:1017E0006248406A4021022292FAA2F2B2FA82F2E0
:1017F000114301F01F020121914008400028CAD185
:10180000E069002873D05948406800F00C000828AF
:101810006ED0E06902286CD100204FF0807191FAFF
:10182000A1F1B1FA81F1524A42F82100FFF73EFAE4
:10183000054606E0FFF73AFA401B022801D90320CB
:10184000E3E42020010591FAA1F1B1FA81F1084306
:101850000121B1EB601F02D1444800680FE0202055
:10186000010591FAA1F1B1FA81F108430221B1EB2E
:10187000601F02D13D48006A01E03C48406A2021D7
:101880000A0592FAA2F2B2FA82F2114301F01F02A3
:101890000121914008400028CCD1206AB0F5803F5A
:1018A00007D13248406820F40030A16808432F492E
:1018B0004860D4E9080108432C49496821F47411AF
:1018C00008432A4948600121080690FAA0F0B0FABE
:1018D00080F0274A42F82010FFF7E8F9054609E0B2
:1018E000FFF7E4F9401B022804D903208DE479E0D6
:1018F00076E02CE02020010591FAA1F1B1FA81F106
:1019000008430121B1EB601F02D1184800680FE0C5
:101910002020010591FAA1F1B1FA81F108430221D9
:10192000B1EB601F02D11148006A01E00F48406A24
:1019300020210A0592FAA2F2B2FA82F2114301F0D2
:101940001F020121914008400028C9D04AE0002030
:101950004FF0807191FAA1F1B1FA81F1044A42F895
:101960002100FFF7A3F905460DE00000001002403A
:101970000000424200700040FFF798F9401B022827
:1019800001D9032041E42020010591FAA1F1B1FA27
:1019900081F108430121B1EB601F02D112480068B8
:1019A0000FE02020010591FAA1F1B1FA81F108437D
:1019B0000221B1EB601F02D10B48006A01E00A4826
:1019C000406A20210A0592FAA2F2B2FA82F2114389
:1019D00001F01F020121914008400028CCD101E014
:1019E000012012E4002010E400100240042808D175
:1019F0004FF0E021096941F004014FF0E02211614C
:101A000007E04FF0E021096921F004014FF0E022E6
:101A10001161704770B504462546681EB0F1807F9D
:101A200001D301200FE0681E4FF0E02148610F2133
:101A30004FF0FF3000F066FB00204FF0E02188619E
:101A400007200861002070BD7047F8B504460025E6
:101A500000262068006800F001052068C06800F4D6
:101A6000807625B11EB1E06B40F00100E063206894
:101A70000068C0F340052068406900F0010625B108
:101A80001EB1E06B40F00400E06320680068C0F322
:101A9000800525B11EB1E06B40F00200E0632068D4
:101AA0000068C0F3C00525B11EB1E06B40F008002E
:101AB000E06320680068C0F340152068C06800F04B
:101AC00020061DB116B1204600F050FC20680068C9
:101AD000C0F3C0152068C06800F080061DB116B1C3
:101AE000204600F085FD20680068C0F3801520685E
:101AF000C06800F040061DB116B1204600F01EFC83
:101B0000E06B70B100BF20680068009020684068FA
:101B1000009000BF00BF012084F839002046FFF785
:101B200093FFF8BD10B504460CB9012010BDA069A3
:101B300000B100E000BF94F8390028B9002084F813
:101B40003800204600F025F8022084F8390020688B
:101B5000C06820F400502168C860204600F064FC92
:101B60002068006920F4904021680861206840697D
:101B700020F02A00216848612068C06840F40050C5
:101B80002168C8600020E063012084F8390000204B
:101B9000CCE7704730B50346002493F83940012C58
:101BA00001D0122C37D101B10AB9012030BD00BFDC
:101BB00093F83800012801D10220F7E7012083F8CB
:101BC000380000BF99629A85DA850020D86393F8BF
:101BD0003900122803D1322083F8390002E0222094
:101BE00083F8390000BF002083F8380000BF186870
:101BF000C06840F480701D68E8601868406940F073
:101C000001001D6868611868C06840F020001D6808
:101C1000E8600020CAE70220C8E77047704700BFAD
:101C2000FEE7000010B586B0044600BF1E4880697C
:101C300040F004001C4988610846806900F00400F7
:101C4000019000BF00BF00BF0846806940F480409B
:101C500088610846806900F48040019000BF00BFA1
:101C60004815029002200390012004900320059063
:101C700002A90E48FEF774FE4FF48060029002A99C
:101C80000A48FEF76DFE0A480A49086008464460A3
:101C900000218160C160016181610C214161FFF718
:101CA00041FF06B010BD00000010024000080140D6
:101CB000003801404802002010B5044622460821A1
:101CC0000148FEF7EDFF10BD001C014000B585B0D6
:101CD00000BF0D48806940F080000B4988610846CC
:101CE000806900F08000009000BF00BF08200190D4
:101CF00001200290032004900120039001A90348D1
:101D0000FEF72EFE05B000BD00100240001C014091
:101D100000BFFEE738B505460D480068B0B10023A6
:101D20006A4629460A48006803F02EF90446012C49
:101D300002D008A0FEF7E0FA009838B14FF08050CA
:101D40000C490860BFF34F8FBFF36F8F38BD0000A1
:101D5000000200207573617274206964656C2061F3
:101D60006464207175657565206661696C65640DD4
:101D70000A00000004ED00E0782002F051F9054669
:101D80003C2002F04DF90446C9E000235A1E2946C2
:101D90006348006802F0DAFE294662A0FEF7ACFA5A
:101DA0006448407801281ED1624901230022D1F8FD
:101DB0006001214602F0CAFE012814D121462846BE
:101DC000FEF7BCFB78B15B4900231A46D1F86001ED
:101DD000214602F0BBFE574900231A46D1F84001C4
:101DE000194602F0EFFF5348807801282AD1514963
:101DF00001230022D1F86001214602F0A7FE01284C
:101E000020D121462846FEF799FBD8B14949002345
:101E10001A46D1F86001214602F098FE4548D0F8F4
:101E2000600138B1434902230022D1F85401294608
:101E300002F0C8FF3F4900231A46D1F84401194671
:101E400002F0C0FF3B48007901282AD1394901231B
:101E50000022D1F86001214602F078FE012820D14D
:101E600021462846FEF76AFBD8B1324900231A46BC
:101E7000D1F86001214602F069FE2E48D0F85801E1
:101E800038B12C4902230022D1F85801294602F02A
:101E900099FF284900231A46D1F84801194602F053
:101EA00091FF2448407901282AD1224901230022A8
:101EB000D1F86001214602F049FE012820D12146D7
:101EC0002846FEF73BFBD8B11A4900231A46D1F841
:101ED0006001214602F03AFE1648D0F85C0138B1A4
:101EE000144902230022D1F85C01294602F06AFF5E
:101EF000104900231A46D1F84C01194602F062FF3E
:101F00000DA12846FEF71AFB30B10C4900231A46F2
:101F1000C86C194602F056FF642002F025FB34E736
:101F200000020020476574206275662025730D0A43
:101F3000000000009C0000204F4B00008C57002048
:101F40002DE9F04106460C46C82002F069F8074624
:101F5000C8213846FEF7D2FB44B914A13846FEF733
:101F6000FFFA31463846FEF73EFB05E0012C03D16F
:101F700031463846FEF7F4FA0D48006880B1002378
:101F80005A1E39460A48006802F01CFF0546012D1A
:101F900006D008A0FEF7B0F94FF0FF30BDE8F081A1
:101FA000384602F0E9F90120F8E7000041542D001D
:101FB000040200204D657373616765206661696C7A
:101FC00065640D0A00000000C82002F029F80446EC
:101FD000002541E0C8212046FEF790FB00235A1E51
:101FE00021461E48006802F0B1FD1DA12046FEF703
:101FF000A5FA58B11AA12046FEF7A0FA0746FF1C21
:1020000018488764016D0020884704E015488464FF
:10201000016D012088470026002517E0681CC5B225
:102020001048C06C78B10F49002341F28832C86C67
:10203000194602F08BFD064629460BA0FEF75CF917
:10204000012E00D103E0022D00DB00E0E6E700BF37
:10205000642002F089FA00BFBCE7000004020020FF
:1020600041542D008C57002025640D0A000000000B
:1020700070B504460E461546002278210A2002F06B
:102080002BFD174908600022C821082002F024FD1A
:102090001449086003220021012002F01DFD1249AD
:1020A000C864124808650846002141628162C16225
:1020B000016314213430FEF743FB24210A48FEF764
:1020C0003FFB214608482430FEF74AFA31460648CD
:1020D0003430FEF745FA29460348FEF741FA70BD51
:1020E00000020020040200208C570020812B0008F1
:1020F0007047000002480068C0F3022070470000EB
:102100000CED00E010B5002807DA0A07140E054AA6
:1021100000F00F031B1FD45403E00A07130E024AFA
:10212000135410BD18ED00E000E400E030B50346A4
:102130000C461546002206E0184600F007F844F861
:1021400022001B1D521CAA42F6D330BD014608686E
:10215000704700007CB5054602F092F82648D0F89A
:102160003001012300224FF4FA61009023A003F014
:102170002FFA264908602648022301224FF47A717B
:1021800000901EA003F024FA2249086022A22BA18D
:102190002DA0FFF76DFF18481FA228A1D0F83C31F1
:1021A00029A098472B48042100238A01CDE900107B
:1021B00029A12C4802F0C0FF2B48032100234FF433
:1021C0008072CDE9001029A12A4802F0B5FF02F083
:1021D000F3FF04464FF0FF30002322460121009018
:1021E0000A48006803F046FA2348006802F0F6F94E
:1021F00002F08AF87CBD00009C0000204F6E655301
:10220000686F7454696D6572000000000C00002056
:10221000B94100081000002054474D6D79736737AD
:1022200044584442425955474565547A7636686366
:10223000416165347A354D39000000006465766986
:1022400063656E616D65000043384F7A4436506BAC
:102250006D395600040000204C4544305461736BC6
:1022600000000000791D0008080000204D7367542D
:1022700061736B00C91F00080000002030B58FB0EB
:1022800005460024012005900004069000200790D8
:1022900002200C90C1030D910E9505A8FEF76AFF70
:1022A00004460CB100BFFEE70F2000900220019011
:1022B000002002904FF480600390002004900221DF
:1022C0006846FEF77FFD04460CB100BFFEE70FB085
:1022D00030BD10B502F060FF012801D002F0E2FB32
:1022E00010BD00001148006840F001000F4908606F
:1022F000084640680E4908400C4948600846006896
:102300000C490840094908600846006820F480200C
:1023100008600846406820F4FE0048604FF41F0043
:102320008860C8030449086070470000001002403C
:102330000000FFF8FFFFF6FE08ED00E010B50446D0
:102340002068C06820F040002168C86094F8390017
:10235000322803D1222084F8390002E0012084F8D9
:1023600039002046FFF75AFC002010BD70B5044626
:10237000002694F83960222E01D0322E52D1A06866
:10238000B0F5805F13D1A56A206940B92068406824
:10239000C0F308002880A06A801CA06219E02068B1
:1023A0004068C0B22880A06A401CA06211E0206989
:1023B00038B920684068C1B2A26A501CA06211708E
:1023C00007E02068406800F07F01A26A501CA0620C
:1023D0001170E08D401E80B2E08508BB2068C068A7
:1023E00020F020002168C86094F83900322803D119
:1023F000122084F839000EE02068C06820F4807054
:102400002168C8602068406920F0010021684861A7
:10241000012084F839002046FFF7FFFB002070BD43
:102420000020FCE70220FAE72DE9F04104460025F0
:102430002068006920F44050E16808432168086181
:102440002169A0680843616940EA01052068C06805
:1024500041F20C61884328432168C86020684069C4
:1024600020F44070A1690843216848615F492068F1
:1024700088425CD1FEF70EFE00EBC00101EB0010BC
:1024800061688900B0FBF1F6FEF704FE00EBC001C5
:1024900001EB001061688900B0FBF1F06421B0FB32
:1024A000F1F000EBC00101EB0010A6EB800032213F
:1024B00001EB00106421B0FBF1F000F0F006FEF734
:1024C000E9FD00EBC00101EB001061688900B0FB81
:1024D000F1F06421B0FBF1F006EB0016FEF7DAFD37
:1024E00000EBC00101EB001061688900B0FBF1F75F
:1024F000FEF7D0FD00EBC00101EB00106168890020
:10250000B0FBF1F06421B0FBF1F000EBC00101EB96
:102510000010A7EB8000322101EB00106421B0FB1A
:10252000F1F000F00F003044216888605BE0FEF7B6
:102530009BFD00EBC00101EB001061688900B0FB5E
:10254000F1F6FEF791FD00EBC00101EB00106168B0
:102550008900B0FBF1F06421B0FBF1F000EBC001A9
:1025600001EB0010A6EB8000322101EB001064218A
:10257000B0FBF1F000F0F006FEF776FD00EBC001D5
:1025800001EB001061688900B0FBF1F06421B0FB41
:10259000F1F006EB0016FEF767FD00EBC00101EB62
:1025A000001061688900B0FBF1F7FEF75DFD00EBFC
:1025B000C00101EB001061688900B0FBF1F06421FB
:1025C000B0FBF1F000EBC00101EB0010A7EB8000C5
:1025D000322101EB00106421B0FBF1F000F00F009C
:1025E000304421688860BDE8F08100000038014077
:1025F00010B50146002391F83930122B01D0322B4F
:102600002CD18868B0F5805F0FD10A6A1088C0F3BA
:1026100008000C686060086918B9086A801C0862C4
:1026200009E0086A401C086205E00C6A601C086248
:1026300020780C686060C88C401E80B2C88458B98D
:102640000868C06820F080000C68E0600868C06816
:1026500040F040000C68E060002010BD0220FCE764
:1026600010B50248FFF7F1F910BD00004802002044
:1026700038B5174800680068C0F3401048B11548E5
:102680000068C4B214490888411C134A11801349D8
:102690000C540F4800680068C0F30010A0B100BFE0
:1026A0000B48006800680090094800684068009086
:1026B00000BF00BF0948FFF72DFB00200649088036
:1026C00078210648FEF73CF80148FFF7BEF938BD0F
:1026D000080200200444004024000020880200205A
:1026E00000BFFEE710B586B0044600BF2E488069E3
:1026F00040F004002C4988610846806900F004001D
:10270000019000BF00BF00BF0846C06940F4003020
:10271000C8610846C06900F40030019000BF00BFE6
:1027200004200290022003900120049003200590D1
:1027300002A91E48FEF714F9082002900020039019
:1027400002A91A48FEF70CF919481A490860084608
:10275000446000218160C160016181610C2141619F
:10276000FFF7E0F9782214491248FFF713FA262000
:10277000FEF7C9FA002206212620FEF7D1FA00BF93
:102780000C480068006801900A48006840680190A1
:1027900000BF00BF07480068C06840F0100005494E
:1027A0000968C86006B010BD001002400008014072
:1027B00000440040080200208802002070B5044652
:1027C0002046FDF7F1FE054600200BE000BF07495B
:1027D000096801F040010029F9D0215C034A121D6B
:1027E0001160401CA842F1DB70BD000000440040B5
:1027F00030380A2801D2012070470020704700BFFE
:102800007047000010B50420FFF7F0F8104800688A
:102810001049B0FBF1F0104908700D4800680D49EF
:10282000B0FBF1F44FF47A70444301200B49088067
:102830004FF0E020006940F002004FF0E021086115
:1028400008464461006940F00100086110BD0000C5
:102850001400002040420F001C0000201E00002039
:1028600070B5034600224FF0E02675690D4E3678AC
:1028700003FB06F44FF0E026B16910E04FF0E026CC
:10288000B06988420BD0884202D20E1A324402E06C
:102890002E1A0E4432440146A24200D300E0EDE776
:1028A00000BF70BD1C00002030B50446002504E0C8
:1028B0004FF47A70FFF7D4FF6D1CA542F8D330BDFA
:1028C0002DE9F04104460E46154600205F49487048
:1028D0008870C87008714871A02001F0A1FB0746FC
:1028E000A0213846FDF70AFF59A0FDF705FD57481E
:1028F000803000218164C164016541651421583034
:10290000FDF71EFF24215148EC30FDF719FF214649
:102910004E48C830FDF724FE31464C48D830FDF70C
:102920001FFE29464948EC30FDF71AFE4CA13846F7
:10293000FDF716FE4549C8313846FDF754FE4CA157
:102940003846FDF750FE4149D8313846FDF74BFE79
:1029500047A13846FDF747FE3C49EC313846FDF7C4
:1029600042FE43A13846FDF73EFE42A13846FDF740
:102970003AFE39464548FDF7F3FD44493348C0F86F
:102980008410A0213846FDF7B9FE41A13846FDF775
:10299000E7FD2E49C8313846FDF725FE40A13846EF
:1029A000FDF721FE2949D8313846FDF71CFE3DA12F
:1029B0003846FDF718FE39463D48FDF7D1FD3C4944
:1029C0002248C0F88C1003220021012002F084F874
:1029D0001E49C1F8400103220021012002F07CF8C9
:1029E0001A49C1F8440103220021012002F074F8C1
:1029F0001649C1F8480103220021012002F06CF8B9
:102A00001249C1F84C0100221E21012002F064F895
:102A10000E49C1F8600100227821012002F05CF823
:102A20000A49C1F8540100227821012002F054F82B
:102A30000649C1F8580100227821012002F04CF823
:102A40000249C1F85C01BDE8F08100009C00002053
:102A50004735313020436F6E6669670D0A0000000C
:102A600041542B434C4F5544415554483D2200009E
:102A7000222C2200696F742D617574682E616C6957
:102A800079756E2E636F6D220D0A00004C56002082
:102A900041542B434C4F55445355423D222F000087
:102AA0002F0000002F676574222C300D0A000000F3
:102AB000EC56002038B517A0FDF71EFC0120184980
:102AC000487000241DE000F003FA002814DD15A072
:102AD000FDF712FC00201249487002F06DFB05461C
:102AE0004FF0FF3000232A4601210090154800686E
:102AF00002F0C0FD012038BD611C13A0FDF7FCFBF6
:102B0000641C052CDFDB19A0FDF7F6FB01F01EFFAE
:102B100000BFFEE7636F6E6E656374790D0A000097
:102B20009C000020436F6E6E6563657420746F2097
:102B3000636C6F7564207375636365737366756C1E
:102B40000D0A000010000020436F6E6E6563742054
:102B5000746F20636C6F7564206661696C656420B6
:102B600025642E2E2E2E2E0D0A0000004465766957
:102B70006365205265626F6F74696E670D0A0000AD
:102B80002DE9F0410546C82001F04AFA0646062024
:102B900001F046FA0446012D42D1C8213046FDF726
:102BA000ADFD00202060A0802C49886CFDF7FCFC66
:102BB00007463A462AA12046FDF7AAFB29A130463E
:102BC000FDF7CEFC254924313046FDF70CFD29A147
:102BD0003046FDF708FD214934313046FDF703FD4D
:102BE00025A13046FDF7FFFC21463046FDF7FBFCF2
:102BF00024A13046FDF7F7FC3046FFF7DFFD6420E7
:102C000001F0B2FC1549886CFFF7D8FD31461EA0D3
:102C1000FDF772FB1148816C20A0FDF76DFB14E0FD
:102C2000C8213046FDF76AFD0C48816C3046FDF73F
:102C300097FC3046FFF7C2FD314613A0FDF75CFB61
:102C40000648816C15A0FDF757FB204601F094FB68
:102C5000304601F091FBBDE8F08100008C57002068
:102C60002564000041542B434C4F55445055423D80
:102C7000222F00002F0000002F64617461222C308D
:102C80002C0000000D0A000073656E64206D6573F2
:102C9000736167653A2025730000000025730D0AF3
:102CA0000000000010B501200D49887000240DE0DF
:102CB00000F0C4F9002804DD0020094988700120D3
:102CC00010BD611C07A0FDF717FB641C052CEFDB92
:102CD0000BA0FDF711FB01F039FE00BFFEE700007D
:102CE0009C00002047657420435351206661696C45
:102CF00065642025642E2E2E2E2E0D0A0000000065
:102D0000446576696365205265626F6F74696E67AA
:102D10000D0A000010B501200D49087100240DE0D6
:102D200000F056FA002804DD00200949087101204E
:102D300010BD611C07A0FDF7DFFA641C052CEFDB5A
:102D40000BA0FDF7D9FA01F001FE00BFFEE700007D
:102D50009C00002047657420494D45492066616903
:102D60006C65642025642E2E2E2E2E0D0A00000088
:102D7000446576696365205265626F6F74696E673A
:102D80000D0A000010B501200D49487100240DE026
:102D900000F0DAFA002804DD00200949487101201A
:102DA00010BD611C07A0FDF7A7FA641C052CEFDB22
:102DB0000BA0FDF7A1FA01F0C9FD00BFFEE700007E
:102DC0009C00002047657420494D53492066616985
:102DD0006C65642025642E2E2E2E2E0D0A00000018
:102DE000446576696365205265626F6F74696E67CA
:102DF0000D0A000000BF054A126802F04002002AD6
:102E0000F9D0C2B2014B1B1D1A6070470038014057
:102E10001CB5FDF751FF4FF4E010FFF72FFA032028
:102E2000FDF7BCFFFFF7EEFC4FF4E130FEF7FAFED2
:102E30004FF4E130FFF756FCFEF748FF0020FEF7A5
:102E40003BFF4FF4FA70FFF72FFD0120FEF734FF30
:102E500041F28830FFF728FD10A0FDF74DFA202041
:102E600001F0DEF8044620212046FDF747FC082249
:102E700021460E48FFF75AF921460DA0FDF73CFA0E
:102E80000E48012100230A02CDE900100CA10F48D1
:102E900002F052F901F004FD00201CBD68656C6C65
:102EA0006F207573617274310D0A000000D007083D
:102EB0006275662025730D0A0000000000000020E6
:102EC00053746172745461736B00000055210008E3
:102ED00070B538A0FDF710FA3BA0FDF70DFA0024FD
:102EE00061E000264248D0F8600190B1404A2432A7
:102EF00052F82410243A0223D2F86001002201F093
:102F000061FF0546012D04D03AA0FDF7F5F9701ECA
:102F100070BD3749603151F824000021FFF710F8E7
:102F20003EE0701CC6B23248D0F8400178B3304958
:102F3000002343F69822D1F84001194601F006FE1D
:102F40000546314630A0FDF7D7F9012D00D128E024
:102F50002749603151F824000021FEF7F1FF244891
:102F6000D0F86001B8B1224A243252F82410243A31
:102F70000223D2F86001002201F024FF0546012D52
:102F800009D023A0FDF7B8F94FF0FF30C0E7FFE705
:102F900024A0FDF7B1F9052E02DB4FF0FF30B7E7B3
:102FA000BFE700BF641C12480078A04299DC0120F2
:102FB000AEE700004735313020436F6E6E656374B5
:102FC000696E670D0A000000506C656173652061D1
:102FD000646420746865206D6F6475656C2072652B
:102FE00073657420636F6D6D616E640D0A0000007F
:102FF0009C0000205265702053656E6420666169F4
:103000006C65640D0A00000025640D0A00000000D4
:103010005265702053656E206661696C65640D0AA7
:10302000000000004E6F20473531302073656D6120
:1030300070686F7265200D0A000000002DE9F041F4
:1030400000264B48D0F8600180B1494A516D0223F7
:10305000D2F86001002201F0B5FE0446012C05D033
:1030600044A0FDF749F9701EBDE8F0814049D1F850
:1030700090000021FEF764FF78E0701CC6B23C4867
:10308000D0F84401002869D03949002343F698223A
:10309000D1F84401194601F059FD044631463AA0E1
:1030A000FDF72AF9012C3ED1782000F0B9FF074640
:1030B0002F4900230A22D1F85401394601F046FD78
:1030C00033A13846FDF73AFA48B32948416D3846EE
:1030D000FDF734FA05462649486DFDF765FA0544C3
:1030E00068782C280BD069782878303800EB80007D
:1030F00001EB400030381E49C1F8C40004E02878D4
:1031000030381B49C1F8C400384601F035F9184879
:10311000D0F8C4101FA0FDF7EFF80120A4E738464F
:1031200001F02AF91DE01249D1F890000021FEF7C4
:1031300007FF0F48D0F8600198B10D4A516D022386
:10314000D2F86001002201F03DFE0446012C08D0B7
:1031500014A0FDF7D1F84FF0FF3085E716A0FDF77A
:10316000CBF8052E02DB4FF0FF307DE785E700004E
:103170009C0000205265702053656E642066616972
:103180006C65640D0A00000025640D0A0000000053
:10319000435351004353512056616C75652025649B
:1031A0000D0A00005265702053656E206661696CDF
:1031B00065640D0A000000004E6F20473531302055
:1031C00073656D6170686F7265200D0A0000000004
:1031D0002DE9F04100254548D0F8600180B1434A0F
:1031E000D16D0223D2F86001002201F0EBFD04460C
:1031F000012C05D03EA0FDF77FF8681EBDE8F081E8
:103200003A49D1F898000021FEF79AFE69E0681C5F
:10321000C5B23648D0F8480100285AD033490023B7
:1032200043F69822D1F84801194601F08FFC044674
:10323000294634A0FDF760F8012C2FD1782000F04A
:10324000EFFE0746294900230A22D1F858013946E2
:1032500001F07CFC2548C16D3846FDF76FF9C8B117
:103260002248C16D3846FDF769F906461F49C86D09
:10327000FDF79AF906440F2231461C489C30FDF7B1
:10328000BEF91A499C3121A0FDF736F8384601F005
:1032900073F827E0384601F06FF81DE01349D1F8C4
:1032A00098000021FEF74CFE1048D0F8600198B15C
:1032B0000E4AD16D0223D2F86001002201F082FD96
:1032C0000446012C08D015A0FDF716F84FF0FF308A
:1032D00094E717A0FDF710F8052D02DB4FF0FF3043
:1032E0008CE794E700BF012088E700009C000020E5
:1032F0005265702053656E64206661696C65640D6B
:103300000A00000025640D0A00000000494D4549EF
:103310002056616C75652025730D0A00526570207A
:1033200053656E206661696C65640D0A00000000DB
:103330004E6F20473531302073656D6170686F7254
:1033400065200D0A000000002DE9F04100254548E8
:10335000D0F8600180B1434A916D0223D2F8600138
:10336000002201F02FFD0446012C05D03EA0FCF701
:10337000C3FF681EBDE8F0813A49D1F894000021EE
:10338000FEF7DEFD69E0681CC5B23648D0F84C0196
:1033900000285AD03349002343F69822D1F84C0133
:1033A000194601F0D3FB0446294634A0FCF7A4FFDC
:1033B000012C2FD1782000F033FE07462949002345
:1033C0000A22D1F85C01394601F0C0FB2548816D25
:1033D0003846FDF7B3F8C8B12248816D3846FDF78D
:1033E000ADF806461F49886DFDF7DEF806440F224A
:1033F00031461C48B030FDF702F91A49B03121A01E
:10340000FCF77AFF384600F0B7FF27E0384600F0B7
:10341000B3FF1DE01349D1F898000021FEF790FD9D
:103420001048D0F8600198B10E4AD16D0223D2F84D
:103430006001002201F0C6FC0446012C08D015A052
:10344000FCF75AFF4FF0FF3094E717A0FCF754FF4A
:10345000052D02DB4FF0FF308CE794E700BF012021
:1034600088E700009C0000205265702053656E6460
:10347000206661696C65640D0A00000025640D0A10
:1034800000000000494D53492056616C75652025A8
:10349000730D0A005265702053656E206661696C79
:1034A00065640D0A000000004E6F20473531302062
:1034B00073656D6170686F7265200D0A0000000011
:1034C0002DE9F04105460E461C4807681C48006877
:1034D000001D00F08BFE50B91948006890F82C10C0
:1034E0000120884017490968814316480160681C1B
:1034F00038B936B112480168091D134800F0B4FE0E
:103500001AE07C190E4800684460BC4207D20C489F
:103510000168091D0D48006800F08CFE0CE00848A9
:103520000168091D0A48006800F084FE0948006827
:10353000844201D207480460BDE8F0813C000020CD
:10354000280000204000002010060020300000204D
:103550002C0000205800002010B5044600F090FE1A
:1035600024480068401C234908602348006840B98B
:10357000214804600846006801280DD100F024FAB3
:103580000AE01E48006838B91B480068C06AE16A52
:10359000884201D81848046019480068401C18493E
:1035A000086008460068A06494F82C100120884048
:1035B00014490968084313490860E16A01EB810175
:1035C000114A02EB8100211D00F04EFE00F09CFE2E
:1035D0000A48006868B108480068C06AE16A884221
:1035E00007D24FF0805009490860BFF34F8FBFF3F7
:1035F0006F8F10BD380000202800002044000020FC
:1036000054000020400000204003002004ED00E0B2
:1036100010B500F035FE10480068D0B90F4800F032
:10362000F9FD0F4800F0F6FD0C480E4908600C4803
:103630000D49086000221021052001F04DFA0649CD
:1036400008600846006820B108A10348006800F03F
:103650004FFF00F059FE10BD6C0000202406002032
:10366000380600206400002068000020546D72516C
:103670000000000070B523E001F068F9134800680D
:1036800008B9012000E00020054601F011FFBDB996
:1036900000F0F6FD0D48C068C468201D00F0A6FDCE
:1036A0000B480068401E0A4908600A480068401E2E
:1036B0000849086000F028FE204600F060F800BFCE
:1036C000044800680028D7D170BD0000FC05002028
:1036D000380000203400002070B504460D46206CF0
:1036E00070B1216CE0680844E0606168E06888427D
:1036F00001D32068E0602846226CE168FCF77FFF78
:1037000070BD2DE9F04104460F4615464FF0000804
:10371000A66B206C40B9206860BB606801F002FEB7
:1037200080460020606025E07DB93946226CA068A3
:10373000FCF765FF216CA0680844A060D4E9011083
:10374000884217D32068A06014E03946226CE068F4
:10375000FCF755FF216CE068401AE0602168E068E2
:10376000884203D2216C6068401AE060022D01D1CA
:1037700006B1761E701CA0634046BDE8F08110B50E
:103780000446206B00F0F8FD204600F0F5FD10BD6A
:103790000146084A126812680AB9012200E00022B4
:1037A0000A600A6822B9034A1268D268106800E009
:1037B000002070476400002030B54FF4A043174844
:1037C00000F007042CB1C01D20F00700134C041BAF
:1037D0001B1B0246124C22600024114D6C60D01855
:1037E000083820F007000F4C206000240D4D2D6894
:1037F0006C600C4D2D682C601146441A4C60094CCD
:1038000024680C60084D4C682C60084D4C682C6096
:103810004FF00044064D2C6030BD00004C060020E7
:103820007800002080000020880000208400002014
:103830008C00002000BFFFF71DFF0648006801282C
:10384000F9D94FF0805004490860BFF34F8FBFF3A0
:103850006F8FF0E74003002004ED00E02DE9F04118
:1038600006460D4617469846069C0DB9246000E0B2
:103870002760E66325640121204601F04BFA84F8B5
:1038800050800020A064BDE8F08100002DE9F05FC9
:1038900082460F4690469B460A9E0C9C4FEA880142
:1038A000A522206BFCF722FFA8F10100216B01EBA0
:1038B000800929F0070909F0070008B9012000E094
:1038C000002028B940F22B321BA120A0FCF714FDE8
:1038D000002507E0795D04F134004155785D00B9B9
:1038E00002E06D1C142DF5D300BF002147200155C7
:1038F000202E00D31F26E662266500206065201D6D
:1039000000F095FC04F1180000F091FC2461C6F170
:103910002000A06164620020A06584F85C005A4623
:103920005146484600F036FC20600B9808B10B98D1
:103930000460BDE8F09F00002E2E5C467265655263
:10394000544F535C7461736B732E63004572726FD6
:10395000723A25732C25640D0A0000002DE9F0470A
:1039600006460D4617469846DDE908940DB101203C
:1039700000E0002028B94FF4C67209A10EA0FCF7A0
:10398000BBFC5CB1FFF744FE2660A561E761C4F8AB
:103990002080C4F82490201D00F049FCBDE8F08789
:1039A0002E2E5C4672656552544F535C74696D658A
:1039B00072732E63000000004572726F723A2573B5
:1039C0002C25640D0A00000010B5002407E004EB6C
:1039D00084010F4A02EB810000F01CFC641C202CC7
:1039E000F5D30C4800F016FC0B4800F013FC0B4814
:1039F00000F010FC0A4800F00DFC0A4800F00AFC38
:103A000004480949086004480849086010BD0000DE
:103A100040030020C0050020D4050020E805002058
:103A2000FC050020100600202C00002030000020A3
:103A300010B50146164800E0006803688B42FBD3CE
:103A40000246436813448B4204D143684C682344C4
:103A5000436001460A464B6813440468A34211D1EF
:103A60000C4C03682468A34208D04B68046864685F
:103A700023444B6003681B680B6005E0054B1B6823
:103A80000B6001E003680B60884200D0016010BD4C
:103A900078000020800000202DE9F04104460D460A
:103AA00016461F464FF0000865602461B5420CD8E9
:103AB000F01BA169884202D34FF0010811E0211DDB
:103AC0000948006800F0B6FB0BE0BE4204D2BD42DC
:103AD00002D34FF0010804E0211D0448006800F003
:103AE000A9FB4046BDE8F08168000020640000208A
:103AF00070B5054600F0C4FBA86B08B9012400E0CE
:103B0000002400F001FC204670BD70B5054600F0B1
:103B1000B7FBA86BE96B884201D1012400E00024C7
:103B200000F0F2FB204670BD2DE9F3410D460098F0
:103B3000846C00272CB940F6CE121AA11EA0FCF707
:103B4000DBFBA06BE16B884201D2012000E000208A
:103B500028B940F6CF1213A117A0FCF7CDFBA06B3C
:103B6000E16B88421BD294F945602A46694620469B
:103B7000FFF7C7FD0746701C60B9606A08B90120ED
:103B800000E0002050B904F1240001F037FC28B116
:103B9000012703E0701C40B284F8450000BF38469E
:103BA000BDE8FC812E2E5C4672656552544F535C15
:103BB00071756575652E63004572726F723A257373
:103BC0002C25640D0A000000F8B505460F46134881
:103BD0000068C068C468201D00F008FBE069012887
:103BE00018D1A06941192B463A462046FFF754FFE9
:103BF00080B1002003462A4601460090204601F08D
:103C000039FD06462EB94FF4027205A10AA0FCF751
:103C100073FB00BF2046616A8847F8BD640000203E
:103C20002E2E5C4672656552544F535C74696D6507
:103C300072732E63000000004572726F723A257332
:103C40002C25640D0A000000F0B587B070E00398E1
:103C500000280CDA04AE2EB940F2E7223AA140A0C7
:103C6000FCF74AFBD6E90020B168904700BF0398F3
:103C700000285DDB059C606908B9012000E0002098
:103C800010B9201D00F0B2FA02A800F0C7F80546EE
:103C900003980A284AD2DFE800F00905072C2E45D0
:103CA00006082D2F00BF00BF00BF00BF0498A26907
:103CB000811803462A462046FFF7EEFEC0B1204693
:103CC000616A8847E069012812D1002000900498B9
:103CD000A169421800231946204601F0CBFC074693
:103CE0002FB940F2213218A11DA0FCF705FB00BF3F
:103CF0001DE000BF1BE000BF0498A061A06908B1EF
:103D0000012000E0002028B94FF44E720EA114A04B
:103D1000FCF7F2FAA06941192B462A462046FFF724
:103D2000BBFE04E0204600F027FB00E000BF00BF20
:103D300000231A4603A90E48006800F007FF002878
:103D400085D107B0F0BD00002E2E5C46726565522D
:103D5000544F535C74696D6572732E6300000000EC
:103D60004572726F723A25732C25640D0A000000AB
:103D70006C000020F8B505460C4600F0E7FD6846EB
:103D800000F04CF80646009820BB44B9B54206D86E
:103D900001F08EFB31462846FFF716FF1CE03CB1D0
:103DA0000E480068006808B9012000E000200446C1
:103DB000A91B22460A48006800F0B0FB01F078FB1E
:103DC00050B94FF0805007490860BFF34F8FBFF3E1
:103DD0006F8F01E001F06CFBF8BD0000680000206F
:103DE0006C00002004ED00E00A490968096809B97F
:103DF000012100E0002121B14FF0FF31064A11609E
:103E000006E004490968C968C868034A4168116046
:103E1000704700002C0000205800002070B50446B8
:103E200001F0CAF9054607480068854204D200F04F
:103E30000BF80120206001E00020206001480560AF
:103E4000284670BD740000202DE9F8432DE021487C
:103E50000068C06805681F480068C068C468201D05
:103E600000F0C4F92046616A8847E06901281CD146
:103E7000A0694619AE4207D966602461211D154824
:103E8000006800F0D7F910E0002003462A460146FA
:103E90000090204601F0EEFB07462FB940F2923227
:103EA0000DA113A0FCF728FA00BF0A4800680068BB
:103EB00008B9012000E000200028C8D00548D0F84B
:103EC00000800F480068034908600D48C0F8008072
:103ED000BDE8F883640000202E2E5C4672656552B2
:103EE000544F535C74696D6572732E63000000005B
:103EF0004572726F723A25732C25640D0A0000001A
:103F0000680000200B480068401C08B9012000E050
:103F1000002020B9F42208A112A0FCF7EDF900BF9F
:103F2000502080F31188BFF34F8FBFF36F8F00BF16
:103F300000BFFEE7900000202E2E5C4672656552A1
:103F4000544F535C706F727461626C655C5256447E
:103F5000535C41524D5F434D335C706F72742E63FE
:103F6000000000004572726F723A25732C25640DB3
:103F70000A00000008B500BF6846FFF709FC0446C8
:103F800020460099FFF7F6FEFFF75EFEF4E770B5F6
:103F9000044600F075F994F945501AE0A06C38B168
:103FA00000212046FFF7C0FD88B100F09DFB0EE028
:103FB000606A08B9012000E0002038B904F124004B
:103FC00001F01CFA18B100F08FFB00E003E0681E5E
:103FD00045B2002DE2DC00BFFF2084F8450000F070
:103FE00093F900F04DF994F9445010E0206908B9B4
:103FF000012000E0002048B904F1100001F0FEF9B2
:1040000008B100F071FB681E45B200E001E0002D30
:10401000ECDC00BFFF2084F8440000F075F970BDAF
:104020002DE9F04104464FF0000800F08FFC3E48B7
:10403000006808B9FFF7C0FB3C4800682040002832
:104040005FD1A4B1083404F0070080B104F0070088
:10405000C0F10800044404F0070008B9012000E0A2
:10406000002020B9BF2232A13BA0FCF745F9002C6B
:1040700047D03D480068844243D83C4E30460568EE
:1040800001E02E462D686868A04202D22868002808
:10409000F7D125480068854233D0306800F1080820
:1040A000286830606868001B102813D92F1907F0A2
:1040B000070008B9012000E0002020B9EC221CA173
:1040C00025A0FCF719F96868001B78606C60384619
:1040D000FFF7AEFC244968680968081A224908609D
:1040E0000846006822490968884203D21E480068D1
:1040F0001F4908600D496868096808436860002026
:10410000286001F0D5F908F0070008B9012000E0A7
:10411000002028B94FF4967205A10FA0FCF7ECF827
:104120004046BDE8F0810000800000208C000020A7
:104130002E2E5C4672656552544F535C706F7274DC
:1041400061626C655C4D656D4D616E675C68656153
:10415000705F342E630000004572726F723A2573EF
:104160002C25640D0A000000840000207800002047
:10417000880000200648006830B10549096801F14F
:104180005400496D491C01600148006870470000F7
:1041900028000020001F4FF080730360001F21F0F3
:1041A00001030360001F034B0360143802602038D2
:1041B00070470000053F000810B50446012108A023
:1041C000FDF7BEFE0849D1F8240180470649D1F821
:1041D000280180470449D1F82C01804710BD000018
:1041E00068656C6C6F0000009C00002001460A6945
:1041F000D1E901309860D1E90103586050688842E4
:1042000001D188685060002008611068401E10606D
:104210001068704700F1080141604FF0FF31816084
:1042200000F10801C16001610021016070470021B7
:104230000161704710B502460B685C1C0CB910692F
:1042400007E002F1080000E04068446824689C42EE
:10425000FAD944684C604C68A160886041600A618A
:104260001468641C146010BD42684A6093688B60D7
:10427000936859609160086103685B1C0360704734
:1042800010B500BF502080F31188BFF34F8FBFF3EC
:104290006F8F00BF0B480068401C0A490860084641
:1042A000006801280DD108480068C0B208B9012093
:1042B00000E0002028B94FF4BD7204A10EA0FCF765
:1042C0001BF810BD9000002004ED00E02E2E5C468F
:1042D00072656552544F535C706F727461626C65A5
:1042E0005C525644535C41524D5F434D335C706F9A
:1042F00072742E63000000004572726F723A25736B
:104300002C25640D0A00000010B50B48006828B980
:1043100040F2811209A114A0FBF7EEFF06480068E5
:10432000401E054908600846006820B9002080F357
:10433000118800BF00BF10BD900000202E2E5C46EB
:1043400072656552544F535C706F727461626C6534
:104350005C525644535C41524D5F434D335C706F29
:1043600072742E63000000004572726F723A2573FA
:104370002C25640D0A00000070B506463546002E57
:1043800035D0083D2C461A4960680968084008B1D4
:10439000012000E0002028B94FF4A07215A11FA051
:1043A000FBF7AAFF206808B9012000E0002028B927
:1043B00040F241120FA119A0FBF79EFF0C49606863
:1043C0000968084098B1206888B909496068096897
:1043D0008843606000F0BAFA1449606809680844CC
:1043E000124908602046FFF723FB01F061F870BD19
:1043F0008C0000202E2E5C4672656552544F535C33
:10440000706F727461626C655C4D656D4D616E6755
:104410005C686561705F342E630000004572726FE6
:10442000723A25732C25640D0A00000084000020D8
:10443000064800684FF47A71B0FBF1F0401E4FF06F
:10444000E021486107200861704700001400002047
:1044500070B5FBF72BFF0546102D11D305F1E020B9
:1044600090F8F04310480078844201DB012000E01E
:10447000002028B94FF42A720CA117A0FBF73CFFCB
:104480001948006800F4E06018490968884201D8BA
:10449000012000E0002028B94FF42E7203A10EA0E5
:1044A000FBF72AFF70BD0000940000202E2E5C4612
:1044B00072656552544F535C706F727461626C65C3
:1044C0005C525644535C41524D5F434D335C706FB8
:1044D00072742E63000000004572726F723A257389
:1044E0002C25640D0A0000000CED00E0980000206F
:1044F000024600200BE0084B53F8303033B9064B2E
:1045000043F8301003EBC0035A6002E0401C082857
:10451000F1D300BF70470000000300202DE9F041F7
:1045200005460E4617462C46FFF7AAFE94F94400AE
:10453000401C10B9002084F8440094F94500401C48
:1045400010B9002084F84500FFF7DEFEA06B28B903
:104550003A46314604F1240000F0F6F82046FFF711
:1045600016FDBDE8F081000070B504460025ACB131
:104570000F48006808B9012000E0002028B940F287
:10458000CF420CA110A0FBF7B7FE00F0DFF900212D
:104590002046FEF795FF00F08BFF05463DB94FF032
:1045A00080500D490860BFF34F8FBFF36F8F70BD10
:1045B000600000202E2E5C4672656552544F535C9D
:1045C0007461736B732E63004572726F723A257358
:1045D0002C25640D0A00000004ED00E070B50546CE
:1045E000FFF74EFE15B92D48006800E02846044646
:1045F000201DFFF7FBFD78B9E06A00EB8000284939
:1046000051F8200040B994F82C1001208840254929
:104610000968814323480160A06A18B104F11800B9
:10462000FFF7E4FD20480068401C1F4908601B4854
:104630000068844209D1211D1C48FFF715FE1C4863
:104640000068401C1A49086009E01A480068401ECA
:10465000184908602046FFF792F8FFF7C5FBFFF7FF
:1046600053FE15480068C0B10C480068844214D15C
:104670001248006808B9012000E0002028B940F283
:1046800065420FA113A0FBF737FE4FF0805015498C
:104690000860BFF34F8FBFF36F8F70BD28000020FD
:1046A000400300204000002054000020FC050020B2
:1046B000340000203800002044000020600000206A
:1046C0002E2E5C4672656552544F535C7461736B59
:1046D000732E63004572726F723A25732C25640D38
:1046E0000A00000004ED00E0012001490860704765
:1046F0004C00002070B504460D462CB940F6063239
:1047000007A10CA0FBF7F8FD0E4801681831204600
:10471000FFF790FD01212846FEF7D2FE70BD000094
:104720002E2E5C4672656552544F535C7461736BF8
:10473000732E63004572726F723A25732C25640DD7
:104740000A0000002800002070B505460E461446F9
:104750002DB940F6313209A10DA0FBF7CDFD10486F
:10476000016818312846FFF77FFD0CB14FF0FF3686
:1047700021463046FEF7A4FE70BD00002E2E5C469A
:1047800072656552544F535C7461736B732E630092
:104790004572726F723A25732C25640D0A00000071
:1047A0002800002070B505462C46002D4BD0264928
:1047B000E06A0968C96A884245D2A06900F00040F1
:1047C00028B921480068C06AC0F12000A061E16AF0
:1047D00001EB81011D4A02EB81016069884201D130
:1047E000012000E0002050B3201DFFF7FFFC78B946
:1047F000E06A00EB8000154951F8200040B994F8B8
:104800002C1001208840124909688143104801603A
:104810000D480068C06AE06294F82C1001208840BE
:104820000B49096808430A490860E16A01EB810104
:10483000064A02EB8100211DFFF716FD03E0024846
:104840000068C06AE06270BD2800002040030020BC
:104850004000002010B504462CB940F6C13205A135
:1048600009A0FBF749FD0C48006820600B48006870
:10487000606010BD2E2E5C4672656552544F535CCD
:104880007461736B732E63004572726F723A257395
:104890002C25640D0A000000500000203C00002080
:1048A0001CB51A4800210B468222CDE9001018A140
:1048B000194800F041FC0446012C02D100F0A0FE92
:1048C0000446012C15D100BF502080F31188BFF39E
:1048D0004F8FBFF36F8F00BF4FF0FF300F4908605D
:1048E00001200F49086000200E49086000F08AF896
:1048F0000BE0601C08B1012000E0002028B940F264
:10490000847209A10DA0FBF7F7FC1CBD5C00002020
:1049100049444C450000000035380008580000208C
:10492000440000203C0000202E2E5C46726565523B
:10493000544F535C7461736B732E63004572726FD6
:10494000723A25732C25640D0A00000002480068A5
:10495000401C0149086070476000002010B51B48EA
:10496000006818B101201A4908602DE0002018499C
:10497000086018480068B0FA80F0C0F11F0404EB2A
:104980008400154951F8200008B1012000E0002002
:1049900028B940F6F62211A115A0FBF7ADFC04EBF7
:1049A00084010D4A02EB810041684968416000F1D1
:1049B000080142688A4202D1416849684160416801
:1049C000C9680F4A116000BF10BD000060000020E0
:1049D0004C00002040000020400300202E2E5C46AA
:1049E00072656552544F535C7461736B732E630030
:1049F0004572726F723A25732C25640D0A0000000F
:104A0000280000201CB52248014609780191FF21A9
:104A1000024611700146097800919DF8001001F0DE
:104A200050011C4A117007211B4A116009E01A4904
:104A30000968491E184A11609DF800104906090EC0
:104A400000919DF8001001F080018029EFD01249FB
:104A500009680902104A11601146098801F4E061F1
:104A600011600B4A019911700C48006840F4700005
:104A70000A4908600846006840F070400860FFF787
:104A8000D7FC002006490860FBF7DAFB00201CBDBC
:104A900000E400E0940000209800002020ED00E0F9
:104AA0009000002010B500BF502080F31188BFF3A4
:104AB0004F8FBFF36F8F00BF00F084FB18B14FF032
:104AC00080500449086000BF002080F3118800BFB7
:104AD00010BD000004ED00E02DE9F84305460E4648
:104AE00090460DB1012000E0002028B94FF4C472B7
:104AF0000DA112A0FBF700FC0EB9002701E005FB99
:104B000006F707F15400FFF78BFA044644B104F1AD
:104B1000540943464A46314628460094FEF79EFE15
:104B20002046BDE8F88300002E2E5C467265655273
:104B3000544F535C71756575652E63004572726FD5
:104B4000723A25732C25640D0A0000002DE9FF47F9
:104B500082B005460E461F464FF0000A2C462CB97F
:104B600040F2DC4261A166A0FBF7C6FB0EB9206CE7
:104B700008B9012000E0002028B940F2DD425BA125
:104B80005FA0FBF7B9FB00F007FB08B9049808B970
:104B9000012000E0002028B94FF49C6253A158A0E6
:104BA000FBF7AAFB00BFFFF76BFBD4F83890B9F115
:104BB000000F3DD0D4F80C8031462046FEF78CFD26
:104BC000DFB9A9F10100A063206810B9FFF7D2FA9C
:104BD0006060206908B9012000E0002010BB04F1EA
:104BE000100000F00BFCE8B14FF08050484908601D
:104BF000BFF34F8FBFF36F8F14E0C4F80C80606A6F
:104C000008B9012000E0002060B904F1240000F0A0
:104C1000F5FB38B14FF080503D490860BFF34F8F2E
:104C2000BFF36F8FFFF770FB012006B0BDE8F08780
:104C3000049818B9FFF768FB0020F6E7BAF1000FF7
:104C400004D16846FFF706FE4FF0010AFFF75CFB50
:104C5000FFF77CFEFFF714FB94F94400401C10B9E9
:104C6000002084F8440094F94500401C10B900204D
:104C700084F84500FFF748FB04A9684600F00CFAE9
:104C800040BB2046FEF734FFF0B1206830B9FFF793
:104C9000F7FA6068FFF786FDFFF736FB04F12400A2
:104CA0000499FFF727FD2046FFF771F900F000FC9B
:104CB00000287FF478AF4FF0805015490860BFF3AB
:104CC0004F8FBFF36F8F6EE72046FFF760F900F05C
:104CD000EFFB68E72046FFF75AF900F0E9FB2046B2
:104CE000FEF706FF0028EED000209EE72E2E5C4641
:104CF00072656552544F535C71756575652E63001E
:104D00004572726F723A25732C25640D0A000000FB
:104D100004ED00E070B505460E462C462CB940F275
:104D20001B121EA122A0FBF7E7FAFFF7A9FAD4E9AC
:104D30000F12206801FB020060600020A063206861
:104D4000A060E06B401E226C216800FB0210E06056
:104D5000FF2084F8440084F845009EB9206908B912
:104D6000012000E00020A8B904F1100000F046FB8B
:104D700080B14FF0805012490860BFF34F8FBFF3EE
:104D80006F8F07E004F11000FFF744FA04F12400EC
:104D9000FFF740FAFFF7B8FA012070BD2E2E5C46EF
:104DA00072656552544F535C71756575652E63006D
:104DB0004572726F723A25732C25640D0A0000004B
:104DC00004ED00E02DE9FF4383B0064688461D460A
:104DD0004FF0000934462CB940F2D92260A165A0F9
:104DE000FBF78AFAB8F1000F01D1206C08B9012055
:104DF00000E0002028B940F2DA2259A15DA0FBF7BB
:104E00007BFA022D02D1E06B012801D1012000E0E4
:104E1000002028B940F2DB2251A156A0FBF76CFA22
:104E200000F0BAF908B9059808B9012000E000209F
:104E300028B940F2DE224AA14EA0FBF75DFA00BF7E
:104E4000FFF71EFAA06BE16B884201D3022D38D127
:104E50002A4641462046FEF754FC0746A06C68B13E
:104E600029462046FEF760FE28B34FF080504549A2
:104E70000860BFF34F8FBFF36F8F1CE0606A08B903
:104E8000012000E0002068B904F1240000F0B6FA27
:104E900088B14FF080503B490860BFF34F8FBFF39C
:104EA0006F8F08E03FB14FF0805036490860BFF384
:104EB0004F8FBFF36F8FFFF727FA012007B0BDE8D0
:104EC000F083059818B9FFF71FFA0020F6E7B9F14B
:104ED000000F04D101A8FFF7BDFC4FF00109FFF757
:104EE00013FAFFF733FDFFF7CBF994F94400401CA8
:104EF00010B9002084F8440094F94500401C10B912
:104F0000002084F84500FFF7FFF905A901A800F08B
:104F1000C3F8F0B92046FEF7F8FDA0B104F1100087
:104F20000599FFF7E7FB2046FFF731F800F0C0FADC
:104F3000002885D14FF0805012490860BFF34F8F91
:104F4000BFF36F8F7CE72046FFF721F800F0B0FA3F
:104F500076E72046FFF71BF800F0AAFA0020ADE73D
:104F60002E2E5C4672656552544F535C71756575A3
:104F7000652E63004572726F723A25732C25640D9D
:104F80000A00000004ED00E02DE9F05F80468A464B
:104F900015461E4644462CB940F29F3235A13AA030
:104FA000FBF7AAF9BAF1000F01D1206C08B9012072
:104FB00000E0002028B94FF468722EA132A0FBF760
:104FC0009BF9022E02D1E06B012801D1012000E003
:104FD000002028B940F2A13226A12BA0FBF78CF9C2
:104FE000FFF736FA00BF5021EFF3118081F31188EB
:104FF000BFF34F8FBFF36F8F00BF0746A06BE16B0E
:10500000884201D3022E2BD194F945B03246514645
:105010002046FEF776FB0BF10100C8B9A06C40B149
:1050200031462046FEF780FDB8B1B5B101202860B9
:1050300013E0606A08B9012000E0002068B904F1BB
:10504000240000F0DBF940B13DB10120286004E00C
:105050000BF1010040B284F845004FF0010901E076
:105060004FF0000900BF87F3118800BF4846BDE834
:10507000F09F00002E2E5C4672656552544F535CC3
:1050800071756575652E63004572726F723A25738E
:105090002C25640D0A0000002DE9F04104460D4660
:1050A0002CB940F6CB3219A11DA0FBF725F92DB97B
:1050B00040F6CC3215A11AA0FBF71EF9FFF7E0F875
:1050C0001B4807682868401C08B9002619E01949E0
:1050D00020680968884204D06068B84201D8012677
:1050E0000FE06068381A2968884209D22868616828
:1050F000791A401A28602046FFF7ACFB002600E032
:105100000126FFF701F93046BDE8F0812E2E5C46FE
:1051100072656552544F535C7461736B732E6300F8
:105120004572726F723A25732C25640D0A000000D7
:105130003C000020500000202DE9FF4F85B0804644
:1051400089461746DDE912ABB800FEF769FF06464F
:1051500056B16020FEF764FF04460CB1266304E0FC
:105160003046FFF709F900E000247CB10020CDE9CA
:1051700000ABCDE902403A4649464046089BFEF75F
:1051800085FB2046FEF7E8F9012501E04FF0FF35E9
:10519000284609B0BDE8F08F0549096809B9012022
:1051A00005E00449096809B9022000E000207047C1
:1051B000440000206000002001490868704700009A
:1051C0003C0000202DE9F0414FF000084148006804
:1051D000002872D140480068451C3F480560EDB981
:1051E0003E480068006808B9012000E0002028B9A6
:1051F00040F6D9123AA13FA0FBF77EF8374807687E
:1052000040480068354908603E4807603E480068ED
:10521000401C3D490860FEF7E7FD00BF3B480068C1
:1052200085423CD300BF2D480068006808B90120C2
:1052300000E0002020B14FF0FF30344908602DE03D
:1052400026480068C068C4686668B54202D22F4824
:10525000066023E0201DFEF7C9FFA06A18B104F123
:105260001800FEF7C3FF94F82C100120884028494D
:105270000968084326490860E16A01EB8101254A73
:1052800002EB8100211DFEF7EFFF2349E06A096868
:10529000C96A8842C7D34FF00108C4E700BF1E485F
:1052A0000068C06A00EB80001A4951F8200001280C
:1052B00001D94FF0010805E0FFE718480068401CDD
:1052C000164908601648006808B14FF001084046CA
:1052D000BDE8F081600000203C0000202C00002090
:1052E0002E2E5C4672656552544F535C7461736B2D
:1052F000732E63004572726F723A25732C25640D0C
:105300000A0000003000002050000020580000205B
:10531000400000204003002028000020480000201A
:105320004C00002070B505462C460026002D4BD0C1
:1053300026480068844201D1012000E0002028B9FD
:1053400040F6C76222A127A0FAF7D6FF606D28B900
:1053500040F6C9621EA123A0FAF7CEFF606D401E81
:105360006065216DE06A88422ED0606D60BB201DB3
:10537000FEF73CFF78B9E06A00EB80001D4951F868
:10538000200040B994F82C10012088401A4909687F
:10539000814319480160206DE062E06AC0F120009D
:1053A000A06194F82C100120884013490968084333
:1053B00011490860E16A01EB81010E4A02EB8100AC
:1053C000211DFEF751FF0126304670BD2800002048
:1053D0002E2E5C4672656552544F535C7461736B3C
:1053E000732E63004572726F723A25732C25640D1B
:1053F0000A000000400300204000002070B506466F
:10540000F068C4682CB940F661321AA11EA0FAF700
:1054100073FF04F11800FEF7E9FE1F480068A8B901
:10542000201DFEF7E3FE94F82C10012088401B4954
:105430000968084319490860E16A01EB8101184ACB
:1054400002EB8100211DFEF70FFF04E004F11801BB
:105450001448FEF709FF1449E06A0968C96A8842DE
:1054600004D9012501201149086000E000252846E3
:1054700070BD00002E2E5C4672656552544F535C21
:105480007461736B732E63004572726F723A257389
:105490002C25640D0A000000600000204000002060
:1054A00040030020E8050020280000204C000020D8
:1054B00070B5002400263448006828B94FF4FD6216
:1054C00032A137A0FAF718FFFEF7DAFE2E4800687F
:1054D000401E2D4908600846006800284FD1344816
:1054E000006800284BD024E03248C068C46804F14A
:1054F0001800FEF77BFE201DFEF778FE94F82C10B6
:10550000012088402C49096808432B490860E16A5A
:1055100001EB8101294A02EB8100211DFEF7A4FE67
:105520002749E06A0968C96A884202D301202549EF
:1055300008602048006808B9012000E00020002829
:10554000D2D00CB1FEF750FC1F48056865B100BF12
:10555000FFF738FE10B101201A4908606D1E002DBA
:10556000F6D10020184908601648006838B10126B5
:10557000300716490860BFF34F8FBFF36F8FFEF7F8
:10558000C3FE304670BD0000600000202E2E5C4639
:1055900072656552544F535C7461736B732E630074
:1055A0004572726F723A25732C25640D0A00000053
:1055B00038000020E80500204000002040030020C3
:1055C000280000204C0000204800002004ED00E0EE
:1055D0002DE9FC4705460E4617469846DDF828900B
:1055E0002C20FEF71DFD04463CB143463A463146A9
:1055F0002846CDE90094FEF7B1F92046BDE8FC87C6
:105600001CB50024FEF704F80B48006858B10B489D
:105610001F2100234FF48272CDE9001008A10A482F
:10562000FFF78AFD04462CB940F2331207A10DA002
:10563000FAF762FE20461CBD6C00002070000020BE
:10564000546D722053766300753F00082E2E5C4621
:1056500072656552544F535C74696D6572732E6345
:10566000000000004572726F723A25732C25640D9C
:105670000A0000002DE9FF4704460D4616461F4666
:10568000DDF830804FF000092CB94FF4D37217A128
:105690001CA0FAF731FE1F48006810B30095019670
:1056A0000294062D15DAFFF777FD022808D10023B2
:1056B0004246694617480068FFF784FB814610E0C0
:1056C00000231A46694613480068FFF77BFB8146B2
:1056D00007E000233A4669460E480068FFF754FC8D
:1056E0008146484604B0BDE8F08700002E2E5C4697
:1056F00072656552544F535C74696D6572732E63A5
:10570000000000004572726F723A25732C25640DFB
:105710000A0000006C0000200000000000000000F3
:105720000102030406070809000000000102030447
:10573000040000080000000000000002000100005A
:105740001000000041542B4D495043414C4C3D3119
:105750002C22434D4E4554220D0A000041542B4348
:105760004D45453D320D0A0041542B434C4F5544A5
:10577000434F4E4E3D37302C302C330D0A00000085
:10578000415469380D0A000041542B4347524547A4
:105790003F0D0A0041542B4D495043414C4C3F0DA5
:1057A0000A00000041542B4350494E3F0D0A0000AF
:1057B00041542B4347534E3F0D0A000041542B43A5
:1057C00053513F0D0A00000041542B434F50533FAB
:1057D0000D0A000041542B43494D490D0A000000B9
:1057E00041540D0A000000002B43494D493A200066
:1057F0002B4353513A2000002B4347534E3A20226B
:10580000000000002E0000002B43475245473A207D
:10581000302C31002B434C4F5544415554483A20CD
:105820004F4B0000434C4F5544434F4E4E00000039
:105830002B4350494E3A2052454144590000000044
:10584000415445300D0A000068580008000000204F
:10585000080200006C010008D4580008080200206B
:10586000385C0000C801000801150478A24A041A37
:10587000AA018102230C132058AA08041A30049AA2
:1058800008101A04041A14045A241013F0571B08A1
:10589000E8041AF8041AE0041A80041A40181A5C82
:1058A000081AA4041A88041AC8041A44041A94048E
:1058B000415A68081ABC081AD4045AB0100184135B
:1058C000A52C1408152D1B0885048BB52A980B2CC4
:0458D000C128A40047
:0400000508000131BD
:00000001FF
