:020000040800F2
:10000000405E0020D5020008ED2F0008EF2C00080C
:10001000892D00081B1800082D380008000000007A
:100020000000000000000000000000003D02000889
:100030001F1800080000000081020008FF330008BC
:10004000EF020008EF020008EF020008EF020008CC
:10005000EF020008EF020008EF020008EF020008BC
:10006000EF020008EF020008EF020008EF020008AC
:10007000EF020008EF020008EF020008EF0200089C
:10008000EF020008EF020008EF020008EF0200088C
:10009000EF020008EF020008EF020008EF0200087C
:1000A000EF020008EF020008EF020008EF0200086C
:1000B000EF020008EF020008EF020008EF0200085C
:1000C000EF020008EF020008EF020008EF0200084C
:1000D000EF020008AD370008BD370008EF02000846
:1000E000EF020008EF020008EF020008EF0200082C
:1000F000EF020008EF020008EF020008EF0200081C
:10010000EF020008EF020008EF020008EF0200080B
:10011000EF020008EF020008EF020008EF020008FB
:10012000EF020008EF020008EF020008EF020008EB
:1001300000F002F800F073F80AA090E8000C824486
:100140008344AAF10107DA4501D100F068F8AFF263
:10015000090EBAE80F0013F0010F18BFFB1A43F0A5
:1001600001031847DC730000FC7300000A444FF0E1
:10017000000C10F8013B13F0070408BF10F8014B06
:100180001D1108BF10F8015B641E05D010F8016B4B
:10019000641E01F8016BF9D113F0080F1EBF10F8AF
:1001A000014BAD1C0C1B09D16D1E58BF01F801CBD2
:1001B000FAD505E014F8016B01F8016B6D1EF9D555
:1001C0009142D6D37047000000230024002500266A
:1001D000103A28BF78C1FBD8520728BF30C148BFAA
:1001E0000B607047662907F0B380652907F0B0807F
:1001F000642900F00181782900F03A81732900F028
:10020000CC85002070471FB500F0DEFD0400002003
:10021000002106F0D1FDE0601FBD10B510BD00F05B
:10022000D3FE1146FFF7EFFF03F034FF00F0F1FEBD
:1002300003B4FFF7F2FF03BC03F09BFB224B1968EA
:100240000868B0E8F00F80F30988BFF36F8F4FF0B4
:10025000000080F311884EF00D0E70470000000082
:1002600006480068006880F3088862B661B6BFF38C
:100270004F8FBFF36F8F00DF00BF00BF08ED00E0BE
:10028000EFF30980BFF36F8F0F4B1A6820E9F00F6F
:10029000106008B54FF0500080F31188BFF34F8F06
:1002A000BFF36F8F05F0AAFE4FF0000080F31188B6
:1002B000BDE8084019680868B0E8F00F80F30988C5
:1002C000BFF36F8F704700BF30000020EFF3058051
:1002D000704700000948804709480047FEE7FEE7ED
:1002E000FEE7FEE7FEE7FEE7FEE7FEE7FEE7FEE7E6
:1002F00004480549054A064B7047000011340008C0
:100300003101000840580020405E0020405A002083
:10031000405A0020704700000FB4044910B503AAEA
:10032000029800F03FFD10BC5DF814FB280000208F
:100330000FB41CB5074B06AA7B446946009005988C
:1003400000F001FD0020694600F010FD1CBC5DF8C6
:1003500014FB0000310A000070B50446856900688E
:10036000C10601D5302600E02026C00707D070BDA9
:10037000D4E9012130469047206A401C20626D1E5E
:10038000F6D570BD70B5044685690078C00707D101
:1003900070BDD4E9012120209047206A401C2062D2
:1003A0006D1EF6D570BD70B50C460546012A05D008
:1003B0002878800600D5EA69002302E0012305E0E1
:1003C0005B1C934202D2E05C0028F9D1A869E618D0
:1003D000C01AA861286A184428622846FFF7BCFFA3
:1003E00004E0D5E9012114F8010B9047B442F8D399
:1003F0002846FFF7C7FF70BD2DE9F04106460024EF
:1004000010687529314616A510D0AFF3008000287A
:1004100002DA404213A507E031688A0701D512A528
:1004200002E0490704D511A5012401E0AFF30080E3
:1004300000210A2206F1240709E0B0FBF2FCB0FB20
:10044000F2F302FB1C00303078541846491C002897
:10045000F3D123462A463046BDE8F04100F007BA02
:10046000000000002D0000002B0000002000000014
:1004700070B504460D4621461068AFF30080218810
:10048000090502D50F4A7A4402E00E4A7A440E3238
:10049000002104F1240305E000F00F060009965D39
:1004A0005E54491C0028F7D120780023000704D5AA
:1004B000702D02D009B1022311322046BDE87040F0
:1004C00000F0D5B9E26E00002DE9F05F89460446E0
:1004D0004FF0000ADFF824B1FB44C0F820A020460A
:1004E000E168884700287DD0252806D0D4E901217D
:1004F0009047206A401C2062F1E700255F462046B5
:10050000E16888472028064607DB312E05D2B81956
:1005100010F8200C08B10543F1E7A80701D525F034
:100520000405C4F81CA00027C4F818A02A2E09D07E
:10053000304603F017FA38B304EB8708303EC8F8AA
:10054000186019E059F8041B204604EB87029161FA
:10055000E1688847012F064618D1E069002820DAB3
:1005600025F020051DE0D8F8180000EB800006EB10
:1005700040003038C8F818002046E1688847064631
:1005800003F0F0F90028EED1012F0AD02E2E08D169
:100590002046E16888477F1C0646022F45F020056B
:1005A000C4DBA069002803DA404245F00105A061E0
:1005B000E80701D025F01005A6B1A6F141001928E1
:1005C00002D8203645F400654A463146204625606B
:1005D0004D46FFF707FE60B1012807D0ED1D25F05D
:1005E000070000E007E000F1080978E705F10409D9
:1005F00075E730467AE7206ABDE8F09FB86E0000E4
:10060000401ECAB210F8011F8A4202D00029F9D157
:100610000020704730B505460B462A4613F8014BBB
:1006200012F8010B08B1A042F8D01CB1002802D08A
:100630006D1CF1E7284630BD40EA0103024630B5A3
:100640009B0710D14FF0013400E008C208C91D1B00
:100650009D4315EAC41FF8D013F0FF0102F8011BF7
:100660000DD01B0AF8E711F8013B002B02F8013B03
:1006700005D011F8013B002B02F8013BF3D130BD4E
:1006800010B5431C02E010F8011B71B18107FAD1CB
:100690004FF0013202C88C1A8C4314EAC211F9D00F
:1006A000C01A0A0603D0C01E10BDC01A10BD0A042D
:1006B00001D0801E10BD0902FCD0401E10BD421E9C
:1006C00012F8013F002BFBD111F8013B002B02F87F
:1006D000013BF9D17047032A40F2308010F0030C3F
:1006E00000F0158011F8013BBCF1020F624498BF85
:1006F00011F801CB00F8013B38BF11F8013BA2F122
:10070000040298BF00F801CB38BF00F8013B11F09C
:10071000030300F02580083AC0F0088051F8043B3C
:10072000083A51F804CBA0E80810F5E7121D5CBFA9
:1007300051F8043B40F8043BAFF30080D20724BFDC
:1007400011F8013B11F801CB48BF11F8012B24BF70
:1007500000F8013B00F801CB48BF00F8012B7047BF
:1007600010B5203AC0F00B80B1E81850203AA0E84C
:100770001850B1E81850A0E81850BFF4F5AF5FEA80
:10078000027C24BFB1E81850A0E8185044BF18C933
:1007900018C0BDE810405FEA827C24BF51F8043BDA
:1007A00040F8043B08BF7047D20728BF31F8023B2E
:1007B00048BF11F8012B28BF20F8023B48BF00F8C2
:1007C000012B704702F0FF0343EA032242EA024290
:1007D00000F002B84FF000020429C0F0128010F0BF
:1007E000030C00F01B80CCF1040CBCF1020F18BF0D
:1007F00000F8012BA8BF20F8022BA1EB0C0100F0A0
:100800000DB85FEAC17C24BF00F8012B00F8012B72
:1008100048BF00F8012B70474FF0000200B51346A7
:1008200094469646203922BFA0E80C50A0E80C5010
:10083000B1F12001BFF4F7AF090728BFA0E80C50C1
:1008400048BF0CC05DF804EB890028BF40F8042BBA
:1008500008BF704748BF20F8022B11F0804F18BF27
:1008600000F8012B704770477047704770472DE9BB
:10087000F0470D4699469246044600F12408016867
:10088000880604D5E06921F01001216000E0012014
:10089000A84201DD471B00E00027A1697A1902EB9D
:1008A0000900081AA0612078C00602D42046FFF78C
:1008B00053FD002608E0D4E901211AF8060090470C
:1008C000206A401C761C20624E45F4DB2078C0066E
:1008D0000AD52046FFF740FD06E0D4E9012130208B
:1008E0009047206A401C2062381EA7F10107F4DC03
:1008F00007E0D4E9012118F805009047206A401C60
:100900002062281EA5F10105F3DC2046FFF73AFD21
:100910002078000602D50220BDE8F0870120FBE721
:1009200070472DE9FF4F0C461E464FF0FF378BB046
:10093000D2E90001DDF860800A908A46C1F30A55C9
:1009400005B93D46002108464FF00000BAF1000FFE
:1009500000F4400005DA00EB80004FF4400101EAAA
:1009600050004FEA9059B9F1010F00DDB9460A98DD
:1009700050EA4A000ED044F61050A5F2FF35454328
:100980002F14B8F1000F1ED07542291E1EDDC9F1CB
:1009900000021CE0B8F1010F4FF0000001D030213F
:1009A00003E0F24305E02154401CB042FBDB30463B
:1009B0000022002121540B99C1F80880C1E90020D0
:1009C0000FB0BDE8F08FBD1B6D1CDEE74A4600DAB4
:1009D000694206A800F082FA06AB93E8070003AB71
:1009E00083E8070050460A9900F05CFB8DE8070099
:1009F000A0F500501F3800900398002D09DD42F249
:100A00001F014A46084403A90390684600F0BBFD55
:100A100008E0A0F500504A461F3803A90390684635
:100A200000F0C5FD8DE807000004000C03D04FF076
:100A3000FF30410800E01046B8F1000F03D000225B
:100A4000009215461EE0751E05D400F0C1F9303243
:100A500062556D1EF9D5B3460122084302D000222B
:100A60007F1C04E02078302801D100227F1E002A5C
:100A7000099786D01DE0112D07DA00F0A9F9303270
:100A800062556D1C50EA0102F5D1084302D000986E
:100A9000C8B10EE00021681E05E0235C625C63546F
:100AA0002254401E491C8142F7DBAB46A81B401E66
:100AB0000990002004F80B000B98099AC0F80880F0
:100AC000C0E9002B7CE711264FF0000859E72DE91B
:100AD000F04F88460446D21D22F0070191B0D1E9BB
:100AE0000001CDE90A0102F029FF02460B98C00F70
:100AF00001D02D2007E02068810701D52B2002E0DE
:100B0000202101EAC000032A099001D0072A05DB51
:100B100003464146204600F0A1F90BE1207880060B
:100B200001D5E06900E00620B8F1650F814606D0E6
:100B3000B8F1660F18D0B8F1670F70D131E000201E
:100B4000B9F1110F009001DB112301E009F101035C
:100B50000AAA01A90CA8FFF7E4FEDDE90C70002643
:100B600009F10105834647E001204B4600904FF014
:100B700000470AAA01A90CA8FFF7D3FEDDE90DB0D2
:100B80000C995D46002610B909F101000D18B9EB6A
:100B9000050003D4C0F1FF3609F10105A5EB0900FA
:100BA0002BE0B9F1010F01DA4FF001090020B9F192
:100BB000110F0090484601DD112300E003460AAA08
:100BC00001A90CA8FFF7ADFEDDE90C704D4600262B
:100BD0008346207800070AD4AB4500DA5D4601A8B9
:100BE000012D04DD411911F8011C302907D04F45B2
:100BF00002DA17F1040F04DA012082460FE06D1EBD
:100C0000EEE7002F02DCED1B3E4403E0781CA84217
:100C100000DD7D1CB81B00F1010A4FF00047207871
:100C2000000703D4AA4501DB4FF0FF3A0021B7F1DA
:100C3000004F0DF143088DF8431024D002202B23E0
:100C4000002F01DA7F422D230A21021EA0F10100AC
:100C500000DC5FB197FBF1FC97FBF1F201FB1C7C20
:100C600017460CF1300C08F801CDEEE7A8F10100B1
:100C700003702188090501D5452100E06521A0F117
:100C8000010800F8011C09980FA9A1EB0807FF1D36
:100C900000B10120411901EBEA70A1693844081A3A
:100CA000401EA0612078C00602D42046FFF754FB06
:100CB000099828B1D4E901219047206A401C20629C
:100CC0002078C00622D52046FFF746FB1EE0002E06
:100CD00004DBB34502DD01A8805D00E03020D4E9EB
:100CE00001219047206A401C2062761CAAF1010075
:100CF0005FEA000A0AD100F067F8C0680168405C4A
:100D0000D4E901219047206A401C2062281EA5F1E9
:100D10000105DCDC07E0D4E9012118F8010B90475C
:100D2000206A401C2062381EA7F10107F3DC204630
:100D3000FFF728FB032011B043E6000001694A1CBD
:100D400002610878704700B58FB0CDE9013100210C
:100D5000059105497944CDE9031011466846FFF72E
:100D6000B3FB0FB000BD0000E5FFFFFF0A6802F80B
:100D7000010B0A60704710B5436913B1AFF30080EF
:100D800001E0FFF710FB012010BD127800F12401F3
:100D90000A7000224A700122EDE711684FF0FF321D
:100DA000E9E70000074B70B50D467B44FFF7CBFF2A
:100DB0000446284600F000F910B14FF0FF3070BD36
:100DC000204670BDCB32000000487047FC57002021
:100DD00030B5B0F10A024FEA900E71F100034EEA0D
:100DE000817EB0EB0E0061EB91014FEA101E4EEADE
:100DF000017E10EB0E0041EB11114FEA102E4EEA6E
:100E0000016E10EB0E0041EB11214FEA104E4EEA3D
:100E1000014E10EB0E0041EB1141401841F1000171
:100E20004FEAD00040EA41704FEAD10110EB800553
:100E30004FEA810444EA907444EB01046D1944EBD9
:100E40000404521BA3414FF0000348BF0A3200D5EF
:100E500030BD401C41F1000130BD00002DE9F041E2
:100E60001F46044603260168072A01F4006004DBDC
:100E700008B116A505E016A503E008B115A500E028
:100E800015A521F010002060A069C01EA0610FB15F
:100E9000401EA0612046FFF75FFA4FB1D4E901215F
:100EA00038469047206A401C2062C01C206206E041
:100EB000206AFAE7D4E9012115F8010B9047761E64
:100EC000F8D22046FFF75EFABDE8F0814E414E00B1
:100ED0006E616E00494E4600696E66002DE9F0476E
:100EE000814616468AB0334878440DC88DE80D0017
:100EF00030487844801C03AC0DC884E80D0041F6EE
:100F00009B300844372190FBF1F290FBF1F5A5F1FD
:100F1000800501FB12041B3C02D56442012000E065
:100F20000020DFF890A080460027FA44AAF1BE0A0C
:100F30000DE0E00709D03246684607EB47010AEBAF
:100F4000810100F034FB8DE8070064107F1C002C49
:100F5000EFD1184F7F44AC3F18E0E80714D007EBFF
:100F600004100DF1180A90E80E008AE80E00C0681F
:100F7000F04201D198190890324606A903A800F062
:100F800016FB03AB83E807006D10641C002DE4D151
:100F900032466946B8F1000F03A802D000F0F3FA18
:100FA00001E000F004FBC9E90001C9F808200AB01B
:100FB000BDE8F08738650000007B00F080007047D6
:100FC00000487047DC5700207546FFF7F9FFAE4632
:100FD00005006946534620F00700854618B020B545
:100FE000FFF786F9BDE820404FF000064FF00007FC
:100FF0004FF000084FF0000B21F00701AC46ACE8C1
:10100000C009ACE8C009ACE8C009ACE8C0098D462D
:10101000704710B50446AFF300802046BDE810408D
:10102000FFF706B94FF0013C50F8042B51F8043B90
:101030009A4221D1A2EB0C03934313EACC1317D1AC
:1010400050F8042B51F8043B9A4215D1A2EB0C0343
:10105000934313EACC130BD150F8042B51F8043B03
:101060009A4209D1A2EB0C03934313EACC13DBD0D1
:101070004FF00000704700BFD01A01BAB1FA81F1F9
:1010800001F0180122FA01F0CB40C1F12001DBB2DE
:10109000C0B2C01A2CFA01F3D11A914311EAC3115C
:1010A000E6D170475FEA400C08BF91F0000F4FEAAD
:1010B0008C234FEAC12243EA51514FEA1C5018BF1A
:1010C00000F5F0404FEA300018BF41F000415FEA00
:1010D0006C5C00F02980BCF1FF3F08BF40F080400D
:1010E0007047130C06BF12044FF0100C4FF0000CA9
:1010F000130E04BF12020CF1080C130F04BF1201EF
:101100000CF1040C930F04BF92000CF1020CD30FEE
:1011100004BF52000CF1010C11464FF00002A0F187
:101120001F00A0EB0C00704711F0004F08BF704784
:1011300031F000413FF4D5AF0B0C06BF09044FF06E
:10114000100C4FF0000C0B0E04BF09020CF1080C40
:101150000B0F04BF09010CF1040C8B0F04BF8900B5
:101160000CF1020CCB0F04BF49000CF1010CCCF1C7
:101170002003A0EB0C0022FA03F302FA0CF241EA7E
:10118000030100F10100704720F07F4C80EA03006A
:1011900023F07F47ACEB070303F57C5300F00040DE
:1011A00003F1FF032DE980494FEA154B09B44FEADB
:1011B000144325EA0B4E24EA03480FF2042606EBFB
:1011C000132749083E785FEA320203FB0667C7F53A
:1011D000000707FB06F64FEA54374FEAD64606F1FA
:1011E000020607FB066CCCF1005C4FEA1C472CEAB8
:1011F000074C07FB06F40CFB06F504EB15464FEA1B
:10120000961634BF00204FF000404FEAD13706FB5E
:1012100007FC4FEA1C4C0CFB0BF7D21B03FB0CF733
:1012200061EB07010CFB0EF7B0EB074072EB1742C6
:101230000CFB08F734BFA2EB0742B2EB074261EBAD
:1012400017414FEA0C444FEA910706FB07FC4FEAAF
:101250001C4C0CFB0BF7B0EBC74072EB573203FB97
:101260000CF734BFA2EBC742B2EBC74261EB573178
:101270000CFB0EF7B0EBC70072EB57720CFB08F7D4
:1012800034BFA2EBC702B2EBC70261EB5771039FF9
:101290004FEA816141EA921104EBCC044FEAD13765
:1012A0004FEA826206FB07FC42EA90124FEA806036
:1012B0004FEA1C4C0CFB0BF7D21B03FB0CF761EB4A
:1012C00007010CFB0EF7B0EB074072EB17420CFB6B
:1012D00008F734BFA2EB0742B2EB074261EB1741BC
:1012E0004FEA8C554FEA910704EB9C2406FB07FC60
:1012F0004FEA1C4C0CFB0BF7B0EBC74072EB5732BC
:1013000003FB0CF734BFA2EBC742B2EBC74261EB61
:1013100057310CFB0EF7B0EBC70072EB57720CFBAA
:1013200008F734BFA2EBC702B2EBC70261EB5771FB
:1013300015EB4C254FEA816141EA92114FEA826236
:101340004FEAD13742EA901206FB07FC44F1000451
:101350004FEA80604FEA1C4C0CFB0BF7D21B03FBDF
:101360000CF761EB07010CFB0EF7B0EB074072EBDB
:1013700017420CFB08F734BFA2EB0742B2EB07425F
:1013800061EB174115EB1C154FEA813141EA92419F
:101390004FEA823242EA90424FEA80304FEA0C76BE
:1013A00044F1000448EA03434EEA0B484FF0000EB4
:1013B000B2EB080C71EB030724BF624639464EEBD3
:1013C0000E0E4FF0000B0018524149414BEB0B0B36
:1013D000B2EB080C71EB03077BF1000B24BF6246F4
:1013E00039464EEB0E0E4FF0000B001852414941AA
:1013F0004BEB0B0BB2EB080C71EB03077BF1000B13
:1014000024BF624639464EEB0E0E51EA020718BF62
:1014100046F0010616EB0E7655F1000254F100017C
:1014200003D5BDE88901BDE80088BDE88901BDE8B4
:101430000048B619524141EB0101A3F10103704785
:1014400080807F7E7D7C7B7A797877767675747301
:10145000727171706F6E6E6D6C6C6B6A6A696868C0
:10146000676666656464636362616160605F5F5E56
:101470005E5D5D5C5C5B5B5A5A59595858575756CC
:101480005655555554545353525252515150505031
:101490004F4F4F4E4E4D4D4D4C4C4C4B4B4B4A4A83
:1014A0004A494949484848474747474646464545C7
:1014B0004544444444434343434242424241414100
:1014C000002B26D4770021D01CB54FEA370703B490
:1014D0004FF010004FF010014FF000000FBCBDE8BE
:1014E00010400BF1010BBBF1010F08BF5FEA1707BA
:1014F00022BF12F1010211F101014FF0004143F14D
:10150000000300F0004043EA00007047F9D3570899
:10151000DAE746EA064613F1400F4FEA16461FDDAA
:1015200013F1200FDFBF16430A46002120335B4230
:10153000C8D0C3F1200746EA064602FA07F74FEA89
:10154000164646EA0706C3F1200722FA03F201FA1B
:1015500007F721FA03F14FF0000342EA0702B1E76F
:1015600046EA020646EA06464FEA164646EA0106FB
:10157000BCBF46EA0646360C4FF000034FF00002AF
:101580004FF000019EE72DE9C048934630B491E842
:10159000380007C831EA400C48BF34EA430C03D591
:1015A000FFF7F2FDFFF78CFFF0BCBDE800882DE9E6
:1015B000C048934630B491E8380007C810F0804F17
:1015C00008BF13F0804F03D100F005F8FFF778FF54
:1015D000F0BCBDE8008820F07F4780EA030023F0DC
:1015E0007F4C07EB0C03A3F57C5300F00040A3F104
:1015F000FE0392F0000F00F0B38095F0000F00F0B2
:1016000077802DE901494FEA11404FEA144621EA5B
:10161000004800FB06FC24EA064708FB06F607FB29
:1016200008F800FB07F718EB06484CEB164C4FEA9E
:10163000124B18EB07484FEA15464CEB174022EACD
:101640000B4E0BFB06FC25EA06470EFB06F607FBD6
:101650000EFE0BFB07F71EEB064E4CEB164C4FF045
:1016600000061EEB074E4CEB174B18EB0B0840F136
:10167000000018EB0E0B58EB000840F100008F1A29
:101680004FF000013CBFC943661B14BFB5EB040C0F
:1016900000213CBFC943F61B4FEA17444EEA8E0EA9
:1016A00027EA04454FEA1C4704FB07622CEA074C73
:1016B00005FB07F70CFB05F604FB0CFC16EB0746D5
:1016C00042EB174216EB0C4642EB1C421BEB0606A4
:1016D00058EB0202414146EA9E0601D5BDE8018968
:1016E000B619524141EB0101A3F10103BDE80189A3
:1016F0004FEA14454FEA114724EA054621EA074C10
:1017000005FB07F406FB07F70CFB06F105FB0CFCD9
:1017100011EB074144EB17444FEA124711EB0C4120
:1017200044EB1C4422EA074C05FB07F206FB07F7D3
:101730000CFB06F605FB0CFC16EB074642EB1742CA
:1017400016EB0C4642EB1C456A1854F1000148BFE9
:101750007047B619524141EB0101A3F101037047F3
:1017600095F0000F37D04FEA11424FEA144721EAB3
:10177000024624EA074C02FB07F106FB07F70CFBC5
:1017800006F402FB0CFC14EB074441EB17414FEA53
:10179000154714EB0C4441EB1C4125EA074C02FBB6
:1017A00007F506FB07F70CFB06F602FB0CFC16EB35
:1017B000074645EB174516EB0C4645EB1C42121944
:1017C00051F1000148BF7047B619524141EB010188
:1017D000A3F1010370474FEA14454FEA114724EA89
:1017E000054621EA074C05FB07F106FB07F70CFB52
:1017F00006F24FF0000605FB0CFC12EB074241EB32
:10180000174112EB0C4251EB1C4148BF7047921834
:1018100041EB0101A3F10103704700BFFEE77047F0
:101820002DE9F04703220021012004F0A5FC5149D5
:10183000086002F0DFF881464FA002F0E4F80446A9
:10184000224650A1484602F0ABF8504802F0DBF8BF
:10185000044622464EA1484602F0A2F84B481438EE
:1018600002F0D1F8044622464BA1484602F098F80F
:101870004649B039D1F8C40005F097FB074602F09D
:10188000A7F80446224646A1484602F089F80020FF
:10189000444902F09DF80446224643A1484602F01E
:1018A0007FF843A002F0AFF80446224642A1484622
:1018B00002F076F80020424902F08AF804462246F7
:1018C00040A1484602F06CF8484602F0E3F80646AC
:1018D000002422E0304601F0DBFA002342F21072CD
:1018E00019462448006804F081FC0546214637A0CB
:1018F000FEF712FD012D0FD1304603F07BFF484665
:1019000002F090F81B48006804F046F834A0FEF797
:1019100003FD0120BDE8F087641C032CDADB3046B0
:1019200003F068FF484602F07DF831A0FEF7F4FCB2
:1019300034A0FEF7F1FC00BF00BF00BF00BF00BF36
:10194000BFF34F8F00BF00BF00BF3348006800F4F3
:10195000E06032490843001D2F49086000BF00BF06
:1019600000BFBFF34F8F00BF00BF00BF00BF00BF6D
:10197000FDE70000000200207265676973746572FC
:101980000000000074797065000000005401002020
:10199000696D736900000000696D656900000000F1
:1019A0006373710000002440686172647600000077
:1019B0003031303200000000736F66747600000032
:1019C00000002640706F7274000000007265676945
:1019D000737465722025642074696D65730D0A0047
:1019E0007265676973746572206F6B0D0A00000081
:1019F0007265676973746572206661696C65640DF0
:101A00000A00000053797374656D205265626F6F30
:101A100074696E670D0A00000CED00E00000FA0525
:101A200031B5002400F0AAF9044600BF00F0A6F981
:101A3000001B00998842F9D338BD00002DE9F84712
:101A400002460024002000258446002700237BE175
:101A50004FF0010808FA03F4D1F8008008EA040006
:101A6000A0427DD1DFF8ECA2D1F80480A8EB0A09EE
:101A7000D0453AD014DCB8F1030F50D009DCB8F1EE
:101A8000000F31D0B8F1010F1CD0B8F1020F49D1CD
:101A900020E0B8F1110F18D0B8F1120F42D11EE0BA
:101AA000B9F5881F25D006DCB9F5803F20D0B9F5FF
:101AB000801F37D11AE0B9F5001F18D0B9F5041FFF
:101AC00030D117E0D1F80CC02DE0D1F80C8008F12E
:101AD000040C28E0D1F80C8008F1080C23E0D1F8C0
:101AE0000C8008F10C0C1EE000BF00BF00BF00BF5F
:101AF00000BF00BFD1F80880B8F1000F02D14FF04D
:101B0000040C0BE0D1F80880B8F1010F03D14FF0BD
:101B1000080C146102E04FF0080C546103E04FF030
:101B2000000C00E000BF00BFFF2801D8904601E094
:101B300002F104084646FF2802D84FEA830803E072
:101B4000A3F108084FEA88084746D6F800804FF00E
:101B50000F0909FA07F928EA09080CFA07F900E061
:101B60007AE048EA0908C6F80080D1F8048008F055
:101B70008058B8F1805F6FD100BFDFF8DC81D8F802
:101B8000188048F00108DFF8D091C9F81880C846DD
:101B9000D8F8188008F00108CDF8008000BF00BF19
:101BA0004FEAB9384FEA930958F829504FEA837839
:101BB0004FEA18794FF00F0808FA09F825EA0805E6
:101BC000DFF89881424502D14FF0000824E0DFF8A9
:101BD0009081424502D14FF001081DE0DFF8848179
:101BE000424502D14FF0020816E0DFF87C81424501
:101BF00002D14FF003080FE0DFF87081424502D1B7
:101C00004FF0040808E0DFF86881424502D14FF048
:101C1000050801E04FF006084FEA83794FEA197989
:101C200008FA09F848EA0505DFF848814FEA930900
:101C300048F82950D1F8048008F48038B8F5803F7E
:101C40000BD1DFF83481D8F8008048EA0008DFF8CB
:101C50002891C9F800800AE075E0DFF81C81D8F807
:101C6000008028EA0008DFF81091C9F80080D1F858
:101C7000048008F40038B8F5003F0ED1DFF8F88092
:101C800008F10408D8F8008048EA0008DFF8E89076
:101C900009F10409C9F800800DE0DFF8DC8008F1E3
:101CA0000408D8F8008028EA0008DFF8CC9009F191
:101CB0000409C9F80080D1F8048008F48018B8F548
:101CC000801F0ED1DFF8B08008F10808D8F8008036
:101CD00048EA0008DFF8A09009F10809C9F8008077
:101CE0000DE0DFF8948008F10808D8F8008028EAB1
:101CF0000008DFF8849009F10809C9F80080D1F8DC
:101D0000048008F40018B8F5001F0ED1DFF86880D1
:101D100008F10C08D8F8008048EA0008DFF858906D
:101D200009F10C09C9F800800DE0DFF84C8008F1DA
:101D30000C08D8F8008028EA0008DFF83C9009F188
:101D40000C09C9F800805B1C102BFFF481AEBDE8C4
:101D5000F887000000001110001002400008014048
:101D6000000C014000100140001401400018014027
:101D7000001C0140080001400004014001480068C7
:101D8000704700002000002010B50848006840F0AF
:101D9000100006490860052000F068F80F2000F0E8
:101DA00007F800F017F8002010BD000000200240E6
:101DB00070B5044600F0BAF94FF47A71B0FBF1F552
:101DC000284600F08FFE00222146501E00F010F839
:101DD000002070BD704700BF00F01F02012191403C
:101DE0004209920002F1E022C2F8001100BF7047E0
:101DF0002DE9F05F80460D461646002701F0F8F801
:101E0000074639462A46334601F00700C0F1070A63
:101E1000BAF1040F02D94FF0040A01E0C0F1070A39
:101E2000D14600F1040ABAF1070F02D24FF0000ABE
:101E300001E0A0F1030AD4464FF0010A0AFA09FAB8
:101E4000AAF1010A0AEA020A0AFA0CFA4FF0010B97
:101E50000BFA0CFBABF1010B0BEA030B4AEA0B0488
:101E60002146404601F0CCF8BDE8F09F00BF00F0ED
:101E70000702064B19684FF6FF031940044B0B434A
:101E800043EA0221014B196000BF70470CED00E0EE
:101E90000000FA0570B504460D4600269F4800680C
:101EA00000F00700A8420ED29C48006820F007000E
:101EB00028439A4908600846006800F00700A842D5
:101EC00001D0012070BD207800F00200022807D167
:101ED0009348406820F0F000A168084390494860AA
:101EE000207800F0010000287CD0606801282DD106
:101EF0002020010391FAA1F1B1FA81F108430121F7
:101F0000B1EB601F02D1864800680FE0202001037A
:101F100091FAA1F1B1FA81F108430221B1EB601FFE
:101F200002D17F48006A01E07D48406A20210A030F
:101F300092FAA2F2B2FA82F2114301F01F020121D9
:101F400091400840002860D10120BBE7606802286A
:101F50002CD12020010591FAA1F1B1FA81F10843B9
:101F60000121B1EB601F02D16D4800680FE0202015
:101F7000010591FAA1F1B1FA81F108430221B1EB17
:101F8000601F02D16648006A01E06548406A20216E
:101F90000A0592FAA2F2B2FA82F2114301F01F028C
:101FA00001219140084078BB01208BE720200221CD
:101FB00091FAA1F1B1FA81F108430121B1EB601F5F
:101FC00002D15748006810E02020022191FAA1F1C7
:101FD000B1FA81F108430221B1EB601F03D15048EF
:101FE000006A02E054E04E48406A2021022292FA40
:101FF000A2F2B2FA82F2114301F01F0201219140D4
:10200000084008B901205DE7FFE74548406820F037
:1020100003006168084342494860FFF7AFFE064687
:102020006068012810D108E0FFF7A8FE801B41F28C
:102030008831884201D9032044E73948406800F0DC
:102040000C000428F0D123E06068022810D108E0D9
:10205000FFF794FE801B41F28831884201D90320AA
:1020600030E72F48406800F00C000828F0D10FE05E
:1020700008E0FFF783FE801B41F28831884201D9D6
:1020800003201FE72648406800F00C000028F0D12C
:102090002248006800F00700A8420ED91F480068D7
:1020A00020F0070028431D4908600846006800F03A
:1020B0000700A84201D0012004E7207800F00400C6
:1020C000042807D11648406820F4E060E16808431E
:1020D00013494860207800F00800082808D110480B
:1020E000406820F46050216940EAC1000C49486012
:1020F00000F04EF80A49496801F0F001F02292FA26
:10210000A2F2B2FA82F2D140064A515CC8400649B6
:1021100008600F20FFF74CFE0020D3E600200240AD
:1021200000100240547300081C00002001480068A1
:10213000704700001C00002000B5FFF7F7FF0749BB
:10214000496801F4E0614FF4E06292FAA2F2B2FA57
:1021500082F2D140024A515CC84000BD00100240EA
:102160006473000800B5FFF7E1FF0749496801F40F
:1021700060514FF4605292FAA2F2B2FA82F2D14068
:10218000024A515CC84000BD001002406473000860
:10219000F0B585B00FF28C0C9CE8E01001A8A0E827
:1021A000E01024A52D6800950021002400220023C2
:1021B0000020214D696801F00C056DB3042D02D09B
:1021C000082D28D101E01D4828E001F470154FF4D6
:1021D000701696FAA6F6B6FA86F6F54001AE735D6D
:1021E00001F4803595B1144D6D6805F400354FF458
:1021F000003696FAA6F6B6FA86F6F5401DF80540C2
:102200000E4DB5FBF4F505FB03F202E00C4D03FBAC
:1022100005F2104602E000BF084800BF00BF05B04D
:10222000F0BD000002030405060708090A0B0C0DA7
:102230000E0F1010010200000010024000127A0080
:1022400000093D0038B504460025207800F0010063
:1022500000287CD0F848406800F00C0004280CD01E
:10226000F548406800F00C00082837D1F248406873
:1022700000F48030B0F5803F30D12020010391FA86
:10228000A1F1B1FA81F108430121B1EB601F02D144
:10229000E94800680FE02020010391FAA1F1B1FAAA
:1022A00081F108430221B1EB601F02D1E248006ACC
:1022B00001E0E148406A20210A0392FAA2F2B2FA50
:1022C00082F2114301F01F020121914008400028D1
:1022D000BFD0606800283AD1012038BD00BF6068D7
:1022E000B0F5803F06D1D448006840F48030D24930
:1022F000086028E0606858B9CF48006820F4803052
:10230000CD4908600846006820F4802008601AE083
:102310006068B0F5A02F0BD1C748006840F480205A
:10232000C54908600846006840F4803008600AE04B
:10233000C148006820F48030BF4908600846006842
:1023400020F48020086000BF6068C8B300E06FE040
:10235000FFF714FD054606E0FFF710FD401B64285B
:1023600001D90320B9E72020010391FAA1F1B1FAC4
:1023700081F108430121B1EB601F02D1AE48006832
:102380000FE02020010391FAA1F1B1FA81F1084395
:102390000221B1EB601F02D1A748006A01E0A64804
:1023A000406A20210A0392FAA2F2B2FA82F21143A1
:1023B00001F01F020121914008400028CCD037E0F5
:1023C000FFE7FFF7DBFC054606E0FFF7D7FC401B05
:1023D000642801D9032080E72020010391FAA1F1AC
:1023E000B1FA81F108430121B1EB601F02D192489B
:1023F00000680FE02020010391FAA1F1B1FA81F108
:1024000008430221B1EB601F02D18B48006A01E052
:102410008948406A20210A0392FAA2F2B2FA82F2B3
:10242000114301F01F020121914008400028CCD146
:10243000207800F0020002284ED17F48406800F06A
:102440000C0050B17C48406800F00C00082844D1D2
:102450007948406800F4803078BB2020022191FA4E
:10246000A1F1B1FA81F108430121B1EB601F02D162
:10247000714800680FE02020022191FAA1F1B1FA21
:1024800081F108430221B1EB601F02D16A48006A62
:1024900001E06948406A2021022292FAA2F2B2FACF
:1024A00082F2114301F01F0201219140084028B13E
:1024B0002069012802D001200FE70EE05E48006885
:1024C00020F0F800F82292FAA2F2B2FA82F26169E0
:1024D000914008435849086091E02069F0B3012019
:1024E00090FAA0F1B1FA81F1544A42F82100FFF7C5
:1024F00045FC054606E0FFF741FC401B022801D9D8
:102500000320EAE62020022191FAA1F1B1FA81F13B
:1025100008430121B1EB601F02D1474800680FE07A
:102520002020022191FAA1F1B1FA81F108430221A0
:10253000B1EB601F02D14048006A01E03E48406AAA
:102540002021022292FAA2F2B2FA82F2114301F0A1
:102550001F02012191400840002800E00FE0CAD08E
:102560003548006820F0F800F82292FAA2F2B2FA98
:1025700082F26169914008432F4908603FE00020E2
:10258000012191FAA1F1B1FA81F12C4A42F821001E
:10259000FFF7F4FB054606E0FFF7F0FB401B0228BF
:1025A00001D9032099E62020022191FAA1F1B1FA84
:1025B00081F108430121B1EB601F02D11E48006880
:1025C0000FE02020022191FAA1F1B1FA81F1084334
:1025D0000221B1EB601F02D11748006A01E01648E2
:1025E000406A2021022292FAA2F2B2FA82F2114348
:1025F00001F01F020121914008400028CCD1207831
:1026000000F0080008284BD1A069A8B3012191FA75
:10261000A1F0B0FA80F0094A02EB8000C0F8801403
:10262000FFF7ACFB05460BE0FFF7A8FB401B0228B9
:1026300006D9032051E6000000100240000042428B
:102640006020022191FAA1F1B1FA81F10843012140
:10265000B1EB601F02D1F948006810E06020022150
:1026600091FAA1F1B1FA81F108430221B1EB601FA7
:1026700003D1F248006A02E013E0F048406A6021AA
:10268000022292FAA2F2B2FA82F2114301F01F0280
:102690000121914008400028C6D00120FFF7C0F971
:1026A00041E00020012191FAA1F1B1FA81F1E44A5F
:1026B00002EB8101C1F88004FFF760FB054606E0EC
:1026C000FFF75CFB401B022801D9032005E66020D0
:1026D000022191FAA1F1B1FA81F108430121B1EB94
:1026E000601F02D1D54800680FE06020022191FAF6
:1026F000A1F1B1FA81F108430221B1EB601F02D1CF
:10270000CE48006A01E0CD48406A6021022292FA78
:10271000A2F2B2FA82F2114301F01F0201219140AC
:1027200008400028CCD1207800F00400042875D19E
:1027300000BFC248C06940F08050C049C861084627
:10274000C06900F08050009000BF00BFBD48006825
:1027500040F48070BB490860FFF710FB054606E0B7
:10276000FFF70CFB401B642801D90320B5E5B548F1
:10277000006800F480700028F2D000BFE0680128F3
:1027800006D1AE48006A40F00100AC49086227E07B
:10279000E06858B9A948006A20F00100A74908621A
:1027A0000846006A20F00400086219E0E068052885
:1027B0000BD1A248006A40F00400A0490862084614
:1027C000006A40F0010008620AE09C48006A20F0BC
:1027D00001009A4908620846006A20F00400086275
:1027E00000BFE068D0B3FFF7C9FA054608E0FFF77D
:1027F000C5FA401B41F28831884201D903206CE5BB
:102800004020022191FAA1F1B1FA81F1084301219E
:10281000B1EB601F03D18948006810E058E0402008
:10282000022191FAA1F1B1FA81F108430221B1EB41
:10283000601F02D18148006A01E08048406A40215F
:10284000022292FAA2F2B2FA82F2114301F01F02BE
:102850000121914008400028C9D039E0FFE7FFF787
:102860008DFA054608E0FFF789FA401B41F28831EE
:10287000884201D9032030E54020022191FAA1F1DC
:10288000B1FA81F108430121B1EB601F02D16B481D
:1028900000680FE04020022191FAA1F1B1FA81F124
:1028A00008430221B1EB601F02D16448006A01E0D5
:1028B0006248406A4021022292FAA2F2B2FA82F2FF
:1028C000114301F01F020121914008400028CAD1A4
:1028D000E069002873D05948406800F00C000828CF
:1028E0006ED0E06902286CD100204FF0807191FA1F
:1028F000A1F1B1FA81F1524A42F82100FFF73EFA04
:10290000054606E0FFF73AFA401B022801D90320EA
:10291000E3E42020010591FAA1F1B1FA81F1084325
:102920000121B1EB601F02D1444800680FE0202074
:10293000010591FAA1F1B1FA81F108430221B1EB4D
:10294000601F02D13D48006A01E03C48406A2021F6
:102950000A0592FAA2F2B2FA82F2114301F01F02C2
:102960000121914008400028CCD1206AB0F5803F79
:1029700007D13248406820F40030A16808432F494D
:102980004860D4E9080108432C49496821F47411CE
:1029900008432A4948600121080690FAA0F0B0FADD
:1029A00080F0274A42F82010FFF7E8F9054609E0D1
:1029B000FFF7E4F9401B022804D903208DE479E0F5
:1029C00076E02CE02020010591FAA1F1B1FA81F125
:1029D00008430121B1EB601F02D1184800680FE0E5
:1029E0002020010591FAA1F1B1FA81F108430221F9
:1029F000B1EB601F02D11148006A01E00F48406A44
:102A000020210A0592FAA2F2B2FA82F2114301F0F1
:102A10001F020121914008400028C9D04AE000204F
:102A20004FF0807191FAA1F1B1FA81F1044A42F8B4
:102A30002100FFF7A3F905460DE000000010024059
:102A40000000424200700040FFF798F9401B022846
:102A500001D9032041E42020010591FAA1F1B1FA46
:102A600081F108430121B1EB601F02D112480068D7
:102A70000FE02020010591FAA1F1B1FA81F108439C
:102A80000221B1EB601F02D10B48006A01E00A4845
:102A9000406A20210A0592FAA2F2B2FA82F21143A8
:102AA00001F01F020121914008400028CCD101E033
:102AB000012012E4002010E400100240042808D194
:102AC0004FF0E021096941F004014FF0E02211616B
:102AD00007E04FF0E021096921F004014FF0E02206
:102AE0001161704770B504462546681EB0F1807FBD
:102AF00001D301200FE0681E4FF0E02148610F2153
:102B00004FF0FF3000F07CFA00204FF0E0218861A8
:102B100007200861002070BD7047F8B50446002505
:102B200000262068006800F001052068C06800F4F5
:102B3000807625B11EB1E06B40F00100E0632068B3
:102B40000068C0F340052068406900F0010625B127
:102B50001EB1E06B40F00400E06320680068C0F341
:102B6000800525B11EB1E06B40F00200E0632068F3
:102B70000068C0F3C00525B11EB1E06B40F008004D
:102B8000E06320680068C0F340152068C06800F06A
:102B900020061DB116B1204600F08EFC20680068AA
:102BA000C0F3C0152068C06800F080061DB116B1E2
:102BB000204600F0C3FD20680068C0F3801520683F
:102BC000C06800F040061DB116B1204600F05CFC64
:102BD000E06B70B100BF206800680090206840681A
:102BE000009000BF00BF012084F839002046FFF7A5
:102BF00093FFF8BD10B504460CB9012010BDA069C3
:102C000000B100E000BF94F8390028B9002084F832
:102C10003800204600F025F8022084F839002068AA
:102C2000C06820F400502168C860204600F0A2FC73
:102C30002068006920F4904021680861206840699C
:102C400020F02A00216848612068C06840F40050E4
:102C50002168C8600020E063012084F8390000206A
:102C6000CCE7704730B50346002493F83940012C77
:102C700001D0122C37D101B10AB9012030BD00BFFB
:102C800093F83800012801D10220F7E7012083F8EA
:102C9000380000BF99629A85DA850020D86393F8DE
:102CA0003900122803D1322083F8390002E02220B3
:102CB00083F8390000BF002083F8380000BF18688F
:102CC000C06840F480701D68E8601868406940F092
:102CD00001001D6868611868C06840F020001D6828
:102CE000E8600020CAE70220C8E77047704700BFCD
:102CF000FEE7000010B586B0044600BF1E4880699C
:102D000040F004001C4988610846806900F0040016
:102D1000019000BF00BF00BF0846806940F48040BA
:102D200088610846806900F48040019000BF00BFC0
:102D30004815029002200390012004900320059082
:102D400002A90E48FEF77AFE4FF48060029002A9B5
:102D50000A48FEF773FE0A480A49086008464460BC
:102D600000218160C160016181610C214161FFF737
:102D700041FF06B010BD00000010024000080140F5
:102D8000003801404402002000BFFEE738B5054688
:102D90000D480068B0B100236A4629460A48006819
:102DA00003F042FC0446012C02D008A0FDF7B4FA5F
:102DB000009838B14FF080500C490860BFF34F8F36
:102DC000BFF36F8F012038BDEC0100207573617275
:102DD00074206964656C2061646420717565756533
:102DE000206661696C65640D0A00000004ED00E076
:102DF000782002F069FB044632E078212046FDF796
:102E0000E9FC00235A1E21461648006803F0EEF93B
:102E1000214615A0FDF780FA17A12046FDF7FAFB21
:102E200048B11648C06C30B1144900231A46C86C2A
:102E3000194603F017FB1248006870B111A1204633
:102E4000FDF7E8FB48B10E48006830B100231A4690
:102E500019460B48006803F005FB642002F0FEFDF4
:102E6000CBE70000EC010020476574206275662006
:102E700025730D0A000000004F4B0000885700200A
:102E8000000200207265677265706F6B00000000C1
:102E900070B50546C82002F017FB064629463046A5
:102EA000FDF7CAFB0B48006878B100235A1E314673
:102EB0000848006803F0D6FA0446012C05D006A0A5
:102EC000FDF72AFA4FF0FF3070BD304602F092FC59
:102ED0000120F9E7F00100204D65737361676520FB
:102EE0006661696C65640D0A00000000C82002F08C
:102EF000EBFA0446002530E0C8212046FDF76AFCC5
:102F000000235A1E21461548006803F06FF9144843
:102F10008464016D012088470026002517E0681CA5
:102F2000C5B20F48C06C78B10D49002341F2883218
:102F3000C86C194603F05AF90646294609A0FDF760
:102F4000EBF9012E00D103E0022D00DB00E0E6E703
:102F500000BF642002F082FD00BFCDE7F001002039
:102F60008857002025640D0A0000000070B5044653
:102F70000E461546002278210A2003F0FDF8174975
:102F800008600022C821082003F0F6F81449086000
:102F900003220021012003F0EFF81249C86412480F
:102FA00008650846002141628162C1620163142103
:102FB0003430FDF731FC24210A48FDF72DFC214671
:102FC00008482430FDF738FB314606483430FDF719
:102FD00033FB29460348FDF72FFB70BDEC010020B1
:102FE000F001002088570020513E00087047000083
:102FF00002480068C0F30220704700000CED00E0BA
:1030000010B5002807DA0A07140E054A00F00F036E
:103010001B1FD45403E00A07130E024A135410BDB9
:1030200018ED00E000E400E0782002F04DFA0546DB
:103030009CE078212846FDF7CDFB00235A1E294647
:103040004B48006803F0D2F829464AA0FDF764F91E
:103050004C480279243050F822102846FDF7DAFA5D
:1030600000287DD047490A79243151F8220046A131
:10307000FDF7D0FAB8B143480279243050F8221055
:103080002846FDF7C7FA04463E490A79243151F82B
:103090002200FDF7F5FA04440F2221463948B030EA
:1030A000FDF719FB55E037490A79243151F8220020
:1030B00037A1FDF7AFFAB8B132480279243050F8A1
:1030C00022102846FDF7A6FA04462E490A79243133
:1030D00051F82200FDF7D4FA04440F222146294872
:1030E0009C30FDF7F8FA34E026490A79243151F88A
:1030F000220029A1FDF78EFA58B322480279243024
:1031000050F822102846FDF785FA04461D490A7931
:10311000243151F82200FDF7B3FA044460782C28DA
:103120000BD061782078303800EB800001EB400054
:1031300030381449C1F8C40004E02078303811490F
:10314000C1F8C4000F48D0F8C41014A0FDF7E4F88B
:1031500000BF0C4900231A46D1F83801194600E097
:1031600001E003F07FF9642002F078FC61E70000E1
:10317000EC010020476574206275662025730D0AF6
:1031800000000000A400002043494D490000000059
:103190004347534E00000000435351004353512016
:1031A00056616C75652025640D0A0000C82002F088
:1031B0008BF9044612E0C8212046FDF70BFB0023E3
:1031C0005A1E21460648006803F010F8054884643A
:1031D000016D00208847642002F040FCEBE700000E
:1031E000F00100208857002030B503460C461546F4
:1031F000002206E0184600F007F844F822001B1DE4
:10320000521CAA42F6D330BD014608687047000040
:103210007CB5054602F072FA3548D0F82401012346
:1032200000224FF4FA61009032A003F021FD3549ED
:10323000086035480223012240F6B831009033A0DF
:1032400003F016FD3449086034A23DA13FA0FFF70A
:103250008DFE274831A23AA1D0F834313BA09847DF
:103260003D48052100234FF48072CDE900103BA1B9
:103270003D4803F0B1FA3D48042100238A01CDE91D
:1032800000103BA13D4803F0A7FA3D48052100236B
:103290004FF48072CDE900103AA13C4803F09CFA4B
:1032A0003B48032100234FF48072CDE9001039A17F
:1032B0003B4803F091FA3648006802F017FE2B48AD
:1032C000006802F013FE03F0C7FA04464FF0FF3027
:1032D00000232246012100900A48006803F01AFDED
:1032E0003048006802F0F4FB02F04CFA7CBD0000AC
:1032F000A40000204F6E6553686F7454696D657249
:103300000000000014000020693400087465737424
:1033100054696D65720000001800002054474D6D1F
:103320007973673744584442425955474565547A42
:1033300076366863416165347A354D3900000000A6
:103340006465766963656E616D65000043384F7A28
:103350004436506B6D395600040000204C45443013
:103360005461736B00000000F12D0008080000207C
:103370004E65745265635461736B00002930000818
:103380000C0000204D73675461736B00ED2E000834
:10339000100000204E65744D73675461736B00001C
:1033A000AD3100080000002030B58FB00546002484
:1033B00001200590000406900020079002200C9048
:1033C000C1030D910E9505A8FEF73CFF04460CB114
:1033D00000BFFEE70F200090022001900020029025
:1033E0004FF4806003900020049002216846FEF7AD
:1033F00051FD04460CB100BFFEE70FB030BD10B563
:1034000003F01AFA012801D002F09CFE10BD000062
:103410001148006840F001000F4908600846406804
:103420000E4908400C494860084600680C490840AD
:10343000094908600846006820F4802008600846B2
:10344000406820F4FE0048604FF41F008860C80305
:103450000449086070470000001002400000FFF8B7
:10346000FFFFF6FE08ED00E010B504A0FCF754FFE6
:103470000449D1F83001804710BD000068656C6CCC
:103480006F0D0A00A400002010B504462068C06833
:1034900020F040002168C86094F83900322803D138
:1034A000222084F8390002E0012084F83900204607
:1034B000FFF71CFC002010BD70B50446002694F8F0
:1034C0003960222E01D0322E52D1A068B0F5805F33
:1034D00013D1A56A206940B920684068C0F308008C
:1034E0002880A06A801CA06219E020684068C0B2F1
:1034F0002880A06A401CA06211E0206938B92068C9
:103500004068C1B2A26A501CA062117007E0206836
:10351000406800F07F01A26A501CA0621170E08D2B
:10352000401E80B2E08508BB2068C06820F0200003
:103530002168C86094F83900322803D1122084F839
:1035400039000EE02068C06820F480702168C860EF
:103550002068406920F0010021684861012084F85A
:1035600039002046FFF7C1FB002070BD0020FCE7BA
:103570000220FAE72DE9F0410446002520680069A1
:1035800020F44050E1680843216808612169A0687F
:103590000843616940EA01052068C06841F20C6196
:1035A000884328432168C8602068406920F440703F
:1035B000A1690843216848615F49206888425CD15D
:1035C000FEF7D0FD00EBC00101EB0010616889003F
:1035D000B0FBF1F6FEF7C6FD00EBC00101EB0010F9
:1035E00061688900B0FBF1F06421B0FBF1F000EB01
:1035F000C00101EB0010A6EB8000322101EB0010AE
:103600006421B0FBF1F000F0F006FEF7ABFD00EB3B
:10361000C00101EB001061688900B0FBF1F064218A
:10362000B0FBF1F006EB0016FEF79CFD00EBC001CD
:1036300001EB001061688900B0FBF1F7FEF792FD25
:1036400000EBC00101EB001061688900B0FBF1F0F4
:103650006421B0FBF1F000EBC00101EB0010A7EB1F
:103660008000322101EB00106421B0FBF1F000F08A
:103670000F003044216888605BE0FEF75DFD00EBE1
:10368000C00101EB001061688900B0FBF1F6FEF7A4
:1036900053FD00EBC00101EB001061688900B0FB35
:1036A000F1F06421B0FBF1F000EBC00101EB001080
:1036B000A6EB8000322101EB00106421B0FBF1F099
:1036C00000F0F006FEF738FD00EBC00101EB001042
:1036D00061688900B0FBF1F06421B0FBF1F006EB0A
:1036E0000016FEF729FD00EBC00101EB0010616838
:1036F0008900B0FBF1F7FEF71FFD00EBC00101EB05
:10370000001061688900B0FBF1F06421B0FBF1F0BA
:1037100000EBC00101EB0010A7EB8000322101EBB0
:1037200000106421B0FBF1F000F00F00304421687C
:103730008860BDE8F08100000038014010B5014606
:10374000002391F83930122B01D0322B2CD188680C
:10375000B0F5805F0FD10A6A1088C0F308000C68CA
:103760006060086918B9086A801C086209E0086A84
:10377000401C086205E00C6A601C086220780C6836
:103780006060C88C401E80B2C88458B90868C068A0
:1037900020F080000C68E0600868C06840F04000DD
:1037A0000C68E060002010BD0220FCE710B5024864
:1037B000FFF7B3F910BD00004402002038B51748E8
:1037C00000680068C0F3401048B115480068C4B2F2
:1037D00014490888411C134A118013490C540F489E
:1037E00000680068C0F30010A0B100BF0B4800687B
:1037F00000680090094800684068009000BF00BF62
:103800000948FFF7C3FA00200649088078210648D6
:10381000FDF702F80148FFF780F938BD04020020E7
:10382000044400402C0000208402002000BFFEE77A
:1038300010B586B0044600BF2E48806940F00400F1
:103840002C4988610846806900F00400019000BF9F
:1038500000BF00BF0846C06940F40030C861084698
:10386000C06900F40030019000BF00BF0420029046
:1038700002200390012004900320059002A91E4815
:10388000FEF7DCF8082002900020039002A91A48F5
:10389000FEF7D4F819481A49086008464460002128
:1038A0008160C160016181610C214161FFF7A2F972
:1038B000782214491248FFF7D5F92620FEF78BFA33
:1038C000002206212620FEF793FA00BF0C4800686C
:1038D000006801900A4800684068019000BF00BF7E
:1038E00007480068C06840F0100005490968C860D2
:1038F00006B010BD00100240000801400044004026
:10390000040200208402002070B504462046FCF723
:10391000B7FE054600200BE000BF0749096801F02B
:1039200040010029F9D0215C034A121D1160401C9E
:10393000A842F1DB70BD000000440040490050EA9D
:10394000C12018BF04204A0D18BF40F0010040F20A
:10395000FF72B2EB515F08BF40F00200012808BFC0
:103960000520704730380A2801D201207047002016
:10397000704700BF704770B505460E46AC6806B983
:1039800070BD0CB9AE6009E000E0246814B1206895
:103990000028FAD13146204601F062FE00BFEFE771
:1039A00070B506460D46144604B970BD206A18B1BC
:1039B0000649206A09688847284600F073F82062A3
:1039C00021463046FFF7D7FF00BFEEE7FC0100209D
:1039D00070B505460E4600F04DF8044644B103208C
:1039E000E060C4E906562846314603F0AFFA60614C
:1039F000204670BD10B500F03DF804460CB106201D
:103A0000E060204610BD70B5054600F033F804466E
:103A10002CB10420E060284600F044F820612046E4
:103A200070BD000070B504461EE02568A08900F452
:103A3000807020B9A06810B1A068FFF7F3FFA089DB
:103A400000F4807028B9206918B109492069096813
:103A50008847206A18B10649206A096888472046C5
:103A60000349096888472C46002CDED170BD000050
:103A7000FC01002010B52820054909688847044644
:103A80001CB128212046FCF7C7FE204610BD0000CF
:103A9000F801002010B5044601220021204600F064
:103AA000DFFE10BD70B504462046FCF7E9FD451C5D
:103AB0002846064909688847061E00D170BD2A4677
:103AC00021463046FCF707FE3046F7E7F8010020B4
:103AD00010B50420FEF7F2FF104800681049B0FB53
:103AE000F1F0104908700D4800680D49B0FBF1F481
:103AF0004FF47A70444301200B4908804FF0E020D6
:103B0000006940F002004FF0E0210861084644617E
:103B1000006940F00100086110BD00001C00002099
:103B200040420F0024000020260000202DE9F04133
:103B300004460E461546A02001F0C6FC0746A0210B
:103B40003846FCF747FE4BA0FCF7E6FB00204D494A
:103B5000087048700871C87001F18000002181640C
:103B6000C1640165416514215830FCF755FE2421DC
:103B70004448EC30FCF750FE21464248C830FCF780
:103B80005BFD31463F48D830FCF756FD29463D489D
:103B9000EC30FCF751FD3CA13846FCF74DFD3949AE
:103BA000C8313846FCF78BFD3BA13846FCF787FD52
:103BB0003449D8313846FCF782FD37A13846FCF746
:103BC0007EFD3049EC313846FCF779FD32A13846AC
:103BD000FCF775FD31A13846FCF771FD39463548D3
:103BE000FCF72AFD33492748C0F88410A021384645
:103BF000FCF7F0FD30A13846FCF71EFD2149C83125
:103C00003846FCF75CFD30A13846FCF758FD1D49ED
:103C1000D8313846FCF753FD2CA13846FCF74FFD50
:103C200039462D48FCF708FD2B491648C0F88C1082
:103C300003220021012002F09FFA1249C1F8380145
:103C400003220021012002F097FA0E49C1F83C013D
:103C500003220021012002F08FFA0A49C1F8400135
:103C600000227821012002F087FA0649C1F84401B8
:103C7000BDE8F0814735313020436F6E6669670DCE
:103C80000A000000A400002041542B434C4F55442F
:103C9000415554483D220000222C2200696F742DAA
:103CA000617574682E616C6979756E2E636F6D2213
:103CB0000D0A00004856002041542B434C4F5544F8
:103CC0005355423D222F00002F0000002F676574DE
:103CD000222C300D0A000000E856002038B53E487E
:103CE000006818B13C48006802F000F93B480068E1
:103CF00018B13A48006802F0F9F83948006818B17C
:103D00003748006802F020F83648006818B1354896
:103D1000006802F019F800243BE000F00BFA0028DC
:103D200032DD2D48006818B12B48006802F00CF80D
:103D30002A48006818B12948006802F005F82848A8
:103D4000006818B12648006802F0D0F825480068DD
:103D500018B12448006802F0C9F823A0FCF7DCFA87
:103D60002948407870B9FDF75BFD02F075FD054606
:103D70004FF0FF3000232A460121009023480068BD
:103D800002F0C8FF012038BD611C21A0FCF7C4FA75
:103D9000641C052CC1DB27A0FCF7BEFA00BF00BFE6
:103DA00000BF00BF00BFBFF34F8F00BF00BF00BF09
:103DB0002548006800F4E06024490843001D2249BA
:103DC000086000BF00BF00BFBFF34F8F00BF00BF40
:103DD00000BF00BF00BFFDE7040000200C00002072
:103DE0001000002008000020436F6E6E656365744C
:103DF00020746F20636C6F756420737563636573E3
:103E00007366756C0D0A0000A400002018000020E5
:103E1000436F6E6E65637420746F20636C6F75649E
:103E2000206661696C65642025642E2E2E2E2E0D71
:103E30000A00000053797374656D205265626F6FDC
:103E400074696E670D0A00000CED00E00000FA05D1
:103E50002DE9F0410546642001F036FB06460620B8
:103E600001F032FB0446012D42D164213046FCF7BB
:103E7000B1FC00202060A0802D49886CFCF700FC7C
:103E800007463A462BA12046FCF752FA2AA13046B3
:103E9000FCF7D2FB264924313046FCF710FC2AA15E
:103EA0003046FCF70CFC224934313046FCF707FC65
:103EB00026A13046FCF703FC21463046FCF7FFFB09
:103EC00025A13046FCF7FBFB3046FFF71DFD6420C3
:103ED00001F0C4FD1649886CFFF716FD31461FA09E
:103EE000FCF71AFA1248816C21A0FCF715FA16E0CB
:103EF0004FF4967001F0E8FA07464FF49671384691
:103F0000FCF768FC0A48816C3846FCF795FB38469C
:103F1000FFF7FAFC394618A0FCF7FEF900BF20466F
:103F200001F068FC304601F065FCBDE8F08100005E
:103F3000885700202564000041542B434C4F5544C2
:103F40005055423D222F00002F0000002F64617465
:103F500061222C302C0000000D0A000073656E6495
:103F6000206D6573736167653A202573000000005A
:103F700025730D0A00000000636D642025730D0A8F
:103F80000000000010B50E200349C87001204870E1
:103F9000D1F82401804710BDA40000202DE9F04194
:103FA000C1F30A52A2F2FF362F4A304B0D460446A7
:103FB000142E2FDA002E12DA02F014FF002213461C
:103FC00003F09AF84CD2002DA4BF0024254647DA0E
:103FD00025F00040204318BF254D41D018E0DFF800
:103FE00094C02CFA06F705EA070C5CEA040C08BF3B
:103FF000BDE8F08102F0F6FE0022134603F07CF8E3
:104000002ED2002D03DA4FF48010F0400544BD435A
:10401000002425E0332EC8BFBDE8F081A6F1140CC2
:104020004FF0FF3727FA0CF73C4208BFBDE8F0819C
:1040300003F098F80022134603F05EF810D2002D2A
:104040000DDA142E08BF6D1C09D0C6F13400012111
:1040500001FA00F02044A04238BF6D1C0446BC4366
:1040600029462046BDE8F0819C7500883CE4377EF7
:104070000000F0BFFFFF0F0000BF054A126802F00A
:104080004002002AF9D0C2B2014B1B1D1A607047D2
:10409000003801401CB5FDF777FE4FF4E010FFF744
:1040A00083F90320FDF7E2FEFFF712FD4FF4E13044
:1040B000FEF720FE4FF4E130FFF7BAFB10A0FCF74B
:1040C0002BF9202001F000FA044620212046FCF7BD
:1040D00081FB082221460E48FFF786F821460DA0F5
:1040E000FCF71AF90E48012100230A02CDE900105D
:1040F0000CA10F4802F070FB01F0A2FE00201CBDD5
:1041000068656C6C6F207573617274310D0A000004
:1041100000D007086275662025730D0A00000000B4
:104120000000002053746172745461736B000000CE
:104130001132000870B520A0FCF7EEF823A0FCF7C0
:10414000EBF82C48C47831E000252A490C71603125
:1041500051F82400FEF79CFE25E0681CC5B22548F6
:10416000D0F83801B8B12349002342F21072D1F8D7
:104170003801194602F03AF8064629461EA0FCF717
:10418000CBF8012E00D10FE01A49603151F824001C
:10419000FEF77EFE02E01AA0FCF7BEF8052D02DB5A
:1041A0004FF0FF3070BDD8E700BF641C1148807825
:1041B000A042C9DC0120F5E74735313020436F6E5E
:1041C0006E656374696E670D0A000000506C65616E
:1041D00073652061646420746865206D6F64756523
:1041E0006C20726573657420636F6D6D616E640D14
:1041F0000A000000A400002025640D0A0000000051
:104200004E6F20473531302073656D6170686F7275
:1042100065200D0A000000002DE9F74F82B08346AB
:104220004FF0000805200190DBF8089000270025DA
:104230000020009002E07F1CD9F80090B9F1000F37
:10424000F9D17FB903204C49096888478046B8F105
:10425000000F03D049A14046FCF7EEF9404605B0F7
:10426000BDE8F08FB80044490968884706460EB992
:104270000020F4E7B9003046FCF7CEFADBF80890EE
:104280001FE0DDE90312491C484600F0E9FA8246C6
:1042900029466D1C46F821A0BAF1000F0DD05046FA
:1042A000FCF7EEF9801C049909B1012100E000211E
:1042B000014401980844019001E001200090D9F8E0
:1042C0000090B9F1000F02D000980028D9D00098D2
:1042D00020B929490198096888478046B8F1000F3C
:1042E00001D101200090009890B1002508E056F817
:1042F000250020B156F825002149096888476D1C22
:10430000BD42F4DB30461E49096888470020A6E715
:104310005B2088F8000008F10104002020700025CF
:104320001CE056F825102046FCF786F956F82500C3
:10433000FCF7A6F90444781EA84209D02C2004F802
:10434000010B049810B1202004F8010B002020700C
:1043500056F825000A49096888476D1CBD42E0DB14
:1043600030460749096888475D2004F8010B0020A2
:1043700004F8010B404672E7F80100205B5D000085
:10438000FC0100202DE9F05F8146D9E90645D9F806
:10439000140002F00AFE074622462B4602F0EEFE0B
:1043A00021F0004182460022344B02F015FE1BD85A
:1043B000334A344B2046294602F00EFE14D8002220
:1043C000314B2046294602F097FE0DD815202F4983
:1043D000096888470646002E4CD02DA13046D9F8F2
:1043E0001420FBF7A5FF45E04020284909688847CD
:1043F0000646002E3ED020462946FFF7CFFD074651
:1044000022462B4602F0BAFE21F0004182460022ED
:104410001A4B02F0E1FD0FD825F0004127461D4A56
:104420001D4B384602F0D8FD06D222462B461BA172
:104430003046FBF77DFF1DE025F000412746194A75
:10444000194B384602F0C8FD07D325F00041002281
:10445000164B384602F050FE06D222462B4614A1D7
:104460003046FBF765FF05E022462B4611A130469A
:10447000FBF75EFF3046BDE8F09F00000000B03C57
:104480000000C0FFFFFFDF410000E0C1F801002095
:104490002564000044F3C2E4E4E9634C252E306651
:1044A000000000008DEDB5A0F7C6B03E65CDCD4152
:1044B00025650000256600002DE9F74F88B0884685
:1044C00016464FF00009CA460020079007200490C6
:1044D000002508988068029000270020019003E0E2
:1044E0007F1C02980068029002980028F8D14FBB08
:1044F00016B108F1040100E0032108468949096862
:1045000088470790079818B900200BB0BDE8F08FD6
:10451000079C7B2004F8010B66B10A2004F8010B0C
:10452000002503E0092004F8010B6D1CA8F101002F
:10453000A842F7DC7D2004F8010B002004F8010BF1
:104540000798E2E7B8007749096888478146B9F1DA
:10455000000F01D10020D8E7B800724909688847E8
:104560008246BAF1000F05D148466F49096888476D
:104570000020CAE7B9004846FCF74EF9B90050469A
:10458000FCF74AF908988068029008F1010816B112
:104590000498404404902DE00299086A00F0CCF899
:1045A00005904AF8250032464146029800F058F935
:1045B00029466D1C069049F821000598A8B1069877
:1045C00098B10698FCF75CF883460598FCF758F814
:1045D0000BEB0001891C16B108F1020000E000207D
:1045E000014404980844049001E0012001900298DD
:1045F0000068029002980028CED1019820B949495C
:104600000498096888470790079808B90120019025
:104610000198F0B1002510E05AF8250020B15AF8B1
:10462000250041490968884759F8250020B159F803
:1046300025003D49096888476D1CBD42ECDB5046AA
:10464000394909688847484637490968884700203A
:104650005BE77B21079801700798441C16B10A207C
:1046600004F8010B0020207000253EE05EB1002020
:10467000039005E0092004F8010B0398401C039007
:1046800003984045F6DB5AF825102046FBF7D4FF87
:104690005AF82500FBF7F4FF04443A2004F8010B14
:1046A00016B1092004F8010B59F825102046FBF734
:1046B000C3FF59F82500FBF7E3FF0444781EA84226
:1046C00002D02C2004F8010B16B10A2004F8010BCB
:1046D000002020705AF8250013490968884759F8C6
:1046E00025001149096888476D1CBD42BEDB504654
:1046F0000D490968884748460B49096888474EB103
:10470000002503E0092004F8010B6D1CA8F101004D
:10471000A842F7DC7D2004F8010B002004F8010B0F
:104720000798F2E6F8010020FC01002010B50446CD
:10473000206900F001F810BD2DE9F04707464FF061
:10474000000827B940A0FFF7ADF9BDE8F0873D4666
:104750000DE049463DA0FBF753FF10B108F10108F9
:1047600004E0B9F1200F01DA08F105086D1C95F895
:104770000090B9F1000F04D008F10100B0F1000879
:10478000E7D108F1030033490968884706460EB9A6
:104790000020DAE734463D46222004F8010B47E0CA
:1047A00028781F280ADD2878222807D028785C2856
:1047B00004D015F8010B04F8010B39E05C2004F873
:1047C000010B15F8011B89460C2919D006DC0829B4
:1047D00012D0092920D00A2922D115E00D2917D09D
:1047E000222905D05C291BD15C2004F8010B1EE0B6
:1047F000222004F8010B1AE0622004F8010B16E0F5
:10480000662004F8010B12E06E2004F8010B0EE0A4
:10481000722004F8010B0AE0742004F8010B06E092
:104820004A460DA12046FBF783FD641D00BF00BF73
:1048300028780028B4D1222004F8010B002004F8C5
:10484000010B304681E7000000000000225C080CEC
:104850000A0D0900F80100207525303478000000A9
:104860002DE9F04104460D461646002714B90020F4
:10487000BDE8F081207B07282CD2DFE800F0090E8C
:104880000413181D240015A0FFF70CF9074621E0BA
:1048900014A0FFF707F907461CE014A0FFF702F980
:1048A000074617E02046FFF76DFD074612E0204659
:1048B000FFF73CFF07460DE0324629462046FFF74A
:1048C000ABFC074606E0324629462046FFF7F4FDDA
:1048D000074600BF00BF3846CAE700006E756C6C23
:1048E0000000000066616C736500000074727565FD
:1048F000000000002DE9F04105460E461C480768FF
:104900001C480068001D00F0AEFE50B91948006850
:1049100090F82C10012088401749096881431648F7
:104920000160681C38B936B112480168091D134886
:1049300000F0D7FE1AE07C190E4800684460BC42C3
:1049400007D20C480168091D0D48006800F0AFFE51
:104950000CE008480168091D0A48006800F0A7FE3D
:1049600009480068844201D207480460BDE8F0812C
:104970004400002030000020480000200C060020E9
:1049800038000020340000206000002010B50446EC
:1049900000F0B4FE24480068401C23490860234806
:1049A000006840B9214804600846006801280DD11C
:1049B00000F024FA0AE01E48006838B91B48006875
:1049C000C06AE16A884201D8184804601948006842
:1049D000401C1849086008460068A06494F82C1030
:1049E0000120884014490968084313490860E16AB6
:1049F00001EB8101114A02EB8100211D00F071FEE3
:104A000000F0C0FE0A48006868B108480068C06A43
:104A1000E16A884207D24FF0805009490860BFF32D
:104A20004F8FBFF36F8F10BD40000020300000207B
:104A30004C0000205C000020480000203C030020C7
:104A400004ED00E010B500F059FE10480068D0B940
:104A50000F4800F01CFE0F4800F019FE0C480E49EC
:104A600008600C480D49086000221021052001F063
:104A700083FB064908600846006820B108A1034886
:104A8000006800F073FF00F07DFE10BD7400002090
:104A900020060020340600206C000020700000205A
:104AA000546D72510000000070B523E001F09EFAD1
:104AB0001348006808B9012000E00020054602F014
:104AC00047F8BDB900F01AFE0D48C068C468201D43
:104AD00000F0C9FD0B480068401E0A4908600A48FA
:104AE0000068401E0849086000F04CFE204600F0B7
:104AF00060F800BF044800680028D7D170BD0000EE
:104B0000F8050020400000203C00002070B504465D
:104B10000D46206C70B1216CE0680844E06061686B
:104B2000E068884201D32068E0602846226CE16892
:104B3000FBF7D1FD70BD2DE9F04104460F46154647
:104B40004FF00008A66B206C40B9206860BB60681D
:104B500001F038FF80460020606025E07DB93946CD
:104B6000226CA068FBF7B7FD216CA0680844A06028
:104B7000D4E90110884217D32068A06014E03946B8
:104B8000226CE068FBF7A7FD216CE068401AE0604A
:104B90002168E068884203D2216C6068401AE060B6
:104BA000022D01D106B1761E701CA0634046BDE8FF
:104BB000F08110B50446206B00F01CFE204600F08A
:104BC00019FE10BD0146084A126812680AB901228E
:104BD00000E000220A600A6822B9034A1268D2681B
:104BE000106800E0002070476C00002030B54FF4E2
:104BF000A043174800F007042CB1C01D20F00700A7
:104C0000134C041B1B1B0246124C22600024114D46
:104C10006C60D018083820F007000F4C206000248A
:104C20000D4D2D686C600C4D2D682C601146441A9A
:104C30004C60094C24680C60084D4C682C60084D91
:104C40004C682C604FF00044064D2C6030BD0000D5
:104C500048060020800000208800002090000020EE
:104C60008C0000209400002000BFFFF71DFF0648C5
:104C700000680128F9D94FF0805004490860BFF35B
:104C80004F8FBFF36F8FF0E73C03002004ED00E08F
:104C90002DE9F04106460D4617469846069C0DB98B
:104CA000246000E02760E66325640121204601F0CE
:104CB00081FB84F850800020A064BDE8F0810000F2
:104CC0002DE9F05F82460F4690469B460A9E0C9C5B
:104CD0004FEA8801A522206BFBF774FDA8F10100C3
:104CE000216B01EB800929F0070909F0070008B9D9
:104CF000012000E0002028B940F22B321BA120A0A7
:104D0000FBF70AFB002507E0795D04F1340041550B
:104D1000785D00B902E06D1C142DF5D300BF0021B1
:104D200047200155202E00D31F26E662266500206D
:104D30006065201D00F0B8FC04F1180000F0B4FC20
:104D40002461C6F12000A06164620020A06584F89F
:104D50005C005A465146484600F070FC20600B98B3
:104D600008B10B980460BDE8F09F00002E2E5C4651
:104D700072656552544F535C7461736B732E63009C
:104D80004572726F723A25732C25640D0A0000007B
:104D90002DE9F04706460D4617469846DDE908948A
:104DA0000DB1012000E0002028B94FF4C67209A11E
:104DB0000EA0FBF7B1FA5CB1FFF744FE2660A561D7
:104DC000E761C4F82080C4F82490201D00F06CFC3A
:104DD000BDE8F0872E2E5C4672656552544F535CD9
:104DE00074696D6572732E63000000004572726F06
:104DF000723A25732C25640D0A00000010B50024BA
:104E000007E004EB84010F4A02EB810000F03FFC55
:104E1000641C202CF5D30C4800F039FC0B4800F042
:104E200036FC0B4800F033FC0A4800F030FC0A481E
:104E300000F02DFC0448094908600448084908604E
:104E400010BD00003C030020BC050020D005002060
:104E5000E4050020F80500200C06002034000020A6
:104E60003800002010B50146164800E000680368CD
:104E70008B42FBD30246436813448B4204D1436800
:104E80004C682344436001460A464B681344046857
:104E9000A34211D10C4C03682468A34208D04B688C
:104EA0000468646823444B6003681B680B6005E07A
:104EB000054B1B680B6001E003680B60884200D063
:104EC000016010BD80000020880000202DE9F04125
:104ED00004460D4616461F464FF0000865602461E3
:104EE000B5420CD8F01BA169884202D34FF00108EB
:104EF00011E0211D0948006800F0D9FB0BE0BE421B
:104F000004D2BD4202D34FF0010804E0211D044841
:104F1000006800F0CCFB4046BDE8F0817000002046
:104F20006C00002070B5054600F0E8FBA86B08B9DE
:104F3000012400E0002400F025FC204670BD70B57F
:104F4000054600F0DBFBA86BE96B884201D1012428
:104F500000E0002400F016FC204670BD2DE9F3416E
:104F60000D460098846C00272CB940F6CE121AA189
:104F70001EA0FBF7D1F9A06BE16B884201D20120A2
:104F800000E0002028B940F6CF1213A117A0FBF7CC
:104F9000C3F9A06BE16B88421BD294F945602A46A5
:104FA00069462046FFF7C7FD0746701C60B9606A76
:104FB00008B9012000E0002050B904F1240001F0FC
:104FC0006DFD28B1012703E0701C40B284F8450054
:104FD00000BF3846BDE8FC812E2E5C4672656552E6
:104FE000544F535C71756575652E63004572726F21
:104FF000723A25732C25640D0A000000F8B50546A9
:105000000F4613480068C068C468201D00F02BFBE1
:10501000E069012818D1A06941192B463A4620467B
:10502000FFF754FF80B1002003462A460146009056
:10503000204601F06FFE06462EB94FF4027205A11C
:105040000AA0FBF769F900BF2046616A8847F8BDEE
:105050006C0000202E2E5C4672656552544F535CE6
:1050600074696D6572732E63000000004572726F83
:10507000723A25732C25640D0A000000F0B587B044
:1050800070E0039800280CDA04AE2EB940F2E72253
:105090003AA140A0FBF740F9D6E90020B16890475B
:1050A00000BF039800285DDB059C606908B90120FA
:1050B00000E0002010B9201D00F0D5FA02A800F091
:1050C000C7F8054603980A284AD2DFE800F0090528
:1050D000072C2E4506082D2F00BF00BF00BF00BFC4
:1050E0000498A269811803462A462046FFF7EEFE7F
:1050F000C0B12046616A8847E069012812D10020CA
:1051000000900498A169421800231946204601F036
:1051100001FE07462FB940F2213218A11DA0FBF76E
:10512000FBF800BF1DE000BF1BE000BF0498A061BA
:10513000A06908B1012000E0002028B94FF44E72A8
:105140000EA114A0FBF7E8F8A06941192B462A46E6
:105150002046FFF7BBFE04E0204600F04BFB00E0DA
:1051600000BF00BF00231A4603A90E48006801F0E3
:105170003DF8002885D107B0F0BD00002E2E5C461A
:1051800072656552544F535C74696D6572732E631A
:10519000000000004572726F723A25732C25640D71
:1051A0000A00000074000020F8B505460C4600F027
:1051B0001DFF684600F04CF80646009820BB44B935
:1051C000B54206D801F0C4FC31462846FFF716FF69
:1051D0001CE03CB10E480068006808B9012000E0FE
:1051E00000200446A91B22460A48006800F010FC73
:1051F00001F0AEFC50B94FF0805007490860BFF392
:105200004F8FBFF36F8F01E001F0A2FCF8BD0000EB
:10521000700000207400002004ED00E00A490968D5
:10522000096809B9012100E0002121B14FF0FF31E7
:10523000064A116006E004490968C968C868034A5B
:1052400041681160704700003400002060000020B9
:1052500070B5044601F000FB05460748006885422A
:1052600004D200F00BF80120206001E00020206053
:1052700001480560284670BD7C0000202DE9F843F8
:105280002DE021480068C06805681F480068C068B4
:10529000C468201D00F0E7F92046616A8847E0698C
:1052A00001281CD1A0694619AE4207D96660246165
:1052B000211D1548006800F0FAF910E000200346AF
:1052C0002A4601460090204601F024FD07462FB9EA
:1052D00040F292320DA113A0FBF71EF800BF0A485E
:1052E0000068006808B9012000E000200028C8D04C
:1052F0000548D0F800800F480068034908600D4851
:10530000C0F80080BDE8F8836C0000202E2E5C46BB
:1053100072656552544F535C74696D6572732E6388
:10532000000000004572726F723A25732C25640DDF
:105330000A000000700000200B480068401C08B9FB
:10534000012000E0002020B9F42208A112A0FAF701
:10535000E3FF00BF502080F31188BFF34F8FBFF3EE
:105360006F8F00BF00BFFEE7980000202E2E5C4626
:1053700072656552544F535C706F727461626C65F4
:105380005C525644535C41524D5F434D335C706FE9
:1053900072742E63000000004572726F723A2573BA
:1053A0002C25640D0A00000070B5054600262C4629
:1053B0002DB940F281620EA112A0FAF7ADFF154996
:1053C0006069884201D1012000E0002070B11249DB
:1053D000A06A884201D1012000E0002030B9A06A13
:1053E00008B9012000E0002000B10126304670BD60
:1053F0002E2E5C4672656552544F535C7461736B1C
:10540000732E63004572726F723A25732C25640DFA
:105410000A0000000C060020E405002008B500BFCB
:105420006846FFF7CFFB044620460099FFF7BCFE15
:10543000FFF724FEF4E770B5044600F05FF994F935
:1054400045501AE0A06C38B100212046FFF786FDD8
:1054500088B100F0C3FB0EE0606A08B9012000E0EB
:10546000002038B904F1240001F018FB18B100F055
:10547000B5FB00E003E0681E45B2002DE2DC00BF92
:10548000FF2084F8450000F07DF900F037F994F929
:10549000445010E0206908B9012000E0002048B91C
:1054A00004F1100001F0FAFA08B100F097FB681E51
:1054B00045B200E001E0002DECDC00BFFF2084F8E5
:1054C000440000F05FF970BD2DE9F04104464FF053
:1054D000000800F08BFD3E48006808B9FFF786FB26
:1054E0003C480068204000285FD1A4B1083404F093
:1054F000070080B104F00700C0F10800044404F084
:10550000070008B9012000E0002020B9BF2232A125
:105510003BA0FAF701FF002C47D03D4800688442C9
:1055200043D83C4E3046056801E02E462D68686839
:10553000A04202D228680028F7D125480068854299
:1055400033D0306800F10808286830606868001BB4
:10555000102813D92F1907F0070008B9012000E01F
:10556000002020B9EC221CA125A0FAF7D5FE68681E
:10557000001B78606C603846FFF774FC244968684B
:105580000968081A22490860084600682249096823
:10559000884203D21E4800681F4908600D496868A8
:1055A0000968084368600020286001F0D1FA08F01B
:1055B000070008B9012000E0002028B94FF49672D6
:1055C00005A10FA0FAF7A8FE4046BDE8F081000053
:1055D00088000020940000202E2E5C4672656552E3
:1055E000544F535C706F727461626C655C4D656D95
:1055F0004D616E675C686561705F342E630000000A
:105600004572726F723A25732C25640D0A000000F2
:105610008C000020800000209000002006480068D8
:1056200030B10549096801F15400496D491C016018
:10563000014800687047000030000020001F4FF054
:1056400080730360001F21F001030360001F034B00
:105650000360143802602038704700003953000896
:1056600001604860704701460A69D1E901309860DD
:10567000D1E9010358605068884201D188685060C0
:10568000002008611068401E10601068704700F12B
:10569000080141604FF0FF31816000F10801C160F5
:1056A000016100210160704700210161704710B560
:1056B00002460B685C1C0CB9106907E002F1080097
:1056C00000E04068446824689C42FAD944684C6011
:1056D0004C68A160886041600A611468641C1460B1
:1056E00010BD42684A6093688B609368596091600E
:1056F000086103685B1C03607047000010B500BFC1
:10570000502080F31188BFF34F8FBFF36F8F00BF1E
:105710000B480068401C0A490860084600680128D8
:105720000DD108480068C0B208B9012000E000208F
:1057300028B94FF4BD7204A10EA0FAF7EDFD10BD1B
:105740009800002004ED00E02E2E5C467265655244
:10575000544F535C706F727461626C655C52564456
:10576000535C41524D5F434D335C706F72742E63D6
:10577000000000004572726F723A25732C25640D8B
:105780000A00000010B50B48006828B940F28112E9
:1057900009A114A0FAF7C0FD06480068401E05499B
:1057A00008600846006820B9002080F3118800BF17
:1057B00000BF10BD980000202E2E5C467265655219
:1057C000544F535C706F727461626C655C525644E6
:1057D000535C41524D5F434D335C706F72742E6366
:1057E000000000004572726F723A25732C25640D1B
:1057F0000A00000070B506463546002E35D0083D3B
:105800002C461A4960680968084008B1012000E088
:10581000002028B94FF4A07215A11FA0FAF77CFD53
:10582000206808B9012000E0002028B940F24112A8
:105830000FA119A0FAF770FD0C49606809680840CB
:1058400098B1206888B90949606809688843606030
:1058500000F0CCFB144960680968084412490860EC
:105860002046FFF7FFFA01F073F970BD94000020A5
:105870002E2E5C4672656552544F535C706F727485
:1058800061626C655C4D656D4D616E675C686561FC
:10589000705F342E630000004572726F723A257398
:1058A0002C25640D0A0000008C00002006480068CA
:1058B0004FF47A71B0FBF1F0401E4FF0E0214861E7
:1058C00007200861704700001C00002070B5FAF73F
:1058D000FDFC0546102D11D305F1E02090F8F043B2
:1058E00010480078844201DB012000E0002028B944
:1058F0004FF42A720CA117A0FAF70EFD19480068A0
:1059000000F4E06018490968884201D8012000E0ED
:10591000002028B94FF42E7203A10EA0FAF7FCFC68
:1059200070BD00009C0000202E2E5C467265655202
:10593000544F535C706F727461626C655C52564474
:10594000535C41524D5F434D335C706F72742E63F4
:10595000000000004572726F723A25732C25640DA9
:105960000A0000000CED00E0A0000020024600202C
:105970000BE0084B53F8303033B9064B43F8301086
:1059800003EBC0035A6002E0401C0828F1D300BFBB
:1059900070470000FC02002070B5044625462DB972
:1059A00040F25D6205A10AA0FAF7B6FC284600F0B5
:1059B00017F82846FFF71EFF70BD00002E2E5C462C
:1059C00072656552544F535C71756575652E630041
:1059D0004572726F723A25732C25640D0A0000001F
:1059E000014600200EE0094A02EBC00252688A42DA
:1059F00007D10022054B43F8302003EBC0035A6067
:105A000002E0401C0828EED300BF7047FC020020D3
:105A10002DE9F04105460E4617462C46FFF76EFE6F
:105A200094F94400401C10B9002084F8440094F913
:105A30004500401C10B9002084F84500FFF7A2FE85
:105A4000A06B28B93A46314604F1240000F0F6F87C
:105A50002046FFF7F0FCBDE8F081000070B5044679
:105A60000025ACB10F48006808B9012000E0002013
:105A700028B940F2CF420CA110A0FAF74DFC00F07B
:105A8000B5FA00212046FEF735FF01F061F8054622
:105A90003DB94FF080500D490860BFF34F8FBFF301
:105AA0006F8F70BD680000202E2E5C4672656552B7
:105AB000544F535C7461736B732E63004572726F45
:105AC000723A25732C25640D0A00000004ED00E0F5
:105AD00070B50546FFF712FE15B92D48006800E0C5
